{
  "contractName": "AaveProvider",
  "abi": [
    {
      "inputs": [
        {
          "internalType": "address",
          "name": "_lendingPoolAddress",
          "type": "address"
        }
      ],
      "stateMutability": "nonpayable",
      "type": "constructor"
    },
    {
      "anonymous": false,
      "inputs": [
        {
          "indexed": true,
          "internalType": "address",
          "name": "previousOwner",
          "type": "address"
        },
        {
          "indexed": true,
          "internalType": "address",
          "name": "newOwner",
          "type": "address"
        }
      ],
      "name": "OwnershipTransferred",
      "type": "event"
    },
    {
      "inputs": [
        {
          "internalType": "address",
          "name": "_reserve",
          "type": "address"
        }
      ],
      "name": "getAvaibleLiquidity",
      "outputs": [
        {
          "internalType": "uint256",
          "name": "",
          "type": "uint256"
        }
      ],
      "stateMutability": "view",
      "type": "function",
      "constant": true
    },
    {
      "inputs": [],
      "name": "owner",
      "outputs": [
        {
          "internalType": "address",
          "name": "",
          "type": "address"
        }
      ],
      "stateMutability": "view",
      "type": "function",
      "constant": true
    },
    {
      "inputs": [],
      "name": "renounceOwnership",
      "outputs": [],
      "stateMutability": "nonpayable",
      "type": "function"
    },
    {
      "inputs": [
        {
          "internalType": "address",
          "name": "newOwner",
          "type": "address"
        }
      ],
      "name": "transferOwnership",
      "outputs": [],
      "stateMutability": "nonpayable",
      "type": "function"
    },
    {
      "inputs": [
        {
          "internalType": "address",
          "name": "_reserve",
          "type": "address"
        },
        {
          "internalType": "address",
          "name": "_aTokenAddress",
          "type": "address"
        }
      ],
      "name": "addReserve",
      "outputs": [],
      "stateMutability": "nonpayable",
      "type": "function"
    },
    {
      "inputs": [
        {
          "internalType": "address",
          "name": "_reserve",
          "type": "address"
        },
        {
          "internalType": "uint256",
          "name": "_amount",
          "type": "uint256"
        }
      ],
      "name": "deposit",
      "outputs": [],
      "stateMutability": "payable",
      "type": "function",
      "payable": true
    },
    {
      "inputs": [
        {
          "internalType": "address",
          "name": "_reserve",
          "type": "address"
        },
        {
          "internalType": "address payable",
          "name": "_user",
          "type": "address"
        },
        {
          "internalType": "uint256",
          "name": "_amount",
          "type": "uint256"
        }
      ],
      "name": "redeemUnderlying",
      "outputs": [],
      "stateMutability": "nonpayable",
      "type": "function"
    },
    {
      "inputs": [],
      "name": "getReserves",
      "outputs": [
        {
          "internalType": "address[]",
          "name": "",
          "type": "address[]"
        }
      ],
      "stateMutability": "nonpayable",
      "type": "function"
    },
    {
      "inputs": [
        {
          "internalType": "address",
          "name": "_reserveAddress",
          "type": "address"
        }
      ],
      "name": "getReserveData",
      "outputs": [
        {
          "internalType": "uint256",
          "name": "totalLiquidity",
          "type": "uint256"
        },
        {
          "internalType": "uint256",
          "name": "availableLiquidity",
          "type": "uint256"
        },
        {
          "internalType": "uint256",
          "name": "totalBorrowsVariable",
          "type": "uint256"
        },
        {
          "internalType": "uint256",
          "name": "liquidityRate",
          "type": "uint256"
        },
        {
          "internalType": "uint256",
          "name": "variableBorrowRate",
          "type": "uint256"
        },
        {
          "internalType": "uint256",
          "name": "utilizationRate",
          "type": "uint256"
        },
        {
          "internalType": "uint256",
          "name": "liquidityIndex",
          "type": "uint256"
        },
        {
          "internalType": "uint256",
          "name": "variableBorrowIndex",
          "type": "uint256"
        },
        {
          "internalType": "address",
          "name": "aTokenAddress",
          "type": "address"
        },
        {
          "internalType": "uint40",
          "name": "lastUpdateTimestamp",
          "type": "uint40"
        }
      ],
      "stateMutability": "view",
      "type": "function",
      "constant": true
    },
    {
      "inputs": [
        {
          "internalType": "address",
          "name": "_reserveAddress",
          "type": "address"
        }
      ],
      "name": "getReserveLiquidityRate",
      "outputs": [
        {
          "internalType": "uint256",
          "name": "liquidityRate",
          "type": "uint256"
        }
      ],
      "stateMutability": "view",
      "type": "function",
      "constant": true
    },
    {
      "inputs": [
        {
          "internalType": "address",
          "name": "_reserveAddress",
          "type": "address"
        }
      ],
      "name": "getReserveBorrowRate",
      "outputs": [
        {
          "internalType": "uint256",
          "name": "variableBorrowRate",
          "type": "uint256"
        }
      ],
      "stateMutability": "view",
      "type": "function",
      "constant": true
    },
    {
      "inputs": [
        {
          "internalType": "address",
          "name": "_",
          "type": "address"
        }
      ],
      "name": "getReserveManagerForApprove",
      "outputs": [
        {
          "internalType": "address",
          "name": "",
          "type": "address"
        }
      ],
      "stateMutability": "view",
      "type": "function",
      "constant": true
    }
  ],
  "bytecode": "0x608060405234801561001057600080fd5b50604051611dc0380380611dc08339818101604052602081101561003357600080fd5b8101908080519060200190929190505050600061005461013960201b60201c565b9050806000806101000a81548173ffffffffffffffffffffffffffffffffffffffff021916908373ffffffffffffffffffffffffffffffffffffffff1602179055508073ffffffffffffffffffffffffffffffffffffffff16600073ffffffffffffffffffffffffffffffffffffffff167f8be0079c531659141344cd1fd0a4f28419497f9722a3daafe3b4186f6b6457e060405160405180910390a35080600360006101000a81548173ffffffffffffffffffffffffffffffffffffffff021916908373ffffffffffffffffffffffffffffffffffffffff16021790555050610141565b600033905090565b611c70806101506000396000f3fe6080604052600436106100a75760003560e01c8063684e505d11610064578063684e505d1461037f578063715018a6146103e45780638da5cb5b146103fb578063935642cf14610452578063a917d15a146104cd578063f2fde38b1461055e576100a7565b80630902f1ac146100ac578063197326211461011857806335ea6a7514610189578063476fe7901461026757806347e7ef24146102cc5780634be5c6a11461031a575b600080fd5b3480156100b857600080fd5b506100c16105af565b6040518080602001828103825283818151815260200191508051906020019060200280838360005b838110156101045780820151818401526020810190506100e9565b505050509050019250505060405180910390f35b34801561012457600080fd5b506101876004803603604081101561013b57600080fd5b81019080803573ffffffffffffffffffffffffffffffffffffffff169060200190929190803573ffffffffffffffffffffffffffffffffffffffff1690602001909291905050506106d8565b005b34801561019557600080fd5b506101d8600480360360208110156101ac57600080fd5b81019080803573ffffffffffffffffffffffffffffffffffffffff16906020019092919050505061075a565b604051808b81526020018a81526020018981526020018881526020018781526020018681526020018581526020018481526020018373ffffffffffffffffffffffffffffffffffffffff1673ffffffffffffffffffffffffffffffffffffffff1681526020018264ffffffffff1664ffffffffff1681526020019a505050505050505050505060405180910390f35b34801561027357600080fd5b506102b66004803603602081101561028a57600080fd5b81019080803573ffffffffffffffffffffffffffffffffffffffff1690602001909291905050506107b0565b6040518082815260200191505060405180910390f35b610318600480360360408110156102e257600080fd5b81019080803573ffffffffffffffffffffffffffffffffffffffff169060200190929190803590602001909291905050506107f9565b005b34801561032657600080fd5b506103696004803603602081101561033d57600080fd5b81019080803573ffffffffffffffffffffffffffffffffffffffff16906020019092919050505061099f565b6040518082815260200191505060405180910390f35b34801561038b57600080fd5b506103ce600480360360208110156103a257600080fd5b81019080803573ffffffffffffffffffffffffffffffffffffffff169060200190929190505050610b35565b6040518082815260200191505060405180910390f35b3480156103f057600080fd5b506103f9610ccc565b005b34801561040757600080fd5b50610410610e54565b604051808273ffffffffffffffffffffffffffffffffffffffff1673ffffffffffffffffffffffffffffffffffffffff16815260200191505060405180910390f35b34801561045e57600080fd5b506104cb6004803603606081101561047557600080fd5b81019080803573ffffffffffffffffffffffffffffffffffffffff169060200190929190803573ffffffffffffffffffffffffffffffffffffffff16906020019092919080359060200190929190505050610e7d565b005b3480156104d957600080fd5b5061051c600480360360208110156104f057600080fd5b81019080803573ffffffffffffffffffffffffffffffffffffffff169060200190929190505050611067565b604051808273ffffffffffffffffffffffffffffffffffffffff1673ffffffffffffffffffffffffffffffffffffffff16815260200191505060405180910390f35b34801561056a57600080fd5b506105ad6004803603602081101561058157600080fd5b81019080803573ffffffffffffffffffffffffffffffffffffffff169060200190929190505050611078565b005b60606105b9611285565b73ffffffffffffffffffffffffffffffffffffffff16630902f1ac6040518163ffffffff1660e01b815260040160006040518083038186803b1580156105fe57600080fd5b505afa158015610612573d6000803e3d6000fd5b505050506040513d6000823e3d601f19601f82011682018060405250602081101561063c57600080fd5b810190808051604051939291908464010000000082111561065c57600080fd5b8382019150602082018581111561067257600080fd5b825186602082028301116401000000008211171561068f57600080fd5b8083526020830192505050908051906020019060200280838360005b838110156106c65780820151818401526020810190506106ab565b50505050905001604052505050905090565b80600560008473ffffffffffffffffffffffffffffffffffffffff1673ffffffffffffffffffffffffffffffffffffffff16815260200190815260200160002060006101000a81548173ffffffffffffffffffffffffffffffffffffffff021916908373ffffffffffffffffffffffffffffffffffffffff1602179055505050565b6000806000806000806000806000806107728b6112af565b809a50819b50829c50839d50849e50505050505061078f8b611434565b80955081965082975083985084995050505050509193959799509193959799565b6000600260008373ffffffffffffffffffffffffffffffffffffffff1673ffffffffffffffffffffffffffffffffffffffff168152602001908152602001600020549050919050565b8173ffffffffffffffffffffffffffffffffffffffff1663095ea7b3600360009054906101000a900473ffffffffffffffffffffffffffffffffffffffff16836040518363ffffffff1660e01b8152600401808373ffffffffffffffffffffffffffffffffffffffff1673ffffffffffffffffffffffffffffffffffffffff16815260200182815260200192505050602060405180830381600087803b1580156108a257600080fd5b505af11580156108b6573d6000803e3d6000fd5b505050506040513d60208110156108cc57600080fd5b8101908080519060200190929190505050506108e6611285565b73ffffffffffffffffffffffffffffffffffffffff1663d2d0e066838360006040518463ffffffff1660e01b8152600401808473ffffffffffffffffffffffffffffffffffffffff1673ffffffffffffffffffffffffffffffffffffffff1681526020018381526020018261ffff1681526020019350505050600060405180830381600087803b15801561097957600080fd5b505af115801561098d573d6000803e3d6000fd5b5050505061099b82826115de565b5050565b60006109a9611285565b73ffffffffffffffffffffffffffffffffffffffff166335ea6a75836040518263ffffffff1660e01b8152600401808273ffffffffffffffffffffffffffffffffffffffff1673ffffffffffffffffffffffffffffffffffffffff1681526020019150506101a06040518083038186803b158015610a2657600080fd5b505afa158015610a3a573d6000803e3d6000fd5b505050506040513d6101a0811015610a5157600080fd5b8101908080519060200190929190805190602001909291908051906020019092919080519060200190929190805190602001909291908051906020019092919080519060200190929190805190602001909291908051906020019092919080519060200190929190805190602001909291908051906020019092919080519060200190929190505050909192939495969798999a9b50909192939495969798999a5090919293949596979899509091929394959697985090919293949596509091929394955090919293945090919293509091925090915090505080915050919050565b6000610b3f611285565b73ffffffffffffffffffffffffffffffffffffffff166335ea6a75836040518263ffffffff1660e01b8152600401808273ffffffffffffffffffffffffffffffffffffffff1673ffffffffffffffffffffffffffffffffffffffff1681526020019150506101a06040518083038186803b158015610bbc57600080fd5b505afa158015610bd0573d6000803e3d6000fd5b505050506040513d6101a0811015610be757600080fd5b8101908080519060200190929190805190602001909291908051906020019092919080519060200190929190805190602001909291908051906020019092919080519060200190929190805190602001909291908051906020019092919080519060200190929190805190602001909291908051906020019092919080519060200190929190505050909192939495969798999a9b50909192939495969798999a509091929394959697989950909192939495969798509091929394959697509091929394955090919293945090919293509091925090915090505080915050919050565b610cd461167c565b73ffffffffffffffffffffffffffffffffffffffff166000809054906101000a900473ffffffffffffffffffffffffffffffffffffffff1673ffffffffffffffffffffffffffffffffffffffff1614610d95576040517f08c379a00000000000000000000000000000000000000000000000000000000081526004018080602001828103825260208152602001807f4f776e61626c653a2063616c6c6572206973206e6f7420746865206f776e657281525060200191505060405180910390fd5b600073ffffffffffffffffffffffffffffffffffffffff166000809054906101000a900473ffffffffffffffffffffffffffffffffffffffff1673ffffffffffffffffffffffffffffffffffffffff167f8be0079c531659141344cd1fd0a4f28419497f9722a3daafe3b4186f6b6457e060405160405180910390a360008060006101000a81548173ffffffffffffffffffffffffffffffffffffffff021916908373ffffffffffffffffffffffffffffffffffffffff160217905550565b60008060009054906101000a900473ffffffffffffffffffffffffffffffffffffffff16905090565b600073ffffffffffffffffffffffffffffffffffffffff16600560008573ffffffffffffffffffffffffffffffffffffffff1673ffffffffffffffffffffffffffffffffffffffff16815260200190815260200160002060009054906101000a900473ffffffffffffffffffffffffffffffffffffffff1673ffffffffffffffffffffffffffffffffffffffff161415610f62576040517f08c379a0000000000000000000000000000000000000000000000000000000008152600401808060200182810382526031815260200180611be06031913960400191505060405180910390fd5b600560008473ffffffffffffffffffffffffffffffffffffffff1673ffffffffffffffffffffffffffffffffffffffff16815260200190815260200160002060009054906101000a900473ffffffffffffffffffffffffffffffffffffffff1673ffffffffffffffffffffffffffffffffffffffff1663db006a75826040518263ffffffff1660e01b815260040180828152602001915050600060405180830381600087803b15801561101457600080fd5b505af1158015611028573d6000803e3d6000fd5b5050505061105782828573ffffffffffffffffffffffffffffffffffffffff166116849092919063ffffffff16565b61106283838361173c565b505050565b6000611071611285565b9050919050565b61108061167c565b73ffffffffffffffffffffffffffffffffffffffff166000809054906101000a900473ffffffffffffffffffffffffffffffffffffffff1673ffffffffffffffffffffffffffffffffffffffff1614611141576040517f08c379a00000000000000000000000000000000000000000000000000000000081526004018080602001828103825260208152602001807f4f776e61626c653a2063616c6c6572206973206e6f7420746865206f776e657281525060200191505060405180910390fd5b600073ffffffffffffffffffffffffffffffffffffffff168173ffffffffffffffffffffffffffffffffffffffff1614156111c7576040517f08c379a0000000000000000000000000000000000000000000000000000000008152600401808060200182810382526026815260200180611b946026913960400191505060405180910390fd5b8073ffffffffffffffffffffffffffffffffffffffff166000809054906101000a900473ffffffffffffffffffffffffffffffffffffffff1673ffffffffffffffffffffffffffffffffffffffff167f8be0079c531659141344cd1fd0a4f28419497f9722a3daafe3b4186f6b6457e060405160405180910390a3806000806101000a81548173ffffffffffffffffffffffffffffffffffffffff021916908373ffffffffffffffffffffffffffffffffffffffff16021790555050565b6000600360009054906101000a900473ffffffffffffffffffffffffffffffffffffffff16905090565b60008060008060006112bf611285565b73ffffffffffffffffffffffffffffffffffffffff166335ea6a75876040518263ffffffff1660e01b8152600401808273ffffffffffffffffffffffffffffffffffffffff1673ffffffffffffffffffffffffffffffffffffffff1681526020019150506101a06040518083038186803b15801561133c57600080fd5b505afa158015611350573d6000803e3d6000fd5b505050506040513d6101a081101561136757600080fd5b8101908080519060200190929190805190602001909291908051906020019092919080519060200190929190805190602001909291908051906020019092919080519060200190929190805190602001909291908051906020019092919080519060200190929190805190602001909291908051906020019092919080519060200190929190505050909192939495969798995090919293949550909192939450909192935090919250909150905050809550819650829750839850849950505050505091939590929450565b6000806000806000611444611285565b73ffffffffffffffffffffffffffffffffffffffff166335ea6a75876040518263ffffffff1660e01b8152600401808273ffffffffffffffffffffffffffffffffffffffff1673ffffffffffffffffffffffffffffffffffffffff1681526020019150506101a06040518083038186803b1580156114c157600080fd5b505afa1580156114d5573d6000803e3d6000fd5b505050506040513d6101a08110156114ec57600080fd5b8101908080519060200190929190805190602001909291908051906020019092919080519060200190929190805190602001909291908051906020019092919080519060200190929190805190602001909291908051906020019092919080519060200190929190805190602001909291908051906020019092919080519060200190929190505050909192939495969798999a9b50909192939495969798999a50909192939495969798995090919293949596979850909192939495969750909192939495965090919293949550909192939450809550819650829750839850849950505050505091939590929450565b80600160008473ffffffffffffffffffffffffffffffffffffffff1673ffffffffffffffffffffffffffffffffffffffff1681526020019081526020016000206000828254019250508190555080600260008473ffffffffffffffffffffffffffffffffffffffff1673ffffffffffffffffffffffffffffffffffffffff168152602001908152602001600020600082825401925050819055505050565b600033905090565b6117378363a9059cbb60e01b8484604051602401808373ffffffffffffffffffffffffffffffffffffffff1673ffffffffffffffffffffffffffffffffffffffff16815260200182815260200192505050604051602081830303815290604052907bffffffffffffffffffffffffffffffffffffffffffffffffffffffff19166020820180517bffffffffffffffffffffffffffffffffffffffffffffffffffffffff8381831617835250505050611873565b505050565b80600260008573ffffffffffffffffffffffffffffffffffffffff1673ffffffffffffffffffffffffffffffffffffffff1681526020019081526020016000205410156117d4576040517f08c379a0000000000000000000000000000000000000000000000000000000008152600401808060200182810382526026815260200180611bba6026913960400191505060405180910390fd5b80600160008573ffffffffffffffffffffffffffffffffffffffff1673ffffffffffffffffffffffffffffffffffffffff1681526020019081526020016000206000828254039250508190555080600260008573ffffffffffffffffffffffffffffffffffffffff1673ffffffffffffffffffffffffffffffffffffffff16815260200190815260200160002060008282540392505081905550505050565b60606118d5826040518060400160405280602081526020017f5361666545524332303a206c6f772d6c6576656c2063616c6c206661696c65648152508573ffffffffffffffffffffffffffffffffffffffff166119629092919063ffffffff16565b905060008151111561195d578080602001905160208110156118f657600080fd5b810190808051906020019092919050505061195c576040517f08c379a000000000000000000000000000000000000000000000000000000000815260040180806020018281038252602a815260200180611c11602a913960400191505060405180910390fd5b5b505050565b6060611971848460008561197a565b90509392505050565b606061198585611b80565b6119f7576040517f08c379a000000000000000000000000000000000000000000000000000000000815260040180806020018281038252601d8152602001807f416464726573733a2063616c6c20746f206e6f6e2d636f6e747261637400000081525060200191505060405180910390fd5b600060608673ffffffffffffffffffffffffffffffffffffffff1685876040518082805190602001908083835b60208310611a475780518252602082019150602081019050602083039250611a24565b6001836020036101000a03801982511681845116808217855250505050505090500191505060006040518083038185875af1925050503d8060008114611aa9576040519150601f19603f3d011682016040523d82523d6000602084013e611aae565b606091505b50915091508115611ac3578092505050611b78565b600081511115611ad65780518082602001fd5b836040517f08c379a00000000000000000000000000000000000000000000000000000000081526004018080602001828103825283818151815260200191508051906020019080838360005b83811015611b3d578082015181840152602081019050611b22565b50505050905090810190601f168015611b6a5780820380516001836020036101000a031916815260200191505b509250505060405180910390fd5b949350505050565b600080823b90506000811191505091905056fe4f776e61626c653a206e6577206f776e657220697320746865207a65726f2061646472657373416273747261637450726f76696465723a204e6f7420656e6f756768206c69717569646974794161766150726f76696465723a2061546f6b656e20646f65736e27742073657420666f72207468697320726573657276655361666545524332303a204552433230206f7065726174696f6e20646964206e6f742073756363656564a264697066735822122010818c30f5ae9263a01efe7ee48818b43137c5a430fbffddb2906a0d9e4c5c0464736f6c634300060a0033",
  "immutableReferences": {},
  "source": "// SPDX-License-Identifier: agpl-3.0\npragma solidity ^0.6.10;\n\nimport \"../lib/SafeERC20.sol\";\nimport \"../lib/EthAddressLib.sol\";\nimport \"./aave-protocol/ATokenMock.sol\";\nimport \"./AbstractProvider.sol\";\nimport \"./aave-protocol/IAaveLendingPool.sol\";\nimport \"./aave-protocol/ILendingPoolCore.sol\";\n\ncontract AaveProvider is AbstractProvider {\n  using SafeERC20 for ERC20;\n  address private lendingPoolAddress;\n  AToken private aToken;\n\n  mapping(address => AToken) aTokens;\n\n  // address private lendingPoolCoreAddress;\n\n  constructor(address _lendingPoolAddress) public {\n    lendingPoolAddress = _lendingPoolAddress;\n  }\n\n  function addReserve(address _reserve, address _aTokenAddress) external {\n    aTokens[_reserve] = AToken(_aTokenAddress);\n  }\n\n  // Deposit money to provider pool\n  function deposit(address _reserve, uint256 _amount) public override payable {\n    ERC20(_reserve).approve(lendingPoolAddress, _amount);\n    getLendingPool().deposit(_reserve, _amount, 0);\n    super.deposit(_reserve, _amount);\n  }\n\n  function redeemUnderlying(\n    address _reserve,\n    address payable _user,\n    uint256 _amount\n  ) public virtual override {\n    require(\n      address(aTokens[_reserve]) != address(0),\n      \"AavaProvider: aToken doesn't set for this reserve\"\n    );\n\n    // Redeem tokens from AToken contract to this one\n    aTokens[_reserve].redeem(_amount);\n\n    // Transfer tokens to user\n    ERC20(_reserve).safeTransfer(_user, _amount);\n\n    // getLendingPool().redeemUnderlying(_reserve, _user, _amount, 0);\n    super.redeemUnderlying(_reserve, _user, _amount);\n  }\n\n  /**\n   * @dev transfers to the user a specific amount from the reserve.\n   * @param _reserve the address of the reserve where the transfer is happening\n   * @param _user the address of the user receiving the transfer\n   * @param _amount the amount being transferred\n   **/\n  function transferToUser(\n    address _reserve,\n    address payable _user,\n    uint256 _amount\n  ) internal {\n    if (_reserve != EthAddressLib.ethAddress()) {\n      ERC20(_reserve).safeTransfer(_user, _amount);\n    } else {\n      //solium-disable-next-line\n      (bool result, ) = _user.call.value(_amount).gas(50000)(\"\");\n      require(result, \"Transfer of ETH failed\");\n    }\n  }\n\n  function getReserves() external override returns (address[] memory) {\n    return getLendingPool().getReserves();\n  }\n\n  function getLendingPool() internal view returns (IAaveLendingPool) {\n    return IAaveLendingPool(lendingPoolAddress);\n  }\n\n  // function getLendingPoolCore() internal view returns (ILendingPoolCore) {\n  //     return ILendingPoolCore(lendingPoolCoreAddress);\n  // }\n\n  function getReserveData(address _reserveAddress)\n    external\n    override\n    view\n    returns (\n      uint256 totalLiquidity,\n      uint256 availableLiquidity,\n      uint256 totalBorrowsVariable,\n      uint256 liquidityRate,\n      uint256 variableBorrowRate,\n      uint256 utilizationRate,\n      uint256 liquidityIndex,\n      uint256 variableBorrowIndex,\n      address aTokenAddress,\n      uint40 lastUpdateTimestamp\n    )\n  {\n    (\n      totalLiquidity,\n      availableLiquidity,\n      totalBorrowsVariable,\n      liquidityRate,\n      variableBorrowRate\n\n    ) = getReserveLiquidityAndRates(_reserveAddress);\n\n    (\n      utilizationRate,\n      liquidityIndex,\n      variableBorrowIndex,\n      aTokenAddress,\n      lastUpdateTimestamp\n    ) = getReserveIndexes(_reserveAddress);\n  }\n\n  function getReserveLiquidityAndRates(address _reserve)\n    internal\n    view\n    returns (\n      uint256 totalLiquidity,\n      uint256 availableLiquidity,\n      uint256 totalBorrowsVariable,\n      uint256 liquidityRate,\n      uint256 variableBorrowRate\n    )\n  {\n    (\n      totalLiquidity,\n      availableLiquidity,\n      ,\n      totalBorrowsVariable,\n      liquidityRate,\n      variableBorrowRate,\n      ,\n      ,\n      ,\n      ,\n      ,\n      ,\n\n    ) = getLendingPool().getReserveData(_reserve);\n  }\n\n  function getReserveIndexes(address _reserve)\n    internal\n    view\n    returns (\n      uint256 utilizationRate,\n      uint256 liquidityIndex,\n      uint256 variableBorrowIndex,\n      address aTokenAddress,\n      uint40 lastUpdateTimestamp\n    )\n  {\n    (\n      ,\n      ,\n      ,\n      ,\n      ,\n      ,\n      ,\n      ,\n      utilizationRate,\n      liquidityIndex,\n      variableBorrowIndex,\n      aTokenAddress,\n      lastUpdateTimestamp\n    ) = getLendingPool().getReserveData(_reserve);\n  }\n\n  function getReserveLiquidityRate(address _reserveAddress)\n    external\n    override\n    view\n    returns (uint256 liquidityRate)\n  {\n    (, , , , liquidityRate, , , , , , , , ) = getLendingPool().getReserveData(\n      _reserveAddress\n    );\n  }\n\n  function getReserveBorrowRate(address _reserveAddress)\n    external\n    override\n    view\n    returns (uint256 variableBorrowRate)\n  {\n    (, , , , , variableBorrowRate, , , , , , , ) = getLendingPool()\n      .getReserveData(_reserveAddress);\n  }\n\n  function getReserveManagerForApprove(address _)\n    external\n    override\n    view\n    returns (address)\n  {\n    return address(getLendingPool());\n  }\n}\n",
  "sourcePath": "/Users/mikhail/Coding/jucifi/contracts/providers/AaveProvider.sol",
  "compiler": {
    "name": "solc",
    "version": "0.6.10+commit.00c0fcaf.Emscripten.clang"
  },
  "schemaVersion": "3.2.5",
  "updatedAt": "2020-10-22T10:02:13.117Z",
  "networkType": "ethereum",
  "devdoc": {
    "methods": {
      "owner()": {
        "details": "Returns the address of the current owner."
      },
      "renounceOwnership()": {
        "details": "Leaves the contract without owner. It will not be possible to call `onlyOwner` functions anymore. Can only be called by the current owner. NOTE: Renouncing ownership will leave the contract without an owner, thereby removing any functionality that is only available to the owner."
      },
      "transferOwnership(address)": {
        "details": "Transfers ownership of the contract to a new account (`newOwner`). Can only be called by the current owner."
      }
    }
  },
  "userdoc": {
    "methods": {}
  }
}