{
  "contractName": "AaveLendingPoolMock",
  "abi": [
    {
      "anonymous": false,
      "inputs": [
        {
          "indexed": true,
          "internalType": "address",
          "name": "_reserve",
          "type": "address"
        },
        {
          "indexed": true,
          "internalType": "address",
          "name": "_user",
          "type": "address"
        },
        {
          "indexed": false,
          "internalType": "uint256",
          "name": "_amount",
          "type": "uint256"
        },
        {
          "indexed": false,
          "internalType": "uint256",
          "name": "_borrowRateMode",
          "type": "uint256"
        },
        {
          "indexed": false,
          "internalType": "uint256",
          "name": "_borrowRate",
          "type": "uint256"
        },
        {
          "indexed": false,
          "internalType": "uint256",
          "name": "_originationFee",
          "type": "uint256"
        },
        {
          "indexed": false,
          "internalType": "uint256",
          "name": "_borrowBalanceIncrease",
          "type": "uint256"
        },
        {
          "indexed": true,
          "internalType": "uint16",
          "name": "_referral",
          "type": "uint16"
        },
        {
          "indexed": false,
          "internalType": "uint256",
          "name": "_timestamp",
          "type": "uint256"
        }
      ],
      "name": "Borrow",
      "type": "event"
    },
    {
      "anonymous": false,
      "inputs": [
        {
          "indexed": true,
          "internalType": "address",
          "name": "_reserve",
          "type": "address"
        },
        {
          "indexed": true,
          "internalType": "address",
          "name": "_user",
          "type": "address"
        },
        {
          "indexed": false,
          "internalType": "uint256",
          "name": "_amount",
          "type": "uint256"
        },
        {
          "indexed": true,
          "internalType": "uint16",
          "name": "_referral",
          "type": "uint16"
        },
        {
          "indexed": false,
          "internalType": "uint256",
          "name": "_timestamp",
          "type": "uint256"
        }
      ],
      "name": "Deposit",
      "type": "event"
    },
    {
      "anonymous": false,
      "inputs": [
        {
          "indexed": true,
          "internalType": "address",
          "name": "_reserve",
          "type": "address"
        },
        {
          "indexed": true,
          "internalType": "address",
          "name": "_user",
          "type": "address"
        },
        {
          "indexed": false,
          "internalType": "uint256",
          "name": "_amount",
          "type": "uint256"
        },
        {
          "indexed": true,
          "internalType": "uint16",
          "name": "_referral",
          "type": "uint16"
        },
        {
          "indexed": false,
          "internalType": "uint256",
          "name": "_timestamp",
          "type": "uint256"
        },
        {
          "indexed": false,
          "internalType": "string",
          "name": "_mockId",
          "type": "string"
        }
      ],
      "name": "DepositMock",
      "type": "event"
    },
    {
      "anonymous": false,
      "inputs": [
        {
          "indexed": true,
          "internalType": "address",
          "name": "_collateral",
          "type": "address"
        },
        {
          "indexed": true,
          "internalType": "address",
          "name": "_reserve",
          "type": "address"
        },
        {
          "indexed": true,
          "internalType": "address",
          "name": "_user",
          "type": "address"
        },
        {
          "indexed": false,
          "internalType": "uint256",
          "name": "_purchaseAmount",
          "type": "uint256"
        },
        {
          "indexed": false,
          "internalType": "uint256",
          "name": "_liquidatedCollateralAmount",
          "type": "uint256"
        },
        {
          "indexed": false,
          "internalType": "uint256",
          "name": "_accruedBorrowInterest",
          "type": "uint256"
        },
        {
          "indexed": false,
          "internalType": "address",
          "name": "_liquidator",
          "type": "address"
        },
        {
          "indexed": false,
          "internalType": "bool",
          "name": "_receiveAToken",
          "type": "bool"
        },
        {
          "indexed": false,
          "internalType": "uint256",
          "name": "_timestamp",
          "type": "uint256"
        }
      ],
      "name": "LiquidationCall",
      "type": "event"
    },
    {
      "anonymous": false,
      "inputs": [
        {
          "indexed": true,
          "internalType": "address",
          "name": "_collateral",
          "type": "address"
        },
        {
          "indexed": true,
          "internalType": "address",
          "name": "_reserve",
          "type": "address"
        },
        {
          "indexed": true,
          "internalType": "address",
          "name": "_user",
          "type": "address"
        },
        {
          "indexed": false,
          "internalType": "uint256",
          "name": "_feeLiquidated",
          "type": "uint256"
        },
        {
          "indexed": false,
          "internalType": "uint256",
          "name": "_liquidatedCollateralForFee",
          "type": "uint256"
        },
        {
          "indexed": false,
          "internalType": "uint256",
          "name": "_timestamp",
          "type": "uint256"
        }
      ],
      "name": "OriginationFeeLiquidated",
      "type": "event"
    },
    {
      "anonymous": false,
      "inputs": [
        {
          "indexed": true,
          "internalType": "address",
          "name": "_reserve",
          "type": "address"
        },
        {
          "indexed": true,
          "internalType": "address",
          "name": "_user",
          "type": "address"
        },
        {
          "indexed": false,
          "internalType": "uint256",
          "name": "_newStableRate",
          "type": "uint256"
        },
        {
          "indexed": false,
          "internalType": "uint256",
          "name": "_borrowBalanceIncrease",
          "type": "uint256"
        },
        {
          "indexed": false,
          "internalType": "uint256",
          "name": "_timestamp",
          "type": "uint256"
        }
      ],
      "name": "RebalanceStableBorrowRate",
      "type": "event"
    },
    {
      "anonymous": false,
      "inputs": [
        {
          "indexed": true,
          "internalType": "address",
          "name": "_reserve",
          "type": "address"
        },
        {
          "indexed": true,
          "internalType": "address",
          "name": "_user",
          "type": "address"
        },
        {
          "indexed": false,
          "internalType": "uint256",
          "name": "_amount",
          "type": "uint256"
        },
        {
          "indexed": false,
          "internalType": "uint256",
          "name": "_timestamp",
          "type": "uint256"
        },
        {
          "indexed": false,
          "internalType": "string",
          "name": "_mockId",
          "type": "string"
        }
      ],
      "name": "RedeemMock",
      "type": "event"
    },
    {
      "anonymous": false,
      "inputs": [
        {
          "indexed": true,
          "internalType": "address",
          "name": "_reserve",
          "type": "address"
        },
        {
          "indexed": true,
          "internalType": "address",
          "name": "_user",
          "type": "address"
        },
        {
          "indexed": false,
          "internalType": "uint256",
          "name": "_amount",
          "type": "uint256"
        },
        {
          "indexed": false,
          "internalType": "uint256",
          "name": "_timestamp",
          "type": "uint256"
        }
      ],
      "name": "RedeemUnderlying",
      "type": "event"
    },
    {
      "anonymous": false,
      "inputs": [
        {
          "indexed": true,
          "internalType": "address",
          "name": "_reserve",
          "type": "address"
        },
        {
          "indexed": true,
          "internalType": "address",
          "name": "_user",
          "type": "address"
        },
        {
          "indexed": true,
          "internalType": "address",
          "name": "_repayer",
          "type": "address"
        },
        {
          "indexed": false,
          "internalType": "uint256",
          "name": "_amountMinusFees",
          "type": "uint256"
        },
        {
          "indexed": false,
          "internalType": "uint256",
          "name": "_fees",
          "type": "uint256"
        },
        {
          "indexed": false,
          "internalType": "uint256",
          "name": "_borrowBalanceIncrease",
          "type": "uint256"
        },
        {
          "indexed": false,
          "internalType": "uint256",
          "name": "_timestamp",
          "type": "uint256"
        }
      ],
      "name": "Repay",
      "type": "event"
    },
    {
      "anonymous": false,
      "inputs": [
        {
          "indexed": true,
          "internalType": "address",
          "name": "_reserve",
          "type": "address"
        },
        {
          "indexed": true,
          "internalType": "address",
          "name": "_user",
          "type": "address"
        }
      ],
      "name": "ReserveUsedAsCollateralDisabled",
      "type": "event"
    },
    {
      "anonymous": false,
      "inputs": [
        {
          "indexed": true,
          "internalType": "address",
          "name": "_reserve",
          "type": "address"
        },
        {
          "indexed": true,
          "internalType": "address",
          "name": "_user",
          "type": "address"
        }
      ],
      "name": "ReserveUsedAsCollateralEnabled",
      "type": "event"
    },
    {
      "anonymous": false,
      "inputs": [
        {
          "indexed": true,
          "internalType": "address",
          "name": "_reserve",
          "type": "address"
        },
        {
          "indexed": true,
          "internalType": "address",
          "name": "_user",
          "type": "address"
        },
        {
          "indexed": false,
          "internalType": "uint256",
          "name": "_newRateMode",
          "type": "uint256"
        },
        {
          "indexed": false,
          "internalType": "uint256",
          "name": "_newRate",
          "type": "uint256"
        },
        {
          "indexed": false,
          "internalType": "uint256",
          "name": "_borrowBalanceIncrease",
          "type": "uint256"
        },
        {
          "indexed": false,
          "internalType": "uint256",
          "name": "_timestamp",
          "type": "uint256"
        }
      ],
      "name": "Swap",
      "type": "event"
    },
    {
      "inputs": [
        {
          "internalType": "string",
          "name": "_mockId",
          "type": "string"
        }
      ],
      "name": "setMockId",
      "outputs": [],
      "stateMutability": "nonpayable",
      "type": "function"
    },
    {
      "inputs": [
        {
          "internalType": "address",
          "name": "_reserve",
          "type": "address"
        },
        {
          "internalType": "uint256",
          "name": "_amount",
          "type": "uint256"
        },
        {
          "internalType": "uint16",
          "name": "_referralCode",
          "type": "uint16"
        }
      ],
      "name": "deposit",
      "outputs": [],
      "stateMutability": "payable",
      "type": "function",
      "payable": true
    },
    {
      "inputs": [
        {
          "internalType": "address",
          "name": "_reserve",
          "type": "address"
        },
        {
          "internalType": "address payable",
          "name": "_user",
          "type": "address"
        },
        {
          "internalType": "uint256",
          "name": "_amount",
          "type": "uint256"
        },
        {
          "internalType": "uint256",
          "name": "_aTokenBalanceAfterRedeem",
          "type": "uint256"
        }
      ],
      "name": "redeemUnderlying",
      "outputs": [],
      "stateMutability": "nonpayable",
      "type": "function"
    },
    {
      "inputs": [
        {
          "internalType": "address",
          "name": "_reserve",
          "type": "address"
        },
        {
          "internalType": "address payable",
          "name": "_user",
          "type": "address"
        },
        {
          "internalType": "uint256",
          "name": "_amount",
          "type": "uint256"
        }
      ],
      "name": "transferToReserve",
      "outputs": [],
      "stateMutability": "payable",
      "type": "function",
      "payable": true
    },
    {
      "inputs": [
        {
          "internalType": "address",
          "name": "_reserveAddress",
          "type": "address"
        },
        {
          "internalType": "uint256",
          "name": "_totalLiquidity",
          "type": "uint256"
        },
        {
          "internalType": "uint256",
          "name": "_availableLiquidity",
          "type": "uint256"
        },
        {
          "internalType": "uint256",
          "name": "_totalBorrowsStable",
          "type": "uint256"
        },
        {
          "internalType": "uint256",
          "name": "_totalBorrowsVariable",
          "type": "uint256"
        },
        {
          "internalType": "uint256",
          "name": "_liquidityRate",
          "type": "uint256"
        },
        {
          "internalType": "uint256",
          "name": "_variableBorrowRate",
          "type": "uint256"
        },
        {
          "internalType": "uint256",
          "name": "_stableBorrowRate",
          "type": "uint256"
        },
        {
          "internalType": "uint256",
          "name": "_averageStableBorrowRate",
          "type": "uint256"
        },
        {
          "internalType": "uint256",
          "name": "_utilizationRate",
          "type": "uint256"
        },
        {
          "internalType": "uint256",
          "name": "_liquidityIndex",
          "type": "uint256"
        },
        {
          "internalType": "uint256",
          "name": "_variableBorrowIndex",
          "type": "uint256"
        },
        {
          "internalType": "address",
          "name": "_aTokenAddress",
          "type": "address"
        },
        {
          "internalType": "uint40",
          "name": "_lastUpdateTimestamp",
          "type": "uint40"
        }
      ],
      "name": "setReserve",
      "outputs": [],
      "stateMutability": "nonpayable",
      "type": "function"
    },
    {
      "inputs": [],
      "name": "getReserves",
      "outputs": [
        {
          "internalType": "address[]",
          "name": "",
          "type": "address[]"
        }
      ],
      "stateMutability": "view",
      "type": "function",
      "constant": true
    },
    {
      "inputs": [
        {
          "internalType": "address",
          "name": "_reserveAddress",
          "type": "address"
        }
      ],
      "name": "getReserveData",
      "outputs": [
        {
          "internalType": "uint256",
          "name": "totalLiquidity",
          "type": "uint256"
        },
        {
          "internalType": "uint256",
          "name": "availableLiquidity",
          "type": "uint256"
        },
        {
          "internalType": "uint256",
          "name": "totalBorrowsStable",
          "type": "uint256"
        },
        {
          "internalType": "uint256",
          "name": "totalBorrowsVariable",
          "type": "uint256"
        },
        {
          "internalType": "uint256",
          "name": "liquidityRate",
          "type": "uint256"
        },
        {
          "internalType": "uint256",
          "name": "variableBorrowRate",
          "type": "uint256"
        },
        {
          "internalType": "uint256",
          "name": "stableBorrowRate",
          "type": "uint256"
        },
        {
          "internalType": "uint256",
          "name": "averageStableBorrowRate",
          "type": "uint256"
        },
        {
          "internalType": "uint256",
          "name": "utilizationRate",
          "type": "uint256"
        },
        {
          "internalType": "uint256",
          "name": "liquidityIndex",
          "type": "uint256"
        },
        {
          "internalType": "uint256",
          "name": "variableBorrowIndex",
          "type": "uint256"
        },
        {
          "internalType": "address",
          "name": "aTokenAddress",
          "type": "address"
        },
        {
          "internalType": "uint40",
          "name": "lastUpdateTimestamp",
          "type": "uint40"
        }
      ],
      "stateMutability": "view",
      "type": "function",
      "constant": true
    }
  ],
  "bytecode": "0x608060405234801561001057600080fd5b506119b8806100206000396000f3fe6080604052600436106100705760003560e01c80637ead310b1161004e5780637ead310b146102425780639895e3d81461030a5780639c9d92331461038f578063d2d0e0661461048057610070565b80630902f1ac1461007557806328fcf4d3146100e157806335ea6a751461014f575b600080fd5b34801561008157600080fd5b5061008a6104dc565b6040518080602001828103825283818151815260200191508051906020019060200280838360005b838110156100cd5780820151818401526020810190506100b2565b505050509050019250505060405180910390f35b61014d600480360360608110156100f757600080fd5b81019080803573ffffffffffffffffffffffffffffffffffffffff169060200190929190803573ffffffffffffffffffffffffffffffffffffffff1690602001909291908035906020019092919050505061056a565b005b34801561015b57600080fd5b5061019e6004803603602081101561017257600080fd5b81019080803573ffffffffffffffffffffffffffffffffffffffff169060200190929190505050610791565b604051808e81526020018d81526020018c81526020018b81526020018a81526020018981526020018881526020018781526020018681526020018581526020018481526020018373ffffffffffffffffffffffffffffffffffffffff1673ffffffffffffffffffffffffffffffffffffffff1681526020018264ffffffffff1664ffffffffff1681526020019d505050505050505050505050505060405180910390f35b34801561024e57600080fd5b506103086004803603602081101561026557600080fd5b810190808035906020019064010000000081111561028257600080fd5b82018360208201111561029457600080fd5b803590602001918460018302840111640100000000831117156102b657600080fd5b91908080601f016020809104026020016040519081016040528093929190818152602001838380828437600081840152601f19601f820116905080830192505050505050509192919290505050610b68565b005b34801561031657600080fd5b5061038d6004803603608081101561032d57600080fd5b81019080803573ffffffffffffffffffffffffffffffffffffffff169060200190929190803573ffffffffffffffffffffffffffffffffffffffff1690602001909291908035906020019092919080359060200190929190505050610b82565b005b34801561039b57600080fd5b5061047e60048036036101c08110156103b357600080fd5b81019080803573ffffffffffffffffffffffffffffffffffffffff1690602001909291908035906020019092919080359060200190929190803590602001909291908035906020019092919080359060200190929190803590602001909291908035906020019092919080359060200190929190803590602001909291908035906020019092919080359060200190929190803573ffffffffffffffffffffffffffffffffffffffff169060200190929190803564ffffffffff169060200190929190505050610e03565b005b6104da6004803603606081101561049657600080fd5b81019080803573ffffffffffffffffffffffffffffffffffffffff16906020019092919080359060200190929190803561ffff169060200190929190505050610e3c565b005b6060600080548060200260200160405190810160405280929190818152602001828054801561056057602002820191906000526020600020905b8160009054906101000a900473ffffffffffffffffffffffffffffffffffffffff1673ffffffffffffffffffffffffffffffffffffffff1681526020019060010190808311610516575b5050505050905090565b61057261100b565b73ffffffffffffffffffffffffffffffffffffffff168373ffffffffffffffffffffffffffffffffffffffff161461062f57600034146105fd576040517f08c379a00000000000000000000000000000000000000000000000000000000081526004018080602001828103825260328152602001806119276032913960400191505060405180910390fd5b61062a8230838673ffffffffffffffffffffffffffffffffffffffff16611027909392919063ffffffff16565b61078c565b80341015610688576040517f08c379a00000000000000000000000000000000000000000000000000000000081526004018080602001828103825260358152602001806118f26035913960400191505060405180910390fd5b8034111561078b5760006106a5823461111490919063ffffffff16565b905060008373ffffffffffffffffffffffffffffffffffffffff168261c35090604051806000019050600060405180830381858888f193505050503d806000811461070c576040519150601f19603f3d011682016040523d82523d6000602084013e610711565b606091505b5050905080610788576040517f08c379a00000000000000000000000000000000000000000000000000000000081526004018080602001828103825260168152602001807f5472616e73666572206f6620455448206661696c65640000000000000000000081525060200191505060405180910390fd5b50505b5b505050565b6000806000806000806000806000806000806000600160008f73ffffffffffffffffffffffffffffffffffffffff1673ffffffffffffffffffffffffffffffffffffffff168152602001908152602001600020600001549c50600160008f73ffffffffffffffffffffffffffffffffffffffff1673ffffffffffffffffffffffffffffffffffffffff168152602001908152602001600020600101549b50600160008f73ffffffffffffffffffffffffffffffffffffffff1673ffffffffffffffffffffffffffffffffffffffff168152602001908152602001600020600201549a50600160008f73ffffffffffffffffffffffffffffffffffffffff1673ffffffffffffffffffffffffffffffffffffffff168152602001908152602001600020600301549950600160008f73ffffffffffffffffffffffffffffffffffffffff1673ffffffffffffffffffffffffffffffffffffffff168152602001908152602001600020600401549850600160008f73ffffffffffffffffffffffffffffffffffffffff1673ffffffffffffffffffffffffffffffffffffffff168152602001908152602001600020600501549750600160008f73ffffffffffffffffffffffffffffffffffffffff1673ffffffffffffffffffffffffffffffffffffffff168152602001908152602001600020600601549650600160008f73ffffffffffffffffffffffffffffffffffffffff1673ffffffffffffffffffffffffffffffffffffffff168152602001908152602001600020600701549550600160008f73ffffffffffffffffffffffffffffffffffffffff1673ffffffffffffffffffffffffffffffffffffffff168152602001908152602001600020600801549450600160008f73ffffffffffffffffffffffffffffffffffffffff1673ffffffffffffffffffffffffffffffffffffffff168152602001908152602001600020600901549350600160008f73ffffffffffffffffffffffffffffffffffffffff1673ffffffffffffffffffffffffffffffffffffffff168152602001908152602001600020600a01549250600160008f73ffffffffffffffffffffffffffffffffffffffff1673ffffffffffffffffffffffffffffffffffffffff168152602001908152602001600020600b0160009054906101000a900473ffffffffffffffffffffffffffffffffffffffff169150600160008f73ffffffffffffffffffffffffffffffffffffffff1673ffffffffffffffffffffffffffffffffffffffff168152602001908152602001600020600b0160149054906101000a900464ffffffffff16905091939597999b9d90929496989a9c50565b8060029080519060200190610b7e92919061184c565b5050565b81600160008673ffffffffffffffffffffffffffffffffffffffff1673ffffffffffffffffffffffffffffffffffffffff168152602001908152602001600020600101541015610c3a576040517f08c379a00000000000000000000000000000000000000000000000000000000081526004018080602001828103825260148152602001807f4e6f7420656e6f756768206c697175696469747900000000000000000000000081525060200191505060405180910390fd5b610c6583838673ffffffffffffffffffffffffffffffffffffffff1661115e9092919063ffffffff16565b81600160008673ffffffffffffffffffffffffffffffffffffffff1673ffffffffffffffffffffffffffffffffffffffff1681526020019081526020016000206000016000828254039250508190555081600160008673ffffffffffffffffffffffffffffffffffffffff1673ffffffffffffffffffffffffffffffffffffffff168152602001908152602001600020600101600082825403925050819055508273ffffffffffffffffffffffffffffffffffffffff168473ffffffffffffffffffffffffffffffffffffffff167fbcab28623f37ab97b7825c92cbf4d3b049b537a7f7114e02af153ff44bfd33ea844260026040518084815260200183815260200180602001828103825283818154600181600116156101000203166002900481526020019150805460018160011615610100020316600290048015610ded5780601f10610dc257610100808354040283529160200191610ded565b820191906000526020600020905b815481529060010190602001808311610dd057829003601f168201915b505094505050505060405180910390a350505050565b610e0c8e611216565b610e1e8e8e8e8e8e8e8e8e8e8a6112e0565b610e2c8e868686868661139d565b5050505050505050505050505050565b610e693330848673ffffffffffffffffffffffffffffffffffffffff16611027909392919063ffffffff16565b81600160008573ffffffffffffffffffffffffffffffffffffffff1673ffffffffffffffffffffffffffffffffffffffff1681526020019081526020016000206000016000828254019250508190555081600160008573ffffffffffffffffffffffffffffffffffffffff1673ffffffffffffffffffffffffffffffffffffffff168152602001908152602001600020600101600082825401925050819055508061ffff163373ffffffffffffffffffffffffffffffffffffffff168473ffffffffffffffffffffffffffffffffffffffff167f78791cb285973145183d48e20d2780211fbf19ac5dc2186a22632f84f65d3740854260026040518084815260200183815260200180602001828103825283818154600181600116156101000203166002900481526020019150805460018160011615610100020316600290048015610ff65780601f10610fcb57610100808354040283529160200191610ff6565b820191906000526020600020905b815481529060010190602001808311610fd957829003601f168201915b505094505050505060405180910390a4505050565b600073eeeeeeeeeeeeeeeeeeeeeeeeeeeeeeeeeeeeeeee905090565b61110e846323b872dd60e01b858585604051602401808473ffffffffffffffffffffffffffffffffffffffff1673ffffffffffffffffffffffffffffffffffffffff1681526020018373ffffffffffffffffffffffffffffffffffffffff1673ffffffffffffffffffffffffffffffffffffffff1681526020018281526020019350505050604051602081830303815290604052907bffffffffffffffffffffffffffffffffffffffffffffffffffffffff19166020820180517bffffffffffffffffffffffffffffffffffffffffffffffffffffffff838183161783525050505061146c565b50505050565b600061115683836040518060400160405280601e81526020017f536166654d6174683a207375627472616374696f6e206f766572666c6f77000081525061155b565b905092915050565b6112118363a9059cbb60e01b8484604051602401808373ffffffffffffffffffffffffffffffffffffffff1673ffffffffffffffffffffffffffffffffffffffff16815260200182815260200192505050604051602081830303815290604052907bffffffffffffffffffffffffffffffffffffffffffffffffffffffff19166020820180517bffffffffffffffffffffffffffffffffffffffffffffffffffffffff838183161783525050505061146c565b505050565b6000600160008373ffffffffffffffffffffffffffffffffffffffff1673ffffffffffffffffffffffffffffffffffffffff168152602001908152602001600020600b0160149054906101000a900464ffffffffff1664ffffffffff1614156112dd576000819080600181540180825580915050600190039060005260206000200160009091909190916101000a81548173ffffffffffffffffffffffffffffffffffffffff021916908373ffffffffffffffffffffffffffffffffffffffff1602179055505b50565b6000600160008c73ffffffffffffffffffffffffffffffffffffffff1673ffffffffffffffffffffffffffffffffffffffff16815260200190815260200160002090508981600001819055508881600101819055508781600201819055508681600301819055508581600401819055508481600501819055508381600601819055508281600701819055508181600b0160146101000a81548164ffffffffff021916908364ffffffffff1602179055505050505050505050505050565b6000600160008873ffffffffffffffffffffffffffffffffffffffff1673ffffffffffffffffffffffffffffffffffffffff16815260200190815260200160002090508581600801819055508481600901819055508381600a01819055508281600b0160006101000a81548173ffffffffffffffffffffffffffffffffffffffff021916908373ffffffffffffffffffffffffffffffffffffffff1602179055508181600b0160146101000a81548164ffffffffff021916908364ffffffffff16021790555050505050505050565b60606114ce826040518060400160405280602081526020017f5361666545524332303a206c6f772d6c6576656c2063616c6c206661696c65648152508573ffffffffffffffffffffffffffffffffffffffff1661161b9092919063ffffffff16565b9050600081511115611556578080602001905160208110156114ef57600080fd5b8101908080519060200190929190505050611555576040517f08c379a000000000000000000000000000000000000000000000000000000000815260040180806020018281038252602a815260200180611959602a913960400191505060405180910390fd5b5b505050565b6000838311158290611608576040517f08c379a00000000000000000000000000000000000000000000000000000000081526004018080602001828103825283818151815260200191508051906020019080838360005b838110156115cd5780820151818401526020810190506115b2565b50505050905090810190601f1680156115fa5780820380516001836020036101000a031916815260200191505b509250505060405180910390fd5b5060008385039050809150509392505050565b606061162a8484600085611633565b90509392505050565b606061163e85611839565b6116b0576040517f08c379a000000000000000000000000000000000000000000000000000000000815260040180806020018281038252601d8152602001807f416464726573733a2063616c6c20746f206e6f6e2d636f6e747261637400000081525060200191505060405180910390fd5b600060608673ffffffffffffffffffffffffffffffffffffffff1685876040518082805190602001908083835b6020831061170057805182526020820191506020810190506020830392506116dd565b6001836020036101000a03801982511681845116808217855250505050505090500191505060006040518083038185875af1925050503d8060008114611762576040519150601f19603f3d011682016040523d82523d6000602084013e611767565b606091505b5091509150811561177c578092505050611831565b60008151111561178f5780518082602001fd5b836040517f08c379a00000000000000000000000000000000000000000000000000000000081526004018080602001828103825283818151815260200191508051906020019080838360005b838110156117f65780820151818401526020810190506117db565b50505050905090810190601f1680156118235780820380516001836020036101000a031916815260200191505b509250505060405180910390fd5b949350505050565b600080823b905060008111915050919050565b828054600181600116156101000203166002900490600052602060002090601f016020900481019282601f1061188d57805160ff19168380011785556118bb565b828001600101855582156118bb579182015b828111156118ba57825182559160200191906001019061189f565b5b5090506118c891906118cc565b5090565b6118ee91905b808211156118ea5760008160009055506001016118d2565b5090565b9056fe54686520616d6f756e7420616e64207468652076616c75652073656e7420746f206465706f73697420646f206e6f74206d61746368557365722069732073656e64696e672045544820616c6f6e67207769746820746865204552433230207472616e736665722e5361666545524332303a204552433230206f7065726174696f6e20646964206e6f742073756363656564a2646970667358221220c1f1b6a6b004c0e38f4457bd2cf5043787318f3f9d1d3c5657b9655fd5ce18b064736f6c634300060a0033",
  "immutableReferences": {},
  "source": "// SPDX-License-Identifier: agpl-3.0\npragma solidity ^0.6.10;\n\nimport \"../lib/EthAddressLib.sol\";\nimport \"../lib/ERC20.sol\";\nimport \"../lib/SafeERC20.sol\";\nimport \"../providers/aave-protocol/IAaveLendingPool.sol\";\n\n\ncontract AaveLendingPoolMock is IAaveLendingPool {\n  using SafeERC20 for ERC20;\n  using SafeMath for uint256;\n  \n  address[] private reserves;\n  mapping(address => ReserveData) reserveData;\n  string mockId;\n  //    LendingPoolCore public core;\n\n  /**\n   * @dev emitted on deposit\n   * @param _reserve the address of the reserve\n   * @param _user the address of the user\n   * @param _amount the amount to be deposited\n   * @param _referral the referral number of the action\n   * @param _timestamp the timestamp of the action\n   **/\n  event DepositMock(\n    address indexed _reserve,\n    address indexed _user,\n    uint256 _amount,\n    uint16 indexed _referral,\n    uint256 _timestamp,\n    string _mockId\n  );\n\n  /**\n   * @dev Redeems the underlying amount of assets requested by _user.\n   * This function is executed by the overlying aToken contract in response to a redeem action.\n   * @param _reserve the address of the reserve\n   * @param _user the address of the user performing the action\n   * @param _amount the underlying amount to be redeemed\n   **/\n  event RedeemMock(\n    address indexed _reserve,\n    address indexed _user,\n    uint256 _amount,\n    uint256 _timestamp,\n    string _mockId\n  );\n\n  struct ReserveData {\n    uint256 totalLiquidity;\n    uint256 availableLiquidity;\n    uint256 totalBorrowsStable;\n    uint256 totalBorrowsVariable;\n    uint256 liquidityRate;\n    uint256 variableBorrowRate;\n    uint256 stableBorrowRate;\n    uint256 averageStableBorrowRate;\n    uint256 utilizationRate;\n    uint256 liquidityIndex;\n    uint256 variableBorrowIndex;\n    address aTokenAddress;\n    uint40 lastUpdateTimestamp;\n  }\n\n  function setMockId(string memory _mockId) external {\n    mockId = _mockId;\n  }\n\n  function deposit(\n    address _reserve,\n    uint256 _amount,\n    uint16 _referralCode\n  ) external override payable {\n    //        AToken aToken = AToken(core.getReserveATokenAddress(_reserve));\n    //\n    //        bool isFirstDeposit = aToken.balanceOf(msg.sender) == 0;\n    //\n    //        core.updateStateOnDeposit(_reserve, msg.sender, _amount, isFirstDeposit);\n    //\n    //        //minting AToken to user 1:1 with the specific exchange rate\n    //        aToken.mintOnDeposit(msg.sender, _amount);\n    //\n    //        //transfer to the core contract\n    //        core.transferToReserve.value(msg.value)(_reserve, msg.sender, _amount);\n\n    // Move amount to \n    ERC20(_reserve).safeTransferFrom(msg.sender, address(this), _amount);\n  \n    reserveData[_reserve].totalLiquidity += _amount;\n    reserveData[_reserve].availableLiquidity += _amount;\n    //solium-disable-next-line\n    emit DepositMock(\n      _reserve,\n      msg.sender,\n      _amount,\n      _referralCode,\n      block.timestamp,\n      mockId\n    );\n  }\n\n  function redeemUnderlying(\n    address _reserve,\n    address payable _user,\n    uint256 _amount,\n    uint256 _aTokenBalanceAfterRedeem\n  ) external override {\n    require(\n      reserveData[_reserve].availableLiquidity >= _amount,\n      \"Not enough liquidity\"\n    );\n\n    \n\n    // Move amount to \n    ERC20(_reserve).safeTransfer(_user, _amount);\n    reserveData[_reserve].totalLiquidity -= _amount;\n    reserveData[_reserve].availableLiquidity -= _amount;\n    //solium-disable-next-line\n    emit RedeemMock(_reserve, _user, _amount, block.timestamp, mockId);\n  }\n\n  /**\n   * @dev transfers an amount from a user to the destination reserve\n   * @param _reserve the address of the reserve where the amount is being transferred\n   * @param _user the address of the user from where the transfer is happening\n   * @param _amount the amount being transferred\n   **/\n  function transferToReserve(\n    address _reserve,\n    address payable _user,\n    uint256 _amount\n  ) external payable {\n    if (_reserve != EthAddressLib.ethAddress()) {\n      require(\n        msg.value == 0,\n        \"User is sending ETH along with the ERC20 transfer.\"\n      );\n      ERC20(_reserve).safeTransferFrom(_user, address(this), _amount);\n    } else {\n      require(\n        msg.value >= _amount,\n        \"The amount and the value sent to deposit do not match\"\n      );\n\n      if (msg.value > _amount) {\n        //send back excess ETH\n        uint256 excessAmount = msg.value.sub(_amount);\n        //solium-disable-next-line\n        (bool result, ) = _user.call.value(excessAmount).gas(50000)(\"\");\n        require(result, \"Transfer of ETH failed\");\n      }\n    }\n  }\n\n  function setReserve(\n    address _reserveAddress,\n    // reserve total liquidity\n    uint256 _totalLiquidity,\n    //reserve available liquidity for borrowing\n    uint256 _availableLiquidity,\n    //the total borrows of the reserve at a stable rate. Expressed in the currency decimals\n    uint256 _totalBorrowsStable,\n    //the total borrows of the reserve at a variable rate. Expressed in the currency decimals\n    uint256 _totalBorrowsVariable,\n    //the current supply rate. Expressed in ray\n    uint256 _liquidityRate,\n    //current variable rate APY of the reserve pool, in Ray units.\n    uint256 _variableBorrowRate,\n    //current stable rate APY of the reserve pool, in Ray units.\n    uint256 _stableBorrowRate,\n    //current average stable borrow rate\n    uint256 _averageStableBorrowRate,\n    // expressed as total borrows/total liquidity.\n    uint256 _utilizationRate,\n    // cumulative liquidity index\n    uint256 _liquidityIndex,\n    // cumulative variable borrow index\n    uint256 _variableBorrowIndex,\n    // aTokens contract address for the specific _reserve\n    address _aTokenAddress,\n    // timestamp of the last update of reserve data\n    uint40 _lastUpdateTimestamp\n  ) external {\n    // Add reserve to list if doesn't exist\n    addToReserveIfNotExists(_reserveAddress);\n    setReserveData(\n      _reserveAddress,\n      _totalLiquidity,\n      _availableLiquidity,\n      _totalBorrowsStable,\n      _totalBorrowsVariable,\n      _liquidityRate,\n      _variableBorrowRate,\n      _stableBorrowRate,\n      _averageStableBorrowRate,\n      _lastUpdateTimestamp\n    );\n\n    setReserveDataAdditional(\n      _reserveAddress,\n      _utilizationRate,\n      _liquidityIndex,\n      _variableBorrowIndex,\n      _aTokenAddress,\n      _lastUpdateTimestamp\n    );\n  }\n\n  // Check that reserve exists in reserve array\n  // If no, it adds it\n  function addToReserveIfNotExists(address _reserve) internal {\n    if (reserveData[_reserve].lastUpdateTimestamp == 0) {\n      reserves.push(_reserve);\n    }\n  }\n\n  function setReserveData(\n    address _reserveAddress,\n    uint256 _totalLiquidity,\n    //reserve available liquidity for borrowing\n    uint256 _availableLiquidity,\n    //the total borrows of the reserve at a stable rate. Expressed in the currency decimals\n    uint256 _totalBorrowsStable,\n    //the total borrows of the reserve at a variable rate. Expressed in the currency decimals\n    uint256 _totalBorrowsVariable,\n    //the current supply rate. Expressed in ray\n    uint256 _liquidityRate,\n    //current variable rate APY of the reserve pool, in Ray units.\n    uint256 _variableBorrowRate,\n    uint256 _stableBorrowRate,\n    //current average stable borrow rate\n    uint256 _averageStableBorrowRate,\n    uint40 _lastUpdateTimestamp\n  ) internal {\n    ReserveData storage reserve = reserveData[_reserveAddress];\n    reserve.totalLiquidity = _totalLiquidity;\n    reserve.availableLiquidity = _availableLiquidity;\n    reserve.totalBorrowsStable = _totalBorrowsStable;\n    reserve.totalBorrowsVariable = _totalBorrowsVariable;\n    reserve.liquidityRate = _liquidityRate;\n    reserve.variableBorrowRate = _variableBorrowRate;\n    reserve.stableBorrowRate = _stableBorrowRate;\n    reserve.averageStableBorrowRate = _averageStableBorrowRate;\n    reserve.lastUpdateTimestamp = _lastUpdateTimestamp;\n  }\n\n  function setReserveDataAdditional(\n    address _reserveAddress,\n    // expressed as total borrows/total liquidity.\n    uint256 _utilizationRate,\n    // cumulative liquidity index\n    uint256 _liquidityIndex,\n    // cumulative variable borrow index\n    uint256 _variableBorrowIndex,\n    // aTokens contract address for the specific _reserve\n    address _aTokenAddress,\n    // timestamp of the last update of reserve data\n    uint40 _lastUpdateTimestamp\n  ) internal {\n    ReserveData storage reserve = reserveData[_reserveAddress];\n    reserve.utilizationRate = _utilizationRate;\n    reserve.liquidityIndex = _liquidityIndex;\n    reserve.variableBorrowIndex = _variableBorrowIndex;\n    reserve.aTokenAddress = _aTokenAddress;\n    reserve.lastUpdateTimestamp = _lastUpdateTimestamp;\n  }\n\n  function getReserves() external override view returns (address[] memory) {\n    return reserves;\n  }\n\n  function getReserveData(address _reserveAddress)\n    external\n    override\n    view\n    returns (\n      uint256 totalLiquidity,\n      uint256 availableLiquidity,\n      uint256 totalBorrowsStable,\n      uint256 totalBorrowsVariable,\n      uint256 liquidityRate,\n      uint256 variableBorrowRate,\n      uint256 stableBorrowRate,\n      uint256 averageStableBorrowRate,\n      uint256 utilizationRate,\n      uint256 liquidityIndex,\n      uint256 variableBorrowIndex,\n      address aTokenAddress,\n      uint40 lastUpdateTimestamp\n    )\n  {\n    totalLiquidity = reserveData[_reserveAddress].totalLiquidity;\n    availableLiquidity = reserveData[_reserveAddress].availableLiquidity;\n    totalBorrowsStable = reserveData[_reserveAddress].totalBorrowsStable;\n    totalBorrowsVariable = reserveData[_reserveAddress].totalBorrowsVariable;\n    liquidityRate = reserveData[_reserveAddress].liquidityRate;\n    variableBorrowRate = reserveData[_reserveAddress].variableBorrowRate;\n    stableBorrowRate = reserveData[_reserveAddress].stableBorrowRate;\n    averageStableBorrowRate = reserveData[_reserveAddress]\n      .averageStableBorrowRate;\n    utilizationRate = reserveData[_reserveAddress].utilizationRate;\n    liquidityIndex = reserveData[_reserveAddress].liquidityIndex;\n    variableBorrowIndex = reserveData[_reserveAddress].variableBorrowIndex;\n    aTokenAddress = reserveData[_reserveAddress].aTokenAddress;\n    lastUpdateTimestamp = reserveData[_reserveAddress].lastUpdateTimestamp;\n  }\n}\n",
  "sourcePath": "/Users/mikhail/Coding/jucifi/contracts/mocks/AaveLendingPoolMock.sol",
  "compiler": {
    "name": "solc",
    "version": "0.6.10+commit.00c0fcaf.Emscripten.clang"
  },
  "schemaVersion": "3.2.5",
  "updatedAt": "2020-10-21T23:02:28.139Z",
  "networkType": "ethereum",
  "devdoc": {
    "methods": {
      "transferToReserve(address,address,uint256)": {
        "details": "transfers an amount from a user to the destination reserve",
        "params": {
          "_amount": "the amount being transferred*",
          "_reserve": "the address of the reserve where the amount is being transferred",
          "_user": "the address of the user from where the transfer is happening"
        }
      }
    }
  },
  "userdoc": {
    "methods": {}
  }
}