{
  "contractName": "PriceRepositoryMock",
  "abi": [
    {
      "inputs": [
        {
          "internalType": "address",
          "name": "_reserve",
          "type": "address"
        }
      ],
      "name": "getReservePriceInETH",
      "outputs": [
        {
          "internalType": "uint256",
          "name": "",
          "type": "uint256"
        }
      ],
      "stateMutability": "view",
      "type": "function",
      "constant": true
    }
  ],
  "bytecode": "0x608060405234801561001057600080fd5b5060c38061001f6000396000f3fe6080604052348015600f57600080fd5b506004361060285760003560e01c8063b6d3a35d14602d575b600080fd5b606c60048036036020811015604157600080fd5b81019080803573ffffffffffffffffffffffffffffffffffffffff1690602001909291905050506082565b6040518082815260200191505060405180910390f35b60006001905091905056fea2646970667358221220743467a9dde5030cbc8fafbd942635579e5c04579e4bb30bcc42d94752fab7e864736f6c634300060a0033",
  "immutableReferences": {},
  "source": "// SPDX-License-Identifier: MIT\npragma solidity ^0.6.10;\nimport \"../core/IPriceRepository.sol\";\n\ncontract PriceRepositoryMock is IPriceRepository {\n  function getReservePriceInETH(address _reserve)\n    external\n    override\n    view\n    returns (uint256)\n  {\n    return 1;\n  }\n}\n",
  "sourcePath": "/Users/mikhail/Coding/jucifi/contracts/mocks/PriceRepositoryMock.sol",
  "compiler": {
    "name": "solc",
    "version": "0.6.10+commit.00c0fcaf.Emscripten.clang"
  },
  "schemaVersion": "3.2.5",
  "updatedAt": "2020-10-21T23:02:28.076Z",
  "networkType": "ethereum",
  "devdoc": {
    "methods": {}
  },
  "userdoc": {
    "methods": {}
  }
}