{
  "contractName": "RateService",
  "abi": [
    {
      "inputs": [
        {
          "internalType": "address",
          "name": "_addressRepository",
          "type": "address"
        }
      ],
      "stateMutability": "nonpayable",
      "type": "constructor"
    },
    {
      "inputs": [
        {
          "internalType": "address",
          "name": "_reserve",
          "type": "address"
        }
      ],
      "name": "getDepositRate",
      "outputs": [
        {
          "internalType": "uint256",
          "name": "",
          "type": "uint256"
        }
      ],
      "stateMutability": "view",
      "type": "function"
    },
    {
      "inputs": [
        {
          "internalType": "address",
          "name": "_reserve",
          "type": "address"
        }
      ],
      "name": "getBorrowRate",
      "outputs": [
        {
          "internalType": "uint256",
          "name": "",
          "type": "uint256"
        }
      ],
      "stateMutability": "view",
      "type": "function"
    },
    {
      "inputs": [
        {
          "internalType": "uint256",
          "name": "_bestDepositRate",
          "type": "uint256"
        },
        {
          "internalType": "uint256",
          "name": "_bestBorrowRate",
          "type": "uint256"
        }
      ],
      "name": "computeBestBorrowRate",
      "outputs": [
        {
          "internalType": "uint256",
          "name": "",
          "type": "uint256"
        }
      ],
      "stateMutability": "pure",
      "type": "function"
    }
  ],
  "bytecode": "0x608060405234801561001057600080fd5b506040516108853803806108858339818101604052602081101561003357600080fd5b810190808051906020019092919050505080600160006101000a81548173ffffffffffffffffffffffffffffffffffffffff021916908373ffffffffffffffffffffffffffffffffffffffff160217905550600160009054906101000a900473ffffffffffffffffffffffffffffffffffffffff1673ffffffffffffffffffffffffffffffffffffffff16630a9bf54a6040518163ffffffff1660e01b815260040160206040518083038186803b1580156100ed57600080fd5b505afa158015610101573d6000803e3d6000fd5b505050506040513d602081101561011757600080fd5b81019080805190602001909291905050506000806101000a81548173ffffffffffffffffffffffffffffffffffffffff021916908373ffffffffffffffffffffffffffffffffffffffff1602179055505061070e806101776000396000f3fe608060405234801561001057600080fd5b50600436106100415760003560e01c80634c8f411d146100465780636eb8986e1461009e578063d71275f6146100ea575b600080fd5b6100886004803603602081101561005c57600080fd5b81019080803573ffffffffffffffffffffffffffffffffffffffff169060200190929190505050610142565b6040518082815260200191505060405180910390f35b6100d4600480360360408110156100b457600080fd5b810190808035906020019092919080359060200190929190505050610237565b6040518082815260200191505060405180910390f35b61012c6004803603602081101561010057600080fd5b81019080803573ffffffffffffffffffffffffffffffffffffffff169060200190929190505050610291565b6040518082815260200191505060405180910390f35b60008060008060009054906101000a900473ffffffffffffffffffffffffffffffffffffffff1673ffffffffffffffffffffffffffffffffffffffff16639b90168d856040518263ffffffff1660e01b8152600401808273ffffffffffffffffffffffffffffffffffffffff1673ffffffffffffffffffffffffffffffffffffffff168152602001915050604080518083038186803b1580156101e457600080fd5b505afa1580156101f8573d6000803e3d6000fd5b505050506040513d604081101561020e57600080fd5b810190808051906020019092919080519060200190929190505050915091508192505050919050565b60008061027360646102656014610257888861038f90919063ffffffff16565b6103d990919063ffffffff16565b61045f90919063ffffffff16565b905061028881856104a990919063ffffffff16565b91505092915050565b60008060008060009054906101000a900473ffffffffffffffffffffffffffffffffffffffff1673ffffffffffffffffffffffffffffffffffffffff16639b90168d856040518263ffffffff1660e01b8152600401808273ffffffffffffffffffffffffffffffffffffffff1673ffffffffffffffffffffffffffffffffffffffff168152602001915050604080518083038186803b15801561033357600080fd5b505afa158015610347573d6000803e3d6000fd5b505050506040513d604081101561035d57600080fd5b810190808051906020019092919080519060200190929190505050915091506103868282610237565b92505050919050565b60006103d183836040518060400160405280601e81526020017f536166654d6174683a207375627472616374696f6e206f766572666c6f770000815250610531565b905092915050565b6000808314156103ec5760009050610459565b60008284029050828482816103fd57fe5b0414610454576040517f08c379a00000000000000000000000000000000000000000000000000000000081526004018080602001828103825260218152602001806106b86021913960400191505060405180910390fd5b809150505b92915050565b60006104a183836040518060400160405280601a81526020017f536166654d6174683a206469766973696f6e206279207a65726f0000000000008152506105f1565b905092915050565b600080828401905083811015610527576040517f08c379a000000000000000000000000000000000000000000000000000000000815260040180806020018281038252601b8152602001807f536166654d6174683a206164646974696f6e206f766572666c6f77000000000081525060200191505060405180910390fd5b8091505092915050565b60008383111582906105de576040517f08c379a00000000000000000000000000000000000000000000000000000000081526004018080602001828103825283818151815260200191508051906020019080838360005b838110156105a3578082015181840152602081019050610588565b50505050905090810190601f1680156105d05780820380516001836020036101000a031916815260200191505b509250505060405180910390fd5b5060008385039050809150509392505050565b6000808311829061069d576040517f08c379a00000000000000000000000000000000000000000000000000000000081526004018080602001828103825283818151815260200191508051906020019080838360005b83811015610662578082015181840152602081019050610647565b50505050905090810190601f16801561068f5780820380516001836020036101000a031916815260200191505b509250505060405180910390fd5b5060008385816106a957fe5b04905080915050939250505056fe536166654d6174683a206d756c7469706c69636174696f6e206f766572666c6f77a2646970667358221220f636dc05b21622179706f8841fd26874034f38f93c75e91ccef4afc78cd4861164736f6c634300060a0033",
  "immutableReferences": {},
  "source": "// SPDX-License-Identifier: agpl-3.0\npragma solidity ^0.6.10;\nimport \"./ProviderService.sol\";\nimport \"openzeppelin-solidity/contracts/math/SafeMath.sol\";\n\ncontract RateService {\n  using SafeMath for uint256;\n  uint256 constant SHARE = 20;\n\n  ProviderService private providerService;\n  AddressRepository private addressRepository;\n\n  constructor(address _addressRepository) public {\n    addressRepository = AddressRepository(_addressRepository);\n    providerService = ProviderService(addressRepository.getProviderService());\n  }\n\n  function getDepositRate(address _reserve) public view returns (uint256) {\n    (uint256 bestDepositRate, uint256 bestBorrowRate) = providerService\n      .getBestRates(_reserve);\n    return bestDepositRate;\n  }\n\n  // borrowRate = bestDepositRate + (bestBorrowRate - bestDepositRate) * SHARE\n  function getBorrowRate(address _reserve) public view returns (uint256) {\n    (uint256 bestDepositRate, uint256 bestBorrowRate) = providerService\n      .getBestRates(_reserve);\n    return computeBestBorrowRate(bestDepositRate, bestBorrowRate);\n  }\n\n  function computeBestBorrowRate(\n    uint256 _bestDepositRate,\n    uint256 _bestBorrowRate\n  ) public pure returns (uint256) {\n    uint256 delta = _bestBorrowRate.sub(_bestDepositRate).mul(SHARE).div(100);\n    return _bestDepositRate.add(delta);\n  }\n}\n",
  "sourcePath": "/Users/mikhail/Coding/jucifi/contracts/services/RateService.sol",
  "compiler": {
    "name": "solc",
    "version": "0.6.10+commit.00c0fcaf.Emscripten.clang"
  },
  "schemaVersion": "3.2.5",
  "updatedAt": "2020-10-21T11:02:37.324Z",
  "devdoc": {
    "methods": {}
  },
  "userdoc": {
    "methods": {}
  }
}