{
  "contractName": "ReserveRepository",
  "abi": [
    {
      "inputs": [
        {
          "internalType": "address",
          "name": "_reserve",
          "type": "address"
        },
        {
          "internalType": "address",
          "name": "_vTokenAddress",
          "type": "address"
        },
        {
          "internalType": "uint256",
          "name": "_loanToValue",
          "type": "uint256"
        },
        {
          "internalType": "uint256",
          "name": "_liquidationThreshold",
          "type": "uint256"
        },
        {
          "internalType": "uint256",
          "name": "_liquidationBonus",
          "type": "uint256"
        }
      ],
      "name": "addReserve",
      "outputs": [],
      "stateMutability": "nonpayable",
      "type": "function"
    },
    {
      "inputs": [
        {
          "internalType": "address",
          "name": "_reserve",
          "type": "address"
        }
      ],
      "name": "isReserveActive",
      "outputs": [
        {
          "internalType": "bool",
          "name": "",
          "type": "bool"
        }
      ],
      "stateMutability": "view",
      "type": "function",
      "constant": true
    },
    {
      "inputs": [
        {
          "internalType": "address",
          "name": "_reserve",
          "type": "address"
        }
      ],
      "name": "getTotalLiquidity",
      "outputs": [
        {
          "internalType": "uint256",
          "name": "",
          "type": "uint256"
        }
      ],
      "stateMutability": "view",
      "type": "function",
      "constant": true
    },
    {
      "inputs": [
        {
          "internalType": "address",
          "name": "_reserve",
          "type": "address"
        },
        {
          "internalType": "uint256",
          "name": "_totalLiquidity",
          "type": "uint256"
        }
      ],
      "name": "setTotalLiquidity",
      "outputs": [],
      "stateMutability": "nonpayable",
      "type": "function"
    },
    {
      "inputs": [
        {
          "internalType": "address",
          "name": "_reserve",
          "type": "address"
        }
      ],
      "name": "getAvailableLiquidity",
      "outputs": [
        {
          "internalType": "uint256",
          "name": "",
          "type": "uint256"
        }
      ],
      "stateMutability": "view",
      "type": "function",
      "constant": true
    },
    {
      "inputs": [
        {
          "internalType": "address",
          "name": "_reserve",
          "type": "address"
        },
        {
          "internalType": "uint256",
          "name": "_availableLiquidity",
          "type": "uint256"
        }
      ],
      "name": "setAvailableLiquidity",
      "outputs": [],
      "stateMutability": "nonpayable",
      "type": "function"
    },
    {
      "inputs": [
        {
          "internalType": "address",
          "name": "_reserve",
          "type": "address"
        },
        {
          "internalType": "uint256",
          "name": "_liquidity",
          "type": "uint256"
        }
      ],
      "name": "addLiquidity",
      "outputs": [],
      "stateMutability": "nonpayable",
      "type": "function"
    },
    {
      "inputs": [
        {
          "internalType": "address",
          "name": "_reserve",
          "type": "address"
        },
        {
          "internalType": "address",
          "name": "_contractAddress",
          "type": "address"
        }
      ],
      "name": "setTokenContract",
      "outputs": [],
      "stateMutability": "nonpayable",
      "type": "function"
    },
    {
      "inputs": [
        {
          "internalType": "address",
          "name": "_reserve",
          "type": "address"
        }
      ],
      "name": "getVTokenContract",
      "outputs": [
        {
          "internalType": "address",
          "name": "",
          "type": "address"
        }
      ],
      "stateMutability": "view",
      "type": "function",
      "constant": true
    },
    {
      "inputs": [
        {
          "internalType": "address",
          "name": "_reserve",
          "type": "address"
        }
      ],
      "name": "isActive",
      "outputs": [
        {
          "internalType": "bool",
          "name": "",
          "type": "bool"
        }
      ],
      "stateMutability": "view",
      "type": "function",
      "constant": true
    },
    {
      "inputs": [
        {
          "internalType": "address",
          "name": "_reserve",
          "type": "address"
        },
        {
          "internalType": "bool",
          "name": "_active",
          "type": "bool"
        }
      ],
      "name": "setActive",
      "outputs": [],
      "stateMutability": "nonpayable",
      "type": "function"
    },
    {
      "inputs": [
        {
          "internalType": "address",
          "name": "_reserve",
          "type": "address"
        }
      ],
      "name": "getLoanToValue",
      "outputs": [
        {
          "internalType": "uint256",
          "name": "",
          "type": "uint256"
        }
      ],
      "stateMutability": "view",
      "type": "function",
      "constant": true
    },
    {
      "inputs": [
        {
          "internalType": "address",
          "name": "_reserve",
          "type": "address"
        }
      ],
      "name": "getLiquidationThreshold",
      "outputs": [
        {
          "internalType": "uint256",
          "name": "",
          "type": "uint256"
        }
      ],
      "stateMutability": "view",
      "type": "function",
      "constant": true
    },
    {
      "inputs": [
        {
          "internalType": "address",
          "name": "_reserve",
          "type": "address"
        }
      ],
      "name": "getLiquidationBonus",
      "outputs": [
        {
          "internalType": "uint256",
          "name": "",
          "type": "uint256"
        }
      ],
      "stateMutability": "view",
      "type": "function",
      "constant": true
    },
    {
      "inputs": [
        {
          "internalType": "address",
          "name": "_reserve",
          "type": "address"
        }
      ],
      "name": "getReserveSymbol",
      "outputs": [
        {
          "internalType": "string",
          "name": "",
          "type": "string"
        }
      ],
      "stateMutability": "view",
      "type": "function",
      "constant": true
    },
    {
      "inputs": [],
      "name": "getReservesQty",
      "outputs": [
        {
          "internalType": "uint256",
          "name": "",
          "type": "uint256"
        }
      ],
      "stateMutability": "view",
      "type": "function",
      "constant": true
    },
    {
      "inputs": [
        {
          "internalType": "uint256",
          "name": "_index",
          "type": "uint256"
        }
      ],
      "name": "getReserveByIndex",
      "outputs": [
        {
          "internalType": "address",
          "name": "",
          "type": "address"
        }
      ],
      "stateMutability": "view",
      "type": "function",
      "constant": true
    }
  ],
  "bytecode": "0x608060405234801561001057600080fd5b50611010806100206000396000f3fe608060405234801561001057600080fd5b506004361061010b5760003560e01c8063988d2408116100a2578063a4a9456711610071578063a4a9456714610588578063a5fa8751146105ec578063cd67c4f8146106a9578063d10e47fe146106f7578063fcda065e146107155761010b565b8063988d24081461041857806399aa0f97146104665780639de8ef79146104d45780639f8a13d71461052c5761010b565b80636fe732d1116100de5780636fe732d11461025e57806372e06c0f146102e05780637b86e42c14610364578063883c042b146103bc5761010b565b8063266e2bd8146101105780632ce962cf146101685780632db387bd146101b85780635668870014610210575b600080fd5b6101526004803603602081101561012657600080fd5b81019080803573ffffffffffffffffffffffffffffffffffffffff16906020019092919050505061076d565b6040518082815260200191505060405180910390f35b6101b66004803603604081101561017e57600080fd5b81019080803573ffffffffffffffffffffffffffffffffffffffff1690602001909291908035151590602001909291905050506107b9565b005b6101fa600480360360208110156101ce57600080fd5b81019080803573ffffffffffffffffffffffffffffffffffffffff169060200190929190505050610817565b6040518082815260200191505060405180910390f35b61025c6004803603604081101561022657600080fd5b81019080803573ffffffffffffffffffffffffffffffffffffffff16906020019092919080359060200190929190505050610863565b005b6102de600480360360a081101561027457600080fd5b81019080803573ffffffffffffffffffffffffffffffffffffffff169060200190929190803573ffffffffffffffffffffffffffffffffffffffff169060200190929190803590602001909291908035906020019092919080359060200190929190505050610907565b005b610322600480360360208110156102f657600080fd5b81019080803573ffffffffffffffffffffffffffffffffffffffff169060200190929190505050610b21565b604051808273ffffffffffffffffffffffffffffffffffffffff1673ffffffffffffffffffffffffffffffffffffffff16815260200191505060405180910390f35b6103a66004803603602081101561037a57600080fd5b81019080803573ffffffffffffffffffffffffffffffffffffffff169060200190929190505050610b8d565b6040518082815260200191505060405180910390f35b6103fe600480360360208110156103d257600080fd5b81019080803573ffffffffffffffffffffffffffffffffffffffff169060200190929190505050610bd9565b604051808215151515815260200191505060405180910390f35b6104646004803603604081101561042e57600080fd5b81019080803573ffffffffffffffffffffffffffffffffffffffff16906020019092919080359060200190929190505050610c32565b005b6104926004803603602081101561047c57600080fd5b8101908080359060200190929190505050610c7d565b604051808273ffffffffffffffffffffffffffffffffffffffff1673ffffffffffffffffffffffffffffffffffffffff16815260200191505060405180910390f35b610516600480360360208110156104ea57600080fd5b81019080803573ffffffffffffffffffffffffffffffffffffffff169060200190929190505050610cbd565b6040518082815260200191505060405180910390f35b61056e6004803603602081101561054257600080fd5b81019080803573ffffffffffffffffffffffffffffffffffffffff169060200190929190505050610d09565b604051808215151515815260200191505060405180910390f35b6105ea6004803603604081101561059e57600080fd5b81019080803573ffffffffffffffffffffffffffffffffffffffff169060200190929190803573ffffffffffffffffffffffffffffffffffffffff169060200190929190505050610d62565b005b61062e6004803603602081101561060257600080fd5b81019080803573ffffffffffffffffffffffffffffffffffffffff169060200190929190505050610de7565b6040518080602001828103825283818151815260200191508051906020019080838360005b8381101561066e578082015181840152602081019050610653565b50505050905090810190601f16801561069b5780820380516001836020036101000a031916815260200191505b509250505060405180910390f35b6106f5600480360360408110156106bf57600080fd5b81019080803573ffffffffffffffffffffffffffffffffffffffff16906020019092919080359060200190929190505050610f37565b005b6106ff610f82565b6040518082815260200191505060405180910390f35b6107576004803603602081101561072b57600080fd5b81019080803573ffffffffffffffffffffffffffffffffffffffff169060200190929190505050610f8e565b6040518082815260200191505060405180910390f35b6000600160008373ffffffffffffffffffffffffffffffffffffffff1673ffffffffffffffffffffffffffffffffffffffff168152602001908152602001600020600101549050919050565b80600160008473ffffffffffffffffffffffffffffffffffffffff1673ffffffffffffffffffffffffffffffffffffffff16815260200190815260200160002060050160146101000a81548160ff0219169083151502179055505050565b6000600160008373ffffffffffffffffffffffffffffffffffffffff1673ffffffffffffffffffffffffffffffffffffffff168152602001908152602001600020600401549050919050565b80600160008473ffffffffffffffffffffffffffffffffffffffff1673ffffffffffffffffffffffffffffffffffffffff1681526020019081526020016000206000016000828254019250508190555080600160008473ffffffffffffffffffffffffffffffffffffffff1673ffffffffffffffffffffffffffffffffffffffff168152602001908152602001600020600101600082825401925050819055505050565b82600160008773ffffffffffffffffffffffffffffffffffffffff1673ffffffffffffffffffffffffffffffffffffffff1681526020019081526020016000206002018190555081600160008773ffffffffffffffffffffffffffffffffffffffff1673ffffffffffffffffffffffffffffffffffffffff1681526020019081526020016000206003018190555080600160008773ffffffffffffffffffffffffffffffffffffffff1673ffffffffffffffffffffffffffffffffffffffff1681526020019081526020016000206004018190555083600160008773ffffffffffffffffffffffffffffffffffffffff1673ffffffffffffffffffffffffffffffffffffffff16815260200190815260200160002060050160006101000a81548173ffffffffffffffffffffffffffffffffffffffff021916908373ffffffffffffffffffffffffffffffffffffffff16021790555060018060008773ffffffffffffffffffffffffffffffffffffffff1673ffffffffffffffffffffffffffffffffffffffff16815260200190815260200160002060050160146101000a81548160ff0219169083151502179055506000859080600181540180825580915050600190039060005260206000200160009091909190916101000a81548173ffffffffffffffffffffffffffffffffffffffff021916908373ffffffffffffffffffffffffffffffffffffffff1602179055505050505050565b6000600160008373ffffffffffffffffffffffffffffffffffffffff1673ffffffffffffffffffffffffffffffffffffffff16815260200190815260200160002060050160009054906101000a900473ffffffffffffffffffffffffffffffffffffffff169050919050565b6000600160008373ffffffffffffffffffffffffffffffffffffffff1673ffffffffffffffffffffffffffffffffffffffff168152602001908152602001600020600301549050919050565b6000600160008373ffffffffffffffffffffffffffffffffffffffff1673ffffffffffffffffffffffffffffffffffffffff16815260200190815260200160002060050160149054906101000a900460ff169050919050565b80600160008473ffffffffffffffffffffffffffffffffffffffff1673ffffffffffffffffffffffffffffffffffffffff168152602001908152602001600020600001819055505050565b6000808281548110610c8b57fe5b9060005260206000200160009054906101000a900473ffffffffffffffffffffffffffffffffffffffff169050919050565b6000600160008373ffffffffffffffffffffffffffffffffffffffff1673ffffffffffffffffffffffffffffffffffffffff168152602001908152602001600020600001549050919050565b6000600160008373ffffffffffffffffffffffffffffffffffffffff1673ffffffffffffffffffffffffffffffffffffffff16815260200190815260200160002060050160149054906101000a900460ff169050919050565b80600160008473ffffffffffffffffffffffffffffffffffffffff1673ffffffffffffffffffffffffffffffffffffffff16815260200190815260200160002060050160006101000a81548173ffffffffffffffffffffffffffffffffffffffff021916908373ffffffffffffffffffffffffffffffffffffffff1602179055505050565b6060610df282610b21565b73ffffffffffffffffffffffffffffffffffffffff166395d89b416040518163ffffffff1660e01b815260040160006040518083038186803b158015610e3757600080fd5b505afa158015610e4b573d6000803e3d6000fd5b505050506040513d6000823e3d601f19601f820116820180604052506020811015610e7557600080fd5b8101908080516040519392919084640100000000821115610e9557600080fd5b83820191506020820185811115610eab57600080fd5b8251866001820283011164010000000082111715610ec857600080fd5b8083526020830192505050908051906020019080838360005b83811015610efc578082015181840152602081019050610ee1565b50505050905090810190601f168015610f295780820380516001836020036101000a031916815260200191505b506040525050509050919050565b80600160008473ffffffffffffffffffffffffffffffffffffffff1673ffffffffffffffffffffffffffffffffffffffff168152602001908152602001600020600101819055505050565b60008080549050905090565b6000600160008373ffffffffffffffffffffffffffffffffffffffff1673ffffffffffffffffffffffffffffffffffffffff16815260200190815260200160002060020154905091905056fea26469706673582212206c01259c8b88f8a453cae60534ee7386f49dda81fe484f7604112f69b7053f4e64736f6c634300060a0033",
  "immutableReferences": {},
  "source": "// SPDX-License-Identifier: agpl-3.0\npragma solidity ^0.6.10;\n\nimport \"../token/VToken.sol\";\n\ncontract ReserveRepository {\n  struct Reserve {\n    uint256 totalLiquidity;\n    uint256 availableLiquidity;\n    uint256 loanToValue;\n    uint256 liquidationThreshold;\n    uint256 liquidationBonus;\n    address vTokenContract;\n    bool isActive;\n  }\n\n  address[] private reservesList;\n  mapping(address => Reserve) reserves;\n\n  function addReserve(\n    address _reserve,\n    address _vTokenAddress,\n    uint256 _loanToValue,\n    uint256 _liquidationThreshold,\n    uint256 _liquidationBonus\n  ) public {\n    reserves[_reserve].loanToValue = _loanToValue;\n    reserves[_reserve].liquidationThreshold = _liquidationThreshold;\n    reserves[_reserve].liquidationBonus = _liquidationBonus;\n\n    reserves[_reserve].vTokenContract = _vTokenAddress;\n    reserves[_reserve].isActive = true;\n\n    reservesList.push(_reserve);\n  }\n\n  function isReserveActive(address _reserve) external view returns (bool) {\n    return reserves[_reserve].isActive;\n  }\n\n  function getTotalLiquidity(address _reserve) external view returns (uint256) {\n    return reserves[_reserve].totalLiquidity;\n  }\n\n  function setTotalLiquidity(address _reserve, uint256 _totalLiquidity)\n    external\n  {\n    reserves[_reserve].totalLiquidity = _totalLiquidity;\n  }\n\n  function getAvailableLiquidity(address _reserve)\n    external\n    view\n    returns (uint256)\n  {\n    return reserves[_reserve].availableLiquidity;\n  }\n\n  function setAvailableLiquidity(address _reserve, uint256 _availableLiquidity)\n    external\n  {\n    reserves[_reserve].availableLiquidity = _availableLiquidity;\n  }\n\n  function addLiquidity(address _reserve, uint256 _liquidity)\n  external\n  {\n    reserves[_reserve].totalLiquidity += _liquidity;\n    reserves[_reserve].availableLiquidity += _liquidity;\n  }\n\n  function setTokenContract(address _reserve, address _contractAddress)\n    external\n  {\n    reserves[_reserve].vTokenContract = _contractAddress;\n  }\n\n  function getVTokenContract(address _reserve) public view returns (address) {\n    return reserves[_reserve].vTokenContract;\n  }\n\n  function isActive(address _reserve) external view returns (bool) {\n    return reserves[_reserve].isActive;\n  }\n\n  function setActive(address _reserve, bool _active) external {\n    reserves[_reserve].isActive = _active;\n  }\n\n  function getLoanToValue(address _reserve) external view returns (uint256) {\n    return reserves[_reserve].loanToValue;\n  }\n\n  function getLiquidationThreshold(address _reserve)\n    external\n    view\n    returns (uint256)\n  {\n    return reserves[_reserve].liquidationThreshold;\n  }\n\n  function getLiquidationBonus(address _reserve)\n    external\n    view\n    returns (uint256)\n  {\n    return reserves[_reserve].liquidationBonus;\n  }\n\n  function getReserveSymbol(address _reserve)\n    external\n    view\n    returns (string memory)\n  {\n    return VToken(getVTokenContract(_reserve)).symbol();\n  }\n\n  function getReservesQty() external view returns (uint256) {\n    return reservesList.length;\n  }\n\n  function getReserveByIndex(uint256 _index) external view returns (address) {\n    return reservesList[_index];\n  }\n}\n",
  "sourcePath": "/Users/mikhail/Coding/jucifi/contracts/repositories/ReserveRepository.sol",
  "compiler": {
    "name": "solc",
    "version": "0.6.10+commit.00c0fcaf.Emscripten.clang"
  },
  "schemaVersion": "3.2.5",
  "updatedAt": "2020-10-22T22:43:29.087Z",
  "networkType": "ethereum",
  "devdoc": {
    "methods": {}
  },
  "userdoc": {
    "methods": {}
  }
}