{
  "contractName": "AaveProvider",
  "abi": [
    {
      "inputs": [
        {
          "internalType": "address",
          "name": "_lendingPoolAddress",
          "type": "address"
        }
      ],
      "stateMutability": "nonpayable",
      "type": "constructor"
    },
    {
      "anonymous": false,
      "inputs": [
        {
          "indexed": true,
          "internalType": "address",
          "name": "previousOwner",
          "type": "address"
        },
        {
          "indexed": true,
          "internalType": "address",
          "name": "newOwner",
          "type": "address"
        }
      ],
      "name": "OwnershipTransferred",
      "type": "event"
    },
    {
      "inputs": [
        {
          "internalType": "address",
          "name": "_reserve",
          "type": "address"
        }
      ],
      "name": "getAvaibleLiquidity",
      "outputs": [
        {
          "internalType": "uint256",
          "name": "",
          "type": "uint256"
        }
      ],
      "stateMutability": "view",
      "type": "function"
    },
    {
      "inputs": [],
      "name": "owner",
      "outputs": [
        {
          "internalType": "address",
          "name": "",
          "type": "address"
        }
      ],
      "stateMutability": "view",
      "type": "function"
    },
    {
      "inputs": [],
      "name": "renounceOwnership",
      "outputs": [],
      "stateMutability": "nonpayable",
      "type": "function"
    },
    {
      "inputs": [
        {
          "internalType": "address",
          "name": "newOwner",
          "type": "address"
        }
      ],
      "name": "transferOwnership",
      "outputs": [],
      "stateMutability": "nonpayable",
      "type": "function"
    },
    {
      "inputs": [
        {
          "internalType": "address",
          "name": "_reserve",
          "type": "address"
        },
        {
          "internalType": "uint256",
          "name": "_amount",
          "type": "uint256"
        }
      ],
      "name": "deposit",
      "outputs": [],
      "stateMutability": "payable",
      "type": "function"
    },
    {
      "inputs": [
        {
          "internalType": "address",
          "name": "_reserve",
          "type": "address"
        },
        {
          "internalType": "address payable",
          "name": "_user",
          "type": "address"
        },
        {
          "internalType": "uint256",
          "name": "_amount",
          "type": "uint256"
        }
      ],
      "name": "redeemUnderlying",
      "outputs": [],
      "stateMutability": "nonpayable",
      "type": "function"
    },
    {
      "inputs": [],
      "name": "getReserves",
      "outputs": [
        {
          "internalType": "address[]",
          "name": "",
          "type": "address[]"
        }
      ],
      "stateMutability": "nonpayable",
      "type": "function"
    },
    {
      "inputs": [
        {
          "internalType": "address",
          "name": "_reserveAddress",
          "type": "address"
        }
      ],
      "name": "getReserveData",
      "outputs": [
        {
          "internalType": "uint256",
          "name": "totalLiquidity",
          "type": "uint256"
        },
        {
          "internalType": "uint256",
          "name": "availableLiquidity",
          "type": "uint256"
        },
        {
          "internalType": "uint256",
          "name": "totalBorrowsVariable",
          "type": "uint256"
        },
        {
          "internalType": "uint256",
          "name": "liquidityRate",
          "type": "uint256"
        },
        {
          "internalType": "uint256",
          "name": "variableBorrowRate",
          "type": "uint256"
        },
        {
          "internalType": "uint256",
          "name": "utilizationRate",
          "type": "uint256"
        },
        {
          "internalType": "uint256",
          "name": "liquidityIndex",
          "type": "uint256"
        },
        {
          "internalType": "uint256",
          "name": "variableBorrowIndex",
          "type": "uint256"
        },
        {
          "internalType": "address",
          "name": "aTokenAddress",
          "type": "address"
        },
        {
          "internalType": "uint40",
          "name": "lastUpdateTimestamp",
          "type": "uint40"
        }
      ],
      "stateMutability": "view",
      "type": "function"
    },
    {
      "inputs": [
        {
          "internalType": "address",
          "name": "_reserveAddress",
          "type": "address"
        }
      ],
      "name": "getReserveLiquidityRate",
      "outputs": [
        {
          "internalType": "uint256",
          "name": "liquidityRate",
          "type": "uint256"
        }
      ],
      "stateMutability": "view",
      "type": "function"
    },
    {
      "inputs": [
        {
          "internalType": "address",
          "name": "_reserveAddress",
          "type": "address"
        }
      ],
      "name": "getReserveBorrowRate",
      "outputs": [
        {
          "internalType": "uint256",
          "name": "variableBorrowRate",
          "type": "uint256"
        }
      ],
      "stateMutability": "view",
      "type": "function"
    }
  ],
  "bytecode": "0x608060405234801561001057600080fd5b506040516112933803806112938339818101604052602081101561003357600080fd5b8101908080519060200190929190505050600061005461013960201b60201c565b9050806000806101000a81548173ffffffffffffffffffffffffffffffffffffffff021916908373ffffffffffffffffffffffffffffffffffffffff1602179055508073ffffffffffffffffffffffffffffffffffffffff16600073ffffffffffffffffffffffffffffffffffffffff167f8be0079c531659141344cd1fd0a4f28419497f9722a3daafe3b4186f6b6457e060405160405180910390a35080600360006101000a81548173ffffffffffffffffffffffffffffffffffffffff021916908373ffffffffffffffffffffffffffffffffffffffff16021790555050610141565b600033905090565b611143806101506000396000f3fe6080604052600436106100915760003560e01c8063684e505d11610059578063684e505d146102f8578063715018a61461035d5780638da5cb5b14610374578063935642cf146103cb578063f2fde38b1461044657610091565b80630902f1ac1461009657806335ea6a7514610102578063476fe790146101e057806347e7ef24146102455780634be5c6a114610293575b600080fd5b3480156100a257600080fd5b506100ab610497565b6040518080602001828103825283818151815260200191508051906020019060200280838360005b838110156100ee5780820151818401526020810190506100d3565b505050509050019250505060405180910390f35b34801561010e57600080fd5b506101516004803603602081101561012557600080fd5b81019080803573ffffffffffffffffffffffffffffffffffffffff1690602001909291905050506105c0565b604051808b81526020018a81526020018981526020018881526020018781526020018681526020018581526020018481526020018373ffffffffffffffffffffffffffffffffffffffff1673ffffffffffffffffffffffffffffffffffffffff1681526020018264ffffffffff1664ffffffffff1681526020019a505050505050505050505060405180910390f35b3480156101ec57600080fd5b5061022f6004803603602081101561020357600080fd5b81019080803573ffffffffffffffffffffffffffffffffffffffff1690602001909291905050506105dc565b6040518082815260200191505060405180910390f35b6102916004803603604081101561025b57600080fd5b81019080803573ffffffffffffffffffffffffffffffffffffffff16906020019092919080359060200190929190505050610625565b005b34801561029f57600080fd5b506102e2600480360360208110156102b657600080fd5b81019080803573ffffffffffffffffffffffffffffffffffffffff1690602001909291905050506106e6565b6040518082815260200191505060405180910390f35b34801561030457600080fd5b506103476004803603602081101561031b57600080fd5b81019080803573ffffffffffffffffffffffffffffffffffffffff16906020019092919050505061087c565b6040518082815260200191505060405180910390f35b34801561036957600080fd5b50610372610a13565b005b34801561038057600080fd5b50610389610b9b565b604051808273ffffffffffffffffffffffffffffffffffffffff1673ffffffffffffffffffffffffffffffffffffffff16815260200191505060405180910390f35b3480156103d757600080fd5b50610444600480360360608110156103ee57600080fd5b81019080803573ffffffffffffffffffffffffffffffffffffffff169060200190929190803573ffffffffffffffffffffffffffffffffffffffff16906020019092919080359060200190929190505050610bc4565b005b34801561045257600080fd5b506104956004803603602081101561046957600080fd5b81019080803573ffffffffffffffffffffffffffffffffffffffff169060200190929190505050610cb7565b005b60606104a1610ec4565b73ffffffffffffffffffffffffffffffffffffffff16630902f1ac6040518163ffffffff1660e01b815260040160006040518083038186803b1580156104e657600080fd5b505afa1580156104fa573d6000803e3d6000fd5b505050506040513d6000823e3d601f19601f82011682018060405250602081101561052457600080fd5b810190808051604051939291908464010000000082111561054457600080fd5b8382019150602082018581111561055a57600080fd5b825186602082028301116401000000008211171561057757600080fd5b8083526020830192505050908051906020019060200280838360005b838110156105ae578082015181840152602081019050610593565b50505050905001604052505050905090565b6000806000806000806000806000809193959799509193959799565b6000600260008373ffffffffffffffffffffffffffffffffffffffff1673ffffffffffffffffffffffffffffffffffffffff168152602001908152602001600020549050919050565b61062d610ec4565b73ffffffffffffffffffffffffffffffffffffffff1663d2d0e066838360006040518463ffffffff1660e01b8152600401808473ffffffffffffffffffffffffffffffffffffffff1673ffffffffffffffffffffffffffffffffffffffff1681526020018381526020018261ffff1681526020019350505050600060405180830381600087803b1580156106c057600080fd5b505af11580156106d4573d6000803e3d6000fd5b505050506106e28282610eee565b5050565b60006106f0610ec4565b73ffffffffffffffffffffffffffffffffffffffff166335ea6a75836040518263ffffffff1660e01b8152600401808273ffffffffffffffffffffffffffffffffffffffff1673ffffffffffffffffffffffffffffffffffffffff1681526020019150506101a06040518083038186803b15801561076d57600080fd5b505afa158015610781573d6000803e3d6000fd5b505050506040513d6101a081101561079857600080fd5b8101908080519060200190929190805190602001909291908051906020019092919080519060200190929190805190602001909291908051906020019092919080519060200190929190805190602001909291908051906020019092919080519060200190929190805190602001909291908051906020019092919080519060200190929190505050909192939495969798999a9b50909192939495969798999a5090919293949596979899509091929394959697985090919293949596509091929394955090919293945090919293509091925090915090505080915050919050565b6000610886610ec4565b73ffffffffffffffffffffffffffffffffffffffff166335ea6a75836040518263ffffffff1660e01b8152600401808273ffffffffffffffffffffffffffffffffffffffff1673ffffffffffffffffffffffffffffffffffffffff1681526020019150506101a06040518083038186803b15801561090357600080fd5b505afa158015610917573d6000803e3d6000fd5b505050506040513d6101a081101561092e57600080fd5b8101908080519060200190929190805190602001909291908051906020019092919080519060200190929190805190602001909291908051906020019092919080519060200190929190805190602001909291908051906020019092919080519060200190929190805190602001909291908051906020019092919080519060200190929190505050909192939495969798999a9b50909192939495969798999a509091929394959697989950909192939495969798509091929394959697509091929394955090919293945090919293509091925090915090505080915050919050565b610a1b610f8c565b73ffffffffffffffffffffffffffffffffffffffff166000809054906101000a900473ffffffffffffffffffffffffffffffffffffffff1673ffffffffffffffffffffffffffffffffffffffff1614610adc576040517f08c379a00000000000000000000000000000000000000000000000000000000081526004018080602001828103825260208152602001807f4f776e61626c653a2063616c6c6572206973206e6f7420746865206f776e657281525060200191505060405180910390fd5b600073ffffffffffffffffffffffffffffffffffffffff166000809054906101000a900473ffffffffffffffffffffffffffffffffffffffff1673ffffffffffffffffffffffffffffffffffffffff167f8be0079c531659141344cd1fd0a4f28419497f9722a3daafe3b4186f6b6457e060405160405180910390a360008060006101000a81548173ffffffffffffffffffffffffffffffffffffffff021916908373ffffffffffffffffffffffffffffffffffffffff160217905550565b60008060009054906101000a900473ffffffffffffffffffffffffffffffffffffffff16905090565b610bcc610ec4565b73ffffffffffffffffffffffffffffffffffffffff16639895e3d884848460006040518563ffffffff1660e01b8152600401808573ffffffffffffffffffffffffffffffffffffffff1673ffffffffffffffffffffffffffffffffffffffff1681526020018473ffffffffffffffffffffffffffffffffffffffff1673ffffffffffffffffffffffffffffffffffffffff168152602001838152602001828152602001945050505050600060405180830381600087803b158015610c8f57600080fd5b505af1158015610ca3573d6000803e3d6000fd5b50505050610cb2838383610f94565b505050565b610cbf610f8c565b73ffffffffffffffffffffffffffffffffffffffff166000809054906101000a900473ffffffffffffffffffffffffffffffffffffffff1673ffffffffffffffffffffffffffffffffffffffff1614610d80576040517f08c379a00000000000000000000000000000000000000000000000000000000081526004018080602001828103825260208152602001807f4f776e61626c653a2063616c6c6572206973206e6f7420746865206f776e657281525060200191505060405180910390fd5b600073ffffffffffffffffffffffffffffffffffffffff168173ffffffffffffffffffffffffffffffffffffffff161415610e06576040517f08c379a00000000000000000000000000000000000000000000000000000000081526004018080602001828103825260268152602001806110e86026913960400191505060405180910390fd5b8073ffffffffffffffffffffffffffffffffffffffff166000809054906101000a900473ffffffffffffffffffffffffffffffffffffffff1673ffffffffffffffffffffffffffffffffffffffff167f8be0079c531659141344cd1fd0a4f28419497f9722a3daafe3b4186f6b6457e060405160405180910390a3806000806101000a81548173ffffffffffffffffffffffffffffffffffffffff021916908373ffffffffffffffffffffffffffffffffffffffff16021790555050565b6000600360009054906101000a900473ffffffffffffffffffffffffffffffffffffffff16905090565b80600160008473ffffffffffffffffffffffffffffffffffffffff1673ffffffffffffffffffffffffffffffffffffffff1681526020019081526020016000206000828254019250508190555080600260008473ffffffffffffffffffffffffffffffffffffffff1673ffffffffffffffffffffffffffffffffffffffff168152602001908152602001600020600082825401925050819055505050565b600033905090565b80600260008573ffffffffffffffffffffffffffffffffffffffff1673ffffffffffffffffffffffffffffffffffffffff1681526020019081526020016000205411611048576040517f08c379a00000000000000000000000000000000000000000000000000000000081526004018080602001828103825260148152602001807f4e6f7420656e6f756768206c697175696469747900000000000000000000000081525060200191505060405180910390fd5b80600160008573ffffffffffffffffffffffffffffffffffffffff1673ffffffffffffffffffffffffffffffffffffffff1681526020019081526020016000206000828254039250508190555080600260008573ffffffffffffffffffffffffffffffffffffffff1673ffffffffffffffffffffffffffffffffffffffff1681526020019081526020016000206000828254039250508190555050505056fe4f776e61626c653a206e6577206f776e657220697320746865207a65726f2061646472657373a2646970667358221220e6ab442a0ee56e7196f725834c33088ef3c390bc7d2c4aa55146f8c8b35b9a8c64736f6c634300060a0033",
  "immutableReferences": {},
  "source": "// SPDX-License-Identifier: agpl-3.0\npragma solidity ^0.6.10;\n\n// Import interface for ERC20 standard\nimport \"openzeppelin-solidity/contracts/token/ERC20/IERC20.sol\";\n\nimport \"../libraries/CoreLibrary.sol\";\n\nimport \"./AbstractProvider.sol\";\nimport \"./aave-protocol/IAaveLendingPool.sol\";\nimport \"./aave-protocol/ILendingPoolCore.sol\";\n\ncontract AaveProvider is AbstractProvider {\n  address private lendingPoolAddress;\n\n  // address private lendingPoolCoreAddress;\n\n  constructor(address _lendingPoolAddress)\n    public\n  {\n    lendingPoolAddress = _lendingPoolAddress;\n    // lendingPoolCoreAddress = _lendingPoolCoreAddress;\n  }\n\n  // Deposit money to provider pool\n  function deposit(address _reserve, uint256 _amount) public override payable {\n    getLendingPool().deposit(_reserve, _amount, 0);\n    super.deposit(_reserve, _amount);\n  }\n\n  function redeemUnderlying(\n    address _reserve,\n    address payable _user,\n    uint256 _amount\n  ) public virtual override {\n    getLendingPool().redeemUnderlying(_reserve, _user, _amount, 0);\n    super.redeemUnderlying(_reserve, _user, _amount);\n  }\n\n  function getReserves() external override returns (address[] memory) {\n    return getLendingPool().getReserves();\n  }\n\n  function getLendingPool() internal view returns (IAaveLendingPool) {\n    return IAaveLendingPool(lendingPoolAddress);\n  }\n\n  // function getLendingPoolCore() internal view returns (ILendingPoolCore) {\n  //     return ILendingPoolCore(lendingPoolCoreAddress);\n  // }\n\n  function getReserveData(address _reserveAddress)\n    external\n    override\n    view\n    returns (\n      uint256 totalLiquidity,\n      uint256 availableLiquidity,\n      uint256 totalBorrowsVariable,\n      uint256 liquidityRate,\n      uint256 variableBorrowRate,\n      uint256 utilizationRate,\n      uint256 liquidityIndex,\n      uint256 variableBorrowIndex,\n      address aTokenAddress,\n      uint40 lastUpdateTimestamp\n    )\n  {\n    // (\n    //     totalLiquidity,\n    //     availableLiquidity,\n    //     ,\n    //     totalBorrowsVariable,\n    //     liquidityRate,\n    //     variableBorrowRate,\n    //     ,\n    //     ,\n    //     utilizationRate,\n    //     liquidityIndex,\n    //     variableBorrowIndex,\n    //     aTokenAddress,\n    //     lastUpdateTimestamp\n    // ) = getLendingPool().getReserveData(_reserveAddress);\n  }\n\n  function getReserveLiquidityRate(address _reserveAddress)\n    external\n    override\n    view\n    returns (uint256 liquidityRate)\n  {\n    (, , , , liquidityRate, , , , , , , , ) = getLendingPool().getReserveData(\n      _reserveAddress\n    );\n  }\n\n  function getReserveBorrowRate(address _reserveAddress)\n    external\n    override\n    view\n    returns (uint256 variableBorrowRate)\n  {\n    (, , , , , variableBorrowRate, , , , , , , ) = getLendingPool()\n      .getReserveData(_reserveAddress);\n  }\n}\n",
  "sourcePath": "/Users/mikhail/Coding/jucifi/contracts/providers/AaveProvider.sol",
  "compiler": {
    "name": "solc",
    "version": "0.6.10+commit.00c0fcaf.Emscripten.clang"
  },
  "schemaVersion": "3.2.5",
  "updatedAt": "2020-10-16T20:57:39.845Z",
  "devdoc": {
    "methods": {
      "owner()": {
        "details": "Returns the address of the current owner."
      },
      "renounceOwnership()": {
        "details": "Leaves the contract without owner. It will not be possible to call `onlyOwner` functions anymore. Can only be called by the current owner. NOTE: Renouncing ownership will leave the contract without an owner, thereby removing any functionality that is only available to the owner."
      },
      "transferOwnership(address)": {
        "details": "Transfers ownership of the contract to a new account (`newOwner`). Can only be called by the current owner."
      }
    }
  },
  "userdoc": {
    "methods": {}
  }
}