{
  "contractName": "AaveProvider",
  "abi": [
    {
      "inputs": [
        {
          "internalType": "address",
          "name": "_lendingPoolAddress",
          "type": "address"
        },
        {
          "internalType": "address",
          "name": "_lendingPoolCoreAddress",
          "type": "address"
        }
      ],
      "stateMutability": "nonpayable",
      "type": "constructor"
    },
    {
      "inputs": [
        {
          "internalType": "address",
          "name": "_reserve",
          "type": "address"
        },
        {
          "internalType": "uint256",
          "name": "_amount",
          "type": "uint256"
        }
      ],
      "name": "deposit",
      "outputs": [],
      "stateMutability": "payable",
      "type": "function"
    },
    {
      "inputs": [
        {
          "internalType": "address",
          "name": "_reserve",
          "type": "address"
        },
        {
          "internalType": "uint256",
          "name": "_amount",
          "type": "uint256"
        }
      ],
      "name": "withdraw",
      "outputs": [],
      "stateMutability": "nonpayable",
      "type": "function"
    },
    {
      "inputs": [],
      "name": "getReserves",
      "outputs": [
        {
          "internalType": "address[]",
          "name": "",
          "type": "address[]"
        }
      ],
      "stateMutability": "nonpayable",
      "type": "function"
    },
    {
      "inputs": [
        {
          "internalType": "address",
          "name": "_reserveAddress",
          "type": "address"
        }
      ],
      "name": "getReserveData",
      "outputs": [
        {
          "internalType": "uint256",
          "name": "totalLiquidity",
          "type": "uint256"
        },
        {
          "internalType": "uint256",
          "name": "availableLiquidity",
          "type": "uint256"
        },
        {
          "internalType": "uint256",
          "name": "totalBorrowsStable",
          "type": "uint256"
        },
        {
          "internalType": "uint256",
          "name": "totalBorrowsVariable",
          "type": "uint256"
        },
        {
          "internalType": "uint256",
          "name": "liquidityRate",
          "type": "uint256"
        },
        {
          "internalType": "uint256",
          "name": "variableBorrowRate",
          "type": "uint256"
        },
        {
          "internalType": "uint256",
          "name": "stableBorrowRate",
          "type": "uint256"
        },
        {
          "internalType": "uint256",
          "name": "averageStableBorrowRate",
          "type": "uint256"
        },
        {
          "internalType": "uint256",
          "name": "utilizationRate",
          "type": "uint256"
        },
        {
          "internalType": "uint256",
          "name": "liquidityIndex",
          "type": "uint256"
        },
        {
          "internalType": "uint256",
          "name": "variableBorrowIndex",
          "type": "uint256"
        },
        {
          "internalType": "address",
          "name": "aTokenAddress",
          "type": "address"
        },
        {
          "internalType": "uint40",
          "name": "lastUpdateTimestamp",
          "type": "uint40"
        }
      ],
      "stateMutability": "view",
      "type": "function"
    }
  ],
  "bytecode": "0x608060405234801561001057600080fd5b506040516108e93803806108e98339818101604052604081101561003357600080fd5b8101908080519060200190929190805190602001909291905050506040518060400160405280600481526020017f4161766500000000000000000000000000000000000000000000000000000000815250806000908051906020019061009a929190610125565b505081600160006101000a81548173ffffffffffffffffffffffffffffffffffffffff021916908373ffffffffffffffffffffffffffffffffffffffff16021790555080600260006101000a81548173ffffffffffffffffffffffffffffffffffffffff021916908373ffffffffffffffffffffffffffffffffffffffff16021790555050506101ca565b828054600181600116156101000203166002900490600052602060002090601f016020900481019282601f1061016657805160ff1916838001178555610194565b82800160010185558215610194579182015b82811115610193578251825591602001919060010190610178565b5b5090506101a191906101a5565b5090565b6101c791905b808211156101c35760008160009055506001016101ab565b5090565b90565b610710806101d96000396000f3fe60806040526004361061003f5760003560e01c80630902f1ac1461004457806335ea6a75146100b057806347e7ef24146101a3578063f3fef3a3146101f1575b600080fd5b34801561005057600080fd5b5061005961024c565b6040518080602001828103825283818151815260200191508051906020019060200280838360005b8381101561009c578082015181840152602081019050610081565b505050509050019250505060405180910390f35b3480156100bc57600080fd5b506100ff600480360360208110156100d357600080fd5b81019080803573ffffffffffffffffffffffffffffffffffffffff169060200190929190505050610375565b604051808e81526020018d81526020018c81526020018b81526020018a81526020018981526020018881526020018781526020018681526020018581526020018481526020018373ffffffffffffffffffffffffffffffffffffffff1673ffffffffffffffffffffffffffffffffffffffff1681526020018264ffffffffff1664ffffffffff1681526020019d505050505050505050505050505060405180910390f35b6101ef600480360360408110156101b957600080fd5b81019080803573ffffffffffffffffffffffffffffffffffffffff169060200190929190803590602001909291905050506104ed565b005b3480156101fd57600080fd5b5061024a6004803603604081101561021457600080fd5b81019080803573ffffffffffffffffffffffffffffffffffffffff169060200190929190803590602001909291905050506106ac565b005b60606102566106b0565b73ffffffffffffffffffffffffffffffffffffffff16630902f1ac6040518163ffffffff1660e01b815260040160006040518083038186803b15801561029b57600080fd5b505afa1580156102af573d6000803e3d6000fd5b505050506040513d6000823e3d601f19601f8201168201806040525060208110156102d957600080fd5b81019080805160405193929190846401000000008211156102f957600080fd5b8382019150602082018581111561030f57600080fd5b825186602082028301116401000000008211171561032c57600080fd5b8083526020830192505050908051906020019060200280838360005b83811015610363578082015181840152602081019050610348565b50505050905001604052505050905090565b60008060008060008060008060008060008060006103916106b0565b73ffffffffffffffffffffffffffffffffffffffff166335ea6a758f6040518263ffffffff1660e01b8152600401808273ffffffffffffffffffffffffffffffffffffffff1673ffffffffffffffffffffffffffffffffffffffff1681526020019150506101a06040518083038186803b15801561040e57600080fd5b505afa158015610422573d6000803e3d6000fd5b505050506040513d6101a081101561043957600080fd5b81019080805190602001909291908051906020019092919080519060200190929190805190602001909291908051906020019092919080519060200190929190805190602001909291908051906020019092919080519060200190929190805190602001909291908051906020019092919080519060200190929190805190602001909291905050509c509c509c509c509c509c509c509c509c509c509c509c509c5091939597999b9d90929496989a9c50565b6000736b175474e89094c44da98b954eedeac495271d0f905060008090508173ffffffffffffffffffffffffffffffffffffffff1663095ea7b3600260009054906101000a900473ffffffffffffffffffffffffffffffffffffffff16856040518363ffffffff1660e01b8152600401808373ffffffffffffffffffffffffffffffffffffffff1673ffffffffffffffffffffffffffffffffffffffff16815260200182815260200192505050602060405180830381600087803b1580156105b457600080fd5b505af11580156105c8573d6000803e3d6000fd5b505050506040513d60208110156105de57600080fd5b8101908080519060200190929190505050506105f86106b0565b73ffffffffffffffffffffffffffffffffffffffff1663d2d0e0668585846040518463ffffffff1660e01b8152600401808473ffffffffffffffffffffffffffffffffffffffff1673ffffffffffffffffffffffffffffffffffffffff1681526020018381526020018261ffff1661ffff1681526020019350505050600060405180830381600087803b15801561068e57600080fd5b505af11580156106a2573d6000803e3d6000fd5b5050505050505050565b5050565b6000600160009054906101000a900473ffffffffffffffffffffffffffffffffffffffff1690509056fea2646970667358221220afa6e40a996ab025df84794ab95ef8fad09423b1a700d7ca74b008b186c30ff164736f6c634300060a0033",
  "immutableReferences": {},
  "source": "// SPDX-License-Identifier: agpl-3.0\npragma solidity ^0.6.10;\n\n// Import interface for ERC20 standard\nimport \"openzeppelin-solidity/contracts/token/ERC20/IERC20.sol\";\n\nimport \"../libraries/CoreLibrary.sol\";\n\nimport \"./AbstractProvider.sol\";\nimport \"./aave-protocol/ILendingPool.sol\";\nimport \"./aave-protocol/ILendingPoolCore.sol\";\n\ncontract AaveProvider is AbstractProvider(\"Aave\") {\n    address private lendingPoolAddress;\n    address private lendingPoolCoreAddress;\n\n    constructor(address _lendingPoolAddress, address _lendingPoolCoreAddress)\n        public\n    {\n        lendingPoolAddress = _lendingPoolAddress;\n        lendingPoolCoreAddress = _lendingPoolCoreAddress;\n    }\n\n    function deposit(address _reserve, uint256 _amount)\n        external\n        override\n        payable\n    {\n        // Input variables\n        address daiAddress = address(\n            0x6B175474E89094C44Da98b954EedeAC495271d0F\n        ); // mainnet DAI\n        // reserveData.amount = 1000 * 1e18;\n        uint16 referral = 0;\n\n        // Approve LendingPool contract to move your DAI\n        IERC20(daiAddress).approve(lendingPoolCoreAddress, _amount);\n\n        // Deposit 1000 DAI\n        getLendingPool().deposit(_reserve, _amount, referral);\n    }\n\n    function withdraw(address _reserve, uint256 _amount) external override {}\n\n    function getReserves() external override returns (address[] memory) {\n        return getLendingPool().getReserves();\n    }\n\n    function getLendingPool() internal view returns (ILendingPool) {\n        return ILendingPool(lendingPoolAddress);\n    }\n\n    function getLendingPoolCore() internal returns (ILendingPoolCore) {\n        return ILendingPoolCore(lendingPoolCoreAddress);\n    }\n\n    function getReserveData(address _reserveAddress)\n    external\n    override\n    view\n    returns (\n        uint256 totalLiquidity,\n        uint256 availableLiquidity,\n        uint256 totalBorrowsStable,\n        uint256 totalBorrowsVariable,\n        uint256 liquidityRate,\n        uint256 variableBorrowRate,\n        uint256 stableBorrowRate,\n        uint256 averageStableBorrowRate,\n        uint256 utilizationRate,\n        uint256 liquidityIndex,\n        uint256 variableBorrowIndex,\n        address aTokenAddress,\n        uint40 lastUpdateTimestamp\n    )\n    {\n        return getLendingPool().getReserveData(_reserveAddress);\n    }\n}\n",
  "sourcePath": "/Users/mikhail/Coding/jucifi/contracts/providers/AaveProvider.sol",
  "compiler": {
    "name": "solc",
    "version": "0.6.10+commit.00c0fcaf.Emscripten.clang"
  },
  "schemaVersion": "3.2.5",
  "updatedAt": "2020-10-12T18:56:21.378Z",
  "devdoc": {
    "methods": {}
  },
  "userdoc": {
    "methods": {}
  }
}