{
  "contractName": "AaveProvider",
  "abi": [
    {
      "inputs": [
        {
          "internalType": "address",
          "name": "_lendingPoolAddress",
          "type": "address"
        },
        {
          "internalType": "address",
          "name": "_lendingPoolCoreAddress",
          "type": "address"
        }
      ],
      "stateMutability": "nonpayable",
      "type": "constructor"
    },
    {
      "inputs": [
        {
          "internalType": "address",
          "name": "_reserve",
          "type": "address"
        },
        {
          "internalType": "uint256",
          "name": "_amount",
          "type": "uint256"
        }
      ],
      "name": "deposit",
      "outputs": [
        {
          "internalType": "uint256",
          "name": "",
          "type": "uint256"
        }
      ],
      "stateMutability": "payable",
      "type": "function"
    },
    {
      "inputs": [
        {
          "internalType": "address",
          "name": "_reserve",
          "type": "address"
        },
        {
          "internalType": "uint256",
          "name": "_amount",
          "type": "uint256"
        }
      ],
      "name": "withdraw",
      "outputs": [],
      "stateMutability": "nonpayable",
      "type": "function"
    }
  ],
  "bytecode": "0x608060405234801561001057600080fd5b506040516104ea3803806104ea8339818101604052604081101561003357600080fd5b8101908080519060200190929190805190602001909291905050506040518060400160405280600481526020017f4161766500000000000000000000000000000000000000000000000000000000815250806000908051906020019061009a929190610125565b505081600160006101000a81548173ffffffffffffffffffffffffffffffffffffffff021916908373ffffffffffffffffffffffffffffffffffffffff16021790555080600260006101000a81548173ffffffffffffffffffffffffffffffffffffffff021916908373ffffffffffffffffffffffffffffffffffffffff16021790555050506101ca565b828054600181600116156101000203166002900490600052602060002090601f016020900481019282601f1061016657805160ff1916838001178555610194565b82800160010185558215610194579182015b82811115610193578251825591602001919060010190610178565b5b5090506101a191906101a5565b5090565b6101c791905b808211156101c35760008160009055506001016101ab565b5090565b90565b610311806101d96000396000f3fe6080604052600436106100295760003560e01c806347e7ef241461002e578063f3fef3a314610090575b600080fd5b61007a6004803603604081101561004457600080fd5b81019080803573ffffffffffffffffffffffffffffffffffffffff169060200190929190803590602001909291905050506100eb565b6040518082815260200191505060405180910390f35b34801561009c57600080fd5b506100e9600480360360408110156100b357600080fd5b81019080803573ffffffffffffffffffffffffffffffffffffffff169060200190929190803590602001909291905050506102ad565b005b600080736b175474e89094c44da98b954eedeac495271d0f905060008090508173ffffffffffffffffffffffffffffffffffffffff1663095ea7b3600260009054906101000a900473ffffffffffffffffffffffffffffffffffffffff16866040518363ffffffff1660e01b8152600401808373ffffffffffffffffffffffffffffffffffffffff1673ffffffffffffffffffffffffffffffffffffffff16815260200182815260200192505050602060405180830381600087803b1580156101b357600080fd5b505af11580156101c7573d6000803e3d6000fd5b505050506040513d60208110156101dd57600080fd5b8101908080519060200190929190505050506101f76102b1565b73ffffffffffffffffffffffffffffffffffffffff1663d2d0e0668686846040518463ffffffff1660e01b8152600401808473ffffffffffffffffffffffffffffffffffffffff1673ffffffffffffffffffffffffffffffffffffffff1681526020018381526020018261ffff1661ffff1681526020019350505050600060405180830381600087803b15801561028d57600080fd5b505af11580156102a1573d6000803e3d6000fd5b50505050505092915050565b5050565b6000600160009054906101000a900473ffffffffffffffffffffffffffffffffffffffff1690509056fea2646970667358221220c6937f4e2bad9f4afb53df4473e6764704afb3ec1b8559858ccd071094b9ec8264736f6c634300060a0033",
  "immutableReferences": {},
  "source": "// SPDX-License-Identifier: agpl-3.0\npragma solidity ^0.6.10;\nimport \"./AbstractProvider.sol\";\n// Import interface for ERC20 standard\nimport \"openzeppelin-solidity/contracts/token/ERC20/IERC20.sol\";\nimport \"./aave-protocol/ILendingPool.sol\";\nimport \"./aave-protocol/ILendingPoolCore.sol\";\n\ncontract AaveProvider is AbstractProvider(\"Aave\") {\n    address private lendingPoolAddress;\n    address private lendingPoolCoreAddress;\n\n    constructor(address _lendingPoolAddress, address _lendingPoolCoreAddress)\n        public\n    {\n        lendingPoolAddress = _lendingPoolAddress;\n        lendingPoolCoreAddress = _lendingPoolCoreAddress;\n    }\n\n    function deposit(address _reserve, uint256 _amount)\n        external\n        override\n        payable\n        returns (uint256)\n    {\n        // Input variables\n        address daiAddress = address(\n            0x6B175474E89094C44Da98b954EedeAC495271d0F\n        ); // mainnet DAI\n        // uint256 amount = 1000 * 1e18;\n        uint16 referral = 0;\n\n        // Approve LendingPool contract to move your DAI\n        IERC20(daiAddress).approve(lendingPoolCoreAddress, _amount);\n\n        // Deposit 1000 DAI\n        getLendingPool().deposit(_reserve, _amount, referral);\n    }\n\n    function withdraw(address _reserve, uint256 _amount) external override {}\n\n    function getLendingPool() internal returns (ILendingPool) {\n        return ILendingPool(lendingPoolAddress);\n    }\n\n    function getLendingPoolCore() internal returns (ILendingPoolCore) {\n        return ILendingPoolCore(lendingPoolCoreAddress);\n    }\n\n    // function getReserveData)\n}\n",
  "sourcePath": "/Users/mikhail/Coding/jucifi/contracts/providers/AaveProvider.sol",
  "compiler": {
    "name": "solc",
    "version": "0.6.10+commit.00c0fcaf.Emscripten.clang"
  },
  "schemaVersion": "3.2.5",
  "updatedAt": "2020-10-09T11:22:24.583Z",
  "devdoc": {
    "methods": {}
  },
  "userdoc": {
    "methods": {}
  }
}