{
  "contractName": "AaveProvider",
  "abi": [
    {
      "inputs": [
        {
          "internalType": "address",
          "name": "_lendingPoolAddress",
          "type": "address"
        }
      ],
      "stateMutability": "nonpayable",
      "type": "constructor"
    },
    {
      "anonymous": false,
      "inputs": [
        {
          "indexed": false,
          "internalType": "address",
          "name": "_reserve",
          "type": "address"
        },
        {
          "indexed": false,
          "internalType": "uint256",
          "name": "_amount",
          "type": "uint256"
        }
      ],
      "name": "Deposit",
      "type": "event"
    },
    {
      "inputs": [
        {
          "internalType": "address",
          "name": "_reserve",
          "type": "address"
        },
        {
          "internalType": "uint256",
          "name": "_amount",
          "type": "uint256"
        }
      ],
      "name": "deposit",
      "outputs": [],
      "stateMutability": "payable",
      "type": "function"
    },
    {
      "inputs": [
        {
          "internalType": "address",
          "name": "_reserve",
          "type": "address"
        },
        {
          "internalType": "uint256",
          "name": "_amount",
          "type": "uint256"
        }
      ],
      "name": "withdraw",
      "outputs": [],
      "stateMutability": "nonpayable",
      "type": "function"
    },
    {
      "inputs": [],
      "name": "getReserves",
      "outputs": [
        {
          "internalType": "address[]",
          "name": "",
          "type": "address[]"
        }
      ],
      "stateMutability": "nonpayable",
      "type": "function"
    },
    {
      "inputs": [
        {
          "internalType": "address",
          "name": "_reserveAddress",
          "type": "address"
        }
      ],
      "name": "getReserveData",
      "outputs": [
        {
          "internalType": "uint256",
          "name": "totalLiquidity",
          "type": "uint256"
        },
        {
          "internalType": "uint256",
          "name": "availableLiquidity",
          "type": "uint256"
        },
        {
          "internalType": "uint256",
          "name": "totalBorrowsVariable",
          "type": "uint256"
        },
        {
          "internalType": "uint256",
          "name": "liquidityRate",
          "type": "uint256"
        },
        {
          "internalType": "uint256",
          "name": "variableBorrowRate",
          "type": "uint256"
        },
        {
          "internalType": "uint256",
          "name": "utilizationRate",
          "type": "uint256"
        },
        {
          "internalType": "uint256",
          "name": "liquidityIndex",
          "type": "uint256"
        },
        {
          "internalType": "uint256",
          "name": "variableBorrowIndex",
          "type": "uint256"
        },
        {
          "internalType": "address",
          "name": "aTokenAddress",
          "type": "address"
        },
        {
          "internalType": "uint40",
          "name": "lastUpdateTimestamp",
          "type": "uint40"
        }
      ],
      "stateMutability": "view",
      "type": "function"
    },
    {
      "inputs": [
        {
          "internalType": "address",
          "name": "_reserveAddress",
          "type": "address"
        }
      ],
      "name": "getReserveLiquidityRate",
      "outputs": [
        {
          "internalType": "uint256",
          "name": "liquidityRate",
          "type": "uint256"
        }
      ],
      "stateMutability": "view",
      "type": "function"
    },
    {
      "inputs": [
        {
          "internalType": "address",
          "name": "_reserveAddress",
          "type": "address"
        }
      ],
      "name": "getReserveBorrowRate",
      "outputs": [
        {
          "internalType": "uint256",
          "name": "variableBorrowRate",
          "type": "uint256"
        }
      ],
      "stateMutability": "view",
      "type": "function"
    }
  ],
  "bytecode": "0x608060405234801561001057600080fd5b50604051610a31380380610a318339818101604052602081101561003357600080fd5b81019080805190602001909291905050506040518060400160405280600481526020017f416176650000000000000000000000000000000000000000000000000000000081525080600090805190602001906100909291906100d9565b505080600160006101000a81548173ffffffffffffffffffffffffffffffffffffffff021916908373ffffffffffffffffffffffffffffffffffffffff1602179055505061017e565b828054600181600116156101000203166002900490600052602060002090601f016020900481019282601f1061011a57805160ff1916838001178555610148565b82800160010185558215610148579182015b8281111561014757825182559160200191906001019061012c565b5b5090506101559190610159565b5090565b61017b91905b8082111561017757600081600090555060010161015f565b5090565b90565b6108a48061018d6000396000f3fe6080604052600436106100555760003560e01c80630902f1ac1461005a57806335ea6a75146100c657806347e7ef24146101a45780634be5c6a1146101f2578063684e505d14610257578063f3fef3a3146102bc575b600080fd5b34801561006657600080fd5b5061006f610317565b6040518080602001828103825283818151815260200191508051906020019060200280838360005b838110156100b2578082015181840152602081019050610097565b505050509050019250505060405180910390f35b3480156100d257600080fd5b50610115600480360360208110156100e957600080fd5b81019080803573ffffffffffffffffffffffffffffffffffffffff169060200190929190505050610440565b604051808b81526020018a81526020018981526020018881526020018781526020018681526020018581526020018481526020018373ffffffffffffffffffffffffffffffffffffffff1673ffffffffffffffffffffffffffffffffffffffff1681526020018264ffffffffff1664ffffffffff1681526020019a505050505050505050505060405180910390f35b6101f0600480360360408110156101ba57600080fd5b81019080803573ffffffffffffffffffffffffffffffffffffffff1690602001909291908035906020019092919050505061045c565b005b3480156101fe57600080fd5b506102416004803603602081101561021557600080fd5b81019080803573ffffffffffffffffffffffffffffffffffffffff169060200190929190505050610513565b6040518082815260200191505060405180910390f35b34801561026357600080fd5b506102a66004803603602081101561027a57600080fd5b81019080803573ffffffffffffffffffffffffffffffffffffffff1690602001909291905050506106a9565b6040518082815260200191505060405180910390f35b3480156102c857600080fd5b50610315600480360360408110156102df57600080fd5b81019080803573ffffffffffffffffffffffffffffffffffffffff16906020019092919080359060200190929190505050610840565b005b6060610321610844565b73ffffffffffffffffffffffffffffffffffffffff16630902f1ac6040518163ffffffff1660e01b815260040160006040518083038186803b15801561036657600080fd5b505afa15801561037a573d6000803e3d6000fd5b505050506040513d6000823e3d601f19601f8201168201806040525060208110156103a457600080fd5b81019080805160405193929190846401000000008211156103c457600080fd5b838201915060208201858111156103da57600080fd5b82518660208202830111640100000000821117156103f757600080fd5b8083526020830192505050908051906020019060200280838360005b8381101561042e578082015181840152602081019050610413565b50505050905001604052505050905090565b6000806000806000806000806000809193959799509193959799565b610464610844565b73ffffffffffffffffffffffffffffffffffffffff1663d2d0e066838360006040518463ffffffff1660e01b8152600401808473ffffffffffffffffffffffffffffffffffffffff1673ffffffffffffffffffffffffffffffffffffffff1681526020018381526020018261ffff1681526020019350505050600060405180830381600087803b1580156104f757600080fd5b505af115801561050b573d6000803e3d6000fd5b505050505050565b600061051d610844565b73ffffffffffffffffffffffffffffffffffffffff166335ea6a75836040518263ffffffff1660e01b8152600401808273ffffffffffffffffffffffffffffffffffffffff1673ffffffffffffffffffffffffffffffffffffffff1681526020019150506101a06040518083038186803b15801561059a57600080fd5b505afa1580156105ae573d6000803e3d6000fd5b505050506040513d6101a08110156105c557600080fd5b8101908080519060200190929190805190602001909291908051906020019092919080519060200190929190805190602001909291908051906020019092919080519060200190929190805190602001909291908051906020019092919080519060200190929190805190602001909291908051906020019092919080519060200190929190505050909192939495969798999a9b50909192939495969798999a5090919293949596979899509091929394959697985090919293949596509091929394955090919293945090919293509091925090915090505080915050919050565b60006106b3610844565b73ffffffffffffffffffffffffffffffffffffffff166335ea6a75836040518263ffffffff1660e01b8152600401808273ffffffffffffffffffffffffffffffffffffffff1673ffffffffffffffffffffffffffffffffffffffff1681526020019150506101a06040518083038186803b15801561073057600080fd5b505afa158015610744573d6000803e3d6000fd5b505050506040513d6101a081101561075b57600080fd5b8101908080519060200190929190805190602001909291908051906020019092919080519060200190929190805190602001909291908051906020019092919080519060200190929190805190602001909291908051906020019092919080519060200190929190805190602001909291908051906020019092919080519060200190929190505050909192939495969798999a9b50909192939495969798999a509091929394959697989950909192939495969798509091929394959697509091929394955090919293945090919293509091925090915090505080915050919050565b5050565b6000600160009054906101000a900473ffffffffffffffffffffffffffffffffffffffff1690509056fea2646970667358221220dcda680a0220c6b57e3542757561ad54a0f633515cce0abd65890dd3886b419564736f6c634300060a0033",
  "immutableReferences": {},
  "source": "// SPDX-License-Identifier: agpl-3.0\npragma solidity ^0.6.10;\n\n// Import interface for ERC20 standard\nimport \"openzeppelin-solidity/contracts/token/ERC20/IERC20.sol\";\n\nimport \"../libraries/CoreLibrary.sol\";\n\nimport \"./AbstractProvider.sol\";\nimport \"./aave-protocol/IAaveLendingPool.sol\";\nimport \"./aave-protocol/ILendingPoolCore.sol\";\n\ncontract AaveProvider is AbstractProvider(\"Aave\") {\n    address private lendingPoolAddress;\n    // address private lendingPoolCoreAddress;\n\n    event Deposit(address _reserve, uint256 _amount);\n\n    constructor(address _lendingPoolAddress)\n        public\n    {\n        lendingPoolAddress = _lendingPoolAddress;\n        // lendingPoolCoreAddress = _lendingPoolCoreAddress;\n    }\n\n    // Deposit money to provider pool\n    function deposit(address _reserve, uint256 _amount)\n        external\n        override\n        payable\n    {\n        return getLendingPool().deposit(_reserve, _amount, 0);\n    }\n\n    function withdraw(address _reserve, uint256 _amount) external override {}\n\n    function getReserves() external override returns (address[] memory) {\n        return getLendingPool().getReserves();\n    }\n\n    function getLendingPool() internal view returns (IAaveLendingPool) {\n        return IAaveLendingPool(lendingPoolAddress);\n    }\n\n    // function getLendingPoolCore() internal view returns (ILendingPoolCore) {\n    //     return ILendingPoolCore(lendingPoolCoreAddress);\n    // }\n\n    function getReserveData(address _reserveAddress)\n        external\n        override\n        view\n        returns (\n            uint256 totalLiquidity,\n            uint256 availableLiquidity,\n            uint256 totalBorrowsVariable,\n            uint256 liquidityRate,\n            uint256 variableBorrowRate,\n            uint256 utilizationRate,\n            uint256 liquidityIndex,\n            uint256 variableBorrowIndex,\n            address aTokenAddress,\n            uint40 lastUpdateTimestamp\n        )\n    {\n        // (\n        //     totalLiquidity,\n        //     availableLiquidity,\n        //     ,\n        //     totalBorrowsVariable,\n        //     liquidityRate,\n        //     variableBorrowRate,\n        //     ,\n        //     ,\n        //     utilizationRate,\n        //     liquidityIndex,\n        //     variableBorrowIndex,\n        //     aTokenAddress,\n        //     lastUpdateTimestamp\n        // ) = getLendingPool().getReserveData(_reserveAddress);\n    }\n\n    function getReserveLiquidityRate(address _reserveAddress)\n        external\n        override\n        view\n        returns (uint256 liquidityRate)\n    {\n        (, , , , liquidityRate, , , , , , , , ) = getLendingPool()\n            .getReserveData(_reserveAddress);\n    }\n\n    function getReserveBorrowRate(address _reserveAddress)\n        external\n        override\n        view\n        returns (uint256 variableBorrowRate)\n    {\n        (, , , , , variableBorrowRate, , , , , , , ) = getLendingPool()\n            .getReserveData(_reserveAddress);\n    }\n}\n",
  "sourcePath": "/Users/mikhail/Coding/jucifi/contracts/providers/AaveProvider.sol",
  "compiler": {
    "name": "solc",
    "version": "0.6.10+commit.00c0fcaf.Emscripten.clang"
  },
  "schemaVersion": "3.2.5",
  "updatedAt": "2020-10-15T14:21:24.431Z",
  "devdoc": {
    "methods": {}
  },
  "userdoc": {
    "methods": {}
  }
}