{
  "contractName": "AaveLendingPoolMock",
  "abi": [
    {
      "anonymous": false,
      "inputs": [
        {
          "indexed": true,
          "internalType": "address",
          "name": "_reserve",
          "type": "address"
        },
        {
          "indexed": true,
          "internalType": "address",
          "name": "_user",
          "type": "address"
        },
        {
          "indexed": false,
          "internalType": "uint256",
          "name": "_amount",
          "type": "uint256"
        },
        {
          "indexed": false,
          "internalType": "uint256",
          "name": "_borrowRateMode",
          "type": "uint256"
        },
        {
          "indexed": false,
          "internalType": "uint256",
          "name": "_borrowRate",
          "type": "uint256"
        },
        {
          "indexed": false,
          "internalType": "uint256",
          "name": "_originationFee",
          "type": "uint256"
        },
        {
          "indexed": false,
          "internalType": "uint256",
          "name": "_borrowBalanceIncrease",
          "type": "uint256"
        },
        {
          "indexed": true,
          "internalType": "uint16",
          "name": "_referral",
          "type": "uint16"
        },
        {
          "indexed": false,
          "internalType": "uint256",
          "name": "_timestamp",
          "type": "uint256"
        }
      ],
      "name": "Borrow",
      "type": "event"
    },
    {
      "anonymous": false,
      "inputs": [
        {
          "indexed": true,
          "internalType": "address",
          "name": "_reserve",
          "type": "address"
        },
        {
          "indexed": true,
          "internalType": "address",
          "name": "_user",
          "type": "address"
        },
        {
          "indexed": false,
          "internalType": "uint256",
          "name": "_amount",
          "type": "uint256"
        },
        {
          "indexed": true,
          "internalType": "uint16",
          "name": "_referral",
          "type": "uint16"
        },
        {
          "indexed": false,
          "internalType": "uint256",
          "name": "_timestamp",
          "type": "uint256"
        },
        {
          "indexed": false,
          "internalType": "string",
          "name": "_mockId",
          "type": "string"
        }
      ],
      "name": "Deposit",
      "type": "event"
    },
    {
      "anonymous": false,
      "inputs": [
        {
          "indexed": true,
          "internalType": "address",
          "name": "_reserve",
          "type": "address"
        },
        {
          "indexed": true,
          "internalType": "address",
          "name": "_user",
          "type": "address"
        },
        {
          "indexed": false,
          "internalType": "uint256",
          "name": "_amount",
          "type": "uint256"
        },
        {
          "indexed": true,
          "internalType": "uint16",
          "name": "_referral",
          "type": "uint16"
        },
        {
          "indexed": false,
          "internalType": "uint256",
          "name": "_timestamp",
          "type": "uint256"
        }
      ],
      "name": "Deposit",
      "type": "event"
    },
    {
      "anonymous": false,
      "inputs": [
        {
          "indexed": true,
          "internalType": "address",
          "name": "_collateral",
          "type": "address"
        },
        {
          "indexed": true,
          "internalType": "address",
          "name": "_reserve",
          "type": "address"
        },
        {
          "indexed": true,
          "internalType": "address",
          "name": "_user",
          "type": "address"
        },
        {
          "indexed": false,
          "internalType": "uint256",
          "name": "_purchaseAmount",
          "type": "uint256"
        },
        {
          "indexed": false,
          "internalType": "uint256",
          "name": "_liquidatedCollateralAmount",
          "type": "uint256"
        },
        {
          "indexed": false,
          "internalType": "uint256",
          "name": "_accruedBorrowInterest",
          "type": "uint256"
        },
        {
          "indexed": false,
          "internalType": "address",
          "name": "_liquidator",
          "type": "address"
        },
        {
          "indexed": false,
          "internalType": "bool",
          "name": "_receiveAToken",
          "type": "bool"
        },
        {
          "indexed": false,
          "internalType": "uint256",
          "name": "_timestamp",
          "type": "uint256"
        }
      ],
      "name": "LiquidationCall",
      "type": "event"
    },
    {
      "anonymous": false,
      "inputs": [
        {
          "indexed": true,
          "internalType": "address",
          "name": "_collateral",
          "type": "address"
        },
        {
          "indexed": true,
          "internalType": "address",
          "name": "_reserve",
          "type": "address"
        },
        {
          "indexed": true,
          "internalType": "address",
          "name": "_user",
          "type": "address"
        },
        {
          "indexed": false,
          "internalType": "uint256",
          "name": "_feeLiquidated",
          "type": "uint256"
        },
        {
          "indexed": false,
          "internalType": "uint256",
          "name": "_liquidatedCollateralForFee",
          "type": "uint256"
        },
        {
          "indexed": false,
          "internalType": "uint256",
          "name": "_timestamp",
          "type": "uint256"
        }
      ],
      "name": "OriginationFeeLiquidated",
      "type": "event"
    },
    {
      "anonymous": false,
      "inputs": [
        {
          "indexed": true,
          "internalType": "address",
          "name": "_reserve",
          "type": "address"
        },
        {
          "indexed": true,
          "internalType": "address",
          "name": "_user",
          "type": "address"
        },
        {
          "indexed": false,
          "internalType": "uint256",
          "name": "_newStableRate",
          "type": "uint256"
        },
        {
          "indexed": false,
          "internalType": "uint256",
          "name": "_borrowBalanceIncrease",
          "type": "uint256"
        },
        {
          "indexed": false,
          "internalType": "uint256",
          "name": "_timestamp",
          "type": "uint256"
        }
      ],
      "name": "RebalanceStableBorrowRate",
      "type": "event"
    },
    {
      "anonymous": false,
      "inputs": [
        {
          "indexed": true,
          "internalType": "address",
          "name": "_reserve",
          "type": "address"
        },
        {
          "indexed": true,
          "internalType": "address",
          "name": "_user",
          "type": "address"
        },
        {
          "indexed": false,
          "internalType": "uint256",
          "name": "_amount",
          "type": "uint256"
        },
        {
          "indexed": false,
          "internalType": "uint256",
          "name": "_timestamp",
          "type": "uint256"
        }
      ],
      "name": "RedeemUnderlying",
      "type": "event"
    },
    {
      "anonymous": false,
      "inputs": [
        {
          "indexed": true,
          "internalType": "address",
          "name": "_reserve",
          "type": "address"
        },
        {
          "indexed": true,
          "internalType": "address",
          "name": "_user",
          "type": "address"
        },
        {
          "indexed": true,
          "internalType": "address",
          "name": "_repayer",
          "type": "address"
        },
        {
          "indexed": false,
          "internalType": "uint256",
          "name": "_amountMinusFees",
          "type": "uint256"
        },
        {
          "indexed": false,
          "internalType": "uint256",
          "name": "_fees",
          "type": "uint256"
        },
        {
          "indexed": false,
          "internalType": "uint256",
          "name": "_borrowBalanceIncrease",
          "type": "uint256"
        },
        {
          "indexed": false,
          "internalType": "uint256",
          "name": "_timestamp",
          "type": "uint256"
        }
      ],
      "name": "Repay",
      "type": "event"
    },
    {
      "anonymous": false,
      "inputs": [
        {
          "indexed": true,
          "internalType": "address",
          "name": "_reserve",
          "type": "address"
        },
        {
          "indexed": true,
          "internalType": "address",
          "name": "_user",
          "type": "address"
        }
      ],
      "name": "ReserveUsedAsCollateralDisabled",
      "type": "event"
    },
    {
      "anonymous": false,
      "inputs": [
        {
          "indexed": true,
          "internalType": "address",
          "name": "_reserve",
          "type": "address"
        },
        {
          "indexed": true,
          "internalType": "address",
          "name": "_user",
          "type": "address"
        }
      ],
      "name": "ReserveUsedAsCollateralEnabled",
      "type": "event"
    },
    {
      "anonymous": false,
      "inputs": [
        {
          "indexed": true,
          "internalType": "address",
          "name": "_reserve",
          "type": "address"
        },
        {
          "indexed": true,
          "internalType": "address",
          "name": "_user",
          "type": "address"
        },
        {
          "indexed": false,
          "internalType": "uint256",
          "name": "_newRateMode",
          "type": "uint256"
        },
        {
          "indexed": false,
          "internalType": "uint256",
          "name": "_newRate",
          "type": "uint256"
        },
        {
          "indexed": false,
          "internalType": "uint256",
          "name": "_borrowBalanceIncrease",
          "type": "uint256"
        },
        {
          "indexed": false,
          "internalType": "uint256",
          "name": "_timestamp",
          "type": "uint256"
        }
      ],
      "name": "Swap",
      "type": "event"
    },
    {
      "inputs": [
        {
          "internalType": "string",
          "name": "_mockId",
          "type": "string"
        }
      ],
      "name": "setMockId",
      "outputs": [],
      "stateMutability": "nonpayable",
      "type": "function"
    },
    {
      "inputs": [
        {
          "internalType": "address",
          "name": "_reserve",
          "type": "address"
        },
        {
          "internalType": "uint256",
          "name": "_amount",
          "type": "uint256"
        },
        {
          "internalType": "uint16",
          "name": "_referralCode",
          "type": "uint16"
        }
      ],
      "name": "deposit",
      "outputs": [],
      "stateMutability": "payable",
      "type": "function"
    },
    {
      "inputs": [
        {
          "internalType": "address",
          "name": "_reserveAddress",
          "type": "address"
        },
        {
          "internalType": "uint256",
          "name": "_totalLiquidity",
          "type": "uint256"
        },
        {
          "internalType": "uint256",
          "name": "_availableLiquidity",
          "type": "uint256"
        },
        {
          "internalType": "uint256",
          "name": "_totalBorrowsStable",
          "type": "uint256"
        },
        {
          "internalType": "uint256",
          "name": "_totalBorrowsVariable",
          "type": "uint256"
        },
        {
          "internalType": "uint256",
          "name": "_liquidityRate",
          "type": "uint256"
        },
        {
          "internalType": "uint256",
          "name": "_variableBorrowRate",
          "type": "uint256"
        },
        {
          "internalType": "uint256",
          "name": "_stableBorrowRate",
          "type": "uint256"
        },
        {
          "internalType": "uint256",
          "name": "_averageStableBorrowRate",
          "type": "uint256"
        },
        {
          "internalType": "uint256",
          "name": "_utilizationRate",
          "type": "uint256"
        },
        {
          "internalType": "uint256",
          "name": "_liquidityIndex",
          "type": "uint256"
        },
        {
          "internalType": "uint256",
          "name": "_variableBorrowIndex",
          "type": "uint256"
        },
        {
          "internalType": "address",
          "name": "_aTokenAddress",
          "type": "address"
        },
        {
          "internalType": "uint40",
          "name": "_lastUpdateTimestamp",
          "type": "uint40"
        }
      ],
      "name": "addReserve",
      "outputs": [],
      "stateMutability": "nonpayable",
      "type": "function"
    },
    {
      "inputs": [],
      "name": "getReserves",
      "outputs": [
        {
          "internalType": "address[]",
          "name": "",
          "type": "address[]"
        }
      ],
      "stateMutability": "view",
      "type": "function"
    },
    {
      "inputs": [
        {
          "internalType": "address",
          "name": "_reserveAddress",
          "type": "address"
        }
      ],
      "name": "getReserveData",
      "outputs": [
        {
          "internalType": "uint256",
          "name": "totalLiquidity",
          "type": "uint256"
        },
        {
          "internalType": "uint256",
          "name": "availableLiquidity",
          "type": "uint256"
        },
        {
          "internalType": "uint256",
          "name": "totalBorrowsStable",
          "type": "uint256"
        },
        {
          "internalType": "uint256",
          "name": "totalBorrowsVariable",
          "type": "uint256"
        },
        {
          "internalType": "uint256",
          "name": "liquidityRate",
          "type": "uint256"
        },
        {
          "internalType": "uint256",
          "name": "variableBorrowRate",
          "type": "uint256"
        },
        {
          "internalType": "uint256",
          "name": "stableBorrowRate",
          "type": "uint256"
        },
        {
          "internalType": "uint256",
          "name": "averageStableBorrowRate",
          "type": "uint256"
        },
        {
          "internalType": "uint256",
          "name": "utilizationRate",
          "type": "uint256"
        },
        {
          "internalType": "uint256",
          "name": "liquidityIndex",
          "type": "uint256"
        },
        {
          "internalType": "uint256",
          "name": "variableBorrowIndex",
          "type": "uint256"
        },
        {
          "internalType": "address",
          "name": "aTokenAddress",
          "type": "address"
        },
        {
          "internalType": "uint40",
          "name": "lastUpdateTimestamp",
          "type": "uint40"
        }
      ],
      "stateMutability": "view",
      "type": "function"
    }
  ],
  "bytecode": "0x608060405234801561001057600080fd5b50610c3e806100206000396000f3fe60806040526004361061004a5760003560e01c80630902f1ac1461004f57806335ea6a75146100bb5780637ead310b146101ae578063b5c97c6b14610276578063d2d0e06614610367575b600080fd5b34801561005b57600080fd5b506100646103c3565b6040518080602001828103825283818151815260200191508051906020019060200280838360005b838110156100a757808201518184015260208101905061008c565b505050509050019250505060405180910390f35b3480156100c757600080fd5b5061010a600480360360208110156100de57600080fd5b81019080803573ffffffffffffffffffffffffffffffffffffffff169060200190929190505050610451565b604051808e81526020018d81526020018c81526020018b81526020018a81526020018981526020018881526020018781526020018681526020018581526020018481526020018373ffffffffffffffffffffffffffffffffffffffff1673ffffffffffffffffffffffffffffffffffffffff1681526020018264ffffffffff1664ffffffffff1681526020019d505050505050505050505050505060405180910390f35b3480156101ba57600080fd5b50610274600480360360208110156101d157600080fd5b81019080803590602001906401000000008111156101ee57600080fd5b82018360208201111561020057600080fd5b8035906020019184600183028401116401000000008311171561022257600080fd5b91908080601f016020809104026020016040519081016040528093929190818152602001838380828437600081840152601f19601f820116905080830192505050505050509192919290505050610828565b005b34801561028257600080fd5b5061036560048036036101c081101561029a57600080fd5b81019080803573ffffffffffffffffffffffffffffffffffffffff1690602001909291908035906020019092919080359060200190929190803590602001909291908035906020019092919080359060200190929190803590602001909291908035906020019092919080359060200190929190803590602001909291908035906020019092919080359060200190929190803573ffffffffffffffffffffffffffffffffffffffff169060200190929190803564ffffffffff169060200190929190505050610842565b005b6103c16004803603606081101561037d57600080fd5b81019080803573ffffffffffffffffffffffffffffffffffffffff16906020019092919080359060200190929190803561ffff1690602001909291905050506108d5565b005b6060600080548060200260200160405190810160405280929190818152602001828054801561044757602002820191906000526020600020905b8160009054906101000a900473ffffffffffffffffffffffffffffffffffffffff1673ffffffffffffffffffffffffffffffffffffffff16815260200190600101908083116103fd575b5050505050905090565b6000806000806000806000806000806000806000600160008f73ffffffffffffffffffffffffffffffffffffffff1673ffffffffffffffffffffffffffffffffffffffff168152602001908152602001600020600001549c50600160008f73ffffffffffffffffffffffffffffffffffffffff1673ffffffffffffffffffffffffffffffffffffffff168152602001908152602001600020600101549b50600160008f73ffffffffffffffffffffffffffffffffffffffff1673ffffffffffffffffffffffffffffffffffffffff168152602001908152602001600020600201549a50600160008f73ffffffffffffffffffffffffffffffffffffffff1673ffffffffffffffffffffffffffffffffffffffff168152602001908152602001600020600301549950600160008f73ffffffffffffffffffffffffffffffffffffffff1673ffffffffffffffffffffffffffffffffffffffff168152602001908152602001600020600401549850600160008f73ffffffffffffffffffffffffffffffffffffffff1673ffffffffffffffffffffffffffffffffffffffff168152602001908152602001600020600501549750600160008f73ffffffffffffffffffffffffffffffffffffffff1673ffffffffffffffffffffffffffffffffffffffff168152602001908152602001600020600601549650600160008f73ffffffffffffffffffffffffffffffffffffffff1673ffffffffffffffffffffffffffffffffffffffff168152602001908152602001600020600701549550600160008f73ffffffffffffffffffffffffffffffffffffffff1673ffffffffffffffffffffffffffffffffffffffff168152602001908152602001600020600801549450600160008f73ffffffffffffffffffffffffffffffffffffffff1673ffffffffffffffffffffffffffffffffffffffff168152602001908152602001600020600901549350600160008f73ffffffffffffffffffffffffffffffffffffffff1673ffffffffffffffffffffffffffffffffffffffff168152602001908152602001600020600a01549250600160008f73ffffffffffffffffffffffffffffffffffffffff1673ffffffffffffffffffffffffffffffffffffffff168152602001908152602001600020600b0160009054906101000a900473ffffffffffffffffffffffffffffffffffffffff169150600160008f73ffffffffffffffffffffffffffffffffffffffff1673ffffffffffffffffffffffffffffffffffffffff168152602001908152602001600020600b0160149054906101000a900464ffffffffff16905091939597999b9d90929496989a9c50565b806002908051906020019061083e929190610b63565b5050565b60008e9080600181540180825580915050600190039060005260206000200160009091909190916101000a81548173ffffffffffffffffffffffffffffffffffffffff021916908373ffffffffffffffffffffffffffffffffffffffff1602179055506108b78e8e8e8e8e8e8e8e8e8a6109d7565b6108c58e8686868686610a94565b5050505050505050505050505050565b8061ffff163373ffffffffffffffffffffffffffffffffffffffff168473ffffffffffffffffffffffffffffffffffffffff167fe52bb6c1adabd9d432096d11efcae560dc5b4a142de7dd495411a77b46a5b7d28542600260405180848152602001838152602001806020018281038252838181546001816001161561010002031660029004815260200191508054600181600116156101000203166002900480156109c25780601f10610997576101008083540402835291602001916109c2565b820191906000526020600020905b8154815290600101906020018083116109a557829003601f168201915b505094505050505060405180910390a4505050565b6000600160008c73ffffffffffffffffffffffffffffffffffffffff1673ffffffffffffffffffffffffffffffffffffffff16815260200190815260200160002090508981600001819055508881600101819055508781600201819055508681600301819055508581600401819055508481600501819055508381600601819055508281600701819055508181600b0160146101000a81548164ffffffffff021916908364ffffffffff1602179055505050505050505050505050565b6000600160008873ffffffffffffffffffffffffffffffffffffffff1673ffffffffffffffffffffffffffffffffffffffff16815260200190815260200160002090508581600801819055508481600901819055508381600a01819055508281600b0160006101000a81548173ffffffffffffffffffffffffffffffffffffffff021916908373ffffffffffffffffffffffffffffffffffffffff1602179055508181600b0160146101000a81548164ffffffffff021916908364ffffffffff16021790555050505050505050565b828054600181600116156101000203166002900490600052602060002090601f016020900481019282601f10610ba457805160ff1916838001178555610bd2565b82800160010185558215610bd2579182015b82811115610bd1578251825591602001919060010190610bb6565b5b509050610bdf9190610be3565b5090565b610c0591905b80821115610c01576000816000905550600101610be9565b5090565b9056fea2646970667358221220aa37e6be78cd69d3eaeb556c21079ae76447d1b95d8d6b2800143e30774a0aca64736f6c634300060a0033",
  "immutableReferences": {},
  "source": "// SPDX-License-Identifier: agpl-3.0\npragma solidity ^0.6.10;\n\nimport \"../providers/aave-protocol/IAaveLendingPool.sol\";\n\ncontract AaveLendingPoolMock is IAaveLendingPool {\n    address[] private reserves;\n    mapping(address => ReserveData) reserveData;\n    string mockId;\n    //    LendingPoolCore public core;\n\n    /**\n     * @dev emitted on deposit\n     * @param _reserve the address of the reserve\n     * @param _user the address of the user\n     * @param _amount the amount to be deposited\n     * @param _referral the referral number of the action\n     * @param _timestamp the timestamp of the action\n     **/\n    event Deposit(\n        address indexed _reserve,\n        address indexed _user,\n        uint256 _amount,\n        uint16 indexed _referral,\n        uint256 _timestamp,\n        string _mockId\n    );\n\n    struct ReserveData {\n        uint256 totalLiquidity;\n        uint256 availableLiquidity;\n        uint256 totalBorrowsStable;\n        uint256 totalBorrowsVariable;\n        uint256 liquidityRate;\n        uint256 variableBorrowRate;\n        uint256 stableBorrowRate;\n        uint256 averageStableBorrowRate;\n        uint256 utilizationRate;\n        uint256 liquidityIndex;\n        uint256 variableBorrowIndex;\n        address aTokenAddress;\n        uint40 lastUpdateTimestamp;\n    }\n\n    function setMockId(string memory _mockId) external {\n        mockId = _mockId;\n    }\n\n    function deposit(\n        address _reserve,\n        uint256 _amount,\n        uint16 _referralCode\n    ) external override payable {\n        //        AToken aToken = AToken(core.getReserveATokenAddress(_reserve));\n        //\n        //        bool isFirstDeposit = aToken.balanceOf(msg.sender) == 0;\n        //\n        //        core.updateStateOnDeposit(_reserve, msg.sender, _amount, isFirstDeposit);\n        //\n        //        //minting AToken to user 1:1 with the specific exchange rate\n        //        aToken.mintOnDeposit(msg.sender, _amount);\n        //\n        //        //transfer to the core contract\n        //        core.transferToReserve.value(msg.value)(_reserve, msg.sender, _amount);\n\n        //solium-disable-next-line\n        emit Deposit(\n            _reserve,\n            msg.sender,\n            _amount,\n            _referralCode,\n            block.timestamp,\n            mockId\n        );\n    }\n\n    function addReserve(\n        address _reserveAddress,\n        // reserve total liquidity\n        uint256 _totalLiquidity,\n        //reserve available liquidity for borrowing\n        uint256 _availableLiquidity,\n        //the total borrows of the reserve at a stable rate. Expressed in the currency decimals\n        uint256 _totalBorrowsStable,\n        //the total borrows of the reserve at a variable rate. Expressed in the currency decimals\n        uint256 _totalBorrowsVariable,\n        //the current supply rate. Expressed in ray\n        uint256 _liquidityRate,\n        //current variable rate APY of the reserve pool, in Ray units.\n        uint256 _variableBorrowRate,\n        //current stable rate APY of the reserve pool, in Ray units.\n        uint256 _stableBorrowRate,\n        //current average stable borrow rate\n        uint256 _averageStableBorrowRate,\n        // expressed as total borrows/total liquidity.\n        uint256 _utilizationRate,\n        // cumulative liquidity index\n        uint256 _liquidityIndex,\n        // cumulative variable borrow index\n        uint256 _variableBorrowIndex,\n        // aTokens contract address for the specific _reserve\n        address _aTokenAddress,\n        // timestamp of the last update of reserve data\n        uint40 _lastUpdateTimestamp\n    ) external {\n        reserves.push(_reserveAddress);\n        setReserveData(\n            _reserveAddress,\n            _totalLiquidity,\n            _availableLiquidity,\n            _totalBorrowsStable,\n            _totalBorrowsVariable,\n            _liquidityRate,\n            _variableBorrowRate,\n            _stableBorrowRate,\n            _averageStableBorrowRate,\n            _lastUpdateTimestamp\n        );\n\n        setReserveDataAdditional(\n            _reserveAddress,\n            _utilizationRate,\n            _liquidityIndex,\n            _variableBorrowIndex,\n            _aTokenAddress,\n            _lastUpdateTimestamp\n        );\n    }\n\n    function setReserveData(\n        address _reserveAddress,\n        uint256 _totalLiquidity,\n        //reserve available liquidity for borrowing\n        uint256 _availableLiquidity,\n        //the total borrows of the reserve at a stable rate. Expressed in the currency decimals\n        uint256 _totalBorrowsStable,\n        //the total borrows of the reserve at a variable rate. Expressed in the currency decimals\n        uint256 _totalBorrowsVariable,\n        //the current supply rate. Expressed in ray\n        uint256 _liquidityRate,\n        //current variable rate APY of the reserve pool, in Ray units.\n        uint256 _variableBorrowRate,\n        uint256 _stableBorrowRate,\n        //current average stable borrow rate\n        uint256 _averageStableBorrowRate,\n        uint40 _lastUpdateTimestamp\n    ) internal {\n        ReserveData storage reserve = reserveData[_reserveAddress];\n        reserve.totalLiquidity = _totalLiquidity;\n        reserve.availableLiquidity = _availableLiquidity;\n        reserve.totalBorrowsStable = _totalBorrowsStable;\n        reserve.totalBorrowsVariable = _totalBorrowsVariable;\n        reserve.liquidityRate = _liquidityRate;\n        reserve.variableBorrowRate = _variableBorrowRate;\n        reserve.stableBorrowRate = _stableBorrowRate;\n        reserve.averageStableBorrowRate = _averageStableBorrowRate;\n        reserve.lastUpdateTimestamp = _lastUpdateTimestamp;\n    }\n\n    function setReserveDataAdditional(\n        address _reserveAddress,\n        // expressed as total borrows/total liquidity.\n        uint256 _utilizationRate,\n        // cumulative liquidity index\n        uint256 _liquidityIndex,\n        // cumulative variable borrow index\n        uint256 _variableBorrowIndex,\n        // aTokens contract address for the specific _reserve\n        address _aTokenAddress,\n        // timestamp of the last update of reserve data\n        uint40 _lastUpdateTimestamp\n    ) internal {\n        ReserveData storage reserve = reserveData[_reserveAddress];\n        reserve.utilizationRate = _utilizationRate;\n        reserve.liquidityIndex = _liquidityIndex;\n        reserve.variableBorrowIndex = _variableBorrowIndex;\n        reserve.aTokenAddress = _aTokenAddress;\n        reserve.lastUpdateTimestamp = _lastUpdateTimestamp;\n    }\n\n    function getReserves() external override view returns (address[] memory) {\n        return reserves;\n    }\n\n    function getReserveData(address _reserveAddress)\n        external\n        override\n        view\n        returns (\n            uint256 totalLiquidity,\n            uint256 availableLiquidity,\n            uint256 totalBorrowsStable,\n            uint256 totalBorrowsVariable,\n            uint256 liquidityRate,\n            uint256 variableBorrowRate,\n            uint256 stableBorrowRate,\n            uint256 averageStableBorrowRate,\n            uint256 utilizationRate,\n            uint256 liquidityIndex,\n            uint256 variableBorrowIndex,\n            address aTokenAddress,\n            uint40 lastUpdateTimestamp\n        )\n    {\n        totalLiquidity = reserveData[_reserveAddress].totalLiquidity;\n        availableLiquidity = reserveData[_reserveAddress].availableLiquidity;\n        totalBorrowsStable = reserveData[_reserveAddress].totalBorrowsStable;\n        totalBorrowsVariable = reserveData[_reserveAddress]\n            .totalBorrowsVariable;\n        liquidityRate = reserveData[_reserveAddress].liquidityRate;\n        variableBorrowRate = reserveData[_reserveAddress].variableBorrowRate;\n        stableBorrowRate = reserveData[_reserveAddress].stableBorrowRate;\n        averageStableBorrowRate = reserveData[_reserveAddress]\n            .averageStableBorrowRate;\n        utilizationRate = reserveData[_reserveAddress].utilizationRate;\n        liquidityIndex = reserveData[_reserveAddress].liquidityIndex;\n        variableBorrowIndex = reserveData[_reserveAddress].variableBorrowIndex;\n        aTokenAddress = reserveData[_reserveAddress].aTokenAddress;\n        lastUpdateTimestamp = reserveData[_reserveAddress].lastUpdateTimestamp;\n    }\n}\n",
  "sourcePath": "/Users/mikhail/Coding/jucifi/contracts/mocks/AaveLendingPoolMock.sol",
  "compiler": {
    "name": "solc",
    "version": "0.6.10+commit.00c0fcaf.Emscripten.clang"
  },
  "schemaVersion": "3.2.5",
  "updatedAt": "2020-10-15T14:28:10.507Z",
  "devdoc": {
    "methods": {}
  },
  "userdoc": {
    "methods": {}
  }
}