{
  "contractName": "AaveLandingPoolMock",
  "abi": [
    {
      "anonymous": false,
      "inputs": [
        {
          "indexed": true,
          "internalType": "address",
          "name": "_reserve",
          "type": "address"
        },
        {
          "indexed": true,
          "internalType": "address",
          "name": "_user",
          "type": "address"
        },
        {
          "indexed": false,
          "internalType": "uint256",
          "name": "_amount",
          "type": "uint256"
        },
        {
          "indexed": false,
          "internalType": "uint256",
          "name": "_borrowRateMode",
          "type": "uint256"
        },
        {
          "indexed": false,
          "internalType": "uint256",
          "name": "_borrowRate",
          "type": "uint256"
        },
        {
          "indexed": false,
          "internalType": "uint256",
          "name": "_originationFee",
          "type": "uint256"
        },
        {
          "indexed": false,
          "internalType": "uint256",
          "name": "_borrowBalanceIncrease",
          "type": "uint256"
        },
        {
          "indexed": true,
          "internalType": "uint16",
          "name": "_referral",
          "type": "uint16"
        },
        {
          "indexed": false,
          "internalType": "uint256",
          "name": "_timestamp",
          "type": "uint256"
        }
      ],
      "name": "Borrow",
      "type": "event"
    },
    {
      "anonymous": false,
      "inputs": [
        {
          "indexed": true,
          "internalType": "address",
          "name": "_reserve",
          "type": "address"
        },
        {
          "indexed": true,
          "internalType": "address",
          "name": "_user",
          "type": "address"
        },
        {
          "indexed": false,
          "internalType": "uint256",
          "name": "_amount",
          "type": "uint256"
        },
        {
          "indexed": true,
          "internalType": "uint16",
          "name": "_referral",
          "type": "uint16"
        },
        {
          "indexed": false,
          "internalType": "uint256",
          "name": "_timestamp",
          "type": "uint256"
        }
      ],
      "name": "Deposit",
      "type": "event"
    },
    {
      "anonymous": false,
      "inputs": [
        {
          "indexed": true,
          "internalType": "address",
          "name": "_collateral",
          "type": "address"
        },
        {
          "indexed": true,
          "internalType": "address",
          "name": "_reserve",
          "type": "address"
        },
        {
          "indexed": true,
          "internalType": "address",
          "name": "_user",
          "type": "address"
        },
        {
          "indexed": false,
          "internalType": "uint256",
          "name": "_purchaseAmount",
          "type": "uint256"
        },
        {
          "indexed": false,
          "internalType": "uint256",
          "name": "_liquidatedCollateralAmount",
          "type": "uint256"
        },
        {
          "indexed": false,
          "internalType": "uint256",
          "name": "_accruedBorrowInterest",
          "type": "uint256"
        },
        {
          "indexed": false,
          "internalType": "address",
          "name": "_liquidator",
          "type": "address"
        },
        {
          "indexed": false,
          "internalType": "bool",
          "name": "_receiveAToken",
          "type": "bool"
        },
        {
          "indexed": false,
          "internalType": "uint256",
          "name": "_timestamp",
          "type": "uint256"
        }
      ],
      "name": "LiquidationCall",
      "type": "event"
    },
    {
      "anonymous": false,
      "inputs": [
        {
          "indexed": true,
          "internalType": "address",
          "name": "_collateral",
          "type": "address"
        },
        {
          "indexed": true,
          "internalType": "address",
          "name": "_reserve",
          "type": "address"
        },
        {
          "indexed": true,
          "internalType": "address",
          "name": "_user",
          "type": "address"
        },
        {
          "indexed": false,
          "internalType": "uint256",
          "name": "_feeLiquidated",
          "type": "uint256"
        },
        {
          "indexed": false,
          "internalType": "uint256",
          "name": "_liquidatedCollateralForFee",
          "type": "uint256"
        },
        {
          "indexed": false,
          "internalType": "uint256",
          "name": "_timestamp",
          "type": "uint256"
        }
      ],
      "name": "OriginationFeeLiquidated",
      "type": "event"
    },
    {
      "anonymous": false,
      "inputs": [
        {
          "indexed": true,
          "internalType": "address",
          "name": "_reserve",
          "type": "address"
        },
        {
          "indexed": true,
          "internalType": "address",
          "name": "_user",
          "type": "address"
        },
        {
          "indexed": false,
          "internalType": "uint256",
          "name": "_newStableRate",
          "type": "uint256"
        },
        {
          "indexed": false,
          "internalType": "uint256",
          "name": "_borrowBalanceIncrease",
          "type": "uint256"
        },
        {
          "indexed": false,
          "internalType": "uint256",
          "name": "_timestamp",
          "type": "uint256"
        }
      ],
      "name": "RebalanceStableBorrowRate",
      "type": "event"
    },
    {
      "anonymous": false,
      "inputs": [
        {
          "indexed": true,
          "internalType": "address",
          "name": "_reserve",
          "type": "address"
        },
        {
          "indexed": true,
          "internalType": "address",
          "name": "_user",
          "type": "address"
        },
        {
          "indexed": false,
          "internalType": "uint256",
          "name": "_amount",
          "type": "uint256"
        },
        {
          "indexed": false,
          "internalType": "uint256",
          "name": "_timestamp",
          "type": "uint256"
        }
      ],
      "name": "RedeemUnderlying",
      "type": "event"
    },
    {
      "anonymous": false,
      "inputs": [
        {
          "indexed": true,
          "internalType": "address",
          "name": "_reserve",
          "type": "address"
        },
        {
          "indexed": true,
          "internalType": "address",
          "name": "_user",
          "type": "address"
        },
        {
          "indexed": true,
          "internalType": "address",
          "name": "_repayer",
          "type": "address"
        },
        {
          "indexed": false,
          "internalType": "uint256",
          "name": "_amountMinusFees",
          "type": "uint256"
        },
        {
          "indexed": false,
          "internalType": "uint256",
          "name": "_fees",
          "type": "uint256"
        },
        {
          "indexed": false,
          "internalType": "uint256",
          "name": "_borrowBalanceIncrease",
          "type": "uint256"
        },
        {
          "indexed": false,
          "internalType": "uint256",
          "name": "_timestamp",
          "type": "uint256"
        }
      ],
      "name": "Repay",
      "type": "event"
    },
    {
      "anonymous": false,
      "inputs": [
        {
          "indexed": true,
          "internalType": "address",
          "name": "_reserve",
          "type": "address"
        },
        {
          "indexed": true,
          "internalType": "address",
          "name": "_user",
          "type": "address"
        }
      ],
      "name": "ReserveUsedAsCollateralDisabled",
      "type": "event"
    },
    {
      "anonymous": false,
      "inputs": [
        {
          "indexed": true,
          "internalType": "address",
          "name": "_reserve",
          "type": "address"
        },
        {
          "indexed": true,
          "internalType": "address",
          "name": "_user",
          "type": "address"
        }
      ],
      "name": "ReserveUsedAsCollateralEnabled",
      "type": "event"
    },
    {
      "anonymous": false,
      "inputs": [
        {
          "indexed": true,
          "internalType": "address",
          "name": "_reserve",
          "type": "address"
        },
        {
          "indexed": true,
          "internalType": "address",
          "name": "_user",
          "type": "address"
        },
        {
          "indexed": false,
          "internalType": "uint256",
          "name": "_newRateMode",
          "type": "uint256"
        },
        {
          "indexed": false,
          "internalType": "uint256",
          "name": "_newRate",
          "type": "uint256"
        },
        {
          "indexed": false,
          "internalType": "uint256",
          "name": "_borrowBalanceIncrease",
          "type": "uint256"
        },
        {
          "indexed": false,
          "internalType": "uint256",
          "name": "_timestamp",
          "type": "uint256"
        }
      ],
      "name": "Swap",
      "type": "event"
    },
    {
      "inputs": [
        {
          "internalType": "address",
          "name": "_reserveAddress",
          "type": "address"
        },
        {
          "internalType": "uint256",
          "name": "_totalLiquidity",
          "type": "uint256"
        },
        {
          "internalType": "uint256",
          "name": "_availableLiquidity",
          "type": "uint256"
        },
        {
          "internalType": "uint256",
          "name": "_totalBorrowsStable",
          "type": "uint256"
        },
        {
          "internalType": "uint256",
          "name": "_totalBorrowsVariable",
          "type": "uint256"
        },
        {
          "internalType": "uint256",
          "name": "_liquidityRate",
          "type": "uint256"
        },
        {
          "internalType": "uint256",
          "name": "_variableBorrowRate",
          "type": "uint256"
        },
        {
          "internalType": "uint256",
          "name": "_stableBorrowRate",
          "type": "uint256"
        },
        {
          "internalType": "uint256",
          "name": "_averageStableBorrowRate",
          "type": "uint256"
        },
        {
          "internalType": "uint256",
          "name": "_utilizationRate",
          "type": "uint256"
        },
        {
          "internalType": "uint256",
          "name": "_liquidityIndex",
          "type": "uint256"
        },
        {
          "internalType": "uint256",
          "name": "_variableBorrowIndex",
          "type": "uint256"
        },
        {
          "internalType": "address",
          "name": "_aTokenAddress",
          "type": "address"
        },
        {
          "internalType": "uint40",
          "name": "_lastUpdateTimestamp",
          "type": "uint40"
        }
      ],
      "name": "addReserve",
      "outputs": [],
      "stateMutability": "nonpayable",
      "type": "function"
    },
    {
      "inputs": [
        {
          "internalType": "address",
          "name": "_reserve",
          "type": "address"
        },
        {
          "internalType": "uint256",
          "name": "_amount",
          "type": "uint256"
        },
        {
          "internalType": "uint16",
          "name": "_referralCode",
          "type": "uint16"
        }
      ],
      "name": "deposit",
      "outputs": [],
      "stateMutability": "payable",
      "type": "function"
    },
    {
      "inputs": [],
      "name": "getReserves",
      "outputs": [
        {
          "internalType": "address[]",
          "name": "",
          "type": "address[]"
        }
      ],
      "stateMutability": "view",
      "type": "function"
    },
    {
      "inputs": [
        {
          "internalType": "address",
          "name": "_reserveAddress",
          "type": "address"
        }
      ],
      "name": "getReserveData",
      "outputs": [
        {
          "internalType": "uint256",
          "name": "totalLiquidity",
          "type": "uint256"
        },
        {
          "internalType": "uint256",
          "name": "availableLiquidity",
          "type": "uint256"
        },
        {
          "internalType": "uint256",
          "name": "totalBorrowsStable",
          "type": "uint256"
        },
        {
          "internalType": "uint256",
          "name": "totalBorrowsVariable",
          "type": "uint256"
        },
        {
          "internalType": "uint256",
          "name": "liquidityRate",
          "type": "uint256"
        },
        {
          "internalType": "uint256",
          "name": "variableBorrowRate",
          "type": "uint256"
        },
        {
          "internalType": "uint256",
          "name": "stableBorrowRate",
          "type": "uint256"
        },
        {
          "internalType": "uint256",
          "name": "averageStableBorrowRate",
          "type": "uint256"
        },
        {
          "internalType": "uint256",
          "name": "utilizationRate",
          "type": "uint256"
        },
        {
          "internalType": "uint256",
          "name": "liquidityIndex",
          "type": "uint256"
        },
        {
          "internalType": "uint256",
          "name": "variableBorrowIndex",
          "type": "uint256"
        },
        {
          "internalType": "address",
          "name": "aTokenAddress",
          "type": "address"
        },
        {
          "internalType": "uint40",
          "name": "lastUpdateTimestamp",
          "type": "uint40"
        }
      ],
      "stateMutability": "view",
      "type": "function"
    }
  ],
  "bytecode": "0x608060405234801561001057600080fd5b506109af806100206000396000f3fe60806040526004361061003f5760003560e01c80630902f1ac1461004457806335ea6a75146100b0578063b5c97c6b146101a3578063d2d0e06614610294575b600080fd5b34801561005057600080fd5b506100596102f0565b6040518080602001828103825283818151815260200191508051906020019060200280838360005b8381101561009c578082015181840152602081019050610081565b505050509050019250505060405180910390f35b3480156100bc57600080fd5b506100ff600480360360208110156100d357600080fd5b81019080803573ffffffffffffffffffffffffffffffffffffffff16906020019092919050505061037e565b604051808e81526020018d81526020018c81526020018b81526020018a81526020018981526020018881526020018781526020018681526020018581526020018481526020018373ffffffffffffffffffffffffffffffffffffffff1673ffffffffffffffffffffffffffffffffffffffff1681526020018264ffffffffff1664ffffffffff1681526020019d505050505050505050505050505060405180910390f35b3480156101af57600080fd5b5061029260048036036101c08110156101c757600080fd5b81019080803573ffffffffffffffffffffffffffffffffffffffff1690602001909291908035906020019092919080359060200190929190803590602001909291908035906020019092919080359060200190929190803590602001909291908035906020019092919080359060200190929190803590602001909291908035906020019092919080359060200190929190803573ffffffffffffffffffffffffffffffffffffffff169060200190929190803564ffffffffff169060200190929190505050610755565b005b6102ee600480360360608110156102aa57600080fd5b81019080803573ffffffffffffffffffffffffffffffffffffffff16906020019092919080359060200190929190803561ffff1690602001909291905050506107e8565b005b6060600080548060200260200160405190810160405280929190818152602001828054801561037457602002820191906000526020600020905b8160009054906101000a900473ffffffffffffffffffffffffffffffffffffffff1673ffffffffffffffffffffffffffffffffffffffff168152602001906001019080831161032a575b5050505050905090565b6000806000806000806000806000806000806000600160008f73ffffffffffffffffffffffffffffffffffffffff1673ffffffffffffffffffffffffffffffffffffffff168152602001908152602001600020600001549c50600160008f73ffffffffffffffffffffffffffffffffffffffff1673ffffffffffffffffffffffffffffffffffffffff168152602001908152602001600020600101549b50600160008f73ffffffffffffffffffffffffffffffffffffffff1673ffffffffffffffffffffffffffffffffffffffff168152602001908152602001600020600201549a50600160008f73ffffffffffffffffffffffffffffffffffffffff1673ffffffffffffffffffffffffffffffffffffffff168152602001908152602001600020600301549950600160008f73ffffffffffffffffffffffffffffffffffffffff1673ffffffffffffffffffffffffffffffffffffffff168152602001908152602001600020600401549850600160008f73ffffffffffffffffffffffffffffffffffffffff1673ffffffffffffffffffffffffffffffffffffffff168152602001908152602001600020600501549750600160008f73ffffffffffffffffffffffffffffffffffffffff1673ffffffffffffffffffffffffffffffffffffffff168152602001908152602001600020600601549650600160008f73ffffffffffffffffffffffffffffffffffffffff1673ffffffffffffffffffffffffffffffffffffffff168152602001908152602001600020600701549550600160008f73ffffffffffffffffffffffffffffffffffffffff1673ffffffffffffffffffffffffffffffffffffffff168152602001908152602001600020600801549450600160008f73ffffffffffffffffffffffffffffffffffffffff1673ffffffffffffffffffffffffffffffffffffffff168152602001908152602001600020600901549350600160008f73ffffffffffffffffffffffffffffffffffffffff1673ffffffffffffffffffffffffffffffffffffffff168152602001908152602001600020600a01549250600160008f73ffffffffffffffffffffffffffffffffffffffff1673ffffffffffffffffffffffffffffffffffffffff168152602001908152602001600020600b0160009054906101000a900473ffffffffffffffffffffffffffffffffffffffff169150600160008f73ffffffffffffffffffffffffffffffffffffffff1673ffffffffffffffffffffffffffffffffffffffff168152602001908152602001600020600b0160149054906101000a900464ffffffffff16905091939597999b9d90929496989a9c50565b60008e9080600181540180825580915050600190039060005260206000200160009091909190916101000a81548173ffffffffffffffffffffffffffffffffffffffff021916908373ffffffffffffffffffffffffffffffffffffffff1602179055506107ca8e8e8e8e8e8e8e8e8e8a6107ed565b6107d88e86868686866108aa565b5050505050505050505050505050565b505050565b6000600160008c73ffffffffffffffffffffffffffffffffffffffff1673ffffffffffffffffffffffffffffffffffffffff16815260200190815260200160002090508981600001819055508881600101819055508781600201819055508681600301819055508581600401819055508481600501819055508381600601819055508281600701819055508181600b0160146101000a81548164ffffffffff021916908364ffffffffff1602179055505050505050505050505050565b6000600160008873ffffffffffffffffffffffffffffffffffffffff1673ffffffffffffffffffffffffffffffffffffffff16815260200190815260200160002090508581600801819055508481600901819055508381600a01819055508281600b0160006101000a81548173ffffffffffffffffffffffffffffffffffffffff021916908373ffffffffffffffffffffffffffffffffffffffff1602179055508181600b0160146101000a81548164ffffffffff021916908364ffffffffff1602179055505050505050505056fea2646970667358221220f4f2b4367b6fa1e82c5049188db3bdf6eeda0976a934c7d57f90abfe304594ee64736f6c634300060a0033",
  "immutableReferences": {},
  "source": "pragma solidity ^0.6.10;\n\nimport \"../providers/aave-protocol/ILendingPool.sol\";\nimport \"../libraries/CoreLibrary.sol\";\n\ncontract AaveLandingPoolMock is ILendingPool {\n    address[] private reserves;\n    mapping(address => CoreLibrary.ProviderReserveData) reserveData;\n\n    function addReserve(\n        address _reserveAddress,\n        // reserve total liquidity\n        uint256 _totalLiquidity,\n        //reserve available liquidity for borrowing\n        uint256 _availableLiquidity,\n        //the total borrows of the reserve at a stable rate. Expressed in the currency decimals\n        uint256 _totalBorrowsStable,\n        //the total borrows of the reserve at a variable rate. Expressed in the currency decimals\n        uint256 _totalBorrowsVariable,\n        //the current supply rate. Expressed in ray\n        uint256 _liquidityRate,\n        //current variable rate APY of the reserve pool, in Ray units.\n        uint256 _variableBorrowRate,\n        //current stable rate APY of the reserve pool, in Ray units.\n        uint256 _stableBorrowRate,\n        //current average stable borrow rate\n        uint256 _averageStableBorrowRate,\n        // expressed as total borrows/total liquidity.\n        uint256 _utilizationRate,\n        // cumulative liquidity index\n        uint256 _liquidityIndex,\n        // cumulative variable borrow index\n        uint256 _variableBorrowIndex,\n        // aTokens contract address for the specific _reserve\n        address _aTokenAddress,\n        // timestamp of the last update of reserve data\n        uint40 _lastUpdateTimestamp\n    ) external {\n        reserves.push(_reserveAddress);\n        setReserveData(\n            _reserveAddress,\n            _totalLiquidity,\n            _availableLiquidity,\n            _totalBorrowsStable,\n            _totalBorrowsVariable,\n            _liquidityRate,\n            _variableBorrowRate,\n            _stableBorrowRate,\n            _averageStableBorrowRate,\n            _lastUpdateTimestamp\n        );\n\n        setReserveDataAdditional(\n            _reserveAddress,\n            _utilizationRate,\n            _liquidityIndex,\n            _variableBorrowIndex,\n            _aTokenAddress,\n            _lastUpdateTimestamp\n        );\n    }\n\n    function setReserveData(\n        address _reserveAddress,\n        uint256 _totalLiquidity,\n        //reserve available liquidity for borrowing\n        uint256 _availableLiquidity,\n        //the total borrows of the reserve at a stable rate. Expressed in the currency decimals\n        uint256 _totalBorrowsStable,\n        //the total borrows of the reserve at a variable rate. Expressed in the currency decimals\n        uint256 _totalBorrowsVariable,\n        //the current supply rate. Expressed in ray\n        uint256 _liquidityRate,\n        //current variable rate APY of the reserve pool, in Ray units.\n        uint256 _variableBorrowRate,\n        uint256 _stableBorrowRate,\n        //current average stable borrow rate\n        uint256 _averageStableBorrowRate,\n        uint40 _lastUpdateTimestamp\n    ) internal {\n\n            CoreLibrary.ProviderReserveData storage reserve\n         = reserveData[_reserveAddress];\n        reserve.totalLiquidity = _totalLiquidity;\n        reserve.availableLiquidity = _availableLiquidity;\n        reserve.totalBorrowsStable = _totalBorrowsStable;\n        reserve.totalBorrowsVariable = _totalBorrowsVariable;\n        reserve.liquidityRate = _liquidityRate;\n        reserve.variableBorrowRate = _variableBorrowRate;\n        reserve.stableBorrowRate = _stableBorrowRate;\n        reserve.averageStableBorrowRate = _averageStableBorrowRate;\n        reserve.lastUpdateTimestamp = _lastUpdateTimestamp;\n    }\n\n    function setReserveDataAdditional(\n        address _reserveAddress,\n        // expressed as total borrows/total liquidity.\n        uint256 _utilizationRate,\n        // cumulative liquidity index\n        uint256 _liquidityIndex,\n        // cumulative variable borrow index\n        uint256 _variableBorrowIndex,\n        // aTokens contract address for the specific _reserve\n        address _aTokenAddress,\n        // timestamp of the last update of reserve data\n        uint40 _lastUpdateTimestamp\n    ) internal {\n\n            CoreLibrary.ProviderReserveData storage reserve\n         = reserveData[_reserveAddress];\n        reserve.utilizationRate = _utilizationRate;\n        reserve.liquidityIndex = _liquidityIndex;\n        reserve.variableBorrowIndex = _variableBorrowIndex;\n        reserve.aTokenAddress = _aTokenAddress;\n        reserve.lastUpdateTimestamp = _lastUpdateTimestamp;\n    }\n\n    function deposit(\n        address _reserve,\n        uint256 _amount,\n        uint16 _referralCode\n    ) external override payable {}\n\n    function getReserves() external override view returns (address[] memory) {\n        return reserves;\n    }\n\n    function getReserveData(address _reserveAddress)\n        external\n        override\n        view\n        returns (\n            uint256 totalLiquidity,\n            uint256 availableLiquidity,\n            uint256 totalBorrowsStable,\n            uint256 totalBorrowsVariable,\n            uint256 liquidityRate,\n            uint256 variableBorrowRate,\n            uint256 stableBorrowRate,\n            uint256 averageStableBorrowRate,\n            uint256 utilizationRate,\n            uint256 liquidityIndex,\n            uint256 variableBorrowIndex,\n            address aTokenAddress,\n            uint40 lastUpdateTimestamp\n        )\n    {\n        totalLiquidity = reserveData[_reserveAddress].totalLiquidity;\n        availableLiquidity = reserveData[_reserveAddress].availableLiquidity;\n        totalBorrowsStable = reserveData[_reserveAddress].totalBorrowsStable;\n        totalBorrowsVariable = reserveData[_reserveAddress]\n            .totalBorrowsVariable;\n        liquidityRate = reserveData[_reserveAddress].liquidityRate;\n        variableBorrowRate = reserveData[_reserveAddress].variableBorrowRate;\n        stableBorrowRate = reserveData[_reserveAddress].stableBorrowRate;\n        averageStableBorrowRate = reserveData[_reserveAddress]\n            .averageStableBorrowRate;\n        utilizationRate = reserveData[_reserveAddress].utilizationRate;\n        liquidityIndex = reserveData[_reserveAddress].liquidityIndex;\n        variableBorrowIndex = reserveData[_reserveAddress].variableBorrowIndex;\n        aTokenAddress = reserveData[_reserveAddress].aTokenAddress;\n        lastUpdateTimestamp = reserveData[_reserveAddress].lastUpdateTimestamp;\n    }\n}\n",
  "sourcePath": "/Users/mikhail/Coding/jucifi/contracts/mocks/AaveLandingPoolMock.sol",
  "compiler": {
    "name": "solc",
    "version": "0.6.10+commit.00c0fcaf.Emscripten.clang"
  },
  "schemaVersion": "3.2.5",
  "updatedAt": "2020-10-12T21:19:04.281Z",
  "devdoc": {
    "methods": {}
  },
  "userdoc": {
    "methods": {}
  }
}