{
  "contractName": "AaveProvider",
  "abi": [
    {
      "inputs": [
        {
          "internalType": "address",
          "name": "_aaveContract",
          "type": "address"
        }
      ],
      "stateMutability": "nonpayable",
      "type": "constructor"
    },
    {
      "inputs": [
        {
          "internalType": "address",
          "name": "_reserve",
          "type": "address"
        },
        {
          "internalType": "uint256",
          "name": "_amount",
          "type": "uint256"
        }
      ],
      "name": "deposit",
      "outputs": [
        {
          "internalType": "uint256",
          "name": "",
          "type": "uint256"
        }
      ],
      "stateMutability": "nonpayable",
      "type": "function"
    },
    {
      "inputs": [],
      "name": "withdraw",
      "outputs": [],
      "stateMutability": "nonpayable",
      "type": "function"
    }
  ],
  "bytecode": "0x608060405234801561001057600080fd5b5060405161026a38038061026a8339818101604052602081101561003357600080fd5b81019080805190602001909291905050506040518060400160405280600481526020017f416176650000000000000000000000000000000000000000000000000000000081525080600090805190602001906100909291906100d9565b505080600160006101000a81548173ffffffffffffffffffffffffffffffffffffffff021916908373ffffffffffffffffffffffffffffffffffffffff1602179055505061017e565b828054600181600116156101000203166002900490600052602060002090601f016020900481019282601f1061011a57805160ff1916838001178555610148565b82800160010185558215610148579182015b8281111561014757825182559160200191906001019061012c565b5b5090506101559190610159565b5090565b61017b91905b8082111561017757600081600090555060010161015f565b5090565b90565b60de8061018c6000396000f3fe6080604052348015600f57600080fd5b506004361060325760003560e01c80633ccfd60b14603757806347e7ef2414603f575b600080fd5b603d609e565b005b608860048036036040811015605357600080fd5b81019080803573ffffffffffffffffffffffffffffffffffffffff1690602001909291908035906020019092919050505060a0565b6040518082815260200191505060405180910390f35b565b60009291505056fea2646970667358221220ec324145942a9dd2e509d774ac9df394ec6f473f37d9907bbd51255401963db264736f6c634300060a0033",
  "immutableReferences": {},
  "source": "// SPDX-License-Identifier: agpl-3.0\npragma solidity 0.6.10;\nimport \"./AbstractProvider.sol\";\n\ncontract AaveProvider is AbstractProvider(\"Aave\") {\n    address private aaveContract;\n\n    constructor(address _aaveContract) public {\n        aaveContract = _aaveContract;\n    }\n\n    function deposit(address _reserve, uint256 _amount) external override returns (uint256) {}\n\n    function withdraw() external override {}\n}\n",
  "sourcePath": "/Users/mikhail/Coding/jucifi/contracts/providers/AaveProvider.sol",
  "compiler": {
    "name": "solc",
    "version": "0.6.10+commit.00c0fcaf.Emscripten.clang"
  },
  "schemaVersion": "3.2.5",
  "updatedAt": "2020-10-07T21:06:40.137Z",
  "devdoc": {
    "methods": {}
  },
  "userdoc": {
    "methods": {}
  }
}