{
  "contractName": "AddressStorage",
  "abi": [
    {
      "constant": true,
      "inputs": [
        {
          "name": "_key",
          "type": "bytes32"
        }
      ],
      "name": "getAddress",
      "outputs": [
        {
          "name": "",
          "type": "address"
        }
      ],
      "payable": false,
      "stateMutability": "view",
      "type": "function"
    }
  ],
  "bytecode": "0x608060405234801561001057600080fd5b50610123806100206000396000f3fe608060405260043610603f576000357c0100000000000000000000000000000000000000000000000000000000900463ffffffff16806321f8a721146044575b600080fd5b348015604f57600080fd5b50607960048036036020811015606457600080fd5b810190808035906020019092919050505060bb565b604051808273ffffffffffffffffffffffffffffffffffffffff1673ffffffffffffffffffffffffffffffffffffffff16815260200191505060405180910390f35b600080600083815260200190815260200160002060009054906101000a900473ffffffffffffffffffffffffffffffffffffffff16905091905056fea165627a7a7230582073ed90f8adcc17bef0f746a7160fec58ef2e87db3898732428b8ed51544712c00029",
  "source": "pragma solidity ^0.5.0;\n\ncontract AddressStorage {\n    mapping(bytes32 => address) private addresses;\n\n    function getAddress(bytes32 _key) public view returns (address) {\n        return addresses[_key];\n    }\n\n    function _setAddress(bytes32 _key, address _value) internal {\n        addresses[_key] = _value;\n    }\n\n}",
  "sourcePath": "/Users/mikhail/Coding/jucifi/contracts/core/AddressStorage.sol",
  "compiler": {
    "name": "solc",
    "version": "0.5.0+commit.1d4f565a.Emscripten.clang"
  },
  "schemaVersion": "3.0.9",
  "updatedAt": "2020-10-07T13:17:58.412Z",
  "devdoc": {
    "methods": {}
  },
  "userdoc": {
    "methods": {}
  }
}