{
  "contractName": "AddressRepository",
  "abi": [
    {
      "anonymous": false,
      "inputs": [
        {
          "indexed": true,
          "internalType": "address",
          "name": "previousOwner",
          "type": "address"
        },
        {
          "indexed": true,
          "internalType": "address",
          "name": "newOwner",
          "type": "address"
        }
      ],
      "name": "OwnershipTransferred",
      "type": "event"
    },
    {
      "inputs": [
        {
          "internalType": "bytes32",
          "name": "_key",
          "type": "bytes32"
        }
      ],
      "name": "getAddress",
      "outputs": [
        {
          "internalType": "address",
          "name": "",
          "type": "address"
        }
      ],
      "stateMutability": "view",
      "type": "function"
    },
    {
      "inputs": [],
      "name": "owner",
      "outputs": [
        {
          "internalType": "address",
          "name": "",
          "type": "address"
        }
      ],
      "stateMutability": "view",
      "type": "function"
    },
    {
      "inputs": [],
      "name": "renounceOwnership",
      "outputs": [],
      "stateMutability": "nonpayable",
      "type": "function"
    },
    {
      "inputs": [
        {
          "internalType": "address",
          "name": "newOwner",
          "type": "address"
        }
      ],
      "name": "transferOwnership",
      "outputs": [],
      "stateMutability": "nonpayable",
      "type": "function"
    },
    {
      "inputs": [],
      "name": "getPoolService",
      "outputs": [
        {
          "internalType": "address",
          "name": "",
          "type": "address"
        }
      ],
      "stateMutability": "view",
      "type": "function"
    },
    {
      "inputs": [
        {
          "internalType": "address",
          "name": "_address",
          "type": "address"
        }
      ],
      "name": "setPoolService",
      "outputs": [],
      "stateMutability": "nonpayable",
      "type": "function"
    },
    {
      "inputs": [],
      "name": "getReserveRepository",
      "outputs": [
        {
          "internalType": "address",
          "name": "",
          "type": "address"
        }
      ],
      "stateMutability": "view",
      "type": "function"
    },
    {
      "inputs": [
        {
          "internalType": "address",
          "name": "_address",
          "type": "address"
        }
      ],
      "name": "setReserveRepository",
      "outputs": [],
      "stateMutability": "nonpayable",
      "type": "function"
    },
    {
      "inputs": [],
      "name": "getProviderRepository",
      "outputs": [
        {
          "internalType": "address",
          "name": "",
          "type": "address"
        }
      ],
      "stateMutability": "view",
      "type": "function"
    },
    {
      "inputs": [
        {
          "internalType": "address",
          "name": "_address",
          "type": "address"
        }
      ],
      "name": "setProviderRepository",
      "outputs": [],
      "stateMutability": "nonpayable",
      "type": "function"
    },
    {
      "inputs": [],
      "name": "getProviderService",
      "outputs": [
        {
          "internalType": "address",
          "name": "",
          "type": "address"
        }
      ],
      "stateMutability": "view",
      "type": "function"
    },
    {
      "inputs": [
        {
          "internalType": "address",
          "name": "_address",
          "type": "address"
        }
      ],
      "name": "setProviderService",
      "outputs": [],
      "stateMutability": "nonpayable",
      "type": "function"
    }
  ],
  "bytecode": "0x608060405234801561001057600080fd5b5060006100216100c460201b60201c565b9050806000806101000a81548173ffffffffffffffffffffffffffffffffffffffff021916908373ffffffffffffffffffffffffffffffffffffffff1602179055508073ffffffffffffffffffffffffffffffffffffffff16600073ffffffffffffffffffffffffffffffffffffffff167f8be0079c531659141344cd1fd0a4f28419497f9722a3daafe3b4186f6b6457e060405160405180910390a3506100cc565b600033905090565b610df0806100db6000396000f3fe608060405234801561001057600080fd5b50600436106100b45760003560e01c80638da5cb5b116100715780638da5cb5b14610253578063b89537c11461029d578063b9288e6d146102e1578063c15c038814610325578063e60dc8d71461036f578063f2fde38b146103b3576100b4565b80630a9bf54a146100b95780631e714f0d1461010357806321f8a72114610147578063398b2196146101b55780636b9bf08b146101ff578063715018a614610249575b600080fd5b6100c16103f7565b604051808273ffffffffffffffffffffffffffffffffffffffff1673ffffffffffffffffffffffffffffffffffffffff16815260200191505060405180910390f35b6101456004803603602081101561011957600080fd5b81019080803573ffffffffffffffffffffffffffffffffffffffff169060200190929190505050610427565b005b6101736004803603602081101561015d57600080fd5b810190808035906020019092919050505061051d565b604051808273ffffffffffffffffffffffffffffffffffffffff1673ffffffffffffffffffffffffffffffffffffffff16815260200191505060405180910390f35b6101bd6105e5565b604051808273ffffffffffffffffffffffffffffffffffffffff1673ffffffffffffffffffffffffffffffffffffffff16815260200191505060405180910390f35b610207610615565b604051808273ffffffffffffffffffffffffffffffffffffffff1673ffffffffffffffffffffffffffffffffffffffff16815260200191505060405180910390f35b610251610645565b005b61025b6107cd565b604051808273ffffffffffffffffffffffffffffffffffffffff1673ffffffffffffffffffffffffffffffffffffffff16815260200191505060405180910390f35b6102df600480360360208110156102b357600080fd5b81019080803573ffffffffffffffffffffffffffffffffffffffff1690602001909291905050506107f6565b005b610323600480360360208110156102f757600080fd5b81019080803573ffffffffffffffffffffffffffffffffffffffff1690602001909291905050506108ec565b005b61032d6109e2565b604051808273ffffffffffffffffffffffffffffffffffffffff1673ffffffffffffffffffffffffffffffffffffffff16815260200191505060405180910390f35b6103b16004803603602081101561038557600080fd5b81019080803573ffffffffffffffffffffffffffffffffffffffff169060200190929190505050610a12565b005b6103f5600480360360208110156103c957600080fd5b81019080803573ffffffffffffffffffffffffffffffffffffffff169060200190929190505050610b08565b005b60006104227f50524f56494445525f534552564943450000000000000000000000000000000061051d565b905090565b61042f610d15565b73ffffffffffffffffffffffffffffffffffffffff166000809054906101000a900473ffffffffffffffffffffffffffffffffffffffff1673ffffffffffffffffffffffffffffffffffffffff16146104f0576040517f08c379a00000000000000000000000000000000000000000000000000000000081526004018080602001828103825260208152602001807f4f776e61626c653a2063616c6c6572206973206e6f7420746865206f776e657281525060200191505060405180910390fd5b61051a7f50524f56494445525f534552564943450000000000000000000000000000000082610d1d565b50565b6000806001600084815260200190815260200160002060009054906101000a900473ffffffffffffffffffffffffffffffffffffffff169050600073ffffffffffffffffffffffffffffffffffffffff168173ffffffffffffffffffffffffffffffffffffffff1614156105dc576040517f08c379a0000000000000000000000000000000000000000000000000000000008152600401808060200182810382526021815260200180610d9a6021913960400191505060405180910390fd5b80915050919050565b60006106107f524553455256455f5245504f5349544f5259000000000000000000000000000061051d565b905090565b60006106407f504f4f4c5f53455256494345000000000000000000000000000000000000000061051d565b905090565b61064d610d15565b73ffffffffffffffffffffffffffffffffffffffff166000809054906101000a900473ffffffffffffffffffffffffffffffffffffffff1673ffffffffffffffffffffffffffffffffffffffff161461070e576040517f08c379a00000000000000000000000000000000000000000000000000000000081526004018080602001828103825260208152602001807f4f776e61626c653a2063616c6c6572206973206e6f7420746865206f776e657281525060200191505060405180910390fd5b600073ffffffffffffffffffffffffffffffffffffffff166000809054906101000a900473ffffffffffffffffffffffffffffffffffffffff1673ffffffffffffffffffffffffffffffffffffffff167f8be0079c531659141344cd1fd0a4f28419497f9722a3daafe3b4186f6b6457e060405160405180910390a360008060006101000a81548173ffffffffffffffffffffffffffffffffffffffff021916908373ffffffffffffffffffffffffffffffffffffffff160217905550565b60008060009054906101000a900473ffffffffffffffffffffffffffffffffffffffff16905090565b6107fe610d15565b73ffffffffffffffffffffffffffffffffffffffff166000809054906101000a900473ffffffffffffffffffffffffffffffffffffffff1673ffffffffffffffffffffffffffffffffffffffff16146108bf576040517f08c379a00000000000000000000000000000000000000000000000000000000081526004018080602001828103825260208152602001807f4f776e61626c653a2063616c6c6572206973206e6f7420746865206f776e657281525060200191505060405180910390fd5b6108e97f504f4f4c5f53455256494345000000000000000000000000000000000000000082610d1d565b50565b6108f4610d15565b73ffffffffffffffffffffffffffffffffffffffff166000809054906101000a900473ffffffffffffffffffffffffffffffffffffffff1673ffffffffffffffffffffffffffffffffffffffff16146109b5576040517f08c379a00000000000000000000000000000000000000000000000000000000081526004018080602001828103825260208152602001807f4f776e61626c653a2063616c6c6572206973206e6f7420746865206f776e657281525060200191505060405180910390fd5b6109df7f50524f56494445525f5245504f5349544f52590000000000000000000000000082610d1d565b50565b6000610a0d7f50524f56494445525f5245504f5349544f52590000000000000000000000000061051d565b905090565b610a1a610d15565b73ffffffffffffffffffffffffffffffffffffffff166000809054906101000a900473ffffffffffffffffffffffffffffffffffffffff1673ffffffffffffffffffffffffffffffffffffffff1614610adb576040517f08c379a00000000000000000000000000000000000000000000000000000000081526004018080602001828103825260208152602001807f4f776e61626c653a2063616c6c6572206973206e6f7420746865206f776e657281525060200191505060405180910390fd5b610b057f524553455256455f5245504f5349544f5259000000000000000000000000000082610d1d565b50565b610b10610d15565b73ffffffffffffffffffffffffffffffffffffffff166000809054906101000a900473ffffffffffffffffffffffffffffffffffffffff1673ffffffffffffffffffffffffffffffffffffffff1614610bd1576040517f08c379a00000000000000000000000000000000000000000000000000000000081526004018080602001828103825260208152602001807f4f776e61626c653a2063616c6c6572206973206e6f7420746865206f776e657281525060200191505060405180910390fd5b600073ffffffffffffffffffffffffffffffffffffffff168173ffffffffffffffffffffffffffffffffffffffff161415610c57576040517f08c379a0000000000000000000000000000000000000000000000000000000008152600401808060200182810382526026815260200180610d746026913960400191505060405180910390fd5b8073ffffffffffffffffffffffffffffffffffffffff166000809054906101000a900473ffffffffffffffffffffffffffffffffffffffff1673ffffffffffffffffffffffffffffffffffffffff167f8be0079c531659141344cd1fd0a4f28419497f9722a3daafe3b4186f6b6457e060405160405180910390a3806000806101000a81548173ffffffffffffffffffffffffffffffffffffffff021916908373ffffffffffffffffffffffffffffffffffffffff16021790555050565b600033905090565b806001600084815260200190815260200160002060006101000a81548173ffffffffffffffffffffffffffffffffffffffff021916908373ffffffffffffffffffffffffffffffffffffffff160217905550505056fe4f776e61626c653a206e6577206f776e657220697320746865207a65726f20616464726573734164647265737353746f726167653a2041646472657373206e6f7420666f756e64a264697066735822122065d3762504ee8f329bd890f61ec785772b223c72aa37928b5da164f75cda1a4064736f6c634300060a0033",
  "immutableReferences": {},
  "source": "// SPDX-License-Identifier: agpl-3.0\npragma solidity ^0.6.10;\n\nimport \"openzeppelin-solidity/contracts/access/Ownable.sol\";\nimport \"../lib/AddressStorage.sol\";\n\ncontract AddressRepository is Ownable, AddressStorage {\n  bytes32 private constant POOL_SERVICE = \"POOL_SERVICE\";\n  bytes32 private constant PROVIDER_REPOSITORY = \"PROVIDER_REPOSITORY\";\n  bytes32 private constant PROVIDER_SERVICE = \"PROVIDER_SERVICE\";\n  bytes32 private constant RESERVE_REPOSITORY = \"RESERVE_REPOSITORY\";\n\n  /**\n   * @dev returns the address of the LendingPool proxy\n   * @return the lending pool proxy address\n   **/\n  function getPoolService() public view returns (address) {\n    return getAddress(POOL_SERVICE);\n  }\n\n  function setPoolService(address _address) public onlyOwner {\n    _setAddress(POOL_SERVICE, _address);\n  }\n\n  function getReserveRepository() public view returns (address) {\n    return getAddress(RESERVE_REPOSITORY);\n  }\n\n  function setReserveRepository(address _address) public onlyOwner {\n    _setAddress(RESERVE_REPOSITORY, _address);    \n  }\n\n  function getProviderRepository() public view returns (address) {\n    return getAddress(PROVIDER_REPOSITORY);\n  }\n\n  function setProviderRepository(address _address) public onlyOwner {\n    _setAddress(PROVIDER_REPOSITORY, _address);\n  }\n\n  function getProviderService() public view returns (address) {\n    return getAddress(PROVIDER_SERVICE);\n  }\n\n  function setProviderService(address _address) public onlyOwner {\n    _setAddress(PROVIDER_SERVICE, _address);\n  }\n}\n",
  "sourcePath": "/Users/mikhail/Coding/jucifi/contracts/repositories/AddressRepository.sol",
  "compiler": {
    "name": "solc",
    "version": "0.6.10+commit.00c0fcaf.Emscripten.clang"
  },
  "schemaVersion": "3.2.5",
  "updatedAt": "2020-10-18T16:15:56.283Z",
  "devdoc": {
    "methods": {
      "getPoolService()": {
        "details": "returns the address of the LendingPool proxy",
        "returns": {
          "_0": "the lending pool proxy address*"
        }
      },
      "owner()": {
        "details": "Returns the address of the current owner."
      },
      "renounceOwnership()": {
        "details": "Leaves the contract without owner. It will not be possible to call `onlyOwner` functions anymore. Can only be called by the current owner. NOTE: Renouncing ownership will leave the contract without an owner, thereby removing any functionality that is only available to the owner."
      },
      "transferOwnership(address)": {
        "details": "Transfers ownership of the contract to a new account (`newOwner`). Can only be called by the current owner."
      }
    }
  },
  "userdoc": {
    "methods": {}
  }
}