{
  "contractName": "AToken",
  "abi": [
    {
      "inputs": [
        {
          "internalType": "address",
          "name": "poolAdress",
          "type": "address"
        },
        {
          "internalType": "address",
          "name": "_underlyingAsset",
          "type": "address"
        },
        {
          "internalType": "uint8",
          "name": "_underlyingAssetDecimals",
          "type": "uint8"
        },
        {
          "internalType": "string",
          "name": "_name",
          "type": "string"
        },
        {
          "internalType": "string",
          "name": "_symbol",
          "type": "string"
        }
      ],
      "stateMutability": "nonpayable",
      "type": "constructor"
    },
    {
      "anonymous": false,
      "inputs": [
        {
          "indexed": true,
          "internalType": "address",
          "name": "owner",
          "type": "address"
        },
        {
          "indexed": true,
          "internalType": "address",
          "name": "spender",
          "type": "address"
        },
        {
          "indexed": false,
          "internalType": "uint256",
          "name": "value",
          "type": "uint256"
        }
      ],
      "name": "Approval",
      "type": "event"
    },
    {
      "anonymous": false,
      "inputs": [
        {
          "indexed": true,
          "internalType": "address",
          "name": "_from",
          "type": "address"
        },
        {
          "indexed": true,
          "internalType": "address",
          "name": "_to",
          "type": "address"
        },
        {
          "indexed": false,
          "internalType": "uint256",
          "name": "_value",
          "type": "uint256"
        },
        {
          "indexed": false,
          "internalType": "uint256",
          "name": "_fromBalanceIncrease",
          "type": "uint256"
        },
        {
          "indexed": false,
          "internalType": "uint256",
          "name": "_toBalanceIncrease",
          "type": "uint256"
        },
        {
          "indexed": false,
          "internalType": "uint256",
          "name": "_fromIndex",
          "type": "uint256"
        },
        {
          "indexed": false,
          "internalType": "uint256",
          "name": "_toIndex",
          "type": "uint256"
        }
      ],
      "name": "BalanceTransfer",
      "type": "event"
    },
    {
      "anonymous": false,
      "inputs": [
        {
          "indexed": true,
          "internalType": "address",
          "name": "_from",
          "type": "address"
        },
        {
          "indexed": false,
          "internalType": "uint256",
          "name": "_value",
          "type": "uint256"
        },
        {
          "indexed": false,
          "internalType": "uint256",
          "name": "_fromBalanceIncrease",
          "type": "uint256"
        },
        {
          "indexed": false,
          "internalType": "uint256",
          "name": "_fromIndex",
          "type": "uint256"
        }
      ],
      "name": "BurnOnLiquidation",
      "type": "event"
    },
    {
      "anonymous": false,
      "inputs": [
        {
          "indexed": true,
          "internalType": "address",
          "name": "_from",
          "type": "address"
        },
        {
          "indexed": true,
          "internalType": "address",
          "name": "_to",
          "type": "address"
        }
      ],
      "name": "InterestRedirectionAllowanceChanged",
      "type": "event"
    },
    {
      "anonymous": false,
      "inputs": [
        {
          "indexed": true,
          "internalType": "address",
          "name": "_from",
          "type": "address"
        },
        {
          "indexed": true,
          "internalType": "address",
          "name": "_to",
          "type": "address"
        },
        {
          "indexed": false,
          "internalType": "uint256",
          "name": "_redirectedBalance",
          "type": "uint256"
        },
        {
          "indexed": false,
          "internalType": "uint256",
          "name": "_fromBalanceIncrease",
          "type": "uint256"
        },
        {
          "indexed": false,
          "internalType": "uint256",
          "name": "_fromIndex",
          "type": "uint256"
        }
      ],
      "name": "InterestStreamRedirected",
      "type": "event"
    },
    {
      "anonymous": false,
      "inputs": [
        {
          "indexed": true,
          "internalType": "address",
          "name": "_from",
          "type": "address"
        },
        {
          "indexed": false,
          "internalType": "uint256",
          "name": "_value",
          "type": "uint256"
        },
        {
          "indexed": false,
          "internalType": "uint256",
          "name": "_fromBalanceIncrease",
          "type": "uint256"
        },
        {
          "indexed": false,
          "internalType": "uint256",
          "name": "_fromIndex",
          "type": "uint256"
        }
      ],
      "name": "MintOnDeposit",
      "type": "event"
    },
    {
      "anonymous": false,
      "inputs": [
        {
          "indexed": true,
          "internalType": "address",
          "name": "_from",
          "type": "address"
        },
        {
          "indexed": false,
          "internalType": "uint256",
          "name": "_value",
          "type": "uint256"
        },
        {
          "indexed": false,
          "internalType": "uint256",
          "name": "_fromBalanceIncrease",
          "type": "uint256"
        },
        {
          "indexed": false,
          "internalType": "uint256",
          "name": "_fromIndex",
          "type": "uint256"
        }
      ],
      "name": "Redeem",
      "type": "event"
    },
    {
      "anonymous": false,
      "inputs": [
        {
          "indexed": true,
          "internalType": "address",
          "name": "_targetAddress",
          "type": "address"
        },
        {
          "indexed": false,
          "internalType": "uint256",
          "name": "_targetBalanceIncrease",
          "type": "uint256"
        },
        {
          "indexed": false,
          "internalType": "uint256",
          "name": "_targetIndex",
          "type": "uint256"
        },
        {
          "indexed": false,
          "internalType": "uint256",
          "name": "_redirectedBalanceAdded",
          "type": "uint256"
        },
        {
          "indexed": false,
          "internalType": "uint256",
          "name": "_redirectedBalanceRemoved",
          "type": "uint256"
        }
      ],
      "name": "RedirectedBalanceUpdated",
      "type": "event"
    },
    {
      "anonymous": false,
      "inputs": [
        {
          "indexed": true,
          "internalType": "address",
          "name": "from",
          "type": "address"
        },
        {
          "indexed": true,
          "internalType": "address",
          "name": "to",
          "type": "address"
        },
        {
          "indexed": false,
          "internalType": "uint256",
          "name": "value",
          "type": "uint256"
        }
      ],
      "name": "Transfer",
      "type": "event"
    },
    {
      "inputs": [],
      "name": "UINT_MAX_VALUE",
      "outputs": [
        {
          "internalType": "uint256",
          "name": "",
          "type": "uint256"
        }
      ],
      "stateMutability": "view",
      "type": "function"
    },
    {
      "inputs": [
        {
          "internalType": "address",
          "name": "owner",
          "type": "address"
        },
        {
          "internalType": "address",
          "name": "spender",
          "type": "address"
        }
      ],
      "name": "allowance",
      "outputs": [
        {
          "internalType": "uint256",
          "name": "",
          "type": "uint256"
        }
      ],
      "stateMutability": "view",
      "type": "function"
    },
    {
      "inputs": [
        {
          "internalType": "address",
          "name": "spender",
          "type": "address"
        },
        {
          "internalType": "uint256",
          "name": "amount",
          "type": "uint256"
        }
      ],
      "name": "approve",
      "outputs": [
        {
          "internalType": "bool",
          "name": "",
          "type": "bool"
        }
      ],
      "stateMutability": "nonpayable",
      "type": "function"
    },
    {
      "inputs": [],
      "name": "decimals",
      "outputs": [
        {
          "internalType": "uint8",
          "name": "",
          "type": "uint8"
        }
      ],
      "stateMutability": "view",
      "type": "function"
    },
    {
      "inputs": [
        {
          "internalType": "address",
          "name": "spender",
          "type": "address"
        },
        {
          "internalType": "uint256",
          "name": "subtractedValue",
          "type": "uint256"
        }
      ],
      "name": "decreaseAllowance",
      "outputs": [
        {
          "internalType": "bool",
          "name": "",
          "type": "bool"
        }
      ],
      "stateMutability": "nonpayable",
      "type": "function"
    },
    {
      "inputs": [
        {
          "internalType": "address",
          "name": "spender",
          "type": "address"
        },
        {
          "internalType": "uint256",
          "name": "addedValue",
          "type": "uint256"
        }
      ],
      "name": "increaseAllowance",
      "outputs": [
        {
          "internalType": "bool",
          "name": "",
          "type": "bool"
        }
      ],
      "stateMutability": "nonpayable",
      "type": "function"
    },
    {
      "inputs": [],
      "name": "name",
      "outputs": [
        {
          "internalType": "string",
          "name": "",
          "type": "string"
        }
      ],
      "stateMutability": "view",
      "type": "function"
    },
    {
      "inputs": [],
      "name": "symbol",
      "outputs": [
        {
          "internalType": "string",
          "name": "",
          "type": "string"
        }
      ],
      "stateMutability": "view",
      "type": "function"
    },
    {
      "inputs": [
        {
          "internalType": "address",
          "name": "recipient",
          "type": "address"
        },
        {
          "internalType": "uint256",
          "name": "amount",
          "type": "uint256"
        }
      ],
      "name": "transfer",
      "outputs": [
        {
          "internalType": "bool",
          "name": "",
          "type": "bool"
        }
      ],
      "stateMutability": "nonpayable",
      "type": "function"
    },
    {
      "inputs": [
        {
          "internalType": "address",
          "name": "sender",
          "type": "address"
        },
        {
          "internalType": "address",
          "name": "recipient",
          "type": "address"
        },
        {
          "internalType": "uint256",
          "name": "amount",
          "type": "uint256"
        }
      ],
      "name": "transferFrom",
      "outputs": [
        {
          "internalType": "bool",
          "name": "",
          "type": "bool"
        }
      ],
      "stateMutability": "nonpayable",
      "type": "function"
    },
    {
      "inputs": [],
      "name": "underlyingAssetAddress",
      "outputs": [
        {
          "internalType": "address",
          "name": "",
          "type": "address"
        }
      ],
      "stateMutability": "view",
      "type": "function"
    },
    {
      "inputs": [
        {
          "internalType": "address",
          "name": "_to",
          "type": "address"
        }
      ],
      "name": "redirectInterestStream",
      "outputs": [],
      "stateMutability": "nonpayable",
      "type": "function"
    },
    {
      "inputs": [
        {
          "internalType": "address",
          "name": "_from",
          "type": "address"
        },
        {
          "internalType": "address",
          "name": "_to",
          "type": "address"
        }
      ],
      "name": "redirectInterestStreamOf",
      "outputs": [],
      "stateMutability": "nonpayable",
      "type": "function"
    },
    {
      "inputs": [
        {
          "internalType": "address",
          "name": "_to",
          "type": "address"
        }
      ],
      "name": "allowInterestRedirectionTo",
      "outputs": [],
      "stateMutability": "nonpayable",
      "type": "function"
    },
    {
      "inputs": [
        {
          "internalType": "uint256",
          "name": "_amount",
          "type": "uint256"
        }
      ],
      "name": "redeem",
      "outputs": [],
      "stateMutability": "nonpayable",
      "type": "function"
    },
    {
      "inputs": [
        {
          "internalType": "address",
          "name": "_account",
          "type": "address"
        },
        {
          "internalType": "uint256",
          "name": "_amount",
          "type": "uint256"
        }
      ],
      "name": "mintOnDeposit",
      "outputs": [],
      "stateMutability": "nonpayable",
      "type": "function"
    },
    {
      "inputs": [
        {
          "internalType": "address",
          "name": "_account",
          "type": "address"
        },
        {
          "internalType": "uint256",
          "name": "_value",
          "type": "uint256"
        }
      ],
      "name": "burnOnLiquidation",
      "outputs": [],
      "stateMutability": "nonpayable",
      "type": "function"
    },
    {
      "inputs": [
        {
          "internalType": "address",
          "name": "_from",
          "type": "address"
        },
        {
          "internalType": "address",
          "name": "_to",
          "type": "address"
        },
        {
          "internalType": "uint256",
          "name": "_value",
          "type": "uint256"
        }
      ],
      "name": "transferOnLiquidation",
      "outputs": [],
      "stateMutability": "nonpayable",
      "type": "function"
    },
    {
      "inputs": [
        {
          "internalType": "address",
          "name": "_user",
          "type": "address"
        }
      ],
      "name": "balanceOf",
      "outputs": [
        {
          "internalType": "uint256",
          "name": "",
          "type": "uint256"
        }
      ],
      "stateMutability": "view",
      "type": "function"
    },
    {
      "inputs": [
        {
          "internalType": "address",
          "name": "_user",
          "type": "address"
        }
      ],
      "name": "principalBalanceOf",
      "outputs": [
        {
          "internalType": "uint256",
          "name": "",
          "type": "uint256"
        }
      ],
      "stateMutability": "view",
      "type": "function"
    },
    {
      "inputs": [],
      "name": "totalSupply",
      "outputs": [
        {
          "internalType": "uint256",
          "name": "",
          "type": "uint256"
        }
      ],
      "stateMutability": "view",
      "type": "function"
    },
    {
      "inputs": [
        {
          "internalType": "address",
          "name": "_user",
          "type": "address"
        },
        {
          "internalType": "uint256",
          "name": "_amount",
          "type": "uint256"
        }
      ],
      "name": "isTransferAllowed",
      "outputs": [
        {
          "internalType": "bool",
          "name": "",
          "type": "bool"
        }
      ],
      "stateMutability": "view",
      "type": "function"
    },
    {
      "inputs": [
        {
          "internalType": "address",
          "name": "_user",
          "type": "address"
        }
      ],
      "name": "getUserIndex",
      "outputs": [
        {
          "internalType": "uint256",
          "name": "",
          "type": "uint256"
        }
      ],
      "stateMutability": "view",
      "type": "function"
    },
    {
      "inputs": [
        {
          "internalType": "address",
          "name": "_user",
          "type": "address"
        }
      ],
      "name": "getInterestRedirectionAddress",
      "outputs": [
        {
          "internalType": "address",
          "name": "",
          "type": "address"
        }
      ],
      "stateMutability": "view",
      "type": "function"
    },
    {
      "inputs": [
        {
          "internalType": "address",
          "name": "_user",
          "type": "address"
        }
      ],
      "name": "getRedirectedBalance",
      "outputs": [
        {
          "internalType": "uint256",
          "name": "",
          "type": "uint256"
        }
      ],
      "stateMutability": "view",
      "type": "function"
    }
  ],
  "bytecode": "0x60806040523480156200001157600080fd5b50604051620038d4380380620038d4833981810160405260a08110156200003757600080fd5b81019080805190602001909291908051906020019092919080519060200190929190805160405193929190846401000000008211156200007657600080fd5b838201915060208201858111156200008d57600080fd5b8251866001820283011164010000000082111715620000ab57600080fd5b8083526020830192505050908051906020019080838360005b83811015620000e1578082015181840152602081019050620000c4565b50505050905090810190601f1680156200010f5780820380516001836020036101000a031916815260200191505b50604052602001805160405193929190846401000000008211156200013357600080fd5b838201915060208201858111156200014a57600080fd5b82518660018202830111640100000000821117156200016857600080fd5b8083526020830192505050908051906020019080838360005b838110156200019e57808201518184015260208101905062000181565b50505050905090810190601f168015620001cc5780820380516001836020036101000a031916815260200191505b5060405250505081818160039080519060200190620001ed929190620002b2565b50806004908051906020019062000206929190620002b2565b506012600560006101000a81548160ff021916908360ff160217905550505084600a60006101000a81548173ffffffffffffffffffffffffffffffffffffffff021916908373ffffffffffffffffffffffffffffffffffffffff16021790555083600560016101000a81548173ffffffffffffffffffffffffffffffffffffffff021916908373ffffffffffffffffffffffffffffffffffffffff160217905550505050505062000361565b828054600181600116156101000203166002900490600052602060002090601f016020900481019282601f10620002f557805160ff191683800117855562000326565b8280016001018555821562000326579182015b828111156200032557825182559160200191906001019062000308565b5b50905062000335919062000339565b5090565b6200035e91905b808211156200035a57600081600090555060010162000340565b5090565b90565b61356380620003716000396000f3fe608060405234801561001057600080fd5b50600436106101735760003560e01c80635eae177c116100de578063a9059cbb11610097578063db006a7511610071578063db006a75146108c0578063dd62ed3e146108ee578063ee9907a414610966578063f866c319146109be57610173565b8063a9059cbb146107e4578063c634dfaa1461084a578063d0fc81d2146108a257610173565b80635eae177c146105a557806370a082311461060b57806389d1a0fc1461066357806394362e8b146106ad57806395d89b41146106fb578063a457c2d71461077e57610173565b806323b872dd1161013057806323b872dd1461035f578063313ce567146103e5578063325a9b1314610409578063395093511461046d5780633edb7cb8146104d3578063445e80101461052157610173565b806306fdde0314610178578063095ea7b3146101fb5780630e49072d1461026157806312c87c2d146102a557806318160ddd146102e95780631d51e7cf14610307575b600080fd5b610180610a2c565b6040518080602001828103825283818151815260200191508051906020019080838360005b838110156101c05780820151818401526020810190506101a5565b50505050905090810190601f1680156101ed5780820380516001836020036101000a031916815260200191505b509250505060405180910390f35b6102476004803603604081101561021157600080fd5b81019080803573ffffffffffffffffffffffffffffffffffffffff16906020019092919080359060200190929190505050610ace565b604051808215151515815260200191505060405180910390f35b6102a36004803603602081101561027757600080fd5b81019080803573ffffffffffffffffffffffffffffffffffffffff169060200190929190505050610aec565b005b6102e7600480360360208110156102bb57600080fd5b81019080803573ffffffffffffffffffffffffffffffffffffffff169060200190929190505050610af9565b005b6102f1610c59565b6040518082815260200191505060405180910390f35b6103496004803603602081101561031d57600080fd5b81019080803573ffffffffffffffffffffffffffffffffffffffff169060200190929190505050610ccd565b6040518082815260200191505060405180910390f35b6103cb6004803603606081101561037557600080fd5b81019080803573ffffffffffffffffffffffffffffffffffffffff169060200190929190803573ffffffffffffffffffffffffffffffffffffffff16906020019092919080359060200190929190505050610d16565b604051808215151515815260200191505060405180910390f35b6103ed610def565b604051808260ff1660ff16815260200191505060405180910390f35b61046b6004803603604081101561041f57600080fd5b81019080803573ffffffffffffffffffffffffffffffffffffffff169060200190929190803573ffffffffffffffffffffffffffffffffffffffff169060200190929190505050610e06565b005b6104b96004803603604081101561048357600080fd5b81019080803573ffffffffffffffffffffffffffffffffffffffff16906020019092919080359060200190929190505050610ef7565b604051808215151515815260200191505060405180910390f35b61051f600480360360408110156104e957600080fd5b81019080803573ffffffffffffffffffffffffffffffffffffffff16906020019092919080359060200190929190505050610faa565b005b6105636004803603602081101561053757600080fd5b81019080803573ffffffffffffffffffffffffffffffffffffffff169060200190929190505050611119565b604051808273ffffffffffffffffffffffffffffffffffffffff1673ffffffffffffffffffffffffffffffffffffffff16815260200191505060405180910390f35b6105f1600480360360408110156105bb57600080fd5b81019080803573ffffffffffffffffffffffffffffffffffffffff16906020019092919080359060200190929190505050611182565b604051808215151515815260200191505060405180910390f35b61064d6004803603602081101561062157600080fd5b81019080803573ffffffffffffffffffffffffffffffffffffffff16906020019092919050505061118e565b6040518082815260200191505060405180910390f35b61066b611303565b604051808273ffffffffffffffffffffffffffffffffffffffff1673ffffffffffffffffffffffffffffffffffffffff16815260200191505060405180910390f35b6106f9600480360360408110156106c357600080fd5b81019080803573ffffffffffffffffffffffffffffffffffffffff16906020019092919080359060200190929190505050611329565b005b61070361146d565b6040518080602001828103825283818151815260200191508051906020019080838360005b83811015610743578082015181840152602081019050610728565b50505050905090810190601f1680156107705780820380516001836020036101000a031916815260200191505b509250505060405180910390f35b6107ca6004803603604081101561079457600080fd5b81019080803573ffffffffffffffffffffffffffffffffffffffff1690602001909291908035906020019092919050505061150f565b604051808215151515815260200191505060405180910390f35b610830600480360360408110156107fa57600080fd5b81019080803573ffffffffffffffffffffffffffffffffffffffff169060200190929190803590602001909291905050506115dc565b604051808215151515815260200191505060405180910390f35b61088c6004803603602081101561086057600080fd5b81019080803573ffffffffffffffffffffffffffffffffffffffff1690602001909291905050506115fa565b6040518082815260200191505060405180910390f35b6108aa61160c565b6040518082815260200191505060405180910390f35b6108ec600480360360208110156108d657600080fd5b8101908080359060200190929190505050611630565b005b6109506004803603604081101561090457600080fd5b81019080803573ffffffffffffffffffffffffffffffffffffffff169060200190929190803573ffffffffffffffffffffffffffffffffffffffff16906020019092919050505061182e565b6040518082815260200191505060405180910390f35b6109a86004803603602081101561097c57600080fd5b81019080803573ffffffffffffffffffffffffffffffffffffffff1690602001909291905050506118b5565b6040518082815260200191505060405180910390f35b610a2a600480360360608110156109d457600080fd5b81019080803573ffffffffffffffffffffffffffffffffffffffff169060200190929190803573ffffffffffffffffffffffffffffffffffffffff169060200190929190803590602001909291905050506118fe565b005b606060038054600181600116156101000203166002900480601f016020809104026020016040519081016040528092919081815260200182805460018160011615610100020316600290048015610ac45780601f10610a9957610100808354040283529160200191610ac4565b820191906000526020600020905b815481529060010190602001808311610aa757829003601f168201915b5050505050905090565b6000610ae2610adb6119b4565b84846119bc565b6001905092915050565b610af63382611bb3565b50565b3373ffffffffffffffffffffffffffffffffffffffff168173ffffffffffffffffffffffffffffffffffffffff161415610b7e576040517f08c379a00000000000000000000000000000000000000000000000000000000081526004018080602001828103825260258152602001806133296025913960400191505060405180910390fd5b80600960003373ffffffffffffffffffffffffffffffffffffffff1673ffffffffffffffffffffffffffffffffffffffff16815260200190815260200160002060006101000a81548173ffffffffffffffffffffffffffffffffffffffff021916908373ffffffffffffffffffffffffffffffffffffffff1602179055508073ffffffffffffffffffffffffffffffffffffffff163373ffffffffffffffffffffffffffffffffffffffff167fc2d6a42a9d5273283f73009a07aacfb043f2f91173a8d9d33b504afe898db08b60405160405180910390a350565b600080610c64611f89565b90506000811415610c79576000915050610cca565b610cc6610cc1610caa600560019054906101000a900473ffffffffffffffffffffffffffffffffffffffff16611f93565b610cb384611f9e565b611fbe90919063ffffffff16565b612021565b9150505b90565b6000600860008373ffffffffffffffffffffffffffffffffffffffff1673ffffffffffffffffffffffffffffffffffffffff168152602001908152602001600020549050919050565b6000610d23848484612066565b610de484610d2f6119b4565b610ddf8560405180606001604052806028815260200161336f60289139600160008b73ffffffffffffffffffffffffffffffffffffffff1673ffffffffffffffffffffffffffffffffffffffff1681526020019081526020016000206000610d956119b4565b73ffffffffffffffffffffffffffffffffffffffff1673ffffffffffffffffffffffffffffffffffffffff168152602001908152602001600020546120f69092919063ffffffff16565b6119bc565b600190509392505050565b6000600560009054906101000a900460ff16905090565b600960008373ffffffffffffffffffffffffffffffffffffffff1673ffffffffffffffffffffffffffffffffffffffff16815260200190815260200160002060009054906101000a900473ffffffffffffffffffffffffffffffffffffffff1673ffffffffffffffffffffffffffffffffffffffff163373ffffffffffffffffffffffffffffffffffffffff1614610ee9576040517f08c379a000000000000000000000000000000000000000000000000000000000815260040180806020018281038252603a8152602001806134f4603a913960400191505060405180910390fd5b610ef38282611bb3565b5050565b6000610fa0610f046119b4565b84610f9b8560016000610f156119b4565b73ffffffffffffffffffffffffffffffffffffffff1673ffffffffffffffffffffffffffffffffffffffff16815260200190815260200160002060008973ffffffffffffffffffffffffffffffffffffffff1673ffffffffffffffffffffffffffffffffffffffff168152602001908152602001600020546121b690919063ffffffff16565b6119bc565b6001905092915050565b600a60009054906101000a900473ffffffffffffffffffffffffffffffffffffffff1673ffffffffffffffffffffffffffffffffffffffff163373ffffffffffffffffffffffffffffffffffffffff1614611050576040517f08c379a000000000000000000000000000000000000000000000000000000000815260040180806020018281038252603281526020018061349d6032913960400191505060405180910390fd5b600080600061105e8561223e565b93509350935050611070858386612313565b61107a8585612609565b6000809050600061109486866127cd90919063ffffffff16565b14156110a6576110a386612817565b90505b8573ffffffffffffffffffffffffffffffffffffffff167f90e5d3d68ec162d9c7de393037a3ede04dd44f68e051bf2ace4a73c299dbc4db8685846110eb57856110ee565b60005b60405180848152602001838152602001828152602001935050505060405180910390a2505050505050565b6000600760008373ffffffffffffffffffffffffffffffffffffffff1673ffffffffffffffffffffffffffffffffffffffff16815260200190815260200160002060009054906101000a900473ffffffffffffffffffffffffffffffffffffffff169050919050565b60006001905092915050565b60008061119a836129af565b90506000600860008573ffffffffffffffffffffffffffffffffffffffff1673ffffffffffffffffffffffffffffffffffffffff1681526020019081526020016000205490506000821480156111f05750600081145b15611200576000925050506112fe565b600073ffffffffffffffffffffffffffffffffffffffff16600760008673ffffffffffffffffffffffffffffffffffffffff1673ffffffffffffffffffffffffffffffffffffffff16815260200190815260200160002060009054906101000a900473ffffffffffffffffffffffffffffffffffffffff1673ffffffffffffffffffffffffffffffffffffffff1614156112cb576112c2816112b4866112af85876121b690919063ffffffff16565b6129f7565b6127cd90919063ffffffff16565b925050506112fe565b6112f96112ea826112dc87856129f7565b6127cd90919063ffffffff16565b836121b690919063ffffffff16565b925050505b919050565b600560019054906101000a900473ffffffffffffffffffffffffffffffffffffffff1681565b600a60009054906101000a900473ffffffffffffffffffffffffffffffffffffffff1673ffffffffffffffffffffffffffffffffffffffff163373ffffffffffffffffffffffffffffffffffffffff16146113cf576040517f08c379a000000000000000000000000000000000000000000000000000000000815260040180806020018281038252603281526020018061349d6032913960400191505060405180910390fd5b6000806113db8461223e565b9350935050506113ff846113f885856121b690919063ffffffff16565b6000612313565b6114098484612a9f565b8373ffffffffffffffffffffffffffffffffffffffff167fbe7799898ca2d813ff902b487c1b434ab45b47edd8f38b77ad5e99aae8341b7a84848460405180848152602001838152602001828152602001935050505060405180910390a250505050565b606060048054600181600116156101000203166002900480601f0160208091040260200160405190810160405280929190818152602001828054600181600116156101000203166002900480156115055780601f106114da57610100808354040283529160200191611505565b820191906000526020600020905b8154815290600101906020018083116114e857829003601f168201915b5050505050905090565b60006115d261151c6119b4565b846115cd856040518060600160405280602581526020016134cf60259139600160006115466119b4565b73ffffffffffffffffffffffffffffffffffffffff1673ffffffffffffffffffffffffffffffffffffffff16815260200190815260200160002060008a73ffffffffffffffffffffffffffffffffffffffff1673ffffffffffffffffffffffffffffffffffffffff168152602001908152602001600020546120f69092919063ffffffff16565b6119bc565b6001905092915050565b60006115f06115e96119b4565b8484612066565b6001905092915050565b6000611605826129af565b9050919050565b7fffffffffffffffffffffffffffffffffffffffffffffffffffffffffffffffff81565b600081116116a6576040517f08c379a00000000000000000000000000000000000000000000000000000000081526004018080602001828103825260208152602001807f416d6f756e7420746f2072656465656d206e6565647320746f206265203e203081525060200191505060405180910390fd5b6000819050600a60009054906101000a900473ffffffffffffffffffffffffffffffffffffffff1673ffffffffffffffffffffffffffffffffffffffff16639895e3d8600560019054906101000a900473ffffffffffffffffffffffffffffffffffffffff16338460006040518563ffffffff1660e01b8152600401808573ffffffffffffffffffffffffffffffffffffffff1673ffffffffffffffffffffffffffffffffffffffff1681526020018473ffffffffffffffffffffffffffffffffffffffff1673ffffffffffffffffffffffffffffffffffffffff168152602001838152602001828152602001945050505050600060405180830381600087803b1580156117b357600080fd5b505af11580156117c7573d6000803e3d6000fd5b505050503373ffffffffffffffffffffffffffffffffffffffff167fbd5034ffbd47e4e72a94baa2cdb74c6fad73cb3bcdc13036b72ec8306f5a76468260008060405180848152602001838152602001828152602001935050505060405180910390a25050565b6000600160008473ffffffffffffffffffffffffffffffffffffffff1673ffffffffffffffffffffffffffffffffffffffff16815260200190815260200160002060008373ffffffffffffffffffffffffffffffffffffffff1673ffffffffffffffffffffffffffffffffffffffff16815260200190815260200160002054905092915050565b6000600660008373ffffffffffffffffffffffffffffffffffffffff1673ffffffffffffffffffffffffffffffffffffffff168152602001908152602001600020549050919050565b600a60009054906101000a900473ffffffffffffffffffffffffffffffffffffffff1673ffffffffffffffffffffffffffffffffffffffff163373ffffffffffffffffffffffffffffffffffffffff16146119a4576040517f08c379a000000000000000000000000000000000000000000000000000000000815260040180806020018281038252603281526020018061349d6032913960400191505060405180910390fd5b6119af838383612c66565b505050565b600033905090565b600073ffffffffffffffffffffffffffffffffffffffff168373ffffffffffffffffffffffffffffffffffffffff161415611a42576040517f08c379a00000000000000000000000000000000000000000000000000000000081526004018080602001828103825260248152602001806134796024913960400191505060405180910390fd5b600073ffffffffffffffffffffffffffffffffffffffff168273ffffffffffffffffffffffffffffffffffffffff161415611ac8576040517f08c379a00000000000000000000000000000000000000000000000000000000081526004018080602001828103825260228152602001806132e16022913960400191505060405180910390fd5b80600160008573ffffffffffffffffffffffffffffffffffffffff1673ffffffffffffffffffffffffffffffffffffffff16815260200190815260200160002060008473ffffffffffffffffffffffffffffffffffffffff1673ffffffffffffffffffffffffffffffffffffffff168152602001908152602001600020819055508173ffffffffffffffffffffffffffffffffffffffff168373ffffffffffffffffffffffffffffffffffffffff167f8c5be1e5ebec7d5bd14f71427d1e84f3dd0314c0f7b2291e5b200ac8c7c3b925836040518082815260200191505060405180910390a3505050565b6000600760008473ffffffffffffffffffffffffffffffffffffffff1673ffffffffffffffffffffffffffffffffffffffff16815260200190815260200160002060009054906101000a900473ffffffffffffffffffffffffffffffffffffffff1690508073ffffffffffffffffffffffffffffffffffffffff168273ffffffffffffffffffffffffffffffffffffffff161415611c9c576040517f08c379a000000000000000000000000000000000000000000000000000000000815260040180806020018281038252602a815260200180613397602a913960400191505060405180910390fd5b600080600080611cab8761223e565b935093509350935060008311611d0c576040517f08c379a00000000000000000000000000000000000000000000000000000000081526004018080602001828103825260428152602001806133c16042913960600191505060405180910390fd5b600073ffffffffffffffffffffffffffffffffffffffff168573ffffffffffffffffffffffffffffffffffffffff1614611d4d57611d4c87600086612313565b5b8673ffffffffffffffffffffffffffffffffffffffff168673ffffffffffffffffffffffffffffffffffffffff161415611e80576000600760008973ffffffffffffffffffffffffffffffffffffffff1673ffffffffffffffffffffffffffffffffffffffff16815260200190815260200160002060006101000a81548173ffffffffffffffffffffffffffffffffffffffff021916908373ffffffffffffffffffffffffffffffffffffffff160217905550600073ffffffffffffffffffffffffffffffffffffffff168773ffffffffffffffffffffffffffffffffffffffff167f5e3cad45b1fe24159d1cb39788d82d0f69cc15770aa96fba1d3d1a734873559485858560405180848152602001838152602001828152602001935050505060405180910390a35050505050611f85565b85600760008973ffffffffffffffffffffffffffffffffffffffff1673ffffffffffffffffffffffffffffffffffffffff16815260200190815260200160002060006101000a81548173ffffffffffffffffffffffffffffffffffffffff021916908373ffffffffffffffffffffffffffffffffffffffff160217905550611f0a87846000612313565b8573ffffffffffffffffffffffffffffffffffffffff168773ffffffffffffffffffffffffffffffffffffffff167f5e3cad45b1fe24159d1cb39788d82d0f69cc15770aa96fba1d3d1a734873559485858560405180848152602001838152602001828152602001935050505060405180910390a350505050505b5050565b6000600254905090565b600060019050919050565b6000611fb7633b9aca0083612de390919063ffffffff16565b9050919050565b60006120196b033b2e3c9fd0803ce800000061200b611fe68587612de390919063ffffffff16565b60026b033b2e3c9fd0803ce800000081611ffc57fe5b046121b690919063ffffffff16565b612e6990919063ffffffff16565b905092915050565b6000806002633b9aca008161203257fe5b04905061205e633b9aca0061205085846121b690919063ffffffff16565b612e6990919063ffffffff16565b915050919050565b82816120728282611182565b6120e4576040517f08c379a000000000000000000000000000000000000000000000000000000000815260040180806020018281038252601b8152602001807f5472616e736665722063616e6e6f7420626520616c6c6f7765642e000000000081525060200191505060405180910390fd5b6120ef858585612c66565b5050505050565b60008383111582906121a3576040517f08c379a00000000000000000000000000000000000000000000000000000000081526004018080602001828103825283818151815260200191508051906020019080838360005b8381101561216857808201518184015260208101905061214d565b50505050905090810190601f1680156121955780820380516001836020036101000a031916815260200191505b509250505060405180910390fd5b5060008385039050809150509392505050565b600080828401905083811015612234576040517f08c379a000000000000000000000000000000000000000000000000000000000815260040180806020018281038252601b8152602001807f536166654d6174683a206164646974696f6e206f766572666c6f77000000000081525060200191505060405180910390fd5b8091505092915050565b600080600080600061224f866129af565b9050600061226e826122608961118e565b6127cd90919063ffffffff16565b905061227a8782612a9f565b60006122a7600560019054906101000a900473ffffffffffffffffffffffffffffffffffffffff16611f93565b600660008a73ffffffffffffffffffffffffffffffffffffffff1673ffffffffffffffffffffffffffffffffffffffff1681526020019081526020016000208190559050826122ff83856121b690919063ffffffff16565b838396509650965096505050509193509193565b6000600760008573ffffffffffffffffffffffffffffffffffffffff1673ffffffffffffffffffffffffffffffffffffffff16815260200190815260200160002060009054906101000a900473ffffffffffffffffffffffffffffffffffffffff169050600073ffffffffffffffffffffffffffffffffffffffff168173ffffffffffffffffffffffffffffffffffffffff1614156123b25750612604565b6000806123be8361223e565b9350935050506124288461241a87600860008873ffffffffffffffffffffffffffffffffffffffff1673ffffffffffffffffffffffffffffffffffffffff168152602001908152602001600020546121b690919063ffffffff16565b6127cd90919063ffffffff16565b600860008573ffffffffffffffffffffffffffffffffffffffff1673ffffffffffffffffffffffffffffffffffffffff168152602001908152602001600020819055506000600760008573ffffffffffffffffffffffffffffffffffffffff1673ffffffffffffffffffffffffffffffffffffffff16815260200190815260200160002060009054906101000a900473ffffffffffffffffffffffffffffffffffffffff169050600073ffffffffffffffffffffffffffffffffffffffff168173ffffffffffffffffffffffffffffffffffffffff16146125995761255583600860008473ffffffffffffffffffffffffffffffffffffffff1673ffffffffffffffffffffffffffffffffffffffff168152602001908152602001600020546121b690919063ffffffff16565b600860008373ffffffffffffffffffffffffffffffffffffffff1673ffffffffffffffffffffffffffffffffffffffff168152602001908152602001600020819055505b8373ffffffffffffffffffffffffffffffffffffffff167f70ff8cf632603e2bfd1afb7e4061acce53d95356b1be9726b99fa22ba733b01f848489896040518085815260200184815260200183815260200182815260200194505050505060405180910390a2505050505b505050565b600073ffffffffffffffffffffffffffffffffffffffff168273ffffffffffffffffffffffffffffffffffffffff16141561268f576040517f08c379a00000000000000000000000000000000000000000000000000000000081526004018080602001828103825260218152602001806134336021913960400191505060405180910390fd5b61269b82600083612eb3565b612706816040518060600160405280602281526020016132bf602291396000808673ffffffffffffffffffffffffffffffffffffffff1673ffffffffffffffffffffffffffffffffffffffff168152602001908152602001600020546120f69092919063ffffffff16565b6000808473ffffffffffffffffffffffffffffffffffffffff1673ffffffffffffffffffffffffffffffffffffffff1681526020019081526020016000208190555061275d816002546127cd90919063ffffffff16565b600281905550600073ffffffffffffffffffffffffffffffffffffffff168273ffffffffffffffffffffffffffffffffffffffff167fddf252ad1be2c89b69c2b068fc378daa952ba7f163c4a11628f55a4df523b3ef836040518082815260200191505060405180910390a35050565b600061280f83836040518060400160405280601e81526020017f536166654d6174683a207375627472616374696f6e206f766572666c6f7700008152506120f6565b905092915050565b600080600760008473ffffffffffffffffffffffffffffffffffffffff1673ffffffffffffffffffffffffffffffffffffffff16815260200190815260200160002060006101000a81548173ffffffffffffffffffffffffffffffffffffffff021916908373ffffffffffffffffffffffffffffffffffffffff160217905550600073ffffffffffffffffffffffffffffffffffffffff168273ffffffffffffffffffffffffffffffffffffffff167f5e3cad45b1fe24159d1cb39788d82d0f69cc15770aa96fba1d3d1a7348735594600080600060405180848152602001838152602001828152602001935050505060405180910390a36000600860008473ffffffffffffffffffffffffffffffffffffffff1673ffffffffffffffffffffffffffffffffffffffff1681526020019081526020016000205414156129a5576000600660008473ffffffffffffffffffffffffffffffffffffffff1673ffffffffffffffffffffffffffffffffffffffff16815260200190815260200160002081905550600190506129aa565b600090505b919050565b60008060008373ffffffffffffffffffffffffffffffffffffffff1673ffffffffffffffffffffffffffffffffffffffff168152602001908152602001600020549050919050565b6000612a97612a92600660008673ffffffffffffffffffffffffffffffffffffffff1673ffffffffffffffffffffffffffffffffffffffff16815260200190815260200160002054612a84612a6d600560019054906101000a900473ffffffffffffffffffffffffffffffffffffffff16611f93565b612a7687611f9e565b611fbe90919063ffffffff16565b612eb890919063ffffffff16565b612021565b905092915050565b600073ffffffffffffffffffffffffffffffffffffffff168273ffffffffffffffffffffffffffffffffffffffff161415612b42576040517f08c379a000000000000000000000000000000000000000000000000000000000815260040180806020018281038252601f8152602001807f45524332303a206d696e7420746f20746865207a65726f20616464726573730081525060200191505060405180910390fd5b612b4e60008383612eb3565b612b63816002546121b690919063ffffffff16565b600281905550612bba816000808573ffffffffffffffffffffffffffffffffffffffff1673ffffffffffffffffffffffffffffffffffffffff168152602001908152602001600020546121b690919063ffffffff16565b6000808473ffffffffffffffffffffffffffffffffffffffff1673ffffffffffffffffffffffffffffffffffffffff168152602001908152602001600020819055508173ffffffffffffffffffffffffffffffffffffffff16600073ffffffffffffffffffffffffffffffffffffffff167fddf252ad1be2c89b69c2b068fc378daa952ba7f163c4a11628f55a4df523b3ef836040518082815260200191505060405180910390a35050565b60008111612cbf576040517f08c379a00000000000000000000000000000000000000000000000000000000081526004018080602001828103825260308152602001806134036030913960400191505060405180910390fd5b6000806000612ccd8661223e565b93509350935050600080612ce08761223e565b935093505050612cf1888588612313565b612d0f87612d0888856121b690919063ffffffff16565b6000612313565b612d1a888888612f14565b60008090506000612d3488886127cd90919063ffffffff16565b1415612d4657612d4389612817565b90505b8773ffffffffffffffffffffffffffffffffffffffff168973ffffffffffffffffffffffffffffffffffffffff167f89a178eaa27e0cd201bd795ca8ff716ac0df9618494510ca79771cfc66ffcde889888786612da35789612da6565b60005b88604051808681526020018581526020018481526020018381526020018281526020019550505050505060405180910390a3505050505050505050565b600080831415612df65760009050612e63565b6000828402905082848281612e0757fe5b0414612e5e576040517f08c379a000000000000000000000000000000000000000000000000000000000815260040180806020018281038252602181526020018061334e6021913960400191505060405180910390fd5b809150505b92915050565b6000612eab83836040518060400160405280601a81526020017f536166654d6174683a206469766973696f6e206279207a65726f0000000000008152506131d5565b905092915050565b505050565b60008060028381612ec557fe5b049050612f0b83612efd612eee6b033b2e3c9fd0803ce800000088612de390919063ffffffff16565b846121b690919063ffffffff16565b612e6990919063ffffffff16565b91505092915050565b600073ffffffffffffffffffffffffffffffffffffffff168373ffffffffffffffffffffffffffffffffffffffff161415612f9a576040517f08c379a00000000000000000000000000000000000000000000000000000000081526004018080602001828103825260258152602001806134546025913960400191505060405180910390fd5b600073ffffffffffffffffffffffffffffffffffffffff168273ffffffffffffffffffffffffffffffffffffffff161415613020576040517f08c379a000000000000000000000000000000000000000000000000000000000815260040180806020018281038252602381526020018061329c6023913960400191505060405180910390fd5b61302b838383612eb3565b61309681604051806060016040528060268152602001613303602691396000808773ffffffffffffffffffffffffffffffffffffffff1673ffffffffffffffffffffffffffffffffffffffff168152602001908152602001600020546120f69092919063ffffffff16565b6000808573ffffffffffffffffffffffffffffffffffffffff1673ffffffffffffffffffffffffffffffffffffffff16815260200190815260200160002081905550613129816000808573ffffffffffffffffffffffffffffffffffffffff1673ffffffffffffffffffffffffffffffffffffffff168152602001908152602001600020546121b690919063ffffffff16565b6000808473ffffffffffffffffffffffffffffffffffffffff1673ffffffffffffffffffffffffffffffffffffffff168152602001908152602001600020819055508173ffffffffffffffffffffffffffffffffffffffff168373ffffffffffffffffffffffffffffffffffffffff167fddf252ad1be2c89b69c2b068fc378daa952ba7f163c4a11628f55a4df523b3ef836040518082815260200191505060405180910390a3505050565b60008083118290613281576040517f08c379a00000000000000000000000000000000000000000000000000000000081526004018080602001828103825283818151815260200191508051906020019080838360005b8381101561324657808201518184015260208101905061322b565b50505050905090810190601f1680156132735780820380516001836020036101000a031916815260200191505b509250505060405180910390fd5b50600083858161328d57fe5b04905080915050939250505056fe45524332303a207472616e7366657220746f20746865207a65726f206164647265737345524332303a206275726e20616d6f756e7420657863656564732062616c616e636545524332303a20617070726f766520746f20746865207a65726f206164647265737345524332303a207472616e7366657220616d6f756e7420657863656564732062616c616e6365557365722063616e6e6f74206769766520616c6c6f77616e636520746f2068696d73656c66536166654d6174683a206d756c7469706c69636174696f6e206f766572666c6f7745524332303a207472616e7366657220616d6f756e74206578636565647320616c6c6f77616e6365496e74657265737420697320616c7265616479207265646972656374656420746f207468652075736572496e7465726573742073747265616d2063616e206f6e6c79206265207265646972656374656420696620746865726520697320612076616c69642062616c616e63655472616e7366657272656420616d6f756e74206e6565647320746f2062652067726561746572207468616e207a65726f45524332303a206275726e2066726f6d20746865207a65726f206164647265737345524332303a207472616e736665722066726f6d20746865207a65726f206164647265737345524332303a20617070726f76652066726f6d20746865207a65726f20616464726573735468652063616c6c6572206f6620746869732066756e6374696f6e206d7573742062652061206c656e64696e6720706f6f6c45524332303a2064656372656173656420616c6c6f77616e63652062656c6f77207a65726f43616c6c6572206973206e6f7420616c6c6f77656420746f2072656469726563742074686520696e746572657374206f66207468652075736572a2646970667358221220d98b33189dfd2e9ab7ab6256e56910e6e02c4d96bc0525d92e35665f91fb8e8264736f6c634300060a0033",
  "immutableReferences": {},
  "source": "pragma solidity ^0.6.10;\n\nimport \"../../lib/ERC20.sol\";\nimport \"../../lib/WadRayMath.sol\";\n\n// import \"../configuration/LendingPoolAddressesProvider.sol\";\nimport \"./IAaveLendingPool.sol\";\n\n// import \"../lendingpool/LendingPoolDataProvider.sol\";\n// import \"../lendingpool/LendingPoolCore.sol\";\n\n/**\n * @title Aave ERC20 AToken\n *\n * @dev Implementation of the interest bearing token for the DLP protocol.\n * @author Aave\n */\ncontract AToken is ERC20 {\n  using WadRayMath for uint256;\n\n  uint256 public constant UINT_MAX_VALUE = uint256(-1);\n\n  /**\n   * @dev emitted after the redeem action\n   * @param _from the address performing the redeem\n   * @param _value the amount to be redeemed\n   * @param _fromBalanceIncrease the cumulated balance since the last update of the user\n   * @param _fromIndex the last index of the user\n   **/\n  event Redeem(\n    address indexed _from,\n    uint256 _value,\n    uint256 _fromBalanceIncrease,\n    uint256 _fromIndex\n  );\n\n  /**\n   * @dev emitted after the mint action\n   * @param _from the address performing the mint\n   * @param _value the amount to be minted\n   * @param _fromBalanceIncrease the cumulated balance since the last update of the user\n   * @param _fromIndex the last index of the user\n   **/\n  event MintOnDeposit(\n    address indexed _from,\n    uint256 _value,\n    uint256 _fromBalanceIncrease,\n    uint256 _fromIndex\n  );\n\n  /**\n   * @dev emitted during the liquidation action, when the liquidator reclaims the underlying\n   * asset\n   * @param _from the address from which the tokens are being burned\n   * @param _value the amount to be burned\n   * @param _fromBalanceIncrease the cumulated balance since the last update of the user\n   * @param _fromIndex the last index of the user\n   **/\n  event BurnOnLiquidation(\n    address indexed _from,\n    uint256 _value,\n    uint256 _fromBalanceIncrease,\n    uint256 _fromIndex\n  );\n\n  /**\n   * @dev emitted during the transfer action\n   * @param _from the address from which the tokens are being transferred\n   * @param _to the adress of the destination\n   * @param _value the amount to be minted\n   * @param _fromBalanceIncrease the cumulated balance since the last update of the user\n   * @param _toBalanceIncrease the cumulated balance since the last update of the destination\n   * @param _fromIndex the last index of the user\n   * @param _toIndex the last index of the liquidator\n   **/\n  event BalanceTransfer(\n    address indexed _from,\n    address indexed _to,\n    uint256 _value,\n    uint256 _fromBalanceIncrease,\n    uint256 _toBalanceIncrease,\n    uint256 _fromIndex,\n    uint256 _toIndex\n  );\n\n  /**\n   * @dev emitted when the accumulation of the interest\n   * by an user is redirected to another user\n   * @param _from the address from which the interest is being redirected\n   * @param _to the adress of the destination\n   * @param _fromBalanceIncrease the cumulated balance since the last update of the user\n   * @param _fromIndex the last index of the user\n   **/\n  event InterestStreamRedirected(\n    address indexed _from,\n    address indexed _to,\n    uint256 _redirectedBalance,\n    uint256 _fromBalanceIncrease,\n    uint256 _fromIndex\n  );\n\n  /**\n   * @dev emitted when the redirected balance of an user is being updated\n   * @param _targetAddress the address of which the balance is being updated\n   * @param _targetBalanceIncrease the cumulated balance since the last update of the target\n   * @param _targetIndex the last index of the user\n   * @param _redirectedBalanceAdded the redirected balance being added\n   * @param _redirectedBalanceRemoved the redirected balance being removed\n   **/\n  event RedirectedBalanceUpdated(\n    address indexed _targetAddress,\n    uint256 _targetBalanceIncrease,\n    uint256 _targetIndex,\n    uint256 _redirectedBalanceAdded,\n    uint256 _redirectedBalanceRemoved\n  );\n\n  event InterestRedirectionAllowanceChanged(\n    address indexed _from,\n    address indexed _to\n  );\n\n  address public underlyingAssetAddress;\n\n  mapping(address => uint256) private userIndexes;\n  mapping(address => address) private interestRedirectionAddresses;\n  mapping(address => uint256) private redirectedBalances;\n  mapping(address => address) private interestRedirectionAllowances;\n\n  //    LendingPoolAddressesProvider private addressesProvider;\n  //    LendingPoolCore private core;\n  IAaveLendingPool private pool;\n  //    LendingPoolDataProvider private dataProvider;\n\n  modifier onlyLendingPool {\n    require(\n      msg.sender == address(pool),\n      \"The caller of this function must be a lending pool\"\n    );\n    _;\n  }\n\n  modifier whenTransferAllowed(address _from, uint256 _amount) {\n    require(isTransferAllowed(_from, _amount), \"Transfer cannot be allowed.\");\n    _;\n  }\n\n  constructor(\n    address poolAdress,\n    address _underlyingAsset,\n    uint8 _underlyingAssetDecimals,\n    string memory _name,\n    string memory _symbol\n  ) public ERC20(_name, _symbol) {\n    //    addressesProvider = _addressesProvider;\n    //    core = ILendingPoolCore(addressesProvider.getLendingPoolCore());\n    pool = IAaveLendingPool(poolAdress);\n    //    dataProvider = LendingPoolDataProvider(addressesProvider.getLendingPoolDataProvider());\n    underlyingAssetAddress = _underlyingAsset;\n  }\n\n  /**\n   * @notice ERC20 implementation internal function backing transfer() and transferFrom()\n   * @dev validates the transfer before allowing it. NOTE: This is not standard ERC20 behavior\n   **/\n  function _transfer(\n    address _from,\n    address _to,\n    uint256 _amount\n  ) internal override whenTransferAllowed(_from, _amount) {\n    executeTransferInternal(_from, _to, _amount);\n  }\n\n  /**\n   * @dev redirects the interest generated to a target address.\n   * when the interest is redirected, the user balance is added to\n   * the recepient redirected balance.\n   * @param _to the address to which the interest will be redirected\n   **/\n  function redirectInterestStream(address _to) external {\n    redirectInterestStreamInternal(msg.sender, _to);\n  }\n\n  /**\n   * @dev redirects the interest generated by _from to a target address.\n   * when the interest is redirected, the user balance is added to\n   * the recepient redirected balance. The caller needs to have allowance on\n   * the interest redirection to be able to execute the function.\n   * @param _from the address of the user whom interest is being redirected\n   * @param _to the address to which the interest will be redirected\n   **/\n  function redirectInterestStreamOf(address _from, address _to) external {\n    require(\n      msg.sender == interestRedirectionAllowances[_from],\n      \"Caller is not allowed to redirect the interest of the user\"\n    );\n    redirectInterestStreamInternal(_from, _to);\n  }\n\n  /**\n   * @dev gives allowance to an address to execute the interest redirection\n   * on behalf of the caller.\n   * @param _to the address to which the interest will be redirected. Pass address(0) to reset\n   * the allowance.\n   **/\n  function allowInterestRedirectionTo(address _to) external {\n    require(_to != msg.sender, \"User cannot give allowance to himself\");\n    interestRedirectionAllowances[msg.sender] = _to;\n    emit InterestRedirectionAllowanceChanged(msg.sender, _to);\n  }\n\n  /**\n   * @dev redeems aToken for the underlying asset\n   * @param _amount the amount being redeemed\n   **/\n  function redeem(uint256 _amount) external {\n    require(_amount > 0, \"Amount to redeem needs to be > 0\");\n\n    // //cumulates the balance of the user\n    // (\n    //   ,\n    //   uint256 currentBalance,\n    //   uint256 balanceIncrease,\n    //   uint256 index\n    // ) = cumulateBalanceInternal(msg.sender);\n\n    uint256 amountToRedeem = _amount;\n\n    // //if amount is equal to uint(-1), the user wants to redeem everything\n    // if (_amount == UINT_MAX_VALUE) {\n    //   amountToRedeem = currentBalance;\n    // }\n\n    // require(\n    //   amountToRedeem <= currentBalance,\n    //   \"User cannot redeem more than the available balance\"\n    // );\n\n    // //check that the user is allowed to redeem the amount\n    // require(\n    //   isTransferAllowed(msg.sender, amountToRedeem),\n    //   \"Transfer cannot be allowed.\"\n    // );\n\n    // //if the user is redirecting his interest towards someone else,\n    // //we update the redirected balance of the redirection address by adding the accrued interest,\n    // //and removing the amount to redeem\n    // updateRedirectedBalanceOfRedirectionAddressInternal(\n    //   msg.sender,\n    //   balanceIncrease,\n    //   amountToRedeem\n    // );\n\n    // // burns tokens equivalent to the amount requested\n    // _burn(msg.sender, amountToRedeem);\n\n    // bool userIndexReset = false;\n    // //reset the user data if the remaining balance is 0\n    // if (currentBalance.sub(amountToRedeem) == 0) {\n    //   userIndexReset = resetDataOnZeroBalanceInternal(msg.sender);\n    // }\n\n    // // executes redeem of the underlying asset\n    pool.redeemUnderlying(\n      underlyingAssetAddress,\n      msg.sender,\n      amountToRedeem,\n      0 //currentBalance.sub(amountToRedeem)\n    );\n\n    emit Redeem(\n      msg.sender,\n      amountToRedeem,\n      0, //balanceIncrease,\n      0 // userIndexReset ? 0 : index\n    );\n  }\n\n  /**\n   * @dev mints token in the event of users depositing the underlying asset into the lending pool\n   * only lending pools can call this function\n   * @param _account the address receiving the minted tokens\n   * @param _amount the amount of tokens to mint\n   */\n  function mintOnDeposit(address _account, uint256 _amount)\n    external\n    onlyLendingPool\n  {\n    //cumulates the balance of the user\n    (, , uint256 balanceIncrease, uint256 index) = cumulateBalanceInternal(\n      _account\n    );\n\n    //if the user is redirecting his interest towards someone else,\n    //we update the redirected balance of the redirection address by adding the accrued interest\n    //and the amount deposited\n    updateRedirectedBalanceOfRedirectionAddressInternal(\n      _account,\n      balanceIncrease.add(_amount),\n      0\n    );\n\n    //mint an equivalent amount of tokens to cover the new deposit\n    _mint(_account, _amount);\n\n    emit MintOnDeposit(_account, _amount, balanceIncrease, index);\n  }\n\n  /**\n   * @dev burns token in the event of a borrow being liquidated, in case the liquidators reclaims the underlying asset\n   * Transfer of the liquidated asset is executed by the lending pool contract.\n   * only lending pools can call this function\n   * @param _account the address from which burn the aTokens\n   * @param _value the amount to burn\n   **/\n  function burnOnLiquidation(address _account, uint256 _value)\n    external\n    onlyLendingPool\n  {\n    //cumulates the balance of the user being liquidated\n    (\n      ,\n      uint256 accountBalance,\n      uint256 balanceIncrease,\n      uint256 index\n    ) = cumulateBalanceInternal(_account);\n\n    //adds the accrued interest and substracts the burned amount to\n    //the redirected balance\n    updateRedirectedBalanceOfRedirectionAddressInternal(\n      _account,\n      balanceIncrease,\n      _value\n    );\n\n    //burns the requested amount of tokens\n    _burn(_account, _value);\n\n    bool userIndexReset = false;\n    //reset the user data if the remaining balance is 0\n    if (accountBalance.sub(_value) == 0) {\n      userIndexReset = resetDataOnZeroBalanceInternal(_account);\n    }\n\n    emit BurnOnLiquidation(\n      _account,\n      _value,\n      balanceIncrease,\n      userIndexReset ? 0 : index\n    );\n  }\n\n  /**\n   * @dev transfers tokens in the event of a borrow being liquidated, in case the liquidators reclaims the aToken\n   *      only lending pools can call this function\n   * @param _from the address from which transfer the aTokens\n   * @param _to the destination address\n   * @param _value the amount to transfer\n   **/\n  function transferOnLiquidation(\n    address _from,\n    address _to,\n    uint256 _value\n  ) external onlyLendingPool {\n    //being a normal transfer, the Transfer() and BalanceTransfer() are emitted\n    //so no need to emit a specific event here\n    executeTransferInternal(_from, _to, _value);\n  }\n\n  /**\n   * @dev calculates the balance of the user, which is the\n   * principal balance + interest generated by the principal balance + interest generated by the redirected balance\n   * @param _user the user for which the balance is being calculated\n   * @return the total balance of the user\n   **/\n  function balanceOf(address _user) public override view returns (uint256) {\n    //current principal balance of the user\n    uint256 currentPrincipalBalance = super.balanceOf(_user);\n    //balance redirected by other users to _user for interest rate accrual\n    uint256 redirectedBalance = redirectedBalances[_user];\n\n    if (currentPrincipalBalance == 0 && redirectedBalance == 0) {\n      return 0;\n    }\n    //if the _user is not redirecting the interest to anybody, accrues\n    //the interest for himself\n\n    if (interestRedirectionAddresses[_user] == address(0)) {\n      //accruing for himself means that both the principal balance and\n      //the redirected balance partecipate in the interest\n      return\n        calculateCumulatedBalanceInternal(\n          _user,\n          currentPrincipalBalance.add(redirectedBalance)\n        )\n          .sub(redirectedBalance);\n    } else {\n      //if the user redirected the interest, then only the redirected\n      //balance generates interest. In that case, the interest generated\n      //by the redirected balance is added to the current principal balance.\n      return\n        currentPrincipalBalance.add(\n          calculateCumulatedBalanceInternal(_user, redirectedBalance).sub(\n            redirectedBalance\n          )\n        );\n    }\n  }\n\n  /**\n   * @dev returns the principal balance of the user. The principal balance is the last\n   * updated stored balance, which does not consider the perpetually accruing interest.\n   * @param _user the address of the user\n   * @return the principal balance of the user\n   **/\n  function principalBalanceOf(address _user) external view returns (uint256) {\n    return super.balanceOf(_user);\n  }\n\n  /**\n   * @dev calculates the total supply of the specific aToken\n   * since the balance of every single user increases over time, the total supply\n   * does that too.\n   * @return the current total supply\n   **/\n  function totalSupply() public override view returns (uint256) {\n    uint256 currentSupplyPrincipal = super.totalSupply();\n\n    if (currentSupplyPrincipal == 0) {\n      return 0;\n    }\n\n    return\n      currentSupplyPrincipal\n        .wadToRay()\n        .rayMul(coreGetNormalizedIncome(underlyingAssetAddress))\n        .rayToWad();\n  }\n\n  /**\n   * @dev Used to validate transfers before actually executing them.\n   * @param _user address of the user to check\n   * @param _amount the amount to check\n   * @return true if the _user can transfer _amount, false otherwise\n   **/\n  function isTransferAllowed(address _user, uint256 _amount)\n    public\n    view\n    returns (bool)\n  {\n    return true; //dataProvider.balanceDecreaseAllowed(underlyingAssetAddress, _user, _amount);\n  }\n\n  /**\n   * @dev returns the last index of the user, used to calculate the balance of the user\n   * @param _user address of the user\n   * @return the last user index\n   **/\n  function getUserIndex(address _user) external view returns (uint256) {\n    return userIndexes[_user];\n  }\n\n  /**\n   * @dev returns the address to which the interest is redirected\n   * @param _user address of the user\n   * @return 0 if there is no redirection, an address otherwise\n   **/\n  function getInterestRedirectionAddress(address _user)\n    external\n    view\n    returns (address)\n  {\n    return interestRedirectionAddresses[_user];\n  }\n\n  /**\n   * @dev returns the redirected balance of the user. The redirected balance is the balance\n   * redirected by other accounts to the user, that is accrueing interest for him.\n   * @param _user address of the user\n   * @return the total redirected balance\n   **/\n  function getRedirectedBalance(address _user) external view returns (uint256) {\n    return redirectedBalances[_user];\n  }\n\n  /**\n   * @dev accumulates the accrued interest of the user to the principal balance\n   * @param _user the address of the user for which the interest is being accumulated\n   * @return the previous principal balance, the new principal balance, the balance increase\n   * and the new user index\n   **/\n  function cumulateBalanceInternal(address _user)\n    internal\n    returns (\n      uint256,\n      uint256,\n      uint256,\n      uint256\n    )\n  {\n    uint256 previousPrincipalBalance = super.balanceOf(_user);\n\n    //calculate the accrued interest since the last accumulation\n    uint256 balanceIncrease = balanceOf(_user).sub(previousPrincipalBalance);\n    //mints an amount of tokens equivalent to the amount accumulated\n    _mint(_user, balanceIncrease);\n    //updates the user index\n    uint256 index = userIndexes[_user] = coreGetNormalizedIncome(\n      underlyingAssetAddress\n    );\n    return (\n      previousPrincipalBalance,\n      previousPrincipalBalance.add(balanceIncrease),\n      balanceIncrease,\n      index\n    );\n  }\n\n  /**\n   * @dev updates the redirected balance of the user. If the user is not redirecting his\n   * interest, nothing is executed.\n   * @param _user the address of the user for which the interest is being accumulated\n   * @param _balanceToAdd the amount to add to the redirected balance\n   * @param _balanceToRemove the amount to remove from the redirected balance\n   **/\n  function updateRedirectedBalanceOfRedirectionAddressInternal(\n    address _user,\n    uint256 _balanceToAdd,\n    uint256 _balanceToRemove\n  ) internal {\n    address redirectionAddress = interestRedirectionAddresses[_user];\n    //if there isn't any redirection, nothing to be done\n    if (redirectionAddress == address(0)) {\n      return;\n    }\n\n    //compound balances of the redirected address\n    (, , uint256 balanceIncrease, uint256 index) = cumulateBalanceInternal(\n      redirectionAddress\n    );\n\n    //updating the redirected balance\n    redirectedBalances[redirectionAddress] = redirectedBalances[redirectionAddress]\n      .add(_balanceToAdd)\n      .sub(_balanceToRemove);\n\n    //if the interest of redirectionAddress is also being redirected, we need to update\n    //the redirected balance of the redirection target by adding the balance increase\n\n\n      address targetOfRedirectionAddress\n     = interestRedirectionAddresses[redirectionAddress];\n\n    if (targetOfRedirectionAddress != address(0)) {\n      redirectedBalances[targetOfRedirectionAddress] = redirectedBalances[targetOfRedirectionAddress]\n        .add(balanceIncrease);\n    }\n\n    emit RedirectedBalanceUpdated(\n      redirectionAddress,\n      balanceIncrease,\n      index,\n      _balanceToAdd,\n      _balanceToRemove\n    );\n  }\n\n  /**\n   * @dev calculate the interest accrued by _user on a specific balance\n   * @param _user the address of the user for which the interest is being accumulated\n   * @param _balance the balance on which the interest is calculated\n   * @return the interest rate accrued\n   **/\n  function calculateCumulatedBalanceInternal(address _user, uint256 _balance)\n    internal\n    view\n    returns (uint256)\n  {\n    return\n      _balance\n        .wadToRay()\n        .rayMul(coreGetNormalizedIncome(underlyingAssetAddress))\n        .rayDiv(userIndexes[_user])\n        .rayToWad();\n  }\n\n  /**\n   * @dev executes the transfer of aTokens, invoked by both _transfer() and\n   *      transferOnLiquidation()\n   * @param _from the address from which transfer the aTokens\n   * @param _to the destination address\n   * @param _value the amount to transfer\n   **/\n  function executeTransferInternal(\n    address _from,\n    address _to,\n    uint256 _value\n  ) internal {\n    require(_value > 0, \"Transferred amount needs to be greater than zero\");\n\n    //cumulate the balance of the sender\n    (\n      ,\n      uint256 fromBalance,\n      uint256 fromBalanceIncrease,\n      uint256 fromIndex\n    ) = cumulateBalanceInternal(_from);\n\n    //cumulate the balance of the receiver\n    (, , uint256 toBalanceIncrease, uint256 toIndex) = cumulateBalanceInternal(\n      _to\n    );\n\n    //if the sender is redirecting his interest towards someone else,\n    //adds to the redirected balance the accrued interest and removes the amount\n    //being transferred\n    updateRedirectedBalanceOfRedirectionAddressInternal(\n      _from,\n      fromBalanceIncrease,\n      _value\n    );\n\n    //if the receiver is redirecting his interest towards someone else,\n    //adds to the redirected balance the accrued interest and the amount\n    //being transferred\n    updateRedirectedBalanceOfRedirectionAddressInternal(\n      _to,\n      toBalanceIncrease.add(_value),\n      0\n    );\n\n    //performs the transfer\n    super._transfer(_from, _to, _value);\n\n    bool fromIndexReset = false;\n    //reset the user data if the remaining balance is 0\n    if (fromBalance.sub(_value) == 0) {\n      fromIndexReset = resetDataOnZeroBalanceInternal(_from);\n    }\n\n    emit BalanceTransfer(\n      _from,\n      _to,\n      _value,\n      fromBalanceIncrease,\n      toBalanceIncrease,\n      fromIndexReset ? 0 : fromIndex,\n      toIndex\n    );\n  }\n\n  /**\n   * @dev executes the redirection of the interest from one address to another.\n   * immediately after redirection, the destination address will start to accrue interest.\n   * @param _from the address from which transfer the aTokens\n   * @param _to the destination address\n   **/\n  function redirectInterestStreamInternal(address _from, address _to) internal {\n    address currentRedirectionAddress = interestRedirectionAddresses[_from];\n\n    require(\n      _to != currentRedirectionAddress,\n      \"Interest is already redirected to the user\"\n    );\n\n    //accumulates the accrued interest to the principal\n    (\n      uint256 previousPrincipalBalance,\n      uint256 fromBalance,\n      uint256 balanceIncrease,\n      uint256 fromIndex\n    ) = cumulateBalanceInternal(_from);\n\n    require(\n      fromBalance > 0,\n      \"Interest stream can only be redirected if there is a valid balance\"\n    );\n\n    //if the user is already redirecting the interest to someone, before changing\n    //the redirection address we substract the redirected balance of the previous\n    //recipient\n    if (currentRedirectionAddress != address(0)) {\n      updateRedirectedBalanceOfRedirectionAddressInternal(\n        _from,\n        0,\n        previousPrincipalBalance\n      );\n    }\n\n    //if the user is redirecting the interest back to himself,\n    //we simply set to 0 the interest redirection address\n    if (_to == _from) {\n      interestRedirectionAddresses[_from] = address(0);\n      emit InterestStreamRedirected(\n        _from,\n        address(0),\n        fromBalance,\n        balanceIncrease,\n        fromIndex\n      );\n      return;\n    }\n\n    //first set the redirection address to the new recipient\n    interestRedirectionAddresses[_from] = _to;\n\n    //adds the user balance to the redirected balance of the destination\n    updateRedirectedBalanceOfRedirectionAddressInternal(_from, fromBalance, 0);\n\n    emit InterestStreamRedirected(\n      _from,\n      _to,\n      fromBalance,\n      balanceIncrease,\n      fromIndex\n    );\n  }\n\n  /**\n   * @dev function to reset the interest stream redirection and the user index, if the\n   * user has no balance left.\n   * @param _user the address of the user\n   * @return true if the user index has also been reset, false otherwise. useful to emit the proper user index value\n   **/\n  function resetDataOnZeroBalanceInternal(address _user)\n    internal\n    returns (bool)\n  {\n    //if the user has 0 principal balance, the interest stream redirection gets reset\n    interestRedirectionAddresses[_user] = address(0);\n\n    //emits a InterestStreamRedirected event to notify that the redirection has been reset\n    emit InterestStreamRedirected(_user, address(0), 0, 0, 0);\n\n    //if the redirected balance is also 0, we clear up the user index\n    if (redirectedBalances[_user] == 0) {\n      userIndexes[_user] = 0;\n      return true;\n    } else {\n      return false;\n    }\n  }\n\n  function coreGetNormalizedIncome(address _reserve)\n    internal\n    view\n    returns (uint256)\n  {\n    return 1;\n  }\n}\n",
  "sourcePath": "/Users/mikhail/Coding/jucifi/contracts/providers/aave-protocol/ATokenMock.sol",
  "compiler": {
    "name": "solc",
    "version": "0.6.10+commit.00c0fcaf.Emscripten.clang"
  },
  "schemaVersion": "3.2.5",
  "updatedAt": "2020-10-22T10:02:13.066Z",
  "networkType": "ethereum",
  "devdoc": {
    "author": "Aave",
    "details": "Implementation of the interest bearing token for the DLP protocol.",
    "methods": {
      "allowInterestRedirectionTo(address)": {
        "details": "gives allowance to an address to execute the interest redirection on behalf of the caller.",
        "params": {
          "_to": "the address to which the interest will be redirected. Pass address(0) to reset the allowance.*"
        }
      },
      "allowance(address,address)": {
        "details": "See {IERC20-allowance}."
      },
      "approve(address,uint256)": {
        "details": "See {IERC20-approve}. Requirements: - `spender` cannot be the zero address."
      },
      "balanceOf(address)": {
        "details": "calculates the balance of the user, which is the principal balance + interest generated by the principal balance + interest generated by the redirected balance",
        "params": {
          "_user": "the user for which the balance is being calculated"
        },
        "returns": {
          "_0": "the total balance of the user*"
        }
      },
      "burnOnLiquidation(address,uint256)": {
        "details": "burns token in the event of a borrow being liquidated, in case the liquidators reclaims the underlying asset Transfer of the liquidated asset is executed by the lending pool contract. only lending pools can call this function",
        "params": {
          "_account": "the address from which burn the aTokens",
          "_value": "the amount to burn*"
        }
      },
      "decimals()": {
        "details": "Returns the number of decimals used to get its user representation. For example, if `decimals` equals `2`, a balance of `505` tokens should be displayed to a user as `5,05` (`505 / 10 ** 2`). Tokens usually opt for a value of 18, imitating the relationship between Ether and Wei. This is the value {ERC20} uses, unless {_setupDecimals} is called. NOTE: This information is only used for _display_ purposes: it in no way affects any of the arithmetic of the contract, including {IERC20-balanceOf} and {IERC20-transfer}."
      },
      "decreaseAllowance(address,uint256)": {
        "details": "Atomically decreases the allowance granted to `spender` by the caller. This is an alternative to {approve} that can be used as a mitigation for problems described in {IERC20-approve}. Emits an {Approval} event indicating the updated allowance. Requirements: - `spender` cannot be the zero address. - `spender` must have allowance for the caller of at least `subtractedValue`."
      },
      "getInterestRedirectionAddress(address)": {
        "details": "returns the address to which the interest is redirected",
        "params": {
          "_user": "address of the user"
        },
        "returns": {
          "_0": "0 if there is no redirection, an address otherwise*"
        }
      },
      "getRedirectedBalance(address)": {
        "details": "returns the redirected balance of the user. The redirected balance is the balance redirected by other accounts to the user, that is accrueing interest for him.",
        "params": {
          "_user": "address of the user"
        },
        "returns": {
          "_0": "the total redirected balance*"
        }
      },
      "getUserIndex(address)": {
        "details": "returns the last index of the user, used to calculate the balance of the user",
        "params": {
          "_user": "address of the user"
        },
        "returns": {
          "_0": "the last user index*"
        }
      },
      "increaseAllowance(address,uint256)": {
        "details": "Atomically increases the allowance granted to `spender` by the caller. This is an alternative to {approve} that can be used as a mitigation for problems described in {IERC20-approve}. Emits an {Approval} event indicating the updated allowance. Requirements: - `spender` cannot be the zero address."
      },
      "isTransferAllowed(address,uint256)": {
        "details": "Used to validate transfers before actually executing them.",
        "params": {
          "_amount": "the amount to check",
          "_user": "address of the user to check"
        },
        "returns": {
          "_0": "true if the _user can transfer _amount, false otherwise*"
        }
      },
      "mintOnDeposit(address,uint256)": {
        "details": "mints token in the event of users depositing the underlying asset into the lending pool only lending pools can call this function",
        "params": {
          "_account": "the address receiving the minted tokens",
          "_amount": "the amount of tokens to mint"
        }
      },
      "name()": {
        "details": "Returns the name of the token."
      },
      "principalBalanceOf(address)": {
        "details": "returns the principal balance of the user. The principal balance is the last updated stored balance, which does not consider the perpetually accruing interest.",
        "params": {
          "_user": "the address of the user"
        },
        "returns": {
          "_0": "the principal balance of the user*"
        }
      },
      "redeem(uint256)": {
        "details": "redeems aToken for the underlying asset",
        "params": {
          "_amount": "the amount being redeemed*"
        }
      },
      "redirectInterestStream(address)": {
        "details": "redirects the interest generated to a target address. when the interest is redirected, the user balance is added to the recepient redirected balance.",
        "params": {
          "_to": "the address to which the interest will be redirected*"
        }
      },
      "redirectInterestStreamOf(address,address)": {
        "details": "redirects the interest generated by _from to a target address. when the interest is redirected, the user balance is added to the recepient redirected balance. The caller needs to have allowance on the interest redirection to be able to execute the function.",
        "params": {
          "_from": "the address of the user whom interest is being redirected",
          "_to": "the address to which the interest will be redirected*"
        }
      },
      "symbol()": {
        "details": "Returns the symbol of the token, usually a shorter version of the name."
      },
      "totalSupply()": {
        "details": "calculates the total supply of the specific aToken since the balance of every single user increases over time, the total supply does that too.",
        "returns": {
          "_0": "the current total supply*"
        }
      },
      "transfer(address,uint256)": {
        "details": "See {IERC20-transfer}. Requirements: - `recipient` cannot be the zero address. - the caller must have a balance of at least `amount`."
      },
      "transferFrom(address,address,uint256)": {
        "details": "See {IERC20-transferFrom}. Emits an {Approval} event indicating the updated allowance. This is not required by the EIP. See the note at the beginning of {ERC20}; Requirements: - `sender` and `recipient` cannot be the zero address. - `sender` must have a balance of at least `amount`. - the caller must have allowance for ``sender``'s tokens of at least `amount`."
      },
      "transferOnLiquidation(address,address,uint256)": {
        "details": "transfers tokens in the event of a borrow being liquidated, in case the liquidators reclaims the aToken      only lending pools can call this function",
        "params": {
          "_from": "the address from which transfer the aTokens",
          "_to": "the destination address",
          "_value": "the amount to transfer*"
        }
      }
    },
    "title": "Aave ERC20 AToken"
  },
  "userdoc": {
    "methods": {}
  }
}