{
  "contractName": "PoolService",
  "abi": [
    {
      "inputs": [
        {
          "internalType": "address",
          "name": "_addressRepository",
          "type": "address"
        }
      ],
      "stateMutability": "nonpayable",
      "type": "constructor"
    },
    {
      "anonymous": false,
      "inputs": [
        {
          "indexed": true,
          "internalType": "address",
          "name": "previousOwner",
          "type": "address"
        },
        {
          "indexed": true,
          "internalType": "address",
          "name": "newOwner",
          "type": "address"
        }
      ],
      "name": "OwnershipTransferred",
      "type": "event"
    },
    {
      "anonymous": false,
      "inputs": [
        {
          "indexed": true,
          "internalType": "address",
          "name": "_reserve",
          "type": "address"
        },
        {
          "indexed": true,
          "internalType": "address",
          "name": "_user",
          "type": "address"
        },
        {
          "indexed": false,
          "internalType": "uint256",
          "name": "_amount",
          "type": "uint256"
        },
        {
          "indexed": false,
          "internalType": "uint256",
          "name": "_timestamp",
          "type": "uint256"
        }
      ],
      "name": "RedeemUnderlying",
      "type": "event"
    },
    {
      "inputs": [],
      "name": "owner",
      "outputs": [
        {
          "internalType": "address",
          "name": "",
          "type": "address"
        }
      ],
      "stateMutability": "view",
      "type": "function"
    },
    {
      "inputs": [],
      "name": "renounceOwnership",
      "outputs": [],
      "stateMutability": "nonpayable",
      "type": "function"
    },
    {
      "inputs": [
        {
          "internalType": "address",
          "name": "newOwner",
          "type": "address"
        }
      ],
      "name": "transferOwnership",
      "outputs": [],
      "stateMutability": "nonpayable",
      "type": "function"
    },
    {
      "inputs": [
        {
          "internalType": "address",
          "name": "_reserve",
          "type": "address"
        },
        {
          "internalType": "address",
          "name": "_vTokenAddress",
          "type": "address"
        }
      ],
      "name": "addReserve",
      "outputs": [],
      "stateMutability": "nonpayable",
      "type": "function"
    },
    {
      "inputs": [
        {
          "internalType": "address",
          "name": "_reserve",
          "type": "address"
        },
        {
          "internalType": "uint256",
          "name": "_amount",
          "type": "uint256"
        }
      ],
      "name": "deposit",
      "outputs": [],
      "stateMutability": "payable",
      "type": "function"
    },
    {
      "inputs": [
        {
          "internalType": "address",
          "name": "_reserve",
          "type": "address"
        },
        {
          "internalType": "address payable",
          "name": "_user",
          "type": "address"
        },
        {
          "internalType": "uint256",
          "name": "_amount",
          "type": "uint256"
        }
      ],
      "name": "redeemUnderlying",
      "outputs": [],
      "stateMutability": "nonpayable",
      "type": "function"
    },
    {
      "inputs": [
        {
          "internalType": "address",
          "name": "_reserve",
          "type": "address"
        },
        {
          "internalType": "uint256",
          "name": "_amount",
          "type": "uint256"
        }
      ],
      "name": "borrow",
      "outputs": [],
      "stateMutability": "nonpayable",
      "type": "function"
    }
  ],
  "bytecode": "0x60806040523480156200001157600080fd5b5060405162002d4738038062002d47833981810160405260208110156200003757600080fd5b810190808051906020019092919050505060006200005a620004d860201b60201c565b9050806000806101000a81548173ffffffffffffffffffffffffffffffffffffffff021916908373ffffffffffffffffffffffffffffffffffffffff1602179055508073ffffffffffffffffffffffffffffffffffffffff16600073ffffffffffffffffffffffffffffffffffffffff167f8be0079c531659141344cd1fd0a4f28419497f9722a3daafe3b4186f6b6457e060405160405180910390a35080600160006101000a81548173ffffffffffffffffffffffffffffffffffffffff021916908373ffffffffffffffffffffffffffffffffffffffff160217905550600160009054906101000a900473ffffffffffffffffffffffffffffffffffffffff1673ffffffffffffffffffffffffffffffffffffffff16630a9bf54a6040518163ffffffff1660e01b815260040160206040518083038186803b158015620001a257600080fd5b505afa158015620001b7573d6000803e3d6000fd5b505050506040513d6020811015620001ce57600080fd5b8101908080519060200190929190505050600260006101000a81548173ffffffffffffffffffffffffffffffffffffffff021916908373ffffffffffffffffffffffffffffffffffffffff160217905550600160009054906101000a900473ffffffffffffffffffffffffffffffffffffffff1673ffffffffffffffffffffffffffffffffffffffff1663c15c03886040518163ffffffff1660e01b815260040160206040518083038186803b1580156200028857600080fd5b505afa1580156200029d573d6000803e3d6000fd5b505050506040513d6020811015620002b457600080fd5b8101908080519060200190929190505050600360006101000a81548173ffffffffffffffffffffffffffffffffffffffff021916908373ffffffffffffffffffffffffffffffffffffffff160217905550600160009054906101000a900473ffffffffffffffffffffffffffffffffffffffff1673ffffffffffffffffffffffffffffffffffffffff1663398b21966040518163ffffffff1660e01b815260040160206040518083038186803b1580156200036e57600080fd5b505afa15801562000383573d6000803e3d6000fd5b505050506040513d60208110156200039a57600080fd5b8101908080519060200190929190505050600460006101000a81548173ffffffffffffffffffffffffffffffffffffffff021916908373ffffffffffffffffffffffffffffffffffffffff160217905550600160009054906101000a900473ffffffffffffffffffffffffffffffffffffffff1673ffffffffffffffffffffffffffffffffffffffff166351ff7f0a6040518163ffffffff1660e01b815260040160206040518083038186803b1580156200045457600080fd5b505afa15801562000469573d6000803e3d6000fd5b505050506040513d60208110156200048057600080fd5b8101908080519060200190929190505050600560006101000a81548173ffffffffffffffffffffffffffffffffffffffff021916908373ffffffffffffffffffffffffffffffffffffffff16021790555050620004e0565b600033905090565b61285780620004f06000396000f3fe6080604052600436106100705760003560e01c8063715018a61161004e578063715018a61461018f5780638da5cb5b146101a6578063935642cf146101fd578063f2fde38b1461027857610070565b8063197326211461007557806347e7ef24146100e65780634b8a352914610134575b600080fd5b34801561008157600080fd5b506100e46004803603604081101561009857600080fd5b81019080803573ffffffffffffffffffffffffffffffffffffffff169060200190929190803573ffffffffffffffffffffffffffffffffffffffff1690602001909291905050506102c9565b005b610132600480360360408110156100fc57600080fd5b81019080803573ffffffffffffffffffffffffffffffffffffffff16906020019092919080359060200190929190505050610549565b005b34801561014057600080fd5b5061018d6004803603604081101561015757600080fd5b81019080803573ffffffffffffffffffffffffffffffffffffffff16906020019092919080359060200190929190505050610ee6565b005b34801561019b57600080fd5b506101a4611175565b005b3480156101b257600080fd5b506101bb6112fd565b604051808273ffffffffffffffffffffffffffffffffffffffff1673ffffffffffffffffffffffffffffffffffffffff16815260200191505060405180910390f35b34801561020957600080fd5b506102766004803603606081101561022057600080fd5b81019080803573ffffffffffffffffffffffffffffffffffffffff169060200190929190803573ffffffffffffffffffffffffffffffffffffffff16906020019092919080359060200190929190505050611326565b005b34801561028457600080fd5b506102c76004803603602081101561029b57600080fd5b81019080803573ffffffffffffffffffffffffffffffffffffffff169060200190929190505050611c85565b005b6102d1611e92565b73ffffffffffffffffffffffffffffffffffffffff166000809054906101000a900473ffffffffffffffffffffffffffffffffffffffff1673ffffffffffffffffffffffffffffffffffffffff1614610392576040517f08c379a00000000000000000000000000000000000000000000000000000000081526004018080602001828103825260208152602001807f4f776e61626c653a2063616c6c6572206973206e6f7420746865206f776e657281525060200191505060405180910390fd5b600460009054906101000a900473ffffffffffffffffffffffffffffffffffffffff1673ffffffffffffffffffffffffffffffffffffffff1663a4a9456783836040518363ffffffff1660e01b8152600401808373ffffffffffffffffffffffffffffffffffffffff1673ffffffffffffffffffffffffffffffffffffffff1681526020018273ffffffffffffffffffffffffffffffffffffffff1673ffffffffffffffffffffffffffffffffffffffff16815260200192505050600060405180830381600087803b15801561046757600080fd5b505af115801561047b573d6000803e3d6000fd5b50505050600460009054906101000a900473ffffffffffffffffffffffffffffffffffffffff1673ffffffffffffffffffffffffffffffffffffffff16632ce962cf8360016040518363ffffffff1660e01b8152600401808373ffffffffffffffffffffffffffffffffffffffff1673ffffffffffffffffffffffffffffffffffffffff1681526020018215151515815260200192505050600060405180830381600087803b15801561052d57600080fd5b505af1158015610541573d6000803e3d6000fd5b505050505050565b81600460009054906101000a900473ffffffffffffffffffffffffffffffffffffffff1673ffffffffffffffffffffffffffffffffffffffff1663883c042b826040518263ffffffff1660e01b8152600401808273ffffffffffffffffffffffffffffffffffffffff1673ffffffffffffffffffffffffffffffffffffffff16815260200191505060206040518083038186803b1580156105e957600080fd5b505afa1580156105fd573d6000803e3d6000fd5b505050506040513d602081101561061357600080fd5b8101908080519060200190929190505050610696576040517f08c379a000000000000000000000000000000000000000000000000000000000815260040180806020018281038252601b8152602001807f506f6f6c3a2052657365727665206973206e6f7420616374697665000000000081525060200191505060405180910390fd5b816106a081611e9a565b6000600260009054906101000a900473ffffffffffffffffffffffffffffffffffffffff1673ffffffffffffffffffffffffffffffffffffffff16639956db43866040518263ffffffff1660e01b8152600401808273ffffffffffffffffffffffffffffffffffffffff1673ffffffffffffffffffffffffffffffffffffffff16815260200191505060206040518083038186803b15801561074157600080fd5b505afa158015610755573d6000803e3d6000fd5b505050506040513d602081101561076b57600080fd5b810190808051906020019092919050505090506000600360009054906101000a900473ffffffffffffffffffffffffffffffffffffffff1673ffffffffffffffffffffffffffffffffffffffff166360ba688e836040518263ffffffff1660e01b8152600401808273ffffffffffffffffffffffffffffffffffffffff1673ffffffffffffffffffffffffffffffffffffffff16815260200191505060206040518083038186803b15801561081f57600080fd5b505afa158015610833573d6000803e3d6000fd5b505050506040513d602081101561084957600080fd5b8101908080519060200190929190505050905061086886338488611ef6565b8073ffffffffffffffffffffffffffffffffffffffff166347e7ef2487876040518363ffffffff1660e01b8152600401808373ffffffffffffffffffffffffffffffffffffffff1673ffffffffffffffffffffffffffffffffffffffff16815260200182815260200192505050600060405180830381600087803b1580156108ef57600080fd5b505af1158015610903573d6000803e3d6000fd5b5050505060006109f586600460009054906101000a900473ffffffffffffffffffffffffffffffffffffffff1673ffffffffffffffffffffffffffffffffffffffff16639de8ef798a6040518263ffffffff1660e01b8152600401808273ffffffffffffffffffffffffffffffffffffffff1673ffffffffffffffffffffffffffffffffffffffff16815260200191505060206040518083038186803b1580156109ac57600080fd5b505afa1580156109c0573d6000803e3d6000fd5b505050506040513d60208110156109d657600080fd5b810190808051906020019092919050505061211e90919063ffffffff16565b90506000610ae587600460009054906101000a900473ffffffffffffffffffffffffffffffffffffffff1673ffffffffffffffffffffffffffffffffffffffff1663266e2bd88b6040518263ffffffff1660e01b8152600401808273ffffffffffffffffffffffffffffffffffffffff1673ffffffffffffffffffffffffffffffffffffffff16815260200191505060206040518083038186803b158015610a9c57600080fd5b505afa158015610ab0573d6000803e3d6000fd5b505050506040513d6020811015610ac657600080fd5b810190808051906020019092919050505061211e90919063ffffffff16565b9050600460009054906101000a900473ffffffffffffffffffffffffffffffffffffffff1673ffffffffffffffffffffffffffffffffffffffff1663988d240889846040518363ffffffff1660e01b8152600401808373ffffffffffffffffffffffffffffffffffffffff1673ffffffffffffffffffffffffffffffffffffffff16815260200182815260200192505050600060405180830381600087803b158015610b9057600080fd5b505af1158015610ba4573d6000803e3d6000fd5b50505050600460009054906101000a900473ffffffffffffffffffffffffffffffffffffffff1673ffffffffffffffffffffffffffffffffffffffff1663cd67c4f889836040518363ffffffff1660e01b8152600401808373ffffffffffffffffffffffffffffffffffffffff1673ffffffffffffffffffffffffffffffffffffffff16815260200182815260200192505050600060405180830381600087803b158015610c5157600080fd5b505af1158015610c65573d6000803e3d6000fd5b50505050600560009054906101000a900473ffffffffffffffffffffffffffffffffffffffff1673ffffffffffffffffffffffffffffffffffffffff166309d6607189338a6040518463ffffffff1660e01b8152600401808473ffffffffffffffffffffffffffffffffffffffff1673ffffffffffffffffffffffffffffffffffffffff1681526020018373ffffffffffffffffffffffffffffffffffffffff1673ffffffffffffffffffffffffffffffffffffffff1681526020018281526020019350505050600060405180830381600087803b158015610d4657600080fd5b505af1158015610d5a573d6000803e3d6000fd5b505050506000600460009054906101000a900473ffffffffffffffffffffffffffffffffffffffff1673ffffffffffffffffffffffffffffffffffffffff166372e06c0f8a6040518263ffffffff1660e01b8152600401808273ffffffffffffffffffffffffffffffffffffffff1673ffffffffffffffffffffffffffffffffffffffff16815260200191505060206040518083038186803b158015610dff57600080fd5b505afa158015610e13573d6000803e3d6000fd5b505050506040513d6020811015610e2957600080fd5b810190808051906020019092919050505090508073ffffffffffffffffffffffffffffffffffffffff166394362e8b338a6040518363ffffffff1660e01b8152600401808373ffffffffffffffffffffffffffffffffffffffff1673ffffffffffffffffffffffffffffffffffffffff16815260200182815260200192505050600060405180830381600087803b158015610ec357600080fd5b505af1158015610ed7573d6000803e3d6000fd5b50505050505050505050505050565b81600460009054906101000a900473ffffffffffffffffffffffffffffffffffffffff1673ffffffffffffffffffffffffffffffffffffffff1663883c042b826040518263ffffffff1660e01b8152600401808273ffffffffffffffffffffffffffffffffffffffff1673ffffffffffffffffffffffffffffffffffffffff16815260200191505060206040518083038186803b158015610f8657600080fd5b505afa158015610f9a573d6000803e3d6000fd5b505050506040513d6020811015610fb057600080fd5b8101908080519060200190929190505050611033576040517f08c379a000000000000000000000000000000000000000000000000000000000815260040180806020018281038252601b8152602001807f506f6f6c3a2052657365727665206973206e6f7420616374697665000000000081525060200191505060405180910390fd5b8161103d81611e9a565b600260009054906101000a900473ffffffffffffffffffffffffffffffffffffffff1673ffffffffffffffffffffffffffffffffffffffff1663ac885c24856040518263ffffffff1660e01b8152600401808273ffffffffffffffffffffffffffffffffffffffff1673ffffffffffffffffffffffffffffffffffffffff16815260200191505060206040518083038186803b1580156110dc57600080fd5b505afa1580156110f0573d6000803e3d6000fd5b505050506040513d602081101561110657600080fd5b810190808051906020019092919050505083111561116f576040517f08c379a000000000000000000000000000000000000000000000000000000000815260040180806020018281038252602b815260200180612723602b913960400191505060405180910390fd5b50505050565b61117d611e92565b73ffffffffffffffffffffffffffffffffffffffff166000809054906101000a900473ffffffffffffffffffffffffffffffffffffffff1673ffffffffffffffffffffffffffffffffffffffff161461123e576040517f08c379a00000000000000000000000000000000000000000000000000000000081526004018080602001828103825260208152602001807f4f776e61626c653a2063616c6c6572206973206e6f7420746865206f776e657281525060200191505060405180910390fd5b600073ffffffffffffffffffffffffffffffffffffffff166000809054906101000a900473ffffffffffffffffffffffffffffffffffffffff1673ffffffffffffffffffffffffffffffffffffffff167f8be0079c531659141344cd1fd0a4f28419497f9722a3daafe3b4186f6b6457e060405160405180910390a360008060006101000a81548173ffffffffffffffffffffffffffffffffffffffff021916908373ffffffffffffffffffffffffffffffffffffffff160217905550565b60008060009054906101000a900473ffffffffffffffffffffffffffffffffffffffff16905090565b82600460009054906101000a900473ffffffffffffffffffffffffffffffffffffffff1673ffffffffffffffffffffffffffffffffffffffff1663883c042b826040518263ffffffff1660e01b8152600401808273ffffffffffffffffffffffffffffffffffffffff1673ffffffffffffffffffffffffffffffffffffffff16815260200191505060206040518083038186803b1580156113c657600080fd5b505afa1580156113da573d6000803e3d6000fd5b505050506040513d60208110156113f057600080fd5b8101908080519060200190929190505050611473576040517f08c379a000000000000000000000000000000000000000000000000000000000815260040180806020018281038252601b8152602001807f506f6f6c3a2052657365727665206973206e6f7420616374697665000000000081525060200191505060405180910390fd5b8161147d81611e9a565b82600260009054906101000a900473ffffffffffffffffffffffffffffffffffffffff1673ffffffffffffffffffffffffffffffffffffffff1663ac885c24876040518263ffffffff1660e01b8152600401808273ffffffffffffffffffffffffffffffffffffffff1673ffffffffffffffffffffffffffffffffffffffff16815260200191505060206040518083038186803b15801561151d57600080fd5b505afa158015611531573d6000803e3d6000fd5b505050506040513d602081101561154757600080fd5b8101908080519060200190929190505050116115ae576040517f08c379a000000000000000000000000000000000000000000000000000000000815260040180806020018281038252603781526020018061274e6037913960400191505060405180910390fd5b60008390505b60008111156117b057600080600260009054906101000a900473ffffffffffffffffffffffffffffffffffffffff1673ffffffffffffffffffffffffffffffffffffffff1663f32a4baa896040518263ffffffff1660e01b8152600401808273ffffffffffffffffffffffffffffffffffffffff1673ffffffffffffffffffffffffffffffffffffffff168152602001915050604080518083038186803b15801561165e57600080fd5b505afa158015611672573d6000803e3d6000fd5b505050506040513d604081101561168857600080fd5b8101908080519060200190929190805190602001909291905050509150915060008184106116b657816116b8565b835b905060008390508073ffffffffffffffffffffffffffffffffffffffff1663935642cf8b8b856040518463ffffffff1660e01b8152600401808473ffffffffffffffffffffffffffffffffffffffff1673ffffffffffffffffffffffffffffffffffffffff1681526020018373ffffffffffffffffffffffffffffffffffffffff1673ffffffffffffffffffffffffffffffffffffffff1681526020018281526020019350505050600060405180830381600087803b15801561177a57600080fd5b505af115801561178e573d6000803e3d6000fd5b505050506117a582866121a690919063ffffffff16565b9450505050506115b4565b600061189e85600460009054906101000a900473ffffffffffffffffffffffffffffffffffffffff1673ffffffffffffffffffffffffffffffffffffffff16639de8ef798a6040518263ffffffff1660e01b8152600401808273ffffffffffffffffffffffffffffffffffffffff1673ffffffffffffffffffffffffffffffffffffffff16815260200191505060206040518083038186803b15801561185557600080fd5b505afa158015611869573d6000803e3d6000fd5b505050506040513d602081101561187f57600080fd5b81019080805190602001909291905050506121a690919063ffffffff16565b9050600061198e86600460009054906101000a900473ffffffffffffffffffffffffffffffffffffffff1673ffffffffffffffffffffffffffffffffffffffff1663266e2bd88b6040518263ffffffff1660e01b8152600401808273ffffffffffffffffffffffffffffffffffffffff1673ffffffffffffffffffffffffffffffffffffffff16815260200191505060206040518083038186803b15801561194557600080fd5b505afa158015611959573d6000803e3d6000fd5b505050506040513d602081101561196f57600080fd5b81019080805190602001909291905050506121a690919063ffffffff16565b9050600460009054906101000a900473ffffffffffffffffffffffffffffffffffffffff1673ffffffffffffffffffffffffffffffffffffffff1663988d240889846040518363ffffffff1660e01b8152600401808373ffffffffffffffffffffffffffffffffffffffff1673ffffffffffffffffffffffffffffffffffffffff16815260200182815260200192505050600060405180830381600087803b158015611a3957600080fd5b505af1158015611a4d573d6000803e3d6000fd5b50505050600460009054906101000a900473ffffffffffffffffffffffffffffffffffffffff1673ffffffffffffffffffffffffffffffffffffffff1663cd67c4f889836040518363ffffffff1660e01b8152600401808373ffffffffffffffffffffffffffffffffffffffff1673ffffffffffffffffffffffffffffffffffffffff16815260200182815260200192505050600060405180830381600087803b158015611afa57600080fd5b505af1158015611b0e573d6000803e3d6000fd5b50505050600560009054906101000a900473ffffffffffffffffffffffffffffffffffffffff1673ffffffffffffffffffffffffffffffffffffffff1663c3aa039d8933896040518463ffffffff1660e01b8152600401808473ffffffffffffffffffffffffffffffffffffffff1673ffffffffffffffffffffffffffffffffffffffff1681526020018373ffffffffffffffffffffffffffffffffffffffff1673ffffffffffffffffffffffffffffffffffffffff1681526020018281526020019350505050600060405180830381600087803b158015611bef57600080fd5b505af1158015611c03573d6000803e3d6000fd5b505050508673ffffffffffffffffffffffffffffffffffffffff168873ffffffffffffffffffffffffffffffffffffffff167f9c4ed599cd8555b9c1e8cd7643240d7d71eb76b792948c49fcb4d411f7b6b3c68842604051808381526020018264ffffffffff1681526020019250505060405180910390a35050505050505050565b611c8d611e92565b73ffffffffffffffffffffffffffffffffffffffff166000809054906101000a900473ffffffffffffffffffffffffffffffffffffffff1673ffffffffffffffffffffffffffffffffffffffff1614611d4e576040517f08c379a00000000000000000000000000000000000000000000000000000000081526004018080602001828103825260208152602001807f4f776e61626c653a2063616c6c6572206973206e6f7420746865206f776e657281525060200191505060405180910390fd5b600073ffffffffffffffffffffffffffffffffffffffff168173ffffffffffffffffffffffffffffffffffffffff161415611dd4576040517f08c379a00000000000000000000000000000000000000000000000000000000081526004018080602001828103825260268152602001806126fd6026913960400191505060405180910390fd5b8073ffffffffffffffffffffffffffffffffffffffff166000809054906101000a900473ffffffffffffffffffffffffffffffffffffffff1673ffffffffffffffffffffffffffffffffffffffff167f8be0079c531659141344cd1fd0a4f28419497f9722a3daafe3b4186f6b6457e060405160405180910390a3806000806101000a81548173ffffffffffffffffffffffffffffffffffffffff021916908373ffffffffffffffffffffffffffffffffffffffff16021790555050565b600033905090565b60008111611ef3576040517f08c379a00000000000000000000000000000000000000000000000000000000081526004018080602001828103825260238152602001806126da6023913960400191505060405180910390fd5b50565b611efe6121f0565b73ffffffffffffffffffffffffffffffffffffffff168473ffffffffffffffffffffffffffffffffffffffff1614611fbb5760003414611f89576040517f08c379a00000000000000000000000000000000000000000000000000000000081526004018080602001828103825260388152602001806127ea6038913960400191505060405180910390fd5b611fb68383838773ffffffffffffffffffffffffffffffffffffffff1661220c909392919063ffffffff16565b612118565b80341015612014576040517f08c379a000000000000000000000000000000000000000000000000000000000815260040180806020018281038252603b815260200180612785603b913960400191505060405180910390fd5b8034111561211757600061203182346121a690919063ffffffff16565b905060008473ffffffffffffffffffffffffffffffffffffffff168261c35090604051806000019050600060405180830381858888f193505050503d8060008114612098576040519150601f19603f3d011682016040523d82523d6000602084013e61209d565b606091505b5050905080612114576040517f08c379a000000000000000000000000000000000000000000000000000000000815260040180806020018281038252601c8152602001807f506f6f6c3a205472616e73666572206f6620455448206661696c65640000000081525060200191505060405180910390fd5b50505b5b50505050565b60008082840190508381101561219c576040517f08c379a000000000000000000000000000000000000000000000000000000000815260040180806020018281038252601b8152602001807f536166654d6174683a206164646974696f6e206f766572666c6f77000000000081525060200191505060405180910390fd5b8091505092915050565b60006121e883836040518060400160405280601e81526020017f536166654d6174683a207375627472616374696f6e206f766572666c6f7700008152506122f9565b905092915050565b600073eeeeeeeeeeeeeeeeeeeeeeeeeeeeeeeeeeeeeeee905090565b6122f3846323b872dd60e01b858585604051602401808473ffffffffffffffffffffffffffffffffffffffff1673ffffffffffffffffffffffffffffffffffffffff1681526020018373ffffffffffffffffffffffffffffffffffffffff1673ffffffffffffffffffffffffffffffffffffffff1681526020018281526020019350505050604051602081830303815290604052907bffffffffffffffffffffffffffffffffffffffffffffffffffffffff19166020820180517bffffffffffffffffffffffffffffffffffffffffffffffffffffffff83818316178352505050506123b9565b50505050565b60008383111582906123a6576040517f08c379a00000000000000000000000000000000000000000000000000000000081526004018080602001828103825283818151815260200191508051906020019080838360005b8381101561236b578082015181840152602081019050612350565b50505050905090810190601f1680156123985780820380516001836020036101000a031916815260200191505b509250505060405180910390fd5b5060008385039050809150509392505050565b606061241b826040518060400160405280602081526020017f5361666545524332303a206c6f772d6c6576656c2063616c6c206661696c65648152508573ffffffffffffffffffffffffffffffffffffffff166124a89092919063ffffffff16565b90506000815111156124a35780806020019051602081101561243c57600080fd5b81019080805190602001909291905050506124a2576040517f08c379a000000000000000000000000000000000000000000000000000000000815260040180806020018281038252602a8152602001806127c0602a913960400191505060405180910390fd5b5b505050565b60606124b784846000856124c0565b90509392505050565b60606124cb856126c6565b61253d576040517f08c379a000000000000000000000000000000000000000000000000000000000815260040180806020018281038252601d8152602001807f416464726573733a2063616c6c20746f206e6f6e2d636f6e747261637400000081525060200191505060405180910390fd5b600060608673ffffffffffffffffffffffffffffffffffffffff1685876040518082805190602001908083835b6020831061258d578051825260208201915060208101905060208303925061256a565b6001836020036101000a03801982511681845116808217855250505050505090500191505060006040518083038185875af1925050503d80600081146125ef576040519150601f19603f3d011682016040523d82523d6000602084013e6125f4565b606091505b509150915081156126095780925050506126be565b60008151111561261c5780518082602001fd5b836040517f08c379a00000000000000000000000000000000000000000000000000000000081526004018080602001828103825283818151815260200191508051906020019080838360005b83811015612683578082015181840152602081019050612668565b50505050905090810190601f1680156126b05780820380516001836020036101000a031916815260200191505b509250505060405180910390fd5b949350505050565b600080823b90506000811191505091905056fe506f6f6c3a20416d6f756e74206d7573742062652067726561746572207468616e20304f776e61626c653a206e6577206f776e657220697320746865207a65726f2061646472657373506f6f6c536572766963653a204e6f7420656e6f756768206c697175696469747920617661696c61626c65506f6f6c3a205468657265206973206e6f7420656e6f756768206c697175696469747920617661696c61626c6520746f2072656465656d506f6f6c3a2054686520616d6f756e7420616e64207468652076616c75652073656e7420746f206465706f73697420646f206e6f74206d617463685361666545524332303a204552433230206f7065726174696f6e20646964206e6f742073756363656564506f6f6c3a20557365722069732073656e64696e672045544820616c6f6e67207769746820746865204552433230207472616e736665722ea2646970667358221220690135e8678f5975ed127470f398bdb98f043f620a305e9f481e9a2f7b93876f64736f6c634300060a0033",
  "immutableReferences": {},
  "source": "// SPDX-License-Identifier: agpl-3.0\npragma solidity ^0.6.10;\n\nimport \"openzeppelin-solidity/contracts/math/SafeMath.sol\";\nimport \"openzeppelin-solidity/contracts/access/Ownable.sol\";\n\nimport \"../core/ILendingProvider.sol\";\nimport \"../lib/AddressStorage.sol\";\nimport \"../lib/SafeERC20.sol\";\nimport \"../lib/ERC20.sol\";\nimport \"../lib/EthAddressLib.sol\";\nimport \"../lib/WadRayMath.sol\";\nimport \"../repositories/ReserveRepository.sol\";\nimport \"../repositories/UserBalanceRepository.sol\";\nimport \"../services/ProviderService.sol\";\nimport \"../token/VToken.sol\";\n\ncontract PoolService is Ownable {\n  using SafeMath for uint256;\n  using SafeERC20 for ERC20;\n  using WadRayMath for uint256;\n\n  AddressRepository private addressRepository;\n  ProviderService internal providerService;\n  ProviderRepository internal providerRepository;\n  ReserveRepository private reserveRepository;\n  UserBalanceRepository private userBalanceRepository;\n\n  /**\n   * @dev emitted during a redeem action.\n   * @param _reserve the address of the reserve\n   * @param _user the address of the user\n   * @param _amount the amount to be deposited\n   * @param _timestamp the timestamp of the action\n   **/\n  event RedeemUnderlying(\n    address indexed _reserve,\n    address indexed _user,\n    uint256 _amount,\n    uint256 _timestamp\n  );\n\n  constructor(address _addressRepository) public {\n    addressRepository = AddressRepository(_addressRepository);\n    providerService = ProviderService(addressRepository.getProviderService());\n    providerRepository = ProviderRepository(\n      addressRepository.getProviderRepository()\n    );\n    reserveRepository = ReserveRepository(\n      addressRepository.getReserveRepository()\n    );\n\n    userBalanceRepository = UserBalanceRepository(\n      addressRepository.getUserBalanceRepository()\n    );\n  }\n\n  modifier activeReserveOnly(address _reserve) {\n    require(\n      reserveRepository.isReserveActive(_reserve),\n      \"Pool: Reserve is not active\"\n    );\n    _;\n  }\n\n  function addReserve(address _reserve, address _vTokenAddress)\n    public\n    onlyOwner\n  {\n    reserveRepository.setTokenContract(_reserve, _vTokenAddress);\n    reserveRepository.setActive(_reserve, true);\n  }\n\n  /**\n   * @dev functions affected by this modifier can only be invoked if the provided _amount input parameter\n   * is not zero.\n   * @param _amount the amount provided\n   **/\n  modifier onlyAmountGreaterThanZero(uint256 _amount) {\n    requireAmountGreaterThanZeroInternal(_amount);\n    _;\n  }\n\n  function deposit(address _reserve, uint256 _amount)\n    external\n    payable\n    activeReserveOnly(_reserve)\n    onlyAmountGreaterThanZero(_amount)\n  {\n    address providerAddress = providerService\n      .getProviderWithHighestLiquidityRate(_reserve);\n\n    ILendingProvider provider = providerRepository.getProviderByAddressOrFail(\n      providerAddress\n    );\n\n    // Transfer tokens to Pool contract and provide allowance\n    transferToReserve(_reserve, msg.sender, providerAddress, _amount);\n\n    // Approve for provider\n    provider.deposit(_reserve, _amount);\n\n    uint256 updatedTotalLiquidity = reserveRepository\n      .getTotalLiquidity(_reserve)\n      .add(_amount);\n    uint256 updatedAvailableLiquidity = reserveRepository\n      .getAvailableLiquidity(_reserve)\n      .add(_amount);\n\n    reserveRepository.setTotalLiquidity(_reserve, updatedTotalLiquidity);\n    reserveRepository.setAvailableLiquidity(\n      _reserve,\n      updatedAvailableLiquidity\n    );\n\n    userBalanceRepository.increaseUserDeposit(_reserve, msg.sender, _amount);\n\n    VToken token = reserveRepository.getVTokenContract(_reserve);\n    token.mintOnDeposit(msg.sender, _amount);\n  }\n\n  // Add Secutiry modifirie for Vitamin tokens only\n  function redeemUnderlying(\n    address _reserve,\n    address payable _user,\n    uint256 _amount\n  ) external activeReserveOnly(_reserve) onlyAmountGreaterThanZero(_amount) {\n    require(\n      providerService.getTotalAvaibleLiquidity(_reserve) > _amount,\n      \"Pool: There is not enough liquidity available to redeem\"\n    );\n\n    // ToDo: Add check that msg.sender has enough tokens!\n\n    uint256 _amountLeft = _amount;\n    while (_amountLeft > 0) {\n      (address providerAddress, uint256 avaibleLiquidity) = providerService\n        .getProviderWithLowestLiquidityRate(_reserve);\n\n      // Calculate max sum we could take from this provider\n      uint256 sumToRedeem = _amountLeft < avaibleLiquidity\n        ? _amountLeft\n        : avaibleLiquidity;\n      ILendingProvider provider = ILendingProvider(providerAddress);\n\n      // Redeem this sum\n      provider.redeemUnderlying(_reserve, _user, sumToRedeem);\n\n      // ToDo: substract tokens(!)\n      _amountLeft = _amountLeft.sub(sumToRedeem);\n    }\n\n    uint256 updatedTotalLiquidity = reserveRepository\n      .getTotalLiquidity(_reserve)\n      .sub(_amount);\n    uint256 updatedAvailableLiquidity = reserveRepository\n      .getAvailableLiquidity(_reserve)\n      .sub(_amount);\n\n    reserveRepository.setTotalLiquidity(_reserve, updatedTotalLiquidity);\n    reserveRepository.setAvailableLiquidity(\n      _reserve,\n      updatedAvailableLiquidity\n    );\n\n    userBalanceRepository.decreaseUserDeposit(_reserve, msg.sender, _amount);\n\n    emit RedeemUnderlying(_reserve, _user, _amount, uint40(block.timestamp));\n  }\n\n  function borrow(address _reserve, uint256 _amount)\n    external\n    activeReserveOnly(_reserve)\n    onlyAmountGreaterThanZero(_amount)\n  {\n    require(\n      _amount <= providerService.getTotalAvaibleLiquidity(_reserve),\n      \"PoolService: Not enough liquidity available\"\n    );\n  }\n\n  /**\n   * @notice internal function to save on code size for the onlyAmountGreaterThanZero modifier\n   **/\n  function requireAmountGreaterThanZeroInternal(uint256 _amount) internal pure {\n    require(_amount > 0, \"Pool: Amount must be greater than 0\");\n  }\n\n  /**\n   * @dev transfers an amount from a user to the destination reserve\n   * @param _reserve the address of the reserve where the amount is being transferred\n   * @param _user the address of the user from where the transfer is happening\n   * @param _amount the amount being transferred\n   **/\n  function transferToReserve(\n    address _reserve,\n    address payable _user,\n    address _to,\n    uint256 _amount\n  ) internal {\n    if (_reserve != EthAddressLib.ethAddress()) {\n      require(\n        msg.value == 0,\n        \"Pool: User is sending ETH along with the ERC20 transfer.\"\n      );\n\n      ERC20(_reserve).safeTransferFrom(_user, _to, _amount);\n    } else {\n      require(\n        msg.value >= _amount,\n        \"Pool: The amount and the value sent to deposit do not match\"\n      );\n\n      if (msg.value > _amount) {\n        //send back excess ETH\n        uint256 excessAmount = msg.value.sub(_amount);\n        //solium-disable-next-line\n        (bool result, ) = _user.call.value(excessAmount).gas(50000)(\"\");\n        require(result, \"Pool: Transfer of ETH failed\");\n      }\n    }\n  }\n}\n",
  "sourcePath": "/Users/mikhail/Coding/jucifi/contracts/services/PoolService.sol",
  "compiler": {
    "name": "solc",
    "version": "0.6.10+commit.00c0fcaf.Emscripten.clang"
  },
  "schemaVersion": "3.2.5",
  "updatedAt": "2020-10-18T20:08:25.409Z",
  "devdoc": {
    "methods": {
      "owner()": {
        "details": "Returns the address of the current owner."
      },
      "renounceOwnership()": {
        "details": "Leaves the contract without owner. It will not be possible to call `onlyOwner` functions anymore. Can only be called by the current owner. NOTE: Renouncing ownership will leave the contract without an owner, thereby removing any functionality that is only available to the owner."
      },
      "transferOwnership(address)": {
        "details": "Transfers ownership of the contract to a new account (`newOwner`). Can only be called by the current owner."
      }
    }
  },
  "userdoc": {
    "methods": {}
  }
}