{
  "contractName": "Pool",
  "abi": [
    {
      "inputs": [
        {
          "internalType": "address",
          "name": "_providersManager",
          "type": "address"
        }
      ],
      "stateMutability": "nonpayable",
      "type": "constructor"
    },
    {
      "inputs": [],
      "name": "owner",
      "outputs": [
        {
          "internalType": "address",
          "name": "",
          "type": "address"
        }
      ],
      "stateMutability": "view",
      "type": "function"
    },
    {
      "inputs": [
        {
          "internalType": "address",
          "name": "_reserve",
          "type": "address"
        },
        {
          "internalType": "address",
          "name": "_vTokenAddress",
          "type": "address"
        }
      ],
      "name": "addReserve",
      "outputs": [],
      "stateMutability": "nonpayable",
      "type": "function"
    },
    {
      "inputs": [
        {
          "internalType": "address",
          "name": "_reserve",
          "type": "address"
        },
        {
          "internalType": "uint256",
          "name": "_amount",
          "type": "uint256"
        }
      ],
      "name": "deposit",
      "outputs": [],
      "stateMutability": "payable",
      "type": "function"
    },
    {
      "inputs": [
        {
          "internalType": "address",
          "name": "_reserve",
          "type": "address"
        },
        {
          "internalType": "address payable",
          "name": "_user",
          "type": "address"
        },
        {
          "internalType": "uint256",
          "name": "_amount",
          "type": "uint256"
        }
      ],
      "name": "redeemUnderlying",
      "outputs": [],
      "stateMutability": "nonpayable",
      "type": "function"
    }
  ],
  "bytecode": "0x6080604052336000806101000a81548173ffffffffffffffffffffffffffffffffffffffff021916908373ffffffffffffffffffffffffffffffffffffffff16021790555034801561005057600080fd5b506040516118d23803806118d28339818101604052602081101561007357600080fd5b810190808051906020019092919050505080600160006101000a81548173ffffffffffffffffffffffffffffffffffffffff021916908373ffffffffffffffffffffffffffffffffffffffff160217905550506117fd806100d56000396000f3fe60806040526004361061003f5760003560e01c8063197326211461004457806347e7ef24146100b55780638da5cb5b14610103578063935642cf1461015a575b600080fd5b34801561005057600080fd5b506100b36004803603604081101561006757600080fd5b81019080803573ffffffffffffffffffffffffffffffffffffffff169060200190929190803573ffffffffffffffffffffffffffffffffffffffff1690602001909291905050506101d5565b005b610101600480360360408110156100cb57600080fd5b81019080803573ffffffffffffffffffffffffffffffffffffffff1690602001909291908035906020019092919050505061035a565b005b34801561010f57600080fd5b50610118610a52565b604051808273ffffffffffffffffffffffffffffffffffffffff1673ffffffffffffffffffffffffffffffffffffffff16815260200191505060405180910390f35b34801561016657600080fd5b506101d36004803603606081101561017d57600080fd5b81019080803573ffffffffffffffffffffffffffffffffffffffff169060200190929190803573ffffffffffffffffffffffffffffffffffffffff16906020019092919080359060200190929190505050610a77565b005b6000809054906101000a900473ffffffffffffffffffffffffffffffffffffffff1673ffffffffffffffffffffffffffffffffffffffff163373ffffffffffffffffffffffffffffffffffffffff161461027a576040517f08c379a000000000000000000000000000000000000000000000000000000000815260040180806020018281038252602b815260200180611773602b913960400191505060405180910390fd5b80600260008473ffffffffffffffffffffffffffffffffffffffff1673ffffffffffffffffffffffffffffffffffffffff16815260200190815260200160002060020160006101000a81548173ffffffffffffffffffffffffffffffffffffffff021916908373ffffffffffffffffffffffffffffffffffffffff1602179055506001600260008473ffffffffffffffffffffffffffffffffffffffff1673ffffffffffffffffffffffffffffffffffffffff16815260200190815260200160002060020160146101000a81548160ff0219169083151502179055505050565b81600260008273ffffffffffffffffffffffffffffffffffffffff1673ffffffffffffffffffffffffffffffffffffffff16815260200190815260200160002060020160149054906101000a900460ff1661041d576040517f08c379a00000000000000000000000000000000000000000000000000000000081526004018080602001828103825260158152602001807f52657365727665206973206e6f7420616374697665000000000000000000000081525060200191505060405180910390fd5b8161042781610e7f565b6000600160009054906101000a900473ffffffffffffffffffffffffffffffffffffffff1673ffffffffffffffffffffffffffffffffffffffff16639956db43866040518263ffffffff1660e01b8152600401808273ffffffffffffffffffffffffffffffffffffffff1673ffffffffffffffffffffffffffffffffffffffff16815260200191505060206040518083038186803b1580156104c857600080fd5b505afa1580156104dc573d6000803e3d6000fd5b505050506040513d60208110156104f257600080fd5b810190808051906020019092919050505090506000600160009054906101000a900473ffffffffffffffffffffffffffffffffffffffff1673ffffffffffffffffffffffffffffffffffffffff1663c49c7d8a836040518263ffffffff1660e01b8152600401808273ffffffffffffffffffffffffffffffffffffffff1673ffffffffffffffffffffffffffffffffffffffff16815260200191505060206040518083038186803b1580156105a657600080fd5b505afa1580156105ba573d6000803e3d6000fd5b505050506040513d60208110156105d057600080fd5b8101908080519060200190929190505050905060008173ffffffffffffffffffffffffffffffffffffffff1663a917d15a886040518263ffffffff1660e01b8152600401808273ffffffffffffffffffffffffffffffffffffffff1673ffffffffffffffffffffffffffffffffffffffff16815260200191505060206040518083038186803b15801561066257600080fd5b505afa158015610676573d6000803e3d6000fd5b505050506040513d602081101561068c57600080fd5b810190808051906020019092919050505090506106aa873388610ef8565b8673ffffffffffffffffffffffffffffffffffffffff1663095ea7b382886040518363ffffffff1660e01b8152600401808373ffffffffffffffffffffffffffffffffffffffff1673ffffffffffffffffffffffffffffffffffffffff16815260200182815260200192505050602060405180830381600087803b15801561073157600080fd5b505af1158015610745573d6000803e3d6000fd5b505050506040513d602081101561075b57600080fd5b8101908080519060200190929190505050508173ffffffffffffffffffffffffffffffffffffffff166347e7ef2488886040518363ffffffff1660e01b8152600401808373ffffffffffffffffffffffffffffffffffffffff1673ffffffffffffffffffffffffffffffffffffffff16815260200182815260200192505050600060405180830381600087803b1580156107f457600080fd5b505af1158015610808573d6000803e3d6000fd5b5050505061086186600260008a73ffffffffffffffffffffffffffffffffffffffff1673ffffffffffffffffffffffffffffffffffffffff1681526020019081526020016000206000015461111f90919063ffffffff16565b600260008973ffffffffffffffffffffffffffffffffffffffff1673ffffffffffffffffffffffffffffffffffffffff168152602001908152602001600020600001819055506108fc86600260008a73ffffffffffffffffffffffffffffffffffffffff1673ffffffffffffffffffffffffffffffffffffffff1681526020019081526020016000206000015461111f90919063ffffffff16565b600260008973ffffffffffffffffffffffffffffffffffffffff1673ffffffffffffffffffffffffffffffffffffffff168152602001908152602001600020600001819055506000600260008973ffffffffffffffffffffffffffffffffffffffff1673ffffffffffffffffffffffffffffffffffffffff16815260200190815260200160002060020160009054906101000a900473ffffffffffffffffffffffffffffffffffffffff1690508073ffffffffffffffffffffffffffffffffffffffff166394362e8b33896040518363ffffffff1660e01b8152600401808373ffffffffffffffffffffffffffffffffffffffff1673ffffffffffffffffffffffffffffffffffffffff16815260200182815260200192505050600060405180830381600087803b158015610a3057600080fd5b505af1158015610a44573d6000803e3d6000fd5b505050505050505050505050565b6000809054906101000a900473ffffffffffffffffffffffffffffffffffffffff1681565b82600260008273ffffffffffffffffffffffffffffffffffffffff1673ffffffffffffffffffffffffffffffffffffffff16815260200190815260200160002060020160149054906101000a900460ff16610b3a576040517f08c379a00000000000000000000000000000000000000000000000000000000081526004018080602001828103825260158152602001807f52657365727665206973206e6f7420616374697665000000000000000000000081525060200191505060405180910390fd5b81610b4481610e7f565b82600160009054906101000a900473ffffffffffffffffffffffffffffffffffffffff1673ffffffffffffffffffffffffffffffffffffffff1663476fe790876040518263ffffffff1660e01b8152600401808273ffffffffffffffffffffffffffffffffffffffff1673ffffffffffffffffffffffffffffffffffffffff16815260200191505060206040518083038186803b158015610be457600080fd5b505afa158015610bf8573d6000803e3d6000fd5b505050506040513d6020811015610c0e57600080fd5b810190808051906020019092919050505011610c75576040517f08c379a00000000000000000000000000000000000000000000000000000000081526004018080602001828103825260318152602001806117106031913960400191505060405180910390fd5b60008390505b6000811115610e7757600080600160009054906101000a900473ffffffffffffffffffffffffffffffffffffffff1673ffffffffffffffffffffffffffffffffffffffff1663f32a4baa896040518263ffffffff1660e01b8152600401808273ffffffffffffffffffffffffffffffffffffffff1673ffffffffffffffffffffffffffffffffffffffff168152602001915050604080518083038186803b158015610d2557600080fd5b505afa158015610d39573d6000803e3d6000fd5b505050506040513d6040811015610d4f57600080fd5b810190808051906020019092919080519060200190929190505050915091506000818410610d7d5781610d7f565b835b905060008390508073ffffffffffffffffffffffffffffffffffffffff1663935642cf8b8b856040518463ffffffff1660e01b8152600401808473ffffffffffffffffffffffffffffffffffffffff1673ffffffffffffffffffffffffffffffffffffffff1681526020018373ffffffffffffffffffffffffffffffffffffffff1673ffffffffffffffffffffffffffffffffffffffff1681526020018281526020019350505050600060405180830381600087803b158015610e4157600080fd5b505af1158015610e55573d6000803e3d6000fd5b50505050610e6c82866111a790919063ffffffff16565b945050505050610c7b565b505050505050565b60008111610ef5576040517f08c379a000000000000000000000000000000000000000000000000000000000815260040180806020018281038252601d8152602001807f416d6f756e74206d7573742062652067726561746572207468616e203000000081525060200191505060405180910390fd5b50565b610f006111f1565b73ffffffffffffffffffffffffffffffffffffffff168373ffffffffffffffffffffffffffffffffffffffff1614610fbd5760003414610f8b576040517f08c379a00000000000000000000000000000000000000000000000000000000081526004018080602001828103825260328152602001806117416032913960400191505060405180910390fd5b610fb88230838673ffffffffffffffffffffffffffffffffffffffff1661120d909392919063ffffffff16565b61111a565b80341015611016576040517f08c379a00000000000000000000000000000000000000000000000000000000081526004018080602001828103825260358152602001806116db6035913960400191505060405180910390fd5b8034111561111957600061103382346111a790919063ffffffff16565b905060008373ffffffffffffffffffffffffffffffffffffffff168261c35090604051806000019050600060405180830381858888f193505050503d806000811461109a576040519150601f19603f3d011682016040523d82523d6000602084013e61109f565b606091505b5050905080611116576040517f08c379a00000000000000000000000000000000000000000000000000000000081526004018080602001828103825260168152602001807f5472616e73666572206f6620455448206661696c65640000000000000000000081525060200191505060405180910390fd5b50505b5b505050565b60008082840190508381101561119d576040517f08c379a000000000000000000000000000000000000000000000000000000000815260040180806020018281038252601b8152602001807f536166654d6174683a206164646974696f6e206f766572666c6f77000000000081525060200191505060405180910390fd5b8091505092915050565b60006111e983836040518060400160405280601e81526020017f536166654d6174683a207375627472616374696f6e206f766572666c6f7700008152506112fa565b905092915050565b600073eeeeeeeeeeeeeeeeeeeeeeeeeeeeeeeeeeeeeeee905090565b6112f4846323b872dd60e01b858585604051602401808473ffffffffffffffffffffffffffffffffffffffff1673ffffffffffffffffffffffffffffffffffffffff1681526020018373ffffffffffffffffffffffffffffffffffffffff1673ffffffffffffffffffffffffffffffffffffffff1681526020018281526020019350505050604051602081830303815290604052907bffffffffffffffffffffffffffffffffffffffffffffffffffffffff19166020820180517bffffffffffffffffffffffffffffffffffffffffffffffffffffffff83818316178352505050506113ba565b50505050565b60008383111582906113a7576040517f08c379a00000000000000000000000000000000000000000000000000000000081526004018080602001828103825283818151815260200191508051906020019080838360005b8381101561136c578082015181840152602081019050611351565b50505050905090810190601f1680156113995780820380516001836020036101000a031916815260200191505b509250505060405180910390fd5b5060008385039050809150509392505050565b606061141c826040518060400160405280602081526020017f5361666545524332303a206c6f772d6c6576656c2063616c6c206661696c65648152508573ffffffffffffffffffffffffffffffffffffffff166114a99092919063ffffffff16565b90506000815111156114a45780806020019051602081101561143d57600080fd5b81019080805190602001909291905050506114a3576040517f08c379a000000000000000000000000000000000000000000000000000000000815260040180806020018281038252602a81526020018061179e602a913960400191505060405180910390fd5b5b505050565b60606114b884846000856114c1565b90509392505050565b60606114cc856116c7565b61153e576040517f08c379a000000000000000000000000000000000000000000000000000000000815260040180806020018281038252601d8152602001807f416464726573733a2063616c6c20746f206e6f6e2d636f6e747261637400000081525060200191505060405180910390fd5b600060608673ffffffffffffffffffffffffffffffffffffffff1685876040518082805190602001908083835b6020831061158e578051825260208201915060208101905060208303925061156b565b6001836020036101000a03801982511681845116808217855250505050505090500191505060006040518083038185875af1925050503d80600081146115f0576040519150601f19603f3d011682016040523d82523d6000602084013e6115f5565b606091505b5091509150811561160a5780925050506116bf565b60008151111561161d5780518082602001fd5b836040517f08c379a00000000000000000000000000000000000000000000000000000000081526004018080602001828103825283818151815260200191508051906020019080838360005b83811015611684578082015181840152602081019050611669565b50505050905090810190601f1680156116b15780820380516001836020036101000a031916815260200191505b509250505060405180910390fd5b949350505050565b600080823b90506000811191505091905056fe54686520616d6f756e7420616e64207468652076616c75652073656e7420746f206465706f73697420646f206e6f74206d617463685468657265206973206e6f7420656e6f756768206c697175696469747920617661696c61626c6520746f2072656465656d557365722069732073656e64696e672045544820616c6f6e67207769746820746865204552433230207472616e736665722e546869732066756e6374696f6e20636f756c642062652063616c6c6564206279206f776e6572206f6e6c795361666545524332303a204552433230206f7065726174696f6e20646964206e6f742073756363656564a2646970667358221220e0fcc129e3ca2a3aba6780194f268a9709d02acf093ec2a44c5b5c39ea69333d64736f6c634300060a0033",
  "immutableReferences": {},
  "source": "// SPDX-License-Identifier: agpl-3.0\npragma solidity ^0.6.10;\n\nimport \"openzeppelin-solidity/contracts/math/SafeMath.sol\";\nimport \"../libraries/EthAddressLib.sol\";\nimport \"../helpers/AddressStorage.sol\";\nimport \"../interfaces/ILendingProvider.sol\";\nimport \"./ProvidersManager.sol\";\nimport \"../token/VToken.sol\";\nimport \"../token/SafeERC20.sol\";\n\ncontract Pool {\n  using SafeMath for uint256;\n  using SafeERC20 for ERC20;\n  //   using WadRayMath for uint256;\n  address public owner = msg.sender;\n  ProvidersManager internal providersManager;\n\n  struct Reserve {\n    uint256 totalLiquidity;\n    uint256 availableLiquidity;\n    address vTokenContract;\n    bool isActive;\n  }\n\n  mapping(address => Reserve) reserves;\n\n  modifier activeReserveOnly(address _reserve) {\n    require(reserves[_reserve].isActive, \"Reserve is not active\");\n    _;\n  }\n\n  function addReserve(address _reserve, address _vTokenAddress)\n    public\n    onlyOwner\n  {\n    reserves[_reserve].vTokenContract = _vTokenAddress;\n    reserves[_reserve].isActive = true;\n  }\n\n  /**\n   * @dev functions affected by this modifier can only be invoked if the provided _amount input parameter\n   * is not zero.\n   * @param _amount the amount provided\n   **/\n  modifier onlyAmountGreaterThanZero(uint256 _amount) {\n    requireAmountGreaterThanZeroInternal(_amount);\n    _;\n  }\n\n  modifier onlyOwner {\n    require(msg.sender == owner, \"This function could be called by owner only\");\n    _;\n  }\n\n  constructor(address _providersManager) public {\n    providersManager = ProvidersManager(_providersManager);\n  }\n\n  function deposit(address _reserve, uint256 _amount)\n    external\n    payable\n    activeReserveOnly(_reserve)\n    onlyAmountGreaterThanZero(_amount)\n  {\n    address providerAddress = providersManager\n      .getProviderWithHighestLiquidityRate(_reserve);\n\n    ILendingProvider provider = providersManager.getProviderOrFail(\n      providerAddress\n    );\n\n    address approvalAddress = provider.getReserveManagerForApprove(_reserve);\n\n    \n    // Transfer tokens to Pool contract and provide allowance\n    transferToReserve(_reserve, msg.sender, _amount);\n   \n\n    // Approve for provider\n    ERC20(_reserve).approve(approvalAddress, _amount);\n    provider.deposit(_reserve, _amount);\n\n    reserves[_reserve].totalLiquidity = reserves[_reserve].totalLiquidity.add(\n      _amount\n    );\n    reserves[_reserve].totalLiquidity = reserves[_reserve].totalLiquidity.add(\n      _amount\n    );\n\n    VToken token = VToken(reserves[_reserve].vTokenContract);\n    token.mintOnDeposit(msg.sender, _amount);\n  }\n\n  function redeemUnderlying(address _reserve, address payable _user, uint256 _amount)\n    external\n    activeReserveOnly(_reserve)\n    onlyAmountGreaterThanZero(_amount)\n  {\n\n    require(\n      providersManager.getAvaibleLiquidity(_reserve) > _amount,\n      \"There is not enough liquidity available to redeem\"\n    );\n\n    // ToDo: Add check that msg.sender has enough tokens!\n\n    uint256 _amountLeft = _amount;\n    while (_amountLeft > 0) {\n      (address providerAddress, uint256 avaibleLiquidity) = providersManager\n        .getProviderWithLowestLiquidityRate(_reserve);\n\n      // Calculate max sum we could take from this provider\n      uint256 sumToRedeem = _amountLeft < avaibleLiquidity\n        ? _amountLeft\n        : avaibleLiquidity;\n      ILendingProvider provider = ILendingProvider(providerAddress);\n\n      // Redeem this sum\n      provider.redeemUnderlying(_reserve, _user, sumToRedeem);\n\n      // ToDo: substract tokens(!)\n\n      _amountLeft = _amountLeft.sub(sumToRedeem);\n    }\n\n  }\n\n  /**\n   * @notice internal function to save on code size for the onlyAmountGreaterThanZero modifier\n   **/\n  function requireAmountGreaterThanZeroInternal(uint256 _amount) internal pure {\n    require(_amount > 0, \"Amount must be greater than 0\");\n  }\n\n  /**\n   * @dev transfers an amount from a user to the destination reserve\n   * @param _reserve the address of the reserve where the amount is being transferred\n   * @param _user the address of the user from where the transfer is happening\n   * @param _amount the amount being transferred\n   **/\n  function transferToReserve(\n    address _reserve,\n    address payable _user,\n    uint256 _amount\n  ) internal {\n    if (_reserve != EthAddressLib.ethAddress()) {\n      require(\n        msg.value == 0,\n        \"User is sending ETH along with the ERC20 transfer.\"\n      );\n\n      \n      ERC20(_reserve).safeTransferFrom(_user, address(this), _amount);\n\n    } else {\n      require(\n        msg.value >= _amount,\n        \"The amount and the value sent to deposit do not match\"\n      );\n\n      if (msg.value > _amount) {\n        //send back excess ETH\n        uint256 excessAmount = msg.value.sub(_amount);\n        //solium-disable-next-line\n        (bool result, ) = _user.call.value(excessAmount).gas(50000)(\"\");\n        require(result, \"Transfer of ETH failed\");\n      }\n    }\n  }\n}\n",
  "sourcePath": "/Users/mikhail/Coding/jucifi/contracts/core/Pool.sol",
  "compiler": {
    "name": "solc",
    "version": "0.6.10+commit.00c0fcaf.Emscripten.clang"
  },
  "schemaVersion": "3.2.5",
  "updatedAt": "2020-10-17T20:12:41.115Z",
  "devdoc": {
    "methods": {}
  },
  "userdoc": {
    "methods": {}
  }
}