{
  "contractName": "Pool",
  "abi": [
    {
      "inputs": [
        {
          "internalType": "address",
          "name": "_providersManager",
          "type": "address"
        }
      ],
      "stateMutability": "nonpayable",
      "type": "constructor"
    },
    {
      "inputs": [],
      "name": "owner",
      "outputs": [
        {
          "internalType": "address",
          "name": "",
          "type": "address"
        }
      ],
      "stateMutability": "view",
      "type": "function"
    },
    {
      "inputs": [
        {
          "internalType": "address",
          "name": "_reserve",
          "type": "address"
        },
        {
          "internalType": "uint256",
          "name": "_amount",
          "type": "uint256"
        }
      ],
      "name": "deposit",
      "outputs": [],
      "stateMutability": "payable",
      "type": "function"
    }
  ],
  "bytecode": "0x6080604052336000806101000a81548173ffffffffffffffffffffffffffffffffffffffff021916908373ffffffffffffffffffffffffffffffffffffffff16021790555034801561005057600080fd5b506040516104e83803806104e88339818101604052602081101561007357600080fd5b810190808051906020019092919050505080600160006101000a81548173ffffffffffffffffffffffffffffffffffffffff021916908373ffffffffffffffffffffffffffffffffffffffff16021790555050610413806100d56000396000f3fe6080604052600436106100295760003560e01c806347e7ef241461002e5780638da5cb5b1461007c575b600080fd5b61007a6004803603604081101561004457600080fd5b81019080803573ffffffffffffffffffffffffffffffffffffffff169060200190929190803590602001909291905050506100d3565b005b34801561008857600080fd5b5061009161033f565b604051808273ffffffffffffffffffffffffffffffffffffffff1673ffffffffffffffffffffffffffffffffffffffff16815260200191505060405180910390f35b806100dd81610364565b6000600160009054906101000a900473ffffffffffffffffffffffffffffffffffffffff1673ffffffffffffffffffffffffffffffffffffffff1663e39e9849856040518263ffffffff1660e01b8152600401808273ffffffffffffffffffffffffffffffffffffffff1673ffffffffffffffffffffffffffffffffffffffff16815260200191505060206040518083038186803b15801561017e57600080fd5b505afa158015610192573d6000803e3d6000fd5b505050506040513d60208110156101a857600080fd5b810190808051906020019092919050505090506000600160009054906101000a900473ffffffffffffffffffffffffffffffffffffffff1673ffffffffffffffffffffffffffffffffffffffff1663c49c7d8a836040518263ffffffff1660e01b8152600401808273ffffffffffffffffffffffffffffffffffffffff1673ffffffffffffffffffffffffffffffffffffffff16815260200191505060206040518083038186803b15801561025c57600080fd5b505afa158015610270573d6000803e3d6000fd5b505050506040513d602081101561028657600080fd5b810190808051906020019092919050505090508073ffffffffffffffffffffffffffffffffffffffff166347e7ef2486866040518363ffffffff1660e01b8152600401808373ffffffffffffffffffffffffffffffffffffffff1673ffffffffffffffffffffffffffffffffffffffff16815260200182815260200192505050600060405180830381600087803b15801561032057600080fd5b505af1158015610334573d6000803e3d6000fd5b505050505050505050565b6000809054906101000a900473ffffffffffffffffffffffffffffffffffffffff1681565b600081116103da576040517f08c379a000000000000000000000000000000000000000000000000000000000815260040180806020018281038252601d8152602001807f416d6f756e74206d7573742062652067726561746572207468616e203000000081525060200191505060405180910390fd5b5056fea2646970667358221220a2fd31bdb7f4b273e0c103a8daff7995133fe250386d9a62f205f87d1d604f6664736f6c634300060a0033",
  "immutableReferences": {},
  "source": "// SPDX-License-Identifier: agpl-3.0\npragma solidity ^0.6.10;\n\nimport \"../helpers/AddressStorage.sol\";\nimport \"../interfaces/ILendingProvider.sol\";\nimport \"./ProvidersManager.sol\";\n\n\ncontract Pool {\n    address public owner = msg.sender;\n    ProvidersManager internal providerManager;\n\n\n\n\n\n    /**\n     * @dev functions affected by this modifier can only be invoked if the provided _amount input parameter\n     * is not zero.\n     * @param _amount the amount provided\n     **/\n    modifier onlyAmountGreaterThanZero(uint256 _amount) {\n        requireAmountGreaterThanZeroInternal(_amount);\n        _;\n    }\n\n    modifier onlyOwner {\n        require(\n            msg.sender == owner,\n            \"This function could be called by owner only\"\n        );\n        _;\n    }\n\n    constructor(address _providersManager) public {\n        providerManager = ProvidersManager(_providersManager);\n    }\n\n    function deposit(\n        address _reserve,\n        uint256 _amount\n    )\n        external\n        payable\n        // onlyUnfreezedReserve(_reserve)\n        onlyAmountGreaterThanZero(_amount)\n    {\n        address provider = providerManager.getProviderWithBestLiquidityRate(_reserve);\n        ILendingProvider lendingP = providerManager.getProviderOrFail(provider);\n        lendingP.deposit(_reserve, _amount);\n    }\n\n\n\n    /**\n     * @notice internal function to save on code size for the onlyAmountGreaterThanZero modifier\n     **/\n    function requireAmountGreaterThanZeroInternal(uint256 _amount)\n        internal\n        pure\n    {\n        require(_amount > 0, \"Amount must be greater than 0\");\n    }\n}\n",
  "sourcePath": "/Users/mikhail/Coding/jucifi/contracts/core/Pool.sol",
  "compiler": {
    "name": "solc",
    "version": "0.6.10+commit.00c0fcaf.Emscripten.clang"
  },
  "schemaVersion": "3.2.5",
  "updatedAt": "2020-10-15T14:54:06.008Z",
  "devdoc": {
    "methods": {}
  },
  "userdoc": {
    "methods": {}
  }
}