{
  "contractName": "PoolService",
  "abi": [
    {
      "inputs": [
        {
          "internalType": "address",
          "name": "_addressRepository",
          "type": "address"
        }
      ],
      "stateMutability": "nonpayable",
      "type": "constructor"
    },
    {
      "anonymous": false,
      "inputs": [
        {
          "indexed": true,
          "internalType": "address",
          "name": "previousOwner",
          "type": "address"
        },
        {
          "indexed": true,
          "internalType": "address",
          "name": "newOwner",
          "type": "address"
        }
      ],
      "name": "OwnershipTransferred",
      "type": "event"
    },
    {
      "anonymous": false,
      "inputs": [
        {
          "indexed": true,
          "internalType": "address",
          "name": "_reserve",
          "type": "address"
        },
        {
          "indexed": true,
          "internalType": "address",
          "name": "_user",
          "type": "address"
        },
        {
          "indexed": false,
          "internalType": "uint256",
          "name": "_amount",
          "type": "uint256"
        },
        {
          "indexed": false,
          "internalType": "uint256",
          "name": "_timestamp",
          "type": "uint256"
        }
      ],
      "name": "RedeemUnderlying",
      "type": "event"
    },
    {
      "inputs": [],
      "name": "owner",
      "outputs": [
        {
          "internalType": "address",
          "name": "",
          "type": "address"
        }
      ],
      "stateMutability": "view",
      "type": "function",
      "constant": true
    },
    {
      "inputs": [],
      "name": "renounceOwnership",
      "outputs": [],
      "stateMutability": "nonpayable",
      "type": "function"
    },
    {
      "inputs": [
        {
          "internalType": "address",
          "name": "newOwner",
          "type": "address"
        }
      ],
      "name": "transferOwnership",
      "outputs": [],
      "stateMutability": "nonpayable",
      "type": "function"
    },
    {
      "inputs": [
        {
          "internalType": "address",
          "name": "_reserve",
          "type": "address"
        },
        {
          "internalType": "uint256",
          "name": "_amount",
          "type": "uint256"
        }
      ],
      "name": "deposit",
      "outputs": [],
      "stateMutability": "payable",
      "type": "function",
      "payable": true
    },
    {
      "inputs": [
        {
          "internalType": "address",
          "name": "_reserve",
          "type": "address"
        },
        {
          "internalType": "address payable",
          "name": "_user",
          "type": "address"
        },
        {
          "internalType": "uint256",
          "name": "_amount",
          "type": "uint256"
        }
      ],
      "name": "redeemUnderlying",
      "outputs": [],
      "stateMutability": "nonpayable",
      "type": "function"
    },
    {
      "inputs": [
        {
          "internalType": "address",
          "name": "_reserve",
          "type": "address"
        },
        {
          "internalType": "uint256",
          "name": "_amount",
          "type": "uint256"
        }
      ],
      "name": "borrow",
      "outputs": [],
      "stateMutability": "nonpayable",
      "type": "function"
    },
    {
      "inputs": [
        {
          "internalType": "address",
          "name": "_reserve",
          "type": "address"
        },
        {
          "internalType": "uint256",
          "name": "_amount",
          "type": "uint256"
        }
      ],
      "name": "repay",
      "outputs": [],
      "stateMutability": "payable",
      "type": "function",
      "payable": true
    },
    {
      "inputs": [
        {
          "internalType": "address",
          "name": "_reserve",
          "type": "address"
        }
      ],
      "name": "getReserveInfo",
      "outputs": [
        {
          "internalType": "string",
          "name": "symbol",
          "type": "string"
        },
        {
          "internalType": "uint256",
          "name": "totalLiquidity",
          "type": "uint256"
        },
        {
          "internalType": "uint256",
          "name": "availableLiquidity",
          "type": "uint256"
        },
        {
          "internalType": "uint256",
          "name": "loanToValue",
          "type": "uint256"
        },
        {
          "internalType": "uint256",
          "name": "liquidationThreshold",
          "type": "uint256"
        },
        {
          "internalType": "uint256",
          "name": "liquidationBonus",
          "type": "uint256"
        },
        {
          "internalType": "uint256",
          "name": "borrowRate",
          "type": "uint256"
        },
        {
          "internalType": "uint256",
          "name": "lendingRate",
          "type": "uint256"
        },
        {
          "internalType": "address",
          "name": "vTokenContract",
          "type": "address"
        },
        {
          "internalType": "bool",
          "name": "isActive",
          "type": "bool"
        }
      ],
      "stateMutability": "view",
      "type": "function",
      "constant": true
    }
  ],
  "bytecode": "0x60806040523480156200001157600080fd5b506040516200344938038062003449833981810160405260208110156200003757600080fd5b810190808051906020019092919050505060006200005a620006a460201b60201c565b9050806000806101000a81548173ffffffffffffffffffffffffffffffffffffffff021916908373ffffffffffffffffffffffffffffffffffffffff1602179055508073ffffffffffffffffffffffffffffffffffffffff16600073ffffffffffffffffffffffffffffffffffffffff167f8be0079c531659141344cd1fd0a4f28419497f9722a3daafe3b4186f6b6457e060405160405180910390a35080600160006101000a81548173ffffffffffffffffffffffffffffffffffffffff021916908373ffffffffffffffffffffffffffffffffffffffff160217905550600160009054906101000a900473ffffffffffffffffffffffffffffffffffffffff1673ffffffffffffffffffffffffffffffffffffffff16630a9bf54a6040518163ffffffff1660e01b815260040160206040518083038186803b158015620001a257600080fd5b505afa158015620001b7573d6000803e3d6000fd5b505050506040513d6020811015620001ce57600080fd5b8101908080519060200190929190505050600260006101000a81548173ffffffffffffffffffffffffffffffffffffffff021916908373ffffffffffffffffffffffffffffffffffffffff160217905550600160009054906101000a900473ffffffffffffffffffffffffffffffffffffffff1673ffffffffffffffffffffffffffffffffffffffff1663c15c03886040518163ffffffff1660e01b815260040160206040518083038186803b1580156200028857600080fd5b505afa1580156200029d573d6000803e3d6000fd5b505050506040513d6020811015620002b457600080fd5b8101908080519060200190929190505050600360006101000a81548173ffffffffffffffffffffffffffffffffffffffff021916908373ffffffffffffffffffffffffffffffffffffffff160217905550600160009054906101000a900473ffffffffffffffffffffffffffffffffffffffff1673ffffffffffffffffffffffffffffffffffffffff1663398b21966040518163ffffffff1660e01b815260040160206040518083038186803b1580156200036e57600080fd5b505afa15801562000383573d6000803e3d6000fd5b505050506040513d60208110156200039a57600080fd5b8101908080519060200190929190505050600460006101000a81548173ffffffffffffffffffffffffffffffffffffffff021916908373ffffffffffffffffffffffffffffffffffffffff160217905550600160009054906101000a900473ffffffffffffffffffffffffffffffffffffffff1673ffffffffffffffffffffffffffffffffffffffff166351ff7f0a6040518163ffffffff1660e01b815260040160206040518083038186803b1580156200045457600080fd5b505afa15801562000469573d6000803e3d6000fd5b505050506040513d60208110156200048057600080fd5b8101908080519060200190929190505050600560006101000a81548173ffffffffffffffffffffffffffffffffffffffff021916908373ffffffffffffffffffffffffffffffffffffffff160217905550600160009054906101000a900473ffffffffffffffffffffffffffffffffffffffff1673ffffffffffffffffffffffffffffffffffffffff1663c44548d26040518163ffffffff1660e01b815260040160206040518083038186803b1580156200053a57600080fd5b505afa1580156200054f573d6000803e3d6000fd5b505050506040513d60208110156200056657600080fd5b8101908080519060200190929190505050600660006101000a81548173ffffffffffffffffffffffffffffffffffffffff021916908373ffffffffffffffffffffffffffffffffffffffff160217905550600160009054906101000a900473ffffffffffffffffffffffffffffffffffffffff1673ffffffffffffffffffffffffffffffffffffffff16634190ac416040518163ffffffff1660e01b815260040160206040518083038186803b1580156200062057600080fd5b505afa15801562000635573d6000803e3d6000fd5b505050506040513d60208110156200064c57600080fd5b8101908080519060200190929190505050600760006101000a81548173ffffffffffffffffffffffffffffffffffffffff021916908373ffffffffffffffffffffffffffffffffffffffff16021790555050620006ac565b600033905090565b612d8d80620006bc6000396000f3fe60806040526004361061007b5760003560e01c8063715018a61161004e578063715018a6146102b05780638da5cb5b146102c7578063935642cf1461031e578063f2fde38b146103995761007b565b806322867d781461008057806347e7ef24146100ce5780634b8a35291461011c5780635b6333eb14610177575b600080fd5b6100cc6004803603604081101561009657600080fd5b81019080803573ffffffffffffffffffffffffffffffffffffffff169060200190929190803590602001909291905050506103ea565b005b61011a600480360360408110156100e457600080fd5b81019080803573ffffffffffffffffffffffffffffffffffffffff169060200190929190803590602001909291905050506103ee565b005b34801561012857600080fd5b506101756004803603604081101561013f57600080fd5b81019080803573ffffffffffffffffffffffffffffffffffffffff16906020019092919080359060200190929190505050610a0f565b005b34801561018357600080fd5b506101c66004803603602081101561019a57600080fd5b81019080803573ffffffffffffffffffffffffffffffffffffffff169060200190929190505050610fc6565b60405180806020018b81526020018a81526020018981526020018881526020018781526020018681526020018581526020018473ffffffffffffffffffffffffffffffffffffffff1673ffffffffffffffffffffffffffffffffffffffff1681526020018315151515815260200182810382528c818151815260200191508051906020019080838360005b8381101561026c578082015181840152602081019050610251565b50505050905090810190601f1680156102995780820380516001836020036101000a031916815260200191505b509b50505050505050505050505060405180910390f35b3480156102bc57600080fd5b506102c561186c565b005b3480156102d357600080fd5b506102dc6119f4565b604051808273ffffffffffffffffffffffffffffffffffffffff1673ffffffffffffffffffffffffffffffffffffffff16815260200191505060405180910390f35b34801561032a57600080fd5b506103976004803603606081101561034157600080fd5b81019080803573ffffffffffffffffffffffffffffffffffffffff169060200190929190803573ffffffffffffffffffffffffffffffffffffffff16906020019092919080359060200190929190505050611a1d565b005b3480156103a557600080fd5b506103e8600480360360208110156103bc57600080fd5b81019080803573ffffffffffffffffffffffffffffffffffffffff169060200190929190505050611cef565b005b5050565b81600460009054906101000a900473ffffffffffffffffffffffffffffffffffffffff1673ffffffffffffffffffffffffffffffffffffffff1663883c042b826040518263ffffffff1660e01b8152600401808273ffffffffffffffffffffffffffffffffffffffff1673ffffffffffffffffffffffffffffffffffffffff16815260200191505060206040518083038186803b15801561048e57600080fd5b505afa1580156104a2573d6000803e3d6000fd5b505050506040513d60208110156104b857600080fd5b810190808051906020019092919050505061053b576040517f08c379a000000000000000000000000000000000000000000000000000000000815260040180806020018281038252601b8152602001807f506f6f6c3a2052657365727665206973206e6f7420616374697665000000000081525060200191505060405180910390fd5b8161054581611efc565b6000600260009054906101000a900473ffffffffffffffffffffffffffffffffffffffff1673ffffffffffffffffffffffffffffffffffffffff16639956db43866040518263ffffffff1660e01b8152600401808273ffffffffffffffffffffffffffffffffffffffff1673ffffffffffffffffffffffffffffffffffffffff16815260200191505060206040518083038186803b1580156105e657600080fd5b505afa1580156105fa573d6000803e3d6000fd5b505050506040513d602081101561061057600080fd5b81019080805190602001909291905050509050600081905061063486338488611f58565b8073ffffffffffffffffffffffffffffffffffffffff166347e7ef2487876040518363ffffffff1660e01b8152600401808373ffffffffffffffffffffffffffffffffffffffff1673ffffffffffffffffffffffffffffffffffffffff16815260200182815260200192505050600060405180830381600087803b1580156106bb57600080fd5b505af11580156106cf573d6000803e3d6000fd5b50505050600460009054906101000a900473ffffffffffffffffffffffffffffffffffffffff1673ffffffffffffffffffffffffffffffffffffffff16635668870087876040518363ffffffff1660e01b8152600401808373ffffffffffffffffffffffffffffffffffffffff1673ffffffffffffffffffffffffffffffffffffffff16815260200182815260200192505050600060405180830381600087803b15801561077c57600080fd5b505af1158015610790573d6000803e3d6000fd5b50505050600560009054906101000a900473ffffffffffffffffffffffffffffffffffffffff1673ffffffffffffffffffffffffffffffffffffffff166309d660718733886040518463ffffffff1660e01b8152600401808473ffffffffffffffffffffffffffffffffffffffff1673ffffffffffffffffffffffffffffffffffffffff1681526020018373ffffffffffffffffffffffffffffffffffffffff1673ffffffffffffffffffffffffffffffffffffffff1681526020018281526020019350505050600060405180830381600087803b15801561087157600080fd5b505af1158015610885573d6000803e3d6000fd5b505050506000600460009054906101000a900473ffffffffffffffffffffffffffffffffffffffff1673ffffffffffffffffffffffffffffffffffffffff166372e06c0f886040518263ffffffff1660e01b8152600401808273ffffffffffffffffffffffffffffffffffffffff1673ffffffffffffffffffffffffffffffffffffffff16815260200191505060206040518083038186803b15801561092a57600080fd5b505afa15801561093e573d6000803e3d6000fd5b505050506040513d602081101561095457600080fd5b810190808051906020019092919050505090508073ffffffffffffffffffffffffffffffffffffffff166394362e8b33886040518363ffffffff1660e01b8152600401808373ffffffffffffffffffffffffffffffffffffffff1673ffffffffffffffffffffffffffffffffffffffff16815260200182815260200192505050600060405180830381600087803b1580156109ee57600080fd5b505af1158015610a02573d6000803e3d6000fd5b5050505050505050505050565b81600460009054906101000a900473ffffffffffffffffffffffffffffffffffffffff1673ffffffffffffffffffffffffffffffffffffffff1663883c042b826040518263ffffffff1660e01b8152600401808273ffffffffffffffffffffffffffffffffffffffff1673ffffffffffffffffffffffffffffffffffffffff16815260200191505060206040518083038186803b158015610aaf57600080fd5b505afa158015610ac3573d6000803e3d6000fd5b505050506040513d6020811015610ad957600080fd5b8101908080519060200190929190505050610b5c576040517f08c379a000000000000000000000000000000000000000000000000000000000815260040180806020018281038252601b8152602001807f506f6f6c3a2052657365727665206973206e6f7420616374697665000000000081525060200191505060405180910390fd5b81610b6681611efc565b600260009054906101000a900473ffffffffffffffffffffffffffffffffffffffff1673ffffffffffffffffffffffffffffffffffffffff1663ac885c24856040518263ffffffff1660e01b8152600401808273ffffffffffffffffffffffffffffffffffffffff1673ffffffffffffffffffffffffffffffffffffffff16815260200191505060206040518083038186803b158015610c0557600080fd5b505afa158015610c19573d6000803e3d6000fd5b505050506040513d6020811015610c2f57600080fd5b8101908080519060200190929190505050831115610c98576040517f08c379a000000000000000000000000000000000000000000000000000000000815260040180806020018281038252602b815260200180612ccc602b913960400191505060405180910390fd5b6000600660009054906101000a900473ffffffffffffffffffffffffffffffffffffffff1673ffffffffffffffffffffffffffffffffffffffff1663b6d3a35d866040518263ffffffff1660e01b8152600401808273ffffffffffffffffffffffffffffffffffffffff1673ffffffffffffffffffffffffffffffffffffffff16815260200191505060206040518083038186803b158015610d3957600080fd5b505afa158015610d4d573d6000803e3d6000fd5b505050506040513d6020811015610d6357600080fd5b810190808051906020019092919050505090506000610e6482600760009054906101000a900473ffffffffffffffffffffffffffffffffffffffff1673ffffffffffffffffffffffffffffffffffffffff16638abaf4aa336040518263ffffffff1660e01b8152600401808273ffffffffffffffffffffffffffffffffffffffff1673ffffffffffffffffffffffffffffffffffffffff16815260200191505060206040518083038186803b158015610e1b57600080fd5b505afa158015610e2f573d6000803e3d6000fd5b505050506040513d6020811015610e4557600080fd5b8101908080519060200190929190505050611f8b90919063ffffffff16565b9050808510610ebe576040517f08c379a000000000000000000000000000000000000000000000000000000000815260040180806020018281038252602b815260200180612c7b602b913960400191505060405180910390fd5b610ec9863387611fd5565b600560009054906101000a900473ffffffffffffffffffffffffffffffffffffffff1673ffffffffffffffffffffffffffffffffffffffff1663c69dc70e8733886040518463ffffffff1660e01b8152600401808473ffffffffffffffffffffffffffffffffffffffff1673ffffffffffffffffffffffffffffffffffffffff1681526020018373ffffffffffffffffffffffffffffffffffffffff1673ffffffffffffffffffffffffffffffffffffffff1681526020018281526020019350505050600060405180830381600087803b158015610fa657600080fd5b505af1158015610fba573d6000803e3d6000fd5b50505050505050505050565b60606000806000806000806000806000600460009054906101000a900473ffffffffffffffffffffffffffffffffffffffff1673ffffffffffffffffffffffffffffffffffffffff1663a5fa87518c6040518263ffffffff1660e01b8152600401808273ffffffffffffffffffffffffffffffffffffffff1673ffffffffffffffffffffffffffffffffffffffff16815260200191505060006040518083038186803b15801561107557600080fd5b505afa158015611089573d6000803e3d6000fd5b505050506040513d6000823e3d601f19601f8201168201806040525060208110156110b357600080fd5b81019080805160405193929190846401000000008211156110d357600080fd5b838201915060208201858111156110e957600080fd5b825186600182028301116401000000008211171561110657600080fd5b8083526020830192505050908051906020019080838360005b8381101561113a57808201518184015260208101905061111f565b50505050905090810190601f1680156111675780820380516001836020036101000a031916815260200191505b506040525050509950600460009054906101000a900473ffffffffffffffffffffffffffffffffffffffff1673ffffffffffffffffffffffffffffffffffffffff16639de8ef798c6040518263ffffffff1660e01b8152600401808273ffffffffffffffffffffffffffffffffffffffff1673ffffffffffffffffffffffffffffffffffffffff16815260200191505060206040518083038186803b15801561120f57600080fd5b505afa158015611223573d6000803e3d6000fd5b505050506040513d602081101561123957600080fd5b81019080805190602001909291905050509850600460009054906101000a900473ffffffffffffffffffffffffffffffffffffffff1673ffffffffffffffffffffffffffffffffffffffff1663266e2bd88c6040518263ffffffff1660e01b8152600401808273ffffffffffffffffffffffffffffffffffffffff1673ffffffffffffffffffffffffffffffffffffffff16815260200191505060206040518083038186803b1580156112eb57600080fd5b505afa1580156112ff573d6000803e3d6000fd5b505050506040513d602081101561131557600080fd5b81019080805190602001909291905050509750600460009054906101000a900473ffffffffffffffffffffffffffffffffffffffff1673ffffffffffffffffffffffffffffffffffffffff1663fcda065e8c6040518263ffffffff1660e01b8152600401808273ffffffffffffffffffffffffffffffffffffffff1673ffffffffffffffffffffffffffffffffffffffff16815260200191505060206040518083038186803b1580156113c757600080fd5b505afa1580156113db573d6000803e3d6000fd5b505050506040513d60208110156113f157600080fd5b81019080805190602001909291905050509650600460009054906101000a900473ffffffffffffffffffffffffffffffffffffffff1673ffffffffffffffffffffffffffffffffffffffff16637b86e42c8c6040518263ffffffff1660e01b8152600401808273ffffffffffffffffffffffffffffffffffffffff1673ffffffffffffffffffffffffffffffffffffffff16815260200191505060206040518083038186803b1580156114a357600080fd5b505afa1580156114b7573d6000803e3d6000fd5b505050506040513d60208110156114cd57600080fd5b81019080805190602001909291905050509550600460009054906101000a900473ffffffffffffffffffffffffffffffffffffffff1673ffffffffffffffffffffffffffffffffffffffff16632db387bd8c6040518263ffffffff1660e01b8152600401808273ffffffffffffffffffffffffffffffffffffffff1673ffffffffffffffffffffffffffffffffffffffff16815260200191505060206040518083038186803b15801561157f57600080fd5b505afa158015611593573d6000803e3d6000fd5b505050506040513d60208110156115a957600080fd5b81019080805190602001909291905050509450600460009054906101000a900473ffffffffffffffffffffffffffffffffffffffff1673ffffffffffffffffffffffffffffffffffffffff166372e06c0f8c6040518263ffffffff1660e01b8152600401808273ffffffffffffffffffffffffffffffffffffffff1673ffffffffffffffffffffffffffffffffffffffff16815260200191505060206040518083038186803b15801561165b57600080fd5b505afa15801561166f573d6000803e3d6000fd5b505050506040513d602081101561168557600080fd5b81019080805190602001909291905050509150600260009054906101000a900473ffffffffffffffffffffffffffffffffffffffff1673ffffffffffffffffffffffffffffffffffffffff16639b90168d8c6040518263ffffffff1660e01b8152600401808273ffffffffffffffffffffffffffffffffffffffff1673ffffffffffffffffffffffffffffffffffffffff168152602001915050604080518083038186803b15801561173657600080fd5b505afa15801561174a573d6000803e3d6000fd5b505050506040513d604081101561176057600080fd5b8101908080519060200190929190805190602001909291905050508095508194505050600460009054906101000a900473ffffffffffffffffffffffffffffffffffffffff1673ffffffffffffffffffffffffffffffffffffffff16639f8a13d78c6040518263ffffffff1660e01b8152600401808273ffffffffffffffffffffffffffffffffffffffff1673ffffffffffffffffffffffffffffffffffffffff16815260200191505060206040518083038186803b15801561182257600080fd5b505afa158015611836573d6000803e3d6000fd5b505050506040513d602081101561184c57600080fd5b810190808051906020019092919050505090509193959799509193959799565b611874612672565b73ffffffffffffffffffffffffffffffffffffffff166000809054906101000a900473ffffffffffffffffffffffffffffffffffffffff1673ffffffffffffffffffffffffffffffffffffffff1614611935576040517f08c379a00000000000000000000000000000000000000000000000000000000081526004018080602001828103825260208152602001807f4f776e61626c653a2063616c6c6572206973206e6f7420746865206f776e657281525060200191505060405180910390fd5b600073ffffffffffffffffffffffffffffffffffffffff166000809054906101000a900473ffffffffffffffffffffffffffffffffffffffff1673ffffffffffffffffffffffffffffffffffffffff167f8be0079c531659141344cd1fd0a4f28419497f9722a3daafe3b4186f6b6457e060405160405180910390a360008060006101000a81548173ffffffffffffffffffffffffffffffffffffffff021916908373ffffffffffffffffffffffffffffffffffffffff160217905550565b60008060009054906101000a900473ffffffffffffffffffffffffffffffffffffffff16905090565b82600460009054906101000a900473ffffffffffffffffffffffffffffffffffffffff1673ffffffffffffffffffffffffffffffffffffffff1663883c042b826040518263ffffffff1660e01b8152600401808273ffffffffffffffffffffffffffffffffffffffff1673ffffffffffffffffffffffffffffffffffffffff16815260200191505060206040518083038186803b158015611abd57600080fd5b505afa158015611ad1573d6000803e3d6000fd5b505050506040513d6020811015611ae757600080fd5b8101908080519060200190929190505050611b6a576040517f08c379a000000000000000000000000000000000000000000000000000000000815260040180806020018281038252601b8152602001807f506f6f6c3a2052657365727665206973206e6f7420616374697665000000000081525060200191505060405180910390fd5b81611b7481611efc565b611b7f858585611fd5565b600560009054906101000a900473ffffffffffffffffffffffffffffffffffffffff1673ffffffffffffffffffffffffffffffffffffffff1663c3aa039d8686866040518463ffffffff1660e01b8152600401808473ffffffffffffffffffffffffffffffffffffffff1673ffffffffffffffffffffffffffffffffffffffff1681526020018373ffffffffffffffffffffffffffffffffffffffff1673ffffffffffffffffffffffffffffffffffffffff1681526020018281526020019350505050600060405180830381600087803b158015611c5c57600080fd5b505af1158015611c70573d6000803e3d6000fd5b505050508373ffffffffffffffffffffffffffffffffffffffff168573ffffffffffffffffffffffffffffffffffffffff167f9c4ed599cd8555b9c1e8cd7643240d7d71eb76b792948c49fcb4d411f7b6b3c68542604051808381526020018264ffffffffff1681526020019250505060405180910390a35050505050565b611cf7612672565b73ffffffffffffffffffffffffffffffffffffffff166000809054906101000a900473ffffffffffffffffffffffffffffffffffffffff1673ffffffffffffffffffffffffffffffffffffffff1614611db8576040517f08c379a00000000000000000000000000000000000000000000000000000000081526004018080602001828103825260208152602001807f4f776e61626c653a2063616c6c6572206973206e6f7420746865206f776e657281525060200191505060405180910390fd5b600073ffffffffffffffffffffffffffffffffffffffff168173ffffffffffffffffffffffffffffffffffffffff161415611e3e576040517f08c379a0000000000000000000000000000000000000000000000000000000008152600401808060200182810382526026815260200180612ca66026913960400191505060405180910390fd5b8073ffffffffffffffffffffffffffffffffffffffff166000809054906101000a900473ffffffffffffffffffffffffffffffffffffffff1673ffffffffffffffffffffffffffffffffffffffff167f8be0079c531659141344cd1fd0a4f28419497f9722a3daafe3b4186f6b6457e060405160405180910390a3806000806101000a81548173ffffffffffffffffffffffffffffffffffffffff021916908373ffffffffffffffffffffffffffffffffffffffff16021790555050565b60008111611f55576040517f08c379a0000000000000000000000000000000000000000000000000000000008152600401808060200182810382526023815260200180612c586023913960400191505060405180910390fd5b50565b611f858383838773ffffffffffffffffffffffffffffffffffffffff1661267a909392919063ffffffff16565b50505050565b6000611fcd83836040518060400160405280601a81526020017f536166654d6174683a206469766973696f6e206279207a65726f000000000000815250612767565b905092915050565b80600260009054906101000a900473ffffffffffffffffffffffffffffffffffffffff1673ffffffffffffffffffffffffffffffffffffffff1663ac885c24856040518263ffffffff1660e01b8152600401808273ffffffffffffffffffffffffffffffffffffffff1673ffffffffffffffffffffffffffffffffffffffff16815260200191505060206040518083038186803b15801561207557600080fd5b505afa158015612089573d6000803e3d6000fd5b505050506040513d602081101561209f57600080fd5b810190808051906020019092919050505011612106576040517f08c379a0000000000000000000000000000000000000000000000000000000008152600401808060200182810382526037815260200180612cf76037913960400191505060405180910390fd5b60008190505b600081111561230857600080600260009054906101000a900473ffffffffffffffffffffffffffffffffffffffff1673ffffffffffffffffffffffffffffffffffffffff1663f32a4baa876040518263ffffffff1660e01b8152600401808273ffffffffffffffffffffffffffffffffffffffff1673ffffffffffffffffffffffffffffffffffffffff168152602001915050604080518083038186803b1580156121b657600080fd5b505afa1580156121ca573d6000803e3d6000fd5b505050506040513d60408110156121e057600080fd5b81019080805190602001909291908051906020019092919050505091509150600081841061220e5781612210565b835b905060008390508073ffffffffffffffffffffffffffffffffffffffff1663935642cf8989856040518463ffffffff1660e01b8152600401808473ffffffffffffffffffffffffffffffffffffffff1673ffffffffffffffffffffffffffffffffffffffff1681526020018373ffffffffffffffffffffffffffffffffffffffff1673ffffffffffffffffffffffffffffffffffffffff1681526020018281526020019350505050600060405180830381600087803b1580156122d257600080fd5b505af11580156122e6573d6000803e3d6000fd5b505050506122fd828661282d90919063ffffffff16565b94505050505061210c565b60006123f683600460009054906101000a900473ffffffffffffffffffffffffffffffffffffffff1673ffffffffffffffffffffffffffffffffffffffff16639de8ef79886040518263ffffffff1660e01b8152600401808273ffffffffffffffffffffffffffffffffffffffff1673ffffffffffffffffffffffffffffffffffffffff16815260200191505060206040518083038186803b1580156123ad57600080fd5b505afa1580156123c1573d6000803e3d6000fd5b505050506040513d60208110156123d757600080fd5b810190808051906020019092919050505061282d90919063ffffffff16565b905060006124e684600460009054906101000a900473ffffffffffffffffffffffffffffffffffffffff1673ffffffffffffffffffffffffffffffffffffffff1663266e2bd8896040518263ffffffff1660e01b8152600401808273ffffffffffffffffffffffffffffffffffffffff1673ffffffffffffffffffffffffffffffffffffffff16815260200191505060206040518083038186803b15801561249d57600080fd5b505afa1580156124b1573d6000803e3d6000fd5b505050506040513d60208110156124c757600080fd5b810190808051906020019092919050505061282d90919063ffffffff16565b9050600460009054906101000a900473ffffffffffffffffffffffffffffffffffffffff1673ffffffffffffffffffffffffffffffffffffffff1663988d240887846040518363ffffffff1660e01b8152600401808373ffffffffffffffffffffffffffffffffffffffff1673ffffffffffffffffffffffffffffffffffffffff16815260200182815260200192505050600060405180830381600087803b15801561259157600080fd5b505af11580156125a5573d6000803e3d6000fd5b50505050600460009054906101000a900473ffffffffffffffffffffffffffffffffffffffff1673ffffffffffffffffffffffffffffffffffffffff1663cd67c4f887836040518363ffffffff1660e01b8152600401808373ffffffffffffffffffffffffffffffffffffffff1673ffffffffffffffffffffffffffffffffffffffff16815260200182815260200192505050600060405180830381600087803b15801561265257600080fd5b505af1158015612666573d6000803e3d6000fd5b50505050505050505050565b600033905090565b612761846323b872dd60e01b858585604051602401808473ffffffffffffffffffffffffffffffffffffffff1673ffffffffffffffffffffffffffffffffffffffff1681526020018373ffffffffffffffffffffffffffffffffffffffff1673ffffffffffffffffffffffffffffffffffffffff1681526020018281526020019350505050604051602081830303815290604052907bffffffffffffffffffffffffffffffffffffffffffffffffffffffff19166020820180517bffffffffffffffffffffffffffffffffffffffffffffffffffffffff8381831617835250505050612877565b50505050565b60008083118290612813576040517f08c379a00000000000000000000000000000000000000000000000000000000081526004018080602001828103825283818151815260200191508051906020019080838360005b838110156127d85780820151818401526020810190506127bd565b50505050905090810190601f1680156128055780820380516001836020036101000a031916815260200191505b509250505060405180910390fd5b50600083858161281f57fe5b049050809150509392505050565b600061286f83836040518060400160405280601e81526020017f536166654d6174683a207375627472616374696f6e206f766572666c6f770000815250612966565b905092915050565b60606128d9826040518060400160405280602081526020017f5361666545524332303a206c6f772d6c6576656c2063616c6c206661696c65648152508573ffffffffffffffffffffffffffffffffffffffff16612a269092919063ffffffff16565b9050600081511115612961578080602001905160208110156128fa57600080fd5b8101908080519060200190929190505050612960576040517f08c379a000000000000000000000000000000000000000000000000000000000815260040180806020018281038252602a815260200180612d2e602a913960400191505060405180910390fd5b5b505050565b6000838311158290612a13576040517f08c379a00000000000000000000000000000000000000000000000000000000081526004018080602001828103825283818151815260200191508051906020019080838360005b838110156129d85780820151818401526020810190506129bd565b50505050905090810190601f168015612a055780820380516001836020036101000a031916815260200191505b509250505060405180910390fd5b5060008385039050809150509392505050565b6060612a358484600085612a3e565b90509392505050565b6060612a4985612c44565b612abb576040517f08c379a000000000000000000000000000000000000000000000000000000000815260040180806020018281038252601d8152602001807f416464726573733a2063616c6c20746f206e6f6e2d636f6e747261637400000081525060200191505060405180910390fd5b600060608673ffffffffffffffffffffffffffffffffffffffff1685876040518082805190602001908083835b60208310612b0b5780518252602082019150602081019050602083039250612ae8565b6001836020036101000a03801982511681845116808217855250505050505090500191505060006040518083038185875af1925050503d8060008114612b6d576040519150601f19603f3d011682016040523d82523d6000602084013e612b72565b606091505b50915091508115612b87578092505050612c3c565b600081511115612b9a5780518082602001fd5b836040517f08c379a00000000000000000000000000000000000000000000000000000000081526004018080602001828103825283818151815260200191508051906020019080838360005b83811015612c01578082015181840152602081019050612be6565b50505050905090810190601f168015612c2e5780820380516001836020036101000a031916815260200191505b509250505060405180910390fd5b949350505050565b600080823b90506000811191505091905056fe506f6f6c3a20416d6f756e74206d7573742062652067726561746572207468616e2030506f6f6c736572766963653a20796f752068617665206e6f7420656e6f75676820636f6c6c61746572616c4f776e61626c653a206e6577206f776e657220697320746865207a65726f2061646472657373506f6f6c536572766963653a204e6f7420656e6f756768206c697175696469747920617661696c61626c65506f6f6c3a205468657265206973206e6f7420656e6f756768206c697175696469747920617661696c61626c6520746f2072656465656d5361666545524332303a204552433230206f7065726174696f6e20646964206e6f742073756363656564a2646970667358221220b6fb53396f180a48854891f6f09452ea7371522ba95337827c3ceb99442f045864736f6c634300060a0033",
  "immutableReferences": {},
  "source": "// SPDX-License-Identifier: agpl-3.0\npragma solidity ^0.6.10;\n\nimport \"openzeppelin-solidity/contracts/math/SafeMath.sol\";\nimport \"openzeppelin-solidity/contracts/access/Ownable.sol\";\n\nimport \"../core/ILendingProvider.sol\";\nimport \"../lib/AddressStorage.sol\";\nimport \"../lib/SafeERC20.sol\";\nimport \"../lib/ERC20.sol\";\nimport \"../lib/EthAddressLib.sol\";\nimport \"../lib/WadRayMath.sol\";\nimport \"../repositories/ReserveRepository.sol\";\nimport \"../repositories/UserBalanceRepository.sol\";\nimport \"../core/IPriceRepository.sol\";\nimport \"../services/ProviderService.sol\";\nimport \"../services/RiskService.sol\";\nimport \"../token/VToken.sol\";\n\ncontract PoolService is Ownable {\n  using SafeMath for uint256;\n  using SafeERC20 for ERC20;\n  using WadRayMath for uint256;\n\n  AddressRepository private addressRepository;\n  ProviderService internal providerService;\n  ProviderRepository internal providerRepository;\n  ReserveRepository private reserveRepository;\n  UserBalanceRepository private userBalanceRepository;\n  IPriceRepository private priceRepository;\n  RiskService private riskService;\n\n  /**\n   * @dev emitted during a redeem action.\n   * @param _reserve the address of the reserve\n   * @param _user the address of the user\n   * @param _amount the amount to be deposited\n   * @param _timestamp the timestamp of the action\n   **/\n  event RedeemUnderlying(\n    address indexed _reserve,\n    address indexed _user,\n    uint256 _amount,\n    uint256 _timestamp\n  );\n\n  constructor(address _addressRepository) public {\n    addressRepository = AddressRepository(_addressRepository);\n    providerService = ProviderService(addressRepository.getProviderService());\n    providerRepository = ProviderRepository(\n      addressRepository.getProviderRepository()\n    );\n\n    reserveRepository = ReserveRepository(\n      addressRepository.getReserveRepository()\n    );\n\n    userBalanceRepository = UserBalanceRepository(\n      addressRepository.getUserBalanceRepository()\n    );\n\n    priceRepository = IPriceRepository(addressRepository.getPriceRepository());\n    riskService = RiskService(addressRepository.getRiskService());\n  }\n\n  modifier activeReserveOnly(address _reserve) {\n    require(\n      reserveRepository.isReserveActive(_reserve),\n      \"Pool: Reserve is not active\"\n    );\n    _;\n  }\n\n  /**\n   * @dev functions affected by this modifier can only be invoked if the provided _amount input parameter\n   * is not zero.\n   * @param _amount the amount provided\n   **/\n  modifier onlyAmountGreaterThanZero(uint256 _amount) {\n    requireAmountGreaterThanZeroInternal(_amount);\n    _;\n  }\n\n  function deposit(address _reserve, uint256 _amount)\n    external\n    payable\n    activeReserveOnly(_reserve)\n    onlyAmountGreaterThanZero(_amount)\n  {\n    address providerAddress = providerService\n      .getProviderWithHighestLiquidityRate(_reserve);\n\n    ILendingProvider provider = ILendingProvider(providerAddress);\n\n    // Transfer tokens to Pool contract and provide allowance\n    transferToReserve(_reserve, msg.sender, providerAddress, _amount);\n\n    // Approve for provider\n    provider.deposit(_reserve, _amount);\n    reserveRepository.addLiquidity(_reserve, _amount);\n    userBalanceRepository.increaseUserDeposit(_reserve, msg.sender, _amount);\n\n    VToken token = VToken(reserveRepository.getVTokenContract(_reserve));\n    token.mintOnDeposit(msg.sender, _amount);\n  }\n\n  // Add Secutiry modifirie for Vitamin tokens only\n  function redeemUnderlying(\n    address _reserve,\n    address payable _user,\n    uint256 _amount\n  ) external activeReserveOnly(_reserve) onlyAmountGreaterThanZero(_amount) {\n    _transferValueToUser(_reserve, _user, _amount);\n\n    userBalanceRepository.decreaseUserDeposit(_reserve, _user, _amount);\n\n    emit RedeemUnderlying(_reserve, _user, _amount, uint40(block.timestamp));\n  }\n\n  function borrow(address _reserve, uint256 _amount)\n    external\n    activeReserveOnly(_reserve)\n    onlyAmountGreaterThanZero(_amount)\n  {\n    require(\n      _amount <= providerService.getTotalAvaibleLiquidity(_reserve),\n      \"PoolService: Not enough liquidity available\"\n    );\n\n    uint256 reservePrice = priceRepository.getReservePriceInETH(_reserve);\n    uint256 maxAmount = riskService.getMaxAllowedLoanETH(msg.sender).div(\n      reservePrice\n    );\n\n    require(_amount < maxAmount, \"Poolservice: you have not enough collateral\");\n\n    _transferValueToUser(_reserve, msg.sender, _amount);\n    userBalanceRepository.increaseUserBorrow(_reserve, msg.sender, _amount);\n\n    // emit Borrow(_reserve, _user, _amount, uint40(block.timestamp));\n  }\n\n  function repay(address _reserve, uint256 _amount) external payable {}\n\n  function _transferValueToUser(\n    address _reserve,\n    address payable _user,\n    uint256 _amount\n  ) internal {\n    require(\n      providerService.getTotalAvaibleLiquidity(_reserve) > _amount,\n      \"Pool: There is not enough liquidity available to redeem\"\n    );\n\n    // ToDo: Add check that msg.sender has enough tokens!\n\n    uint256 _amountLeft = _amount;\n    while (_amountLeft > 0) {\n      (address providerAddress, uint256 avaibleLiquidity) = providerService\n        .getProviderWithLowestLiquidityRate(_reserve);\n\n      // Calculate max sum we could take from this provider\n      uint256 sumToRedeem = _amountLeft < avaibleLiquidity\n        ? _amountLeft\n        : avaibleLiquidity;\n      ILendingProvider provider = ILendingProvider(providerAddress);\n\n      // Redeem this sum\n      provider.redeemUnderlying(_reserve, _user, sumToRedeem);\n\n      // ToDo: substract tokens(!)\n      _amountLeft = _amountLeft.sub(sumToRedeem);\n    }\n\n    uint256 updatedTotalLiquidity = reserveRepository\n      .getTotalLiquidity(_reserve)\n      .sub(_amount);\n    uint256 updatedAvailableLiquidity = reserveRepository\n      .getAvailableLiquidity(_reserve)\n      .sub(_amount);\n\n    reserveRepository.setTotalLiquidity(_reserve, updatedTotalLiquidity);\n    reserveRepository.setAvailableLiquidity(\n      _reserve,\n      updatedAvailableLiquidity\n    );\n  }\n\n  /**\n   * @notice internal function to save on code size for the onlyAmountGreaterThanZero modifier\n   **/\n  function requireAmountGreaterThanZeroInternal(uint256 _amount) internal pure {\n    require(_amount > 0, \"Pool: Amount must be greater than 0\");\n  }\n\n  /**\n   * @dev transfers an amount from a user to the destination reserve\n   * @param _reserve the address of the reserve where the amount is being transferred\n   * @param _user the address of the user from where the transfer is happening\n   * @param _amount the amount being transferred\n   **/\n  function transferToReserve(\n    address _reserve,\n    address payable _user,\n    address _to,\n    uint256 _amount\n  ) internal {\n//    if (_reserve != EthAddressLib.ethAddress()) {\n//      require(\n//        msg.value == 0,\n//        \"Pool: User is sending ETH along with the ERC20 transfer.\"\n//      );\n\n      ERC20(_reserve).safeTransferFrom(_user, _to, _amount);\n//    } else {\n//      require(\n//        msg.value >= _amount,\n//        \"Pool: The amount and the value sent to deposit do not match\"\n//      );\n//\n//      if (msg.value > _amount) {\n//        //send back excess ETH\n//        uint256 excessAmount = msg.value.sub(_amount);\n//        //solium-disable-next-line\n//        (bool result, ) = _user.call.value(excessAmount).gas(50000)(\"\");\n//        require(result, \"Pool: Transfer of ETH failed\");\n//      }\n//    }\n  }\n\n  function getReserveInfo(address _reserve)\n    external\n    view\n    returns (\n      string memory symbol,\n      uint256 totalLiquidity,\n      uint256 availableLiquidity,\n      uint256 loanToValue,\n      uint256 liquidationThreshold,\n      uint256 liquidationBonus,\n      uint256 borrowRate,\n      uint256 lendingRate,\n      address vTokenContract,\n      bool isActive\n    )\n  {\n    symbol = reserveRepository.getReserveSymbol(_reserve);\n    totalLiquidity = reserveRepository.getTotalLiquidity(_reserve);\n    availableLiquidity = reserveRepository.getAvailableLiquidity(_reserve);\n    loanToValue = reserveRepository.getLoanToValue(_reserve);\n    liquidationThreshold = reserveRepository.getLiquidationThreshold(_reserve);\n    liquidationBonus = reserveRepository.getLiquidationBonus(_reserve);\n    vTokenContract = address(reserveRepository.getVTokenContract(_reserve));\n    (lendingRate, borrowRate) = providerService.getBestRates(_reserve);\n    isActive = reserveRepository.isActive(_reserve);\n  }\n}\n",
  "sourcePath": "/Users/mikhail/Coding/jucifi/contracts/services/PoolService.sol",
  "compiler": {
    "name": "solc",
    "version": "0.6.10+commit.00c0fcaf.Emscripten.clang"
  },
  "schemaVersion": "3.2.5",
  "updatedAt": "2020-10-22T22:43:29.117Z",
  "networkType": "ethereum",
  "devdoc": {
    "methods": {
      "owner()": {
        "details": "Returns the address of the current owner."
      },
      "renounceOwnership()": {
        "details": "Leaves the contract without owner. It will not be possible to call `onlyOwner` functions anymore. Can only be called by the current owner. NOTE: Renouncing ownership will leave the contract without an owner, thereby removing any functionality that is only available to the owner."
      },
      "transferOwnership(address)": {
        "details": "Transfers ownership of the contract to a new account (`newOwner`). Can only be called by the current owner."
      }
    }
  },
  "userdoc": {
    "methods": {}
  }
}