{
  "contractName": "Pool",
  "abi": [
    {
      "inputs": [
        {
          "internalType": "address",
          "name": "_providersManager",
          "type": "address"
        }
      ],
      "stateMutability": "nonpayable",
      "type": "constructor"
    },
    {
      "inputs": [],
      "name": "owner",
      "outputs": [
        {
          "internalType": "address",
          "name": "",
          "type": "address"
        }
      ],
      "stateMutability": "view",
      "type": "function"
    },
    {
      "inputs": [
        {
          "internalType": "address",
          "name": "_reserve",
          "type": "address"
        },
        {
          "internalType": "address",
          "name": "_vTokenAddress",
          "type": "address"
        }
      ],
      "name": "addReserve",
      "outputs": [],
      "stateMutability": "nonpayable",
      "type": "function"
    },
    {
      "inputs": [
        {
          "internalType": "address",
          "name": "_reserve",
          "type": "address"
        },
        {
          "internalType": "uint256",
          "name": "_amount",
          "type": "uint256"
        }
      ],
      "name": "deposit",
      "outputs": [],
      "stateMutability": "payable",
      "type": "function"
    },
    {
      "inputs": [
        {
          "internalType": "address",
          "name": "_reserve",
          "type": "address"
        },
        {
          "internalType": "uint256",
          "name": "_amount",
          "type": "uint256"
        }
      ],
      "name": "redeem",
      "outputs": [],
      "stateMutability": "nonpayable",
      "type": "function"
    }
  ],
  "bytecode": "0x6080604052336000806101000a81548173ffffffffffffffffffffffffffffffffffffffff021916908373ffffffffffffffffffffffffffffffffffffffff16021790555034801561005057600080fd5b506040516112883803806112888339818101604052602081101561007357600080fd5b810190808051906020019092919050505080600160006101000a81548173ffffffffffffffffffffffffffffffffffffffff021916908373ffffffffffffffffffffffffffffffffffffffff160217905550506111b3806100d56000396000f3fe60806040526004361061003f5760003560e01c806319732621146100445780631e9a6950146100b557806347e7ef24146101105780638da5cb5b1461015e575b600080fd5b34801561005057600080fd5b506100b36004803603604081101561006757600080fd5b81019080803573ffffffffffffffffffffffffffffffffffffffff169060200190929190803573ffffffffffffffffffffffffffffffffffffffff1690602001909291905050506101b5565b005b3480156100c157600080fd5b5061010e600480360360408110156100d857600080fd5b81019080803573ffffffffffffffffffffffffffffffffffffffff1690602001909291908035906020019092919050505061033a565b005b61015c6004803603604081101561012657600080fd5b81019080803573ffffffffffffffffffffffffffffffffffffffff1690602001909291908035906020019092919050505061095e565b005b34801561016a57600080fd5b50610173610ecb565b604051808273ffffffffffffffffffffffffffffffffffffffff1673ffffffffffffffffffffffffffffffffffffffff16815260200191505060405180910390f35b6000809054906101000a900473ffffffffffffffffffffffffffffffffffffffff1673ffffffffffffffffffffffffffffffffffffffff163373ffffffffffffffffffffffffffffffffffffffff161461025a576040517f08c379a000000000000000000000000000000000000000000000000000000000815260040180806020018281038252602b815260200180611153602b913960400191505060405180910390fd5b80600260008473ffffffffffffffffffffffffffffffffffffffff1673ffffffffffffffffffffffffffffffffffffffff16815260200190815260200160002060020160006101000a81548173ffffffffffffffffffffffffffffffffffffffff021916908373ffffffffffffffffffffffffffffffffffffffff1602179055506001600260008473ffffffffffffffffffffffffffffffffffffffff1673ffffffffffffffffffffffffffffffffffffffff16815260200190815260200160002060020160146101000a81548160ff0219169083151502179055505050565b81600260008273ffffffffffffffffffffffffffffffffffffffff1673ffffffffffffffffffffffffffffffffffffffff16815260200190815260200160002060020160149054906101000a900460ff166103fd576040517f08c379a00000000000000000000000000000000000000000000000000000000081526004018080602001828103825260158152602001807f52657365727665206973206e6f7420616374697665000000000000000000000081525060200191505060405180910390fd5b8161040781610ef0565b6000600260008673ffffffffffffffffffffffffffffffffffffffff1673ffffffffffffffffffffffffffffffffffffffff16815260200190815260200160002060020160009054906101000a900473ffffffffffffffffffffffffffffffffffffffff16905060008173ffffffffffffffffffffffffffffffffffffffff166370a08231336040518263ffffffff1660e01b8152600401808273ffffffffffffffffffffffffffffffffffffffff1673ffffffffffffffffffffffffffffffffffffffff16815260200191505060206040518083038186803b1580156104ed57600080fd5b505afa158015610501573d6000803e3d6000fd5b505050506040513d602081101561051757600080fd5b8101908080519060200190929190505050905080851115610583576040517f08c379a000000000000000000000000000000000000000000000000000000000815260040180806020018281038252602681526020018061112d6026913960400191505060405180910390fd5b84600160009054906101000a900473ffffffffffffffffffffffffffffffffffffffff1673ffffffffffffffffffffffffffffffffffffffff1663476fe790886040518263ffffffff1660e01b8152600401808273ffffffffffffffffffffffffffffffffffffffff1673ffffffffffffffffffffffffffffffffffffffff16815260200191505060206040518083038186803b15801561062357600080fd5b505afa158015610637573d6000803e3d6000fd5b505050506040513d602081101561064d57600080fd5b8101908080519060200190929190505050116106b4576040517f08c379a00000000000000000000000000000000000000000000000000000000081526004018080602001828103825260318152602001806110fc6031913960400191505060405180910390fd5b60008590505b60008111156108b657600080600160009054906101000a900473ffffffffffffffffffffffffffffffffffffffff1673ffffffffffffffffffffffffffffffffffffffff1663f32a4baa8a6040518263ffffffff1660e01b8152600401808273ffffffffffffffffffffffffffffffffffffffff1673ffffffffffffffffffffffffffffffffffffffff168152602001915050604080518083038186803b15801561076457600080fd5b505afa158015610778573d6000803e3d6000fd5b505050506040513d604081101561078e57600080fd5b8101908080519060200190929190805190602001909291905050509150915060008184106107bc57816107be565b835b905060008390508073ffffffffffffffffffffffffffffffffffffffff1663935642cf8c33856040518463ffffffff1660e01b8152600401808473ffffffffffffffffffffffffffffffffffffffff1673ffffffffffffffffffffffffffffffffffffffff1681526020018373ffffffffffffffffffffffffffffffffffffffff1673ffffffffffffffffffffffffffffffffffffffff1681526020018281526020019350505050600060405180830381600087803b15801561088057600080fd5b505af1158015610894573d6000803e3d6000fd5b505050506108ab8286610f6990919063ffffffff16565b9450505050506106ba565b8273ffffffffffffffffffffffffffffffffffffffff16633dd4c85333886040518363ffffffff1660e01b8152600401808373ffffffffffffffffffffffffffffffffffffffff1673ffffffffffffffffffffffffffffffffffffffff16815260200182815260200192505050600060405180830381600087803b15801561093d57600080fd5b505af1158015610951573d6000803e3d6000fd5b5050505050505050505050565b81600260008273ffffffffffffffffffffffffffffffffffffffff1673ffffffffffffffffffffffffffffffffffffffff16815260200190815260200160002060020160149054906101000a900460ff16610a21576040517f08c379a00000000000000000000000000000000000000000000000000000000081526004018080602001828103825260158152602001807f52657365727665206973206e6f7420616374697665000000000000000000000081525060200191505060405180910390fd5b81610a2b81610ef0565b6000600160009054906101000a900473ffffffffffffffffffffffffffffffffffffffff1673ffffffffffffffffffffffffffffffffffffffff16639956db43866040518263ffffffff1660e01b8152600401808273ffffffffffffffffffffffffffffffffffffffff1673ffffffffffffffffffffffffffffffffffffffff16815260200191505060206040518083038186803b158015610acc57600080fd5b505afa158015610ae0573d6000803e3d6000fd5b505050506040513d6020811015610af657600080fd5b810190808051906020019092919050505090506000600160009054906101000a900473ffffffffffffffffffffffffffffffffffffffff1673ffffffffffffffffffffffffffffffffffffffff1663c49c7d8a836040518263ffffffff1660e01b8152600401808273ffffffffffffffffffffffffffffffffffffffff1673ffffffffffffffffffffffffffffffffffffffff16815260200191505060206040518083038186803b158015610baa57600080fd5b505afa158015610bbe573d6000803e3d6000fd5b505050506040513d6020811015610bd457600080fd5b810190808051906020019092919050505090508073ffffffffffffffffffffffffffffffffffffffff166347e7ef2487876040518363ffffffff1660e01b8152600401808373ffffffffffffffffffffffffffffffffffffffff1673ffffffffffffffffffffffffffffffffffffffff16815260200182815260200192505050600060405180830381600087803b158015610c6e57600080fd5b505af1158015610c82573d6000803e3d6000fd5b50505050610cdb85600260008973ffffffffffffffffffffffffffffffffffffffff1673ffffffffffffffffffffffffffffffffffffffff16815260200190815260200160002060000154610fb390919063ffffffff16565b600260008873ffffffffffffffffffffffffffffffffffffffff1673ffffffffffffffffffffffffffffffffffffffff16815260200190815260200160002060000181905550610d7685600260008973ffffffffffffffffffffffffffffffffffffffff1673ffffffffffffffffffffffffffffffffffffffff16815260200190815260200160002060000154610fb390919063ffffffff16565b600260008873ffffffffffffffffffffffffffffffffffffffff1673ffffffffffffffffffffffffffffffffffffffff168152602001908152602001600020600001819055506000600260008873ffffffffffffffffffffffffffffffffffffffff1673ffffffffffffffffffffffffffffffffffffffff16815260200190815260200160002060020160009054906101000a900473ffffffffffffffffffffffffffffffffffffffff1690508073ffffffffffffffffffffffffffffffffffffffff166394362e8b33886040518363ffffffff1660e01b8152600401808373ffffffffffffffffffffffffffffffffffffffff1673ffffffffffffffffffffffffffffffffffffffff16815260200182815260200192505050600060405180830381600087803b158015610eaa57600080fd5b505af1158015610ebe573d6000803e3d6000fd5b5050505050505050505050565b6000809054906101000a900473ffffffffffffffffffffffffffffffffffffffff1681565b60008111610f66576040517f08c379a000000000000000000000000000000000000000000000000000000000815260040180806020018281038252601d8152602001807f416d6f756e74206d7573742062652067726561746572207468616e203000000081525060200191505060405180910390fd5b50565b6000610fab83836040518060400160405280601e81526020017f536166654d6174683a207375627472616374696f6e206f766572666c6f77000081525061103b565b905092915050565b600080828401905083811015611031576040517f08c379a000000000000000000000000000000000000000000000000000000000815260040180806020018281038252601b8152602001807f536166654d6174683a206164646974696f6e206f766572666c6f77000000000081525060200191505060405180910390fd5b8091505092915050565b60008383111582906110e8576040517f08c379a00000000000000000000000000000000000000000000000000000000081526004018080602001828103825283818151815260200191508051906020019080838360005b838110156110ad578082015181840152602081019050611092565b50505050905090810190601f1680156110da5780820380516001836020036101000a031916815260200191505b509250505060405180910390fd5b506000838503905080915050939250505056fe5468657265206973206e6f7420656e6f756768206c697175696469747920617661696c61626c6520746f2072656465656d506f6f6c3a206e6f7420656e6f756768206d6f6e6579206f6e2075736572206163636f756e74546869732066756e6374696f6e20636f756c642062652063616c6c6564206279206f776e6572206f6e6c79a2646970667358221220b4c94a81467c58f25c4adcd2ea02aea2f42c8c6130247a06ff65554a979b0e3264736f6c634300060a0033",
  "immutableReferences": {},
  "source": "// SPDX-License-Identifier: agpl-3.0\npragma solidity ^0.6.10;\n\nimport \"openzeppelin-solidity/contracts/math/SafeMath.sol\";\nimport \"../helpers/AddressStorage.sol\";\nimport \"../interfaces/ILendingProvider.sol\";\nimport \"./ProvidersManager.sol\";\nimport \"../token/VToken.sol\";\n\ncontract Pool {\n  using SafeMath for uint256;\n  //   using WadRayMath for uint256;\n  address public owner = msg.sender;\n  ProvidersManager internal providersManager;\n\n  struct Reserve {\n    uint256 totalLiquidity;\n    uint256 availableLiquidity;\n    address vTokenContract;\n    bool isActive;\n  }\n\n  mapping(address => Reserve) reserves;\n\n  modifier activeReserveOnly(address _reserve) {\n    require(reserves[_reserve].isActive, \"Reserve is not active\");\n    _;\n  }\n\n  function addReserve(address _reserve, address _vTokenAddress)\n    public\n    onlyOwner\n  {\n    reserves[_reserve].vTokenContract = _vTokenAddress;\n    reserves[_reserve].isActive = true;\n  }\n\n  /**\n   * @dev functions affected by this modifier can only be invoked if the provided _amount input parameter\n   * is not zero.\n   * @param _amount the amount provided\n   **/\n  modifier onlyAmountGreaterThanZero(uint256 _amount) {\n    requireAmountGreaterThanZeroInternal(_amount);\n    _;\n  }\n\n  modifier onlyOwner {\n    require(msg.sender == owner, \"This function could be called by owner only\");\n    _;\n  }\n\n  constructor(address _providersManager) public {\n    providersManager = ProvidersManager(_providersManager);\n  }\n\n  function deposit(address _reserve, uint256 _amount)\n    external\n    payable\n    activeReserveOnly(_reserve)\n    onlyAmountGreaterThanZero(_amount)\n  {\n    address provider = providersManager.getProviderWithHighestLiquidityRate(\n      _reserve\n    );\n    ILendingProvider lendingP = providersManager.getProviderOrFail(provider);\n    lendingP.deposit(_reserve, _amount);\n    reserves[_reserve].totalLiquidity = reserves[_reserve].totalLiquidity.add(\n      _amount\n    );\n    reserves[_reserve].totalLiquidity = reserves[_reserve].totalLiquidity.add(\n      _amount\n    );\n\n    VToken token = VToken(reserves[_reserve].vTokenContract);\n    token.mintOnDeposit(msg.sender, _amount);\n  }\n\n  function redeem(address _reserve, uint256 _amount)\n    external\n    activeReserveOnly(_reserve)\n    onlyAmountGreaterThanZero(_amount)\n  {\n\n    VToken token = VToken(reserves[_reserve].vTokenContract);\n    uint256 userBalance = token.balanceOf(msg.sender);\n    require(_amount <= userBalance, \"Pool: not enough money on user account\");\n\n    require(\n      providersManager.getAvaibleLiquidity(_reserve) > _amount,\n      \"There is not enough liquidity available to redeem\"\n    );\n\n    // ToDo: Add check that msg.sender has enough tokens!\n\n    uint256 _amountLeft = _amount;\n    while (_amountLeft > 0) {\n      (address providerAddress, uint256 avaibleLiquidity) = providersManager\n        .getProviderWithLowestLiquidityRate(_reserve);\n\n      // Calculate max sum we could take from this provider\n      uint256 sumToRedeem =  _amountLeft < avaibleLiquidity\n        ? _amountLeft\n        : avaibleLiquidity;\n      ILendingProvider provider = ILendingProvider(providerAddress);\n\n      // Redeem this sum\n      provider.redeemUnderlying(_reserve, msg.sender, sumToRedeem);\n\n      // ToDo: substract tokens(!)\n\n      _amountLeft = _amountLeft.sub(sumToRedeem);\n    }\n\n    token.burnOnRedeem(msg.sender, _amount);\n  }\n\n  /**\n   * @notice internal function to save on code size for the onlyAmountGreaterThanZero modifier\n   **/\n  function requireAmountGreaterThanZeroInternal(uint256 _amount) internal pure {\n    require(_amount > 0, \"Amount must be greater than 0\");\n  }\n}\n",
  "sourcePath": "/Users/mikhail/Coding/jucifi/contracts/core/Pool.sol",
  "compiler": {
    "name": "solc",
    "version": "0.6.10+commit.00c0fcaf.Emscripten.clang"
  },
  "schemaVersion": "3.2.5",
  "updatedAt": "2020-10-17T11:06:17.306Z",
  "devdoc": {
    "methods": {}
  },
  "userdoc": {
    "methods": {}
  }
}