{
  "contractName": "PoolService",
  "abi": [
    {
      "inputs": [
        {
          "internalType": "address",
          "name": "_addressRepository",
          "type": "address"
        }
      ],
      "stateMutability": "nonpayable",
      "type": "constructor"
    },
    {
      "anonymous": false,
      "inputs": [
        {
          "indexed": true,
          "internalType": "address",
          "name": "previousOwner",
          "type": "address"
        },
        {
          "indexed": true,
          "internalType": "address",
          "name": "newOwner",
          "type": "address"
        }
      ],
      "name": "OwnershipTransferred",
      "type": "event"
    },
    {
      "anonymous": false,
      "inputs": [
        {
          "indexed": true,
          "internalType": "address",
          "name": "_reserve",
          "type": "address"
        },
        {
          "indexed": true,
          "internalType": "address",
          "name": "_user",
          "type": "address"
        },
        {
          "indexed": false,
          "internalType": "uint256",
          "name": "_amount",
          "type": "uint256"
        },
        {
          "indexed": false,
          "internalType": "uint256",
          "name": "_timestamp",
          "type": "uint256"
        }
      ],
      "name": "RedeemUnderlying",
      "type": "event"
    },
    {
      "inputs": [],
      "name": "owner",
      "outputs": [
        {
          "internalType": "address",
          "name": "",
          "type": "address"
        }
      ],
      "stateMutability": "view",
      "type": "function",
      "constant": true
    },
    {
      "inputs": [],
      "name": "renounceOwnership",
      "outputs": [],
      "stateMutability": "nonpayable",
      "type": "function"
    },
    {
      "inputs": [
        {
          "internalType": "address",
          "name": "newOwner",
          "type": "address"
        }
      ],
      "name": "transferOwnership",
      "outputs": [],
      "stateMutability": "nonpayable",
      "type": "function"
    },
    {
      "inputs": [
        {
          "internalType": "address",
          "name": "_reserve",
          "type": "address"
        },
        {
          "internalType": "uint256",
          "name": "_amount",
          "type": "uint256"
        }
      ],
      "name": "deposit",
      "outputs": [],
      "stateMutability": "payable",
      "type": "function",
      "payable": true
    },
    {
      "inputs": [
        {
          "internalType": "address",
          "name": "_reserve",
          "type": "address"
        },
        {
          "internalType": "address payable",
          "name": "_user",
          "type": "address"
        },
        {
          "internalType": "uint256",
          "name": "_amount",
          "type": "uint256"
        }
      ],
      "name": "redeemUnderlying",
      "outputs": [],
      "stateMutability": "nonpayable",
      "type": "function"
    },
    {
      "inputs": [
        {
          "internalType": "address",
          "name": "_reserve",
          "type": "address"
        },
        {
          "internalType": "uint256",
          "name": "_amount",
          "type": "uint256"
        }
      ],
      "name": "borrow",
      "outputs": [],
      "stateMutability": "nonpayable",
      "type": "function"
    },
    {
      "inputs": [
        {
          "internalType": "address",
          "name": "_reserve",
          "type": "address"
        },
        {
          "internalType": "uint256",
          "name": "_amount",
          "type": "uint256"
        }
      ],
      "name": "repay",
      "outputs": [],
      "stateMutability": "payable",
      "type": "function",
      "payable": true
    },
    {
      "inputs": [
        {
          "internalType": "address",
          "name": "_reserve",
          "type": "address"
        }
      ],
      "name": "getReserveInfo",
      "outputs": [
        {
          "internalType": "string",
          "name": "symbol",
          "type": "string"
        },
        {
          "internalType": "uint256",
          "name": "totalLiquidity",
          "type": "uint256"
        },
        {
          "internalType": "uint256",
          "name": "availableLiquidity",
          "type": "uint256"
        },
        {
          "internalType": "uint256",
          "name": "loanToValue",
          "type": "uint256"
        },
        {
          "internalType": "uint256",
          "name": "liquidationThreshold",
          "type": "uint256"
        },
        {
          "internalType": "uint256",
          "name": "liquidationBonus",
          "type": "uint256"
        },
        {
          "internalType": "uint256",
          "name": "borrowRate",
          "type": "uint256"
        },
        {
          "internalType": "uint256",
          "name": "lendingRate",
          "type": "uint256"
        },
        {
          "internalType": "address",
          "name": "vTokenContract",
          "type": "address"
        },
        {
          "internalType": "bool",
          "name": "isActive",
          "type": "bool"
        }
      ],
      "stateMutability": "view",
      "type": "function",
      "constant": true
    }
  ],
  "bytecode": "0x60806040523480156200001157600080fd5b5060405162003ad138038062003ad1833981810160405260208110156200003757600080fd5b810190808051906020019092919050505060006200005a620006a460201b60201c565b9050806000806101000a81548173ffffffffffffffffffffffffffffffffffffffff021916908373ffffffffffffffffffffffffffffffffffffffff1602179055508073ffffffffffffffffffffffffffffffffffffffff16600073ffffffffffffffffffffffffffffffffffffffff167f8be0079c531659141344cd1fd0a4f28419497f9722a3daafe3b4186f6b6457e060405160405180910390a35080600160006101000a81548173ffffffffffffffffffffffffffffffffffffffff021916908373ffffffffffffffffffffffffffffffffffffffff160217905550600160009054906101000a900473ffffffffffffffffffffffffffffffffffffffff1673ffffffffffffffffffffffffffffffffffffffff16630a9bf54a6040518163ffffffff1660e01b815260040160206040518083038186803b158015620001a257600080fd5b505afa158015620001b7573d6000803e3d6000fd5b505050506040513d6020811015620001ce57600080fd5b8101908080519060200190929190505050600260006101000a81548173ffffffffffffffffffffffffffffffffffffffff021916908373ffffffffffffffffffffffffffffffffffffffff160217905550600160009054906101000a900473ffffffffffffffffffffffffffffffffffffffff1673ffffffffffffffffffffffffffffffffffffffff1663c15c03886040518163ffffffff1660e01b815260040160206040518083038186803b1580156200028857600080fd5b505afa1580156200029d573d6000803e3d6000fd5b505050506040513d6020811015620002b457600080fd5b8101908080519060200190929190505050600360006101000a81548173ffffffffffffffffffffffffffffffffffffffff021916908373ffffffffffffffffffffffffffffffffffffffff160217905550600160009054906101000a900473ffffffffffffffffffffffffffffffffffffffff1673ffffffffffffffffffffffffffffffffffffffff1663398b21966040518163ffffffff1660e01b815260040160206040518083038186803b1580156200036e57600080fd5b505afa15801562000383573d6000803e3d6000fd5b505050506040513d60208110156200039a57600080fd5b8101908080519060200190929190505050600460006101000a81548173ffffffffffffffffffffffffffffffffffffffff021916908373ffffffffffffffffffffffffffffffffffffffff160217905550600160009054906101000a900473ffffffffffffffffffffffffffffffffffffffff1673ffffffffffffffffffffffffffffffffffffffff166351ff7f0a6040518163ffffffff1660e01b815260040160206040518083038186803b1580156200045457600080fd5b505afa15801562000469573d6000803e3d6000fd5b505050506040513d60208110156200048057600080fd5b8101908080519060200190929190505050600560006101000a81548173ffffffffffffffffffffffffffffffffffffffff021916908373ffffffffffffffffffffffffffffffffffffffff160217905550600160009054906101000a900473ffffffffffffffffffffffffffffffffffffffff1673ffffffffffffffffffffffffffffffffffffffff1663c44548d26040518163ffffffff1660e01b815260040160206040518083038186803b1580156200053a57600080fd5b505afa1580156200054f573d6000803e3d6000fd5b505050506040513d60208110156200056657600080fd5b8101908080519060200190929190505050600660006101000a81548173ffffffffffffffffffffffffffffffffffffffff021916908373ffffffffffffffffffffffffffffffffffffffff160217905550600160009054906101000a900473ffffffffffffffffffffffffffffffffffffffff1673ffffffffffffffffffffffffffffffffffffffff16634190ac416040518163ffffffff1660e01b815260040160206040518083038186803b1580156200062057600080fd5b505afa15801562000635573d6000803e3d6000fd5b505050506040513d60208110156200064c57600080fd5b8101908080519060200190929190505050600760006101000a81548173ffffffffffffffffffffffffffffffffffffffff021916908373ffffffffffffffffffffffffffffffffffffffff16021790555050620006ac565b600033905090565b61341580620006bc6000396000f3fe60806040526004361061007b5760003560e01c8063715018a61161004e578063715018a6146102b05780638da5cb5b146102c7578063935642cf1461031e578063f2fde38b146103995761007b565b806322867d781461008057806347e7ef24146100ce5780634b8a35291461011c5780635b6333eb14610177575b600080fd5b6100cc6004803603604081101561009657600080fd5b81019080803573ffffffffffffffffffffffffffffffffffffffff169060200190929190803590602001909291905050506103ea565b005b61011a600480360360408110156100e457600080fd5b81019080803573ffffffffffffffffffffffffffffffffffffffff169060200190929190803590602001909291905050506103ee565b005b34801561012857600080fd5b506101756004803603604081101561013f57600080fd5b81019080803573ffffffffffffffffffffffffffffffffffffffff16906020019092919080359060200190929190505050610d8b565b005b34801561018357600080fd5b506101c66004803603602081101561019a57600080fd5b81019080803573ffffffffffffffffffffffffffffffffffffffff169060200190929190505050611342565b60405180806020018b81526020018a81526020018981526020018881526020018781526020018681526020018581526020018473ffffffffffffffffffffffffffffffffffffffff1673ffffffffffffffffffffffffffffffffffffffff1681526020018315151515815260200182810382528c818151815260200191508051906020019080838360005b8381101561026c578082015181840152602081019050610251565b50505050905090810190601f1680156102995780820380516001836020036101000a031916815260200191505b509b50505050505050505050505060405180910390f35b3480156102bc57600080fd5b506102c5611be8565b005b3480156102d357600080fd5b506102dc611d70565b604051808273ffffffffffffffffffffffffffffffffffffffff1673ffffffffffffffffffffffffffffffffffffffff16815260200191505060405180910390f35b34801561032a57600080fd5b506103976004803603606081101561034157600080fd5b81019080803573ffffffffffffffffffffffffffffffffffffffff169060200190929190803573ffffffffffffffffffffffffffffffffffffffff16906020019092919080359060200190929190505050611d99565b005b3480156103a557600080fd5b506103e8600480360360208110156103bc57600080fd5b81019080803573ffffffffffffffffffffffffffffffffffffffff16906020019092919050505061206b565b005b5050565b81600460009054906101000a900473ffffffffffffffffffffffffffffffffffffffff1673ffffffffffffffffffffffffffffffffffffffff1663883c042b826040518263ffffffff1660e01b8152600401808273ffffffffffffffffffffffffffffffffffffffff1673ffffffffffffffffffffffffffffffffffffffff16815260200191505060206040518083038186803b15801561048e57600080fd5b505afa1580156104a2573d6000803e3d6000fd5b505050506040513d60208110156104b857600080fd5b810190808051906020019092919050505061053b576040517f08c379a000000000000000000000000000000000000000000000000000000000815260040180806020018281038252601b8152602001807f506f6f6c3a2052657365727665206973206e6f7420616374697665000000000081525060200191505060405180910390fd5b8161054581612278565b6000600260009054906101000a900473ffffffffffffffffffffffffffffffffffffffff1673ffffffffffffffffffffffffffffffffffffffff16639956db43866040518263ffffffff1660e01b8152600401808273ffffffffffffffffffffffffffffffffffffffff1673ffffffffffffffffffffffffffffffffffffffff16815260200191505060206040518083038186803b1580156105e657600080fd5b505afa1580156105fa573d6000803e3d6000fd5b505050506040513d602081101561061057600080fd5b810190808051906020019092919050505090506000600360009054906101000a900473ffffffffffffffffffffffffffffffffffffffff1673ffffffffffffffffffffffffffffffffffffffff166360ba688e836040518263ffffffff1660e01b8152600401808273ffffffffffffffffffffffffffffffffffffffff1673ffffffffffffffffffffffffffffffffffffffff16815260200191505060206040518083038186803b1580156106c457600080fd5b505afa1580156106d8573d6000803e3d6000fd5b505050506040513d60208110156106ee57600080fd5b8101908080519060200190929190505050905061070d863384886122d4565b8073ffffffffffffffffffffffffffffffffffffffff166347e7ef2487876040518363ffffffff1660e01b8152600401808373ffffffffffffffffffffffffffffffffffffffff1673ffffffffffffffffffffffffffffffffffffffff16815260200182815260200192505050600060405180830381600087803b15801561079457600080fd5b505af11580156107a8573d6000803e3d6000fd5b50505050600061089a86600460009054906101000a900473ffffffffffffffffffffffffffffffffffffffff1673ffffffffffffffffffffffffffffffffffffffff16639de8ef798a6040518263ffffffff1660e01b8152600401808273ffffffffffffffffffffffffffffffffffffffff1673ffffffffffffffffffffffffffffffffffffffff16815260200191505060206040518083038186803b15801561085157600080fd5b505afa158015610865573d6000803e3d6000fd5b505050506040513d602081101561087b57600080fd5b81019080805190602001909291905050506124fc90919063ffffffff16565b9050600061098a87600460009054906101000a900473ffffffffffffffffffffffffffffffffffffffff1673ffffffffffffffffffffffffffffffffffffffff1663266e2bd88b6040518263ffffffff1660e01b8152600401808273ffffffffffffffffffffffffffffffffffffffff1673ffffffffffffffffffffffffffffffffffffffff16815260200191505060206040518083038186803b15801561094157600080fd5b505afa158015610955573d6000803e3d6000fd5b505050506040513d602081101561096b57600080fd5b81019080805190602001909291905050506124fc90919063ffffffff16565b9050600460009054906101000a900473ffffffffffffffffffffffffffffffffffffffff1673ffffffffffffffffffffffffffffffffffffffff1663988d240889846040518363ffffffff1660e01b8152600401808373ffffffffffffffffffffffffffffffffffffffff1673ffffffffffffffffffffffffffffffffffffffff16815260200182815260200192505050600060405180830381600087803b158015610a3557600080fd5b505af1158015610a49573d6000803e3d6000fd5b50505050600460009054906101000a900473ffffffffffffffffffffffffffffffffffffffff1673ffffffffffffffffffffffffffffffffffffffff1663cd67c4f889836040518363ffffffff1660e01b8152600401808373ffffffffffffffffffffffffffffffffffffffff1673ffffffffffffffffffffffffffffffffffffffff16815260200182815260200192505050600060405180830381600087803b158015610af657600080fd5b505af1158015610b0a573d6000803e3d6000fd5b50505050600560009054906101000a900473ffffffffffffffffffffffffffffffffffffffff1673ffffffffffffffffffffffffffffffffffffffff166309d6607189338a6040518463ffffffff1660e01b8152600401808473ffffffffffffffffffffffffffffffffffffffff1673ffffffffffffffffffffffffffffffffffffffff1681526020018373ffffffffffffffffffffffffffffffffffffffff1673ffffffffffffffffffffffffffffffffffffffff1681526020018281526020019350505050600060405180830381600087803b158015610beb57600080fd5b505af1158015610bff573d6000803e3d6000fd5b505050506000600460009054906101000a900473ffffffffffffffffffffffffffffffffffffffff1673ffffffffffffffffffffffffffffffffffffffff166372e06c0f8a6040518263ffffffff1660e01b8152600401808273ffffffffffffffffffffffffffffffffffffffff1673ffffffffffffffffffffffffffffffffffffffff16815260200191505060206040518083038186803b158015610ca457600080fd5b505afa158015610cb8573d6000803e3d6000fd5b505050506040513d6020811015610cce57600080fd5b810190808051906020019092919050505090508073ffffffffffffffffffffffffffffffffffffffff166394362e8b338a6040518363ffffffff1660e01b8152600401808373ffffffffffffffffffffffffffffffffffffffff1673ffffffffffffffffffffffffffffffffffffffff16815260200182815260200192505050600060405180830381600087803b158015610d6857600080fd5b505af1158015610d7c573d6000803e3d6000fd5b50505050505050505050505050565b81600460009054906101000a900473ffffffffffffffffffffffffffffffffffffffff1673ffffffffffffffffffffffffffffffffffffffff1663883c042b826040518263ffffffff1660e01b8152600401808273ffffffffffffffffffffffffffffffffffffffff1673ffffffffffffffffffffffffffffffffffffffff16815260200191505060206040518083038186803b158015610e2b57600080fd5b505afa158015610e3f573d6000803e3d6000fd5b505050506040513d6020811015610e5557600080fd5b8101908080519060200190929190505050610ed8576040517f08c379a000000000000000000000000000000000000000000000000000000000815260040180806020018281038252601b8152602001807f506f6f6c3a2052657365727665206973206e6f7420616374697665000000000081525060200191505060405180910390fd5b81610ee281612278565b600260009054906101000a900473ffffffffffffffffffffffffffffffffffffffff1673ffffffffffffffffffffffffffffffffffffffff1663ac885c24856040518263ffffffff1660e01b8152600401808273ffffffffffffffffffffffffffffffffffffffff1673ffffffffffffffffffffffffffffffffffffffff16815260200191505060206040518083038186803b158015610f8157600080fd5b505afa158015610f95573d6000803e3d6000fd5b505050506040513d6020811015610fab57600080fd5b8101908080519060200190929190505050831115611014576040517f08c379a000000000000000000000000000000000000000000000000000000000815260040180806020018281038252602b8152602001806132e1602b913960400191505060405180910390fd5b6000600660009054906101000a900473ffffffffffffffffffffffffffffffffffffffff1673ffffffffffffffffffffffffffffffffffffffff1663b6d3a35d866040518263ffffffff1660e01b8152600401808273ffffffffffffffffffffffffffffffffffffffff1673ffffffffffffffffffffffffffffffffffffffff16815260200191505060206040518083038186803b1580156110b557600080fd5b505afa1580156110c9573d6000803e3d6000fd5b505050506040513d60208110156110df57600080fd5b8101908080519060200190929190505050905060006111e082600760009054906101000a900473ffffffffffffffffffffffffffffffffffffffff1673ffffffffffffffffffffffffffffffffffffffff16638abaf4aa336040518263ffffffff1660e01b8152600401808273ffffffffffffffffffffffffffffffffffffffff1673ffffffffffffffffffffffffffffffffffffffff16815260200191505060206040518083038186803b15801561119757600080fd5b505afa1580156111ab573d6000803e3d6000fd5b505050506040513d60208110156111c157600080fd5b810190808051906020019092919050505061258490919063ffffffff16565b905080851061123a576040517f08c379a000000000000000000000000000000000000000000000000000000000815260040180806020018281038252602b815260200180613290602b913960400191505060405180910390fd5b6112458633876125ce565b600560009054906101000a900473ffffffffffffffffffffffffffffffffffffffff1673ffffffffffffffffffffffffffffffffffffffff1663c69dc70e8733886040518463ffffffff1660e01b8152600401808473ffffffffffffffffffffffffffffffffffffffff1673ffffffffffffffffffffffffffffffffffffffff1681526020018373ffffffffffffffffffffffffffffffffffffffff1673ffffffffffffffffffffffffffffffffffffffff1681526020018281526020019350505050600060405180830381600087803b15801561132257600080fd5b505af1158015611336573d6000803e3d6000fd5b50505050505050505050565b60606000806000806000806000806000600460009054906101000a900473ffffffffffffffffffffffffffffffffffffffff1673ffffffffffffffffffffffffffffffffffffffff1663a5fa87518c6040518263ffffffff1660e01b8152600401808273ffffffffffffffffffffffffffffffffffffffff1673ffffffffffffffffffffffffffffffffffffffff16815260200191505060006040518083038186803b1580156113f157600080fd5b505afa158015611405573d6000803e3d6000fd5b505050506040513d6000823e3d601f19601f82011682018060405250602081101561142f57600080fd5b810190808051604051939291908464010000000082111561144f57600080fd5b8382019150602082018581111561146557600080fd5b825186600182028301116401000000008211171561148257600080fd5b8083526020830192505050908051906020019080838360005b838110156114b657808201518184015260208101905061149b565b50505050905090810190601f1680156114e35780820380516001836020036101000a031916815260200191505b506040525050509950600460009054906101000a900473ffffffffffffffffffffffffffffffffffffffff1673ffffffffffffffffffffffffffffffffffffffff16639de8ef798c6040518263ffffffff1660e01b8152600401808273ffffffffffffffffffffffffffffffffffffffff1673ffffffffffffffffffffffffffffffffffffffff16815260200191505060206040518083038186803b15801561158b57600080fd5b505afa15801561159f573d6000803e3d6000fd5b505050506040513d60208110156115b557600080fd5b81019080805190602001909291905050509850600460009054906101000a900473ffffffffffffffffffffffffffffffffffffffff1673ffffffffffffffffffffffffffffffffffffffff1663266e2bd88c6040518263ffffffff1660e01b8152600401808273ffffffffffffffffffffffffffffffffffffffff1673ffffffffffffffffffffffffffffffffffffffff16815260200191505060206040518083038186803b15801561166757600080fd5b505afa15801561167b573d6000803e3d6000fd5b505050506040513d602081101561169157600080fd5b81019080805190602001909291905050509750600460009054906101000a900473ffffffffffffffffffffffffffffffffffffffff1673ffffffffffffffffffffffffffffffffffffffff1663fcda065e8c6040518263ffffffff1660e01b8152600401808273ffffffffffffffffffffffffffffffffffffffff1673ffffffffffffffffffffffffffffffffffffffff16815260200191505060206040518083038186803b15801561174357600080fd5b505afa158015611757573d6000803e3d6000fd5b505050506040513d602081101561176d57600080fd5b81019080805190602001909291905050509650600460009054906101000a900473ffffffffffffffffffffffffffffffffffffffff1673ffffffffffffffffffffffffffffffffffffffff16637b86e42c8c6040518263ffffffff1660e01b8152600401808273ffffffffffffffffffffffffffffffffffffffff1673ffffffffffffffffffffffffffffffffffffffff16815260200191505060206040518083038186803b15801561181f57600080fd5b505afa158015611833573d6000803e3d6000fd5b505050506040513d602081101561184957600080fd5b81019080805190602001909291905050509550600460009054906101000a900473ffffffffffffffffffffffffffffffffffffffff1673ffffffffffffffffffffffffffffffffffffffff16632db387bd8c6040518263ffffffff1660e01b8152600401808273ffffffffffffffffffffffffffffffffffffffff1673ffffffffffffffffffffffffffffffffffffffff16815260200191505060206040518083038186803b1580156118fb57600080fd5b505afa15801561190f573d6000803e3d6000fd5b505050506040513d602081101561192557600080fd5b81019080805190602001909291905050509450600460009054906101000a900473ffffffffffffffffffffffffffffffffffffffff1673ffffffffffffffffffffffffffffffffffffffff166372e06c0f8c6040518263ffffffff1660e01b8152600401808273ffffffffffffffffffffffffffffffffffffffff1673ffffffffffffffffffffffffffffffffffffffff16815260200191505060206040518083038186803b1580156119d757600080fd5b505afa1580156119eb573d6000803e3d6000fd5b505050506040513d6020811015611a0157600080fd5b81019080805190602001909291905050509150600260009054906101000a900473ffffffffffffffffffffffffffffffffffffffff1673ffffffffffffffffffffffffffffffffffffffff16639b90168d8c6040518263ffffffff1660e01b8152600401808273ffffffffffffffffffffffffffffffffffffffff1673ffffffffffffffffffffffffffffffffffffffff168152602001915050604080518083038186803b158015611ab257600080fd5b505afa158015611ac6573d6000803e3d6000fd5b505050506040513d6040811015611adc57600080fd5b8101908080519060200190929190805190602001909291905050508095508194505050600460009054906101000a900473ffffffffffffffffffffffffffffffffffffffff1673ffffffffffffffffffffffffffffffffffffffff16639f8a13d78c6040518263ffffffff1660e01b8152600401808273ffffffffffffffffffffffffffffffffffffffff1673ffffffffffffffffffffffffffffffffffffffff16815260200191505060206040518083038186803b158015611b9e57600080fd5b505afa158015611bb2573d6000803e3d6000fd5b505050506040513d6020811015611bc857600080fd5b810190808051906020019092919050505090509193959799509193959799565b611bf0612c6b565b73ffffffffffffffffffffffffffffffffffffffff166000809054906101000a900473ffffffffffffffffffffffffffffffffffffffff1673ffffffffffffffffffffffffffffffffffffffff1614611cb1576040517f08c379a00000000000000000000000000000000000000000000000000000000081526004018080602001828103825260208152602001807f4f776e61626c653a2063616c6c6572206973206e6f7420746865206f776e657281525060200191505060405180910390fd5b600073ffffffffffffffffffffffffffffffffffffffff166000809054906101000a900473ffffffffffffffffffffffffffffffffffffffff1673ffffffffffffffffffffffffffffffffffffffff167f8be0079c531659141344cd1fd0a4f28419497f9722a3daafe3b4186f6b6457e060405160405180910390a360008060006101000a81548173ffffffffffffffffffffffffffffffffffffffff021916908373ffffffffffffffffffffffffffffffffffffffff160217905550565b60008060009054906101000a900473ffffffffffffffffffffffffffffffffffffffff16905090565b82600460009054906101000a900473ffffffffffffffffffffffffffffffffffffffff1673ffffffffffffffffffffffffffffffffffffffff1663883c042b826040518263ffffffff1660e01b8152600401808273ffffffffffffffffffffffffffffffffffffffff1673ffffffffffffffffffffffffffffffffffffffff16815260200191505060206040518083038186803b158015611e3957600080fd5b505afa158015611e4d573d6000803e3d6000fd5b505050506040513d6020811015611e6357600080fd5b8101908080519060200190929190505050611ee6576040517f08c379a000000000000000000000000000000000000000000000000000000000815260040180806020018281038252601b8152602001807f506f6f6c3a2052657365727665206973206e6f7420616374697665000000000081525060200191505060405180910390fd5b81611ef081612278565b611efb8585856125ce565b600560009054906101000a900473ffffffffffffffffffffffffffffffffffffffff1673ffffffffffffffffffffffffffffffffffffffff1663c3aa039d8686866040518463ffffffff1660e01b8152600401808473ffffffffffffffffffffffffffffffffffffffff1673ffffffffffffffffffffffffffffffffffffffff1681526020018373ffffffffffffffffffffffffffffffffffffffff1673ffffffffffffffffffffffffffffffffffffffff1681526020018281526020019350505050600060405180830381600087803b158015611fd857600080fd5b505af1158015611fec573d6000803e3d6000fd5b505050508373ffffffffffffffffffffffffffffffffffffffff168573ffffffffffffffffffffffffffffffffffffffff167f9c4ed599cd8555b9c1e8cd7643240d7d71eb76b792948c49fcb4d411f7b6b3c68542604051808381526020018264ffffffffff1681526020019250505060405180910390a35050505050565b612073612c6b565b73ffffffffffffffffffffffffffffffffffffffff166000809054906101000a900473ffffffffffffffffffffffffffffffffffffffff1673ffffffffffffffffffffffffffffffffffffffff1614612134576040517f08c379a00000000000000000000000000000000000000000000000000000000081526004018080602001828103825260208152602001807f4f776e61626c653a2063616c6c6572206973206e6f7420746865206f776e657281525060200191505060405180910390fd5b600073ffffffffffffffffffffffffffffffffffffffff168173ffffffffffffffffffffffffffffffffffffffff1614156121ba576040517f08c379a00000000000000000000000000000000000000000000000000000000081526004018080602001828103825260268152602001806132bb6026913960400191505060405180910390fd5b8073ffffffffffffffffffffffffffffffffffffffff166000809054906101000a900473ffffffffffffffffffffffffffffffffffffffff1673ffffffffffffffffffffffffffffffffffffffff167f8be0079c531659141344cd1fd0a4f28419497f9722a3daafe3b4186f6b6457e060405160405180910390a3806000806101000a81548173ffffffffffffffffffffffffffffffffffffffff021916908373ffffffffffffffffffffffffffffffffffffffff16021790555050565b600081116122d1576040517f08c379a000000000000000000000000000000000000000000000000000000000815260040180806020018281038252602381526020018061326d6023913960400191505060405180910390fd5b50565b6122dc612c73565b73ffffffffffffffffffffffffffffffffffffffff168473ffffffffffffffffffffffffffffffffffffffff16146123995760003414612367576040517f08c379a00000000000000000000000000000000000000000000000000000000081526004018080602001828103825260388152602001806133a86038913960400191505060405180910390fd5b6123948383838773ffffffffffffffffffffffffffffffffffffffff16612c8f909392919063ffffffff16565b6124f6565b803410156123f2576040517f08c379a000000000000000000000000000000000000000000000000000000000815260040180806020018281038252603b815260200180613343603b913960400191505060405180910390fd5b803411156124f557600061240f8234612d7c90919063ffffffff16565b905060008473ffffffffffffffffffffffffffffffffffffffff168261c35090604051806000019050600060405180830381858888f193505050503d8060008114612476576040519150601f19603f3d011682016040523d82523d6000602084013e61247b565b606091505b50509050806124f2576040517f08c379a000000000000000000000000000000000000000000000000000000000815260040180806020018281038252601c8152602001807f506f6f6c3a205472616e73666572206f6620455448206661696c65640000000081525060200191505060405180910390fd5b50505b5b50505050565b60008082840190508381101561257a576040517f08c379a000000000000000000000000000000000000000000000000000000000815260040180806020018281038252601b8152602001807f536166654d6174683a206164646974696f6e206f766572666c6f77000000000081525060200191505060405180910390fd5b8091505092915050565b60006125c683836040518060400160405280601a81526020017f536166654d6174683a206469766973696f6e206279207a65726f000000000000815250612dc6565b905092915050565b80600260009054906101000a900473ffffffffffffffffffffffffffffffffffffffff1673ffffffffffffffffffffffffffffffffffffffff1663ac885c24856040518263ffffffff1660e01b8152600401808273ffffffffffffffffffffffffffffffffffffffff1673ffffffffffffffffffffffffffffffffffffffff16815260200191505060206040518083038186803b15801561266e57600080fd5b505afa158015612682573d6000803e3d6000fd5b505050506040513d602081101561269857600080fd5b8101908080519060200190929190505050116126ff576040517f08c379a000000000000000000000000000000000000000000000000000000000815260040180806020018281038252603781526020018061330c6037913960400191505060405180910390fd5b60008190505b600081111561290157600080600260009054906101000a900473ffffffffffffffffffffffffffffffffffffffff1673ffffffffffffffffffffffffffffffffffffffff1663f32a4baa876040518263ffffffff1660e01b8152600401808273ffffffffffffffffffffffffffffffffffffffff1673ffffffffffffffffffffffffffffffffffffffff168152602001915050604080518083038186803b1580156127af57600080fd5b505afa1580156127c3573d6000803e3d6000fd5b505050506040513d60408110156127d957600080fd5b8101908080519060200190929190805190602001909291905050509150915060008184106128075781612809565b835b905060008390508073ffffffffffffffffffffffffffffffffffffffff1663935642cf8989856040518463ffffffff1660e01b8152600401808473ffffffffffffffffffffffffffffffffffffffff1673ffffffffffffffffffffffffffffffffffffffff1681526020018373ffffffffffffffffffffffffffffffffffffffff1673ffffffffffffffffffffffffffffffffffffffff1681526020018281526020019350505050600060405180830381600087803b1580156128cb57600080fd5b505af11580156128df573d6000803e3d6000fd5b505050506128f68286612d7c90919063ffffffff16565b945050505050612705565b60006129ef83600460009054906101000a900473ffffffffffffffffffffffffffffffffffffffff1673ffffffffffffffffffffffffffffffffffffffff16639de8ef79886040518263ffffffff1660e01b8152600401808273ffffffffffffffffffffffffffffffffffffffff1673ffffffffffffffffffffffffffffffffffffffff16815260200191505060206040518083038186803b1580156129a657600080fd5b505afa1580156129ba573d6000803e3d6000fd5b505050506040513d60208110156129d057600080fd5b8101908080519060200190929190505050612d7c90919063ffffffff16565b90506000612adf84600460009054906101000a900473ffffffffffffffffffffffffffffffffffffffff1673ffffffffffffffffffffffffffffffffffffffff1663266e2bd8896040518263ffffffff1660e01b8152600401808273ffffffffffffffffffffffffffffffffffffffff1673ffffffffffffffffffffffffffffffffffffffff16815260200191505060206040518083038186803b158015612a9657600080fd5b505afa158015612aaa573d6000803e3d6000fd5b505050506040513d6020811015612ac057600080fd5b8101908080519060200190929190505050612d7c90919063ffffffff16565b9050600460009054906101000a900473ffffffffffffffffffffffffffffffffffffffff1673ffffffffffffffffffffffffffffffffffffffff1663988d240887846040518363ffffffff1660e01b8152600401808373ffffffffffffffffffffffffffffffffffffffff1673ffffffffffffffffffffffffffffffffffffffff16815260200182815260200192505050600060405180830381600087803b158015612b8a57600080fd5b505af1158015612b9e573d6000803e3d6000fd5b50505050600460009054906101000a900473ffffffffffffffffffffffffffffffffffffffff1673ffffffffffffffffffffffffffffffffffffffff1663cd67c4f887836040518363ffffffff1660e01b8152600401808373ffffffffffffffffffffffffffffffffffffffff1673ffffffffffffffffffffffffffffffffffffffff16815260200182815260200192505050600060405180830381600087803b158015612c4b57600080fd5b505af1158015612c5f573d6000803e3d6000fd5b50505050505050505050565b600033905090565b600073eeeeeeeeeeeeeeeeeeeeeeeeeeeeeeeeeeeeeeee905090565b612d76846323b872dd60e01b858585604051602401808473ffffffffffffffffffffffffffffffffffffffff1673ffffffffffffffffffffffffffffffffffffffff1681526020018373ffffffffffffffffffffffffffffffffffffffff1673ffffffffffffffffffffffffffffffffffffffff1681526020018281526020019350505050604051602081830303815290604052907bffffffffffffffffffffffffffffffffffffffffffffffffffffffff19166020820180517bffffffffffffffffffffffffffffffffffffffffffffffffffffffff8381831617835250505050612e8c565b50505050565b6000612dbe83836040518060400160405280601e81526020017f536166654d6174683a207375627472616374696f6e206f766572666c6f770000815250612f7b565b905092915050565b60008083118290612e72576040517f08c379a00000000000000000000000000000000000000000000000000000000081526004018080602001828103825283818151815260200191508051906020019080838360005b83811015612e37578082015181840152602081019050612e1c565b50505050905090810190601f168015612e645780820380516001836020036101000a031916815260200191505b509250505060405180910390fd5b506000838581612e7e57fe5b049050809150509392505050565b6060612eee826040518060400160405280602081526020017f5361666545524332303a206c6f772d6c6576656c2063616c6c206661696c65648152508573ffffffffffffffffffffffffffffffffffffffff1661303b9092919063ffffffff16565b9050600081511115612f7657808060200190516020811015612f0f57600080fd5b8101908080519060200190929190505050612f75576040517f08c379a000000000000000000000000000000000000000000000000000000000815260040180806020018281038252602a81526020018061337e602a913960400191505060405180910390fd5b5b505050565b6000838311158290613028576040517f08c379a00000000000000000000000000000000000000000000000000000000081526004018080602001828103825283818151815260200191508051906020019080838360005b83811015612fed578082015181840152602081019050612fd2565b50505050905090810190601f16801561301a5780820380516001836020036101000a031916815260200191505b509250505060405180910390fd5b5060008385039050809150509392505050565b606061304a8484600085613053565b90509392505050565b606061305e85613259565b6130d0576040517f08c379a000000000000000000000000000000000000000000000000000000000815260040180806020018281038252601d8152602001807f416464726573733a2063616c6c20746f206e6f6e2d636f6e747261637400000081525060200191505060405180910390fd5b600060608673ffffffffffffffffffffffffffffffffffffffff1685876040518082805190602001908083835b6020831061312057805182526020820191506020810190506020830392506130fd565b6001836020036101000a03801982511681845116808217855250505050505090500191505060006040518083038185875af1925050503d8060008114613182576040519150601f19603f3d011682016040523d82523d6000602084013e613187565b606091505b5091509150811561319c578092505050613251565b6000815111156131af5780518082602001fd5b836040517f08c379a00000000000000000000000000000000000000000000000000000000081526004018080602001828103825283818151815260200191508051906020019080838360005b838110156132165780820151818401526020810190506131fb565b50505050905090810190601f1680156132435780820380516001836020036101000a031916815260200191505b509250505060405180910390fd5b949350505050565b600080823b90506000811191505091905056fe506f6f6c3a20416d6f756e74206d7573742062652067726561746572207468616e2030506f6f6c736572766963653a20796f752068617665206e6f7420656e6f75676820636f6c6c61746572616c4f776e61626c653a206e6577206f776e657220697320746865207a65726f2061646472657373506f6f6c536572766963653a204e6f7420656e6f756768206c697175696469747920617661696c61626c65506f6f6c3a205468657265206973206e6f7420656e6f756768206c697175696469747920617661696c61626c6520746f2072656465656d506f6f6c3a2054686520616d6f756e7420616e64207468652076616c75652073656e7420746f206465706f73697420646f206e6f74206d617463685361666545524332303a204552433230206f7065726174696f6e20646964206e6f742073756363656564506f6f6c3a20557365722069732073656e64696e672045544820616c6f6e67207769746820746865204552433230207472616e736665722ea2646970667358221220681ba70f2dc10184d5ab765ee51088dc26bb2d523a3f50c993b06ca4b775bfc264736f6c634300060a0033",
  "immutableReferences": {},
  "source": "// SPDX-License-Identifier: agpl-3.0\npragma solidity ^0.6.10;\n\nimport \"openzeppelin-solidity/contracts/math/SafeMath.sol\";\nimport \"openzeppelin-solidity/contracts/access/Ownable.sol\";\n\nimport \"../core/ILendingProvider.sol\";\nimport \"../lib/AddressStorage.sol\";\nimport \"../lib/SafeERC20.sol\";\nimport \"../lib/ERC20.sol\";\nimport \"../lib/EthAddressLib.sol\";\nimport \"../lib/WadRayMath.sol\";\nimport \"../repositories/ReserveRepository.sol\";\nimport \"../repositories/UserBalanceRepository.sol\";\nimport \"../core/IPriceRepository.sol\";\nimport \"../services/ProviderService.sol\";\nimport \"../services/RiskService.sol\";\nimport \"../token/VToken.sol\";\n\ncontract PoolService is Ownable {\n  using SafeMath for uint256;\n  using SafeERC20 for ERC20;\n  using WadRayMath for uint256;\n\n  AddressRepository private addressRepository;\n  ProviderService internal providerService;\n  ProviderRepository internal providerRepository;\n  ReserveRepository private reserveRepository;\n  UserBalanceRepository private userBalanceRepository;\n  IPriceRepository private priceRepository;\n  RiskService private riskService;\n\n  /**\n   * @dev emitted during a redeem action.\n   * @param _reserve the address of the reserve\n   * @param _user the address of the user\n   * @param _amount the amount to be deposited\n   * @param _timestamp the timestamp of the action\n   **/\n  event RedeemUnderlying(\n    address indexed _reserve,\n    address indexed _user,\n    uint256 _amount,\n    uint256 _timestamp\n  );\n\n  constructor(address _addressRepository) public {\n    addressRepository = AddressRepository(_addressRepository);\n    providerService = ProviderService(addressRepository.getProviderService());\n    providerRepository = ProviderRepository(\n      addressRepository.getProviderRepository()\n    );\n\n    reserveRepository = ReserveRepository(\n      addressRepository.getReserveRepository()\n    );\n\n    userBalanceRepository = UserBalanceRepository(\n      addressRepository.getUserBalanceRepository()\n    );\n\n    priceRepository = IPriceRepository(addressRepository.getPriceRepository());\n    riskService = RiskService(addressRepository.getRiskService());\n  }\n\n  modifier activeReserveOnly(address _reserve) {\n    require(\n      reserveRepository.isReserveActive(_reserve),\n      \"Pool: Reserve is not active\"\n    );\n    _;\n  }\n\n  /**\n   * @dev functions affected by this modifier can only be invoked if the provided _amount input parameter\n   * is not zero.\n   * @param _amount the amount provided\n   **/\n  modifier onlyAmountGreaterThanZero(uint256 _amount) {\n    requireAmountGreaterThanZeroInternal(_amount);\n    _;\n  }\n\n  function deposit(address _reserve, uint256 _amount)\n    external\n    payable\n    activeReserveOnly(_reserve)\n    onlyAmountGreaterThanZero(_amount)\n  {\n    address providerAddress = providerService\n      .getProviderWithHighestLiquidityRate(_reserve);\n\n    ILendingProvider provider = providerRepository.getProviderByAddressOrFail(\n      providerAddress\n    );\n\n    // Transfer tokens to Pool contract and provide allowance\n    transferToReserve(_reserve, msg.sender, providerAddress, _amount);\n\n    // Approve for provider\n    provider.deposit(_reserve, _amount);\n\n    uint256 updatedTotalLiquidity = reserveRepository\n      .getTotalLiquidity(_reserve)\n      .add(_amount);\n    uint256 updatedAvailableLiquidity = reserveRepository\n      .getAvailableLiquidity(_reserve)\n      .add(_amount);\n\n    reserveRepository.setTotalLiquidity(_reserve, updatedTotalLiquidity);\n    reserveRepository.setAvailableLiquidity(\n      _reserve,\n      updatedAvailableLiquidity\n    );\n\n    userBalanceRepository.increaseUserDeposit(_reserve, msg.sender, _amount);\n\n    VToken token = reserveRepository.getVTokenContract(_reserve);\n    token.mintOnDeposit(msg.sender, _amount);\n  }\n\n  // Add Secutiry modifirie for Vitamin tokens only\n  function redeemUnderlying(\n    address _reserve,\n    address payable _user,\n    uint256 _amount\n  ) external activeReserveOnly(_reserve) onlyAmountGreaterThanZero(_amount) {\n    _transferValueToUser(_reserve, _user, _amount);\n\n    userBalanceRepository.decreaseUserDeposit(_reserve, _user, _amount);\n\n    emit RedeemUnderlying(_reserve, _user, _amount, uint40(block.timestamp));\n  }\n\n  function borrow(address _reserve, uint256 _amount)\n    external\n    activeReserveOnly(_reserve)\n    onlyAmountGreaterThanZero(_amount)\n  {\n    require(\n      _amount <= providerService.getTotalAvaibleLiquidity(_reserve),\n      \"PoolService: Not enough liquidity available\"\n    );\n\n    uint256 reservePrice = priceRepository.getReservePriceInETH(_reserve);\n    uint256 maxAmount = riskService.getMaxAllowedLoanETH(msg.sender).div(\n      reservePrice\n    );\n\n    require(_amount < maxAmount, \"Poolservice: you have not enough collateral\");\n\n    _transferValueToUser(_reserve, msg.sender, _amount);\n    userBalanceRepository.increaseUserBorrow(_reserve, msg.sender, _amount);\n\n    // emit Borrow(_reserve, _user, _amount, uint40(block.timestamp));\n  }\n\n  function repay(address _reserve, uint256 _amount) external payable {}\n\n  function _transferValueToUser(\n    address _reserve,\n    address payable _user,\n    uint256 _amount\n  ) internal {\n    require(\n      providerService.getTotalAvaibleLiquidity(_reserve) > _amount,\n      \"Pool: There is not enough liquidity available to redeem\"\n    );\n\n    // ToDo: Add check that msg.sender has enough tokens!\n\n    uint256 _amountLeft = _amount;\n    while (_amountLeft > 0) {\n      (address providerAddress, uint256 avaibleLiquidity) = providerService\n        .getProviderWithLowestLiquidityRate(_reserve);\n\n      // Calculate max sum we could take from this provider\n      uint256 sumToRedeem = _amountLeft < avaibleLiquidity\n        ? _amountLeft\n        : avaibleLiquidity;\n      ILendingProvider provider = ILendingProvider(providerAddress);\n\n      // Redeem this sum\n      provider.redeemUnderlying(_reserve, _user, sumToRedeem);\n\n      // ToDo: substract tokens(!)\n      _amountLeft = _amountLeft.sub(sumToRedeem);\n    }\n\n    uint256 updatedTotalLiquidity = reserveRepository\n      .getTotalLiquidity(_reserve)\n      .sub(_amount);\n    uint256 updatedAvailableLiquidity = reserveRepository\n      .getAvailableLiquidity(_reserve)\n      .sub(_amount);\n\n    reserveRepository.setTotalLiquidity(_reserve, updatedTotalLiquidity);\n    reserveRepository.setAvailableLiquidity(\n      _reserve,\n      updatedAvailableLiquidity\n    );\n  }\n\n  /**\n   * @notice internal function to save on code size for the onlyAmountGreaterThanZero modifier\n   **/\n  function requireAmountGreaterThanZeroInternal(uint256 _amount) internal pure {\n    require(_amount > 0, \"Pool: Amount must be greater than 0\");\n  }\n\n  /**\n   * @dev transfers an amount from a user to the destination reserve\n   * @param _reserve the address of the reserve where the amount is being transferred\n   * @param _user the address of the user from where the transfer is happening\n   * @param _amount the amount being transferred\n   **/\n  function transferToReserve(\n    address _reserve,\n    address payable _user,\n    address _to,\n    uint256 _amount\n  ) internal {\n    if (_reserve != EthAddressLib.ethAddress()) {\n      require(\n        msg.value == 0,\n        \"Pool: User is sending ETH along with the ERC20 transfer.\"\n      );\n\n      ERC20(_reserve).safeTransferFrom(_user, _to, _amount);\n    } else {\n      require(\n        msg.value >= _amount,\n        \"Pool: The amount and the value sent to deposit do not match\"\n      );\n\n      if (msg.value > _amount) {\n        //send back excess ETH\n        uint256 excessAmount = msg.value.sub(_amount);\n        //solium-disable-next-line\n        (bool result, ) = _user.call.value(excessAmount).gas(50000)(\"\");\n        require(result, \"Pool: Transfer of ETH failed\");\n      }\n    }\n  }\n\n  function getReserveInfo(address _reserve)\n    external\n    view\n    returns (\n      string memory symbol,\n      uint256 totalLiquidity,\n      uint256 availableLiquidity,\n      uint256 loanToValue,\n      uint256 liquidationThreshold,\n      uint256 liquidationBonus,\n      uint256 borrowRate,\n      uint256 lendingRate,\n      address vTokenContract,\n      bool isActive\n    )\n  {\n    symbol = reserveRepository.getReserveSymbol(_reserve);\n    totalLiquidity = reserveRepository.getTotalLiquidity(_reserve);\n    availableLiquidity = reserveRepository.getAvailableLiquidity(_reserve);\n    loanToValue = reserveRepository.getLoanToValue(_reserve);\n    liquidationThreshold = reserveRepository.getLiquidationThreshold(_reserve);\n    liquidationBonus = reserveRepository.getLiquidationBonus(_reserve);\n    vTokenContract = address(reserveRepository.getVTokenContract(_reserve));\n    (lendingRate, borrowRate) = providerService.getBestRates(_reserve);\n    isActive = reserveRepository.isActive(_reserve);\n  }\n}\n",
  "sourcePath": "/Users/mikhail/Coding/jucifi/contracts/services/PoolService.sol",
  "compiler": {
    "name": "solc",
    "version": "0.6.10+commit.00c0fcaf.Emscripten.clang"
  },
  "schemaVersion": "3.2.5",
  "updatedAt": "2020-10-22T00:01:15.121Z",
  "networkType": "ethereum",
  "devdoc": {
    "methods": {
      "owner()": {
        "details": "Returns the address of the current owner."
      },
      "renounceOwnership()": {
        "details": "Leaves the contract without owner. It will not be possible to call `onlyOwner` functions anymore. Can only be called by the current owner. NOTE: Renouncing ownership will leave the contract without an owner, thereby removing any functionality that is only available to the owner."
      },
      "transferOwnership(address)": {
        "details": "Transfers ownership of the contract to a new account (`newOwner`). Can only be called by the current owner."
      }
    }
  },
  "userdoc": {
    "methods": {}
  }
}