{
  "contractName": "Pool",
  "abi": [
    {
      "inputs": [
        {
          "internalType": "address",
          "name": "_providersManager",
          "type": "address"
        }
      ],
      "stateMutability": "nonpayable",
      "type": "constructor"
    },
    {
      "inputs": [],
      "name": "owner",
      "outputs": [
        {
          "internalType": "address",
          "name": "",
          "type": "address"
        }
      ],
      "stateMutability": "view",
      "type": "function"
    },
    {
      "inputs": [
        {
          "internalType": "address",
          "name": "_provider",
          "type": "address"
        },
        {
          "internalType": "address",
          "name": "_reserve",
          "type": "address"
        },
        {
          "internalType": "uint256",
          "name": "_amount",
          "type": "uint256"
        }
      ],
      "name": "deposit",
      "outputs": [],
      "stateMutability": "payable",
      "type": "function"
    }
  ],
  "bytecode": "0x6080604052336000806101000a81548173ffffffffffffffffffffffffffffffffffffffff021916908373ffffffffffffffffffffffffffffffffffffffff16021790555034801561005057600080fd5b5060405161044e38038061044e8339818101604052602081101561007357600080fd5b810190808051906020019092919050505080600160006101000a81548173ffffffffffffffffffffffffffffffffffffffff021916908373ffffffffffffffffffffffffffffffffffffffff16021790555050610379806100d56000396000f3fe6080604052600436106100295760003560e01c80638340f5491461002e5780638da5cb5b1461009c575b600080fd5b61009a6004803603606081101561004457600080fd5b81019080803573ffffffffffffffffffffffffffffffffffffffff169060200190929190803573ffffffffffffffffffffffffffffffffffffffff169060200190929190803590602001909291905050506100f3565b005b3480156100a857600080fd5b506100b16102a5565b604051808273ffffffffffffffffffffffffffffffffffffffff1673ffffffffffffffffffffffffffffffffffffffff16815260200191505060405180910390f35b806100fd816102ca565b6000600160009054906101000a900473ffffffffffffffffffffffffffffffffffffffff1673ffffffffffffffffffffffffffffffffffffffff1663c49c7d8a866040518263ffffffff1660e01b8152600401808273ffffffffffffffffffffffffffffffffffffffff1673ffffffffffffffffffffffffffffffffffffffff16815260200191505060206040518083038186803b15801561019e57600080fd5b505afa1580156101b2573d6000803e3d6000fd5b505050506040513d60208110156101c857600080fd5b810190808051906020019092919050505090508073ffffffffffffffffffffffffffffffffffffffff166347e7ef2485856040518363ffffffff1660e01b8152600401808373ffffffffffffffffffffffffffffffffffffffff1673ffffffffffffffffffffffffffffffffffffffff16815260200182815260200192505050602060405180830381600087803b15801561026257600080fd5b505af1158015610276573d6000803e3d6000fd5b505050506040513d602081101561028c57600080fd5b8101908080519060200190929190505050505050505050565b6000809054906101000a900473ffffffffffffffffffffffffffffffffffffffff1681565b60008111610340576040517f08c379a000000000000000000000000000000000000000000000000000000000815260040180806020018281038252601d8152602001807f416d6f756e74206d7573742062652067726561746572207468616e203000000081525060200191505060405180910390fd5b5056fea26469706673582212208a02faa795e3b4e77d0c8a46b1c16bf6f63d4cb7333e321b909db8663f2d981c64736f6c634300060a0033",
  "immutableReferences": {},
  "source": "// SPDX-License-Identifier: agpl-3.0\npragma solidity ^0.6.10;\n\nimport \"../helpers/AddressStorage.sol\";\nimport \"../interfaces/ILendingProvider.sol\";\nimport \"./ProvidersManager.sol\";\n\n\ncontract Pool {\n    address public owner = msg.sender;\n    ProviderManager internal providerManager;\n\n\n    /**\n     * @dev functions affected by this modifier can only be invoked if the provided _amount input parameter\n     * is not zero.\n     * @param _amount the amount provided\n     **/\n    modifier onlyAmountGreaterThanZero(uint256 _amount) {\n        requireAmountGreaterThanZeroInternal(_amount);\n        _;\n    }\n\n    modifier onlyOwner {\n        require(\n            msg.sender == owner,\n            \"This function could be called by owner only\"\n        );\n        _;\n    }\n\n    constructor(address _providersManager) public {\n        providerManager = ProviderManager(_providersManager);\n    }\n\n    function deposit(\n        address _provider,\n        address _reserve,\n        uint256 _amount\n    )\n        external\n        payable\n        // onlyUnfreezedReserve(_reserve)\n        onlyAmountGreaterThanZero(_amount)\n    {\n        ILendingProvider lendingP = providerManager.getProviderOrFail(_provider);\n        lendingP.deposit(_reserve, _amount);\n\n    }\n\n    /**\n     * @notice internal function to save on code size for the onlyAmountGreaterThanZero modifier\n     **/\n    function requireAmountGreaterThanZeroInternal(uint256 _amount)\n        internal\n        pure\n    {\n        require(_amount > 0, \"Amount must be greater than 0\");\n    }\n}\n",
  "sourcePath": "/Users/mikhail/Coding/jucifi/contracts/core/Pool.sol",
  "compiler": {
    "name": "solc",
    "version": "0.6.10+commit.00c0fcaf.Emscripten.clang"
  },
  "schemaVersion": "3.2.5",
  "updatedAt": "2020-10-07T21:06:40.133Z",
  "devdoc": {
    "methods": {}
  },
  "userdoc": {
    "methods": {}
  }
}