{
  "contractName": "PoolService",
  "abi": [
    {
      "inputs": [
        {
          "internalType": "address",
          "name": "_addressRepository",
          "type": "address"
        }
      ],
      "stateMutability": "nonpayable",
      "type": "constructor"
    },
    {
      "anonymous": false,
      "inputs": [
        {
          "indexed": true,
          "internalType": "address",
          "name": "previousOwner",
          "type": "address"
        },
        {
          "indexed": true,
          "internalType": "address",
          "name": "newOwner",
          "type": "address"
        }
      ],
      "name": "OwnershipTransferred",
      "type": "event"
    },
    {
      "anonymous": false,
      "inputs": [
        {
          "indexed": true,
          "internalType": "address",
          "name": "_reserve",
          "type": "address"
        },
        {
          "indexed": true,
          "internalType": "address",
          "name": "_user",
          "type": "address"
        },
        {
          "indexed": false,
          "internalType": "uint256",
          "name": "_amount",
          "type": "uint256"
        },
        {
          "indexed": false,
          "internalType": "uint256",
          "name": "_timestamp",
          "type": "uint256"
        }
      ],
      "name": "RedeemUnderlying",
      "type": "event"
    },
    {
      "inputs": [],
      "name": "owner",
      "outputs": [
        {
          "internalType": "address",
          "name": "",
          "type": "address"
        }
      ],
      "stateMutability": "view",
      "type": "function"
    },
    {
      "inputs": [],
      "name": "renounceOwnership",
      "outputs": [],
      "stateMutability": "nonpayable",
      "type": "function"
    },
    {
      "inputs": [
        {
          "internalType": "address",
          "name": "newOwner",
          "type": "address"
        }
      ],
      "name": "transferOwnership",
      "outputs": [],
      "stateMutability": "nonpayable",
      "type": "function"
    },
    {
      "inputs": [
        {
          "internalType": "address",
          "name": "_reserve",
          "type": "address"
        },
        {
          "internalType": "uint256",
          "name": "_amount",
          "type": "uint256"
        }
      ],
      "name": "deposit",
      "outputs": [],
      "stateMutability": "payable",
      "type": "function"
    },
    {
      "inputs": [
        {
          "internalType": "address",
          "name": "_reserve",
          "type": "address"
        },
        {
          "internalType": "address payable",
          "name": "_user",
          "type": "address"
        },
        {
          "internalType": "uint256",
          "name": "_amount",
          "type": "uint256"
        }
      ],
      "name": "redeemUnderlying",
      "outputs": [],
      "stateMutability": "nonpayable",
      "type": "function"
    },
    {
      "inputs": [
        {
          "internalType": "address",
          "name": "_reserve",
          "type": "address"
        },
        {
          "internalType": "uint256",
          "name": "_amount",
          "type": "uint256"
        }
      ],
      "name": "borrow",
      "outputs": [],
      "stateMutability": "nonpayable",
      "type": "function"
    },
    {
      "inputs": [
        {
          "internalType": "address",
          "name": "_reserve",
          "type": "address"
        },
        {
          "internalType": "uint256",
          "name": "_amount",
          "type": "uint256"
        }
      ],
      "name": "repay",
      "outputs": [],
      "stateMutability": "payable",
      "type": "function"
    }
  ],
  "bytecode": "0x60806040523480156200001157600080fd5b50604051620030e7380380620030e7833981810160405260208110156200003757600080fd5b810190808051906020019092919050505060006200005a620006a460201b60201c565b9050806000806101000a81548173ffffffffffffffffffffffffffffffffffffffff021916908373ffffffffffffffffffffffffffffffffffffffff1602179055508073ffffffffffffffffffffffffffffffffffffffff16600073ffffffffffffffffffffffffffffffffffffffff167f8be0079c531659141344cd1fd0a4f28419497f9722a3daafe3b4186f6b6457e060405160405180910390a35080600160006101000a81548173ffffffffffffffffffffffffffffffffffffffff021916908373ffffffffffffffffffffffffffffffffffffffff160217905550600160009054906101000a900473ffffffffffffffffffffffffffffffffffffffff1673ffffffffffffffffffffffffffffffffffffffff16630a9bf54a6040518163ffffffff1660e01b815260040160206040518083038186803b158015620001a257600080fd5b505afa158015620001b7573d6000803e3d6000fd5b505050506040513d6020811015620001ce57600080fd5b8101908080519060200190929190505050600260006101000a81548173ffffffffffffffffffffffffffffffffffffffff021916908373ffffffffffffffffffffffffffffffffffffffff160217905550600160009054906101000a900473ffffffffffffffffffffffffffffffffffffffff1673ffffffffffffffffffffffffffffffffffffffff1663c15c03886040518163ffffffff1660e01b815260040160206040518083038186803b1580156200028857600080fd5b505afa1580156200029d573d6000803e3d6000fd5b505050506040513d6020811015620002b457600080fd5b8101908080519060200190929190505050600360006101000a81548173ffffffffffffffffffffffffffffffffffffffff021916908373ffffffffffffffffffffffffffffffffffffffff160217905550600160009054906101000a900473ffffffffffffffffffffffffffffffffffffffff1673ffffffffffffffffffffffffffffffffffffffff1663398b21966040518163ffffffff1660e01b815260040160206040518083038186803b1580156200036e57600080fd5b505afa15801562000383573d6000803e3d6000fd5b505050506040513d60208110156200039a57600080fd5b8101908080519060200190929190505050600460006101000a81548173ffffffffffffffffffffffffffffffffffffffff021916908373ffffffffffffffffffffffffffffffffffffffff160217905550600160009054906101000a900473ffffffffffffffffffffffffffffffffffffffff1673ffffffffffffffffffffffffffffffffffffffff166351ff7f0a6040518163ffffffff1660e01b815260040160206040518083038186803b1580156200045457600080fd5b505afa15801562000469573d6000803e3d6000fd5b505050506040513d60208110156200048057600080fd5b8101908080519060200190929190505050600560006101000a81548173ffffffffffffffffffffffffffffffffffffffff021916908373ffffffffffffffffffffffffffffffffffffffff160217905550600160009054906101000a900473ffffffffffffffffffffffffffffffffffffffff1673ffffffffffffffffffffffffffffffffffffffff1663c44548d26040518163ffffffff1660e01b815260040160206040518083038186803b1580156200053a57600080fd5b505afa1580156200054f573d6000803e3d6000fd5b505050506040513d60208110156200056657600080fd5b8101908080519060200190929190505050600660006101000a81548173ffffffffffffffffffffffffffffffffffffffff021916908373ffffffffffffffffffffffffffffffffffffffff160217905550600160009054906101000a900473ffffffffffffffffffffffffffffffffffffffff1673ffffffffffffffffffffffffffffffffffffffff16634190ac416040518163ffffffff1660e01b815260040160206040518083038186803b1580156200062057600080fd5b505afa15801562000635573d6000803e3d6000fd5b505050506040513d60208110156200064c57600080fd5b8101908080519060200190929190505050600760006101000a81548173ffffffffffffffffffffffffffffffffffffffff021916908373ffffffffffffffffffffffffffffffffffffffff16021790555050620006ac565b600033905090565b612a2b80620006bc6000396000f3fe6080604052600436106100705760003560e01c8063715018a61161004e578063715018a61461016c5780638da5cb5b14610183578063935642cf146101da578063f2fde38b1461025557610070565b806322867d781461007557806347e7ef24146100c35780634b8a352914610111575b600080fd5b6100c16004803603604081101561008b57600080fd5b81019080803573ffffffffffffffffffffffffffffffffffffffff169060200190929190803590602001909291905050506102a6565b005b61010f600480360360408110156100d957600080fd5b81019080803573ffffffffffffffffffffffffffffffffffffffff169060200190929190803590602001909291905050506102aa565b005b34801561011d57600080fd5b5061016a6004803603604081101561013457600080fd5b81019080803573ffffffffffffffffffffffffffffffffffffffff16906020019092919080359060200190929190505050610c47565b005b34801561017857600080fd5b506101816111fe565b005b34801561018f57600080fd5b50610198611386565b604051808273ffffffffffffffffffffffffffffffffffffffff1673ffffffffffffffffffffffffffffffffffffffff16815260200191505060405180910390f35b3480156101e657600080fd5b50610253600480360360608110156101fd57600080fd5b81019080803573ffffffffffffffffffffffffffffffffffffffff169060200190929190803573ffffffffffffffffffffffffffffffffffffffff169060200190929190803590602001909291905050506113af565b005b34801561026157600080fd5b506102a46004803603602081101561027857600080fd5b81019080803573ffffffffffffffffffffffffffffffffffffffff169060200190929190505050611681565b005b5050565b81600460009054906101000a900473ffffffffffffffffffffffffffffffffffffffff1673ffffffffffffffffffffffffffffffffffffffff1663883c042b826040518263ffffffff1660e01b8152600401808273ffffffffffffffffffffffffffffffffffffffff1673ffffffffffffffffffffffffffffffffffffffff16815260200191505060206040518083038186803b15801561034a57600080fd5b505afa15801561035e573d6000803e3d6000fd5b505050506040513d602081101561037457600080fd5b81019080805190602001909291905050506103f7576040517f08c379a000000000000000000000000000000000000000000000000000000000815260040180806020018281038252601b8152602001807f506f6f6c3a2052657365727665206973206e6f7420616374697665000000000081525060200191505060405180910390fd5b816104018161188e565b6000600260009054906101000a900473ffffffffffffffffffffffffffffffffffffffff1673ffffffffffffffffffffffffffffffffffffffff16639956db43866040518263ffffffff1660e01b8152600401808273ffffffffffffffffffffffffffffffffffffffff1673ffffffffffffffffffffffffffffffffffffffff16815260200191505060206040518083038186803b1580156104a257600080fd5b505afa1580156104b6573d6000803e3d6000fd5b505050506040513d60208110156104cc57600080fd5b810190808051906020019092919050505090506000600360009054906101000a900473ffffffffffffffffffffffffffffffffffffffff1673ffffffffffffffffffffffffffffffffffffffff166360ba688e836040518263ffffffff1660e01b8152600401808273ffffffffffffffffffffffffffffffffffffffff1673ffffffffffffffffffffffffffffffffffffffff16815260200191505060206040518083038186803b15801561058057600080fd5b505afa158015610594573d6000803e3d6000fd5b505050506040513d60208110156105aa57600080fd5b810190808051906020019092919050505090506105c9863384886118ea565b8073ffffffffffffffffffffffffffffffffffffffff166347e7ef2487876040518363ffffffff1660e01b8152600401808373ffffffffffffffffffffffffffffffffffffffff1673ffffffffffffffffffffffffffffffffffffffff16815260200182815260200192505050600060405180830381600087803b15801561065057600080fd5b505af1158015610664573d6000803e3d6000fd5b50505050600061075686600460009054906101000a900473ffffffffffffffffffffffffffffffffffffffff1673ffffffffffffffffffffffffffffffffffffffff16639de8ef798a6040518263ffffffff1660e01b8152600401808273ffffffffffffffffffffffffffffffffffffffff1673ffffffffffffffffffffffffffffffffffffffff16815260200191505060206040518083038186803b15801561070d57600080fd5b505afa158015610721573d6000803e3d6000fd5b505050506040513d602081101561073757600080fd5b8101908080519060200190929190505050611b1290919063ffffffff16565b9050600061084687600460009054906101000a900473ffffffffffffffffffffffffffffffffffffffff1673ffffffffffffffffffffffffffffffffffffffff1663266e2bd88b6040518263ffffffff1660e01b8152600401808273ffffffffffffffffffffffffffffffffffffffff1673ffffffffffffffffffffffffffffffffffffffff16815260200191505060206040518083038186803b1580156107fd57600080fd5b505afa158015610811573d6000803e3d6000fd5b505050506040513d602081101561082757600080fd5b8101908080519060200190929190505050611b1290919063ffffffff16565b9050600460009054906101000a900473ffffffffffffffffffffffffffffffffffffffff1673ffffffffffffffffffffffffffffffffffffffff1663988d240889846040518363ffffffff1660e01b8152600401808373ffffffffffffffffffffffffffffffffffffffff1673ffffffffffffffffffffffffffffffffffffffff16815260200182815260200192505050600060405180830381600087803b1580156108f157600080fd5b505af1158015610905573d6000803e3d6000fd5b50505050600460009054906101000a900473ffffffffffffffffffffffffffffffffffffffff1673ffffffffffffffffffffffffffffffffffffffff1663cd67c4f889836040518363ffffffff1660e01b8152600401808373ffffffffffffffffffffffffffffffffffffffff1673ffffffffffffffffffffffffffffffffffffffff16815260200182815260200192505050600060405180830381600087803b1580156109b257600080fd5b505af11580156109c6573d6000803e3d6000fd5b50505050600560009054906101000a900473ffffffffffffffffffffffffffffffffffffffff1673ffffffffffffffffffffffffffffffffffffffff166309d6607189338a6040518463ffffffff1660e01b8152600401808473ffffffffffffffffffffffffffffffffffffffff1673ffffffffffffffffffffffffffffffffffffffff1681526020018373ffffffffffffffffffffffffffffffffffffffff1673ffffffffffffffffffffffffffffffffffffffff1681526020018281526020019350505050600060405180830381600087803b158015610aa757600080fd5b505af1158015610abb573d6000803e3d6000fd5b505050506000600460009054906101000a900473ffffffffffffffffffffffffffffffffffffffff1673ffffffffffffffffffffffffffffffffffffffff166372e06c0f8a6040518263ffffffff1660e01b8152600401808273ffffffffffffffffffffffffffffffffffffffff1673ffffffffffffffffffffffffffffffffffffffff16815260200191505060206040518083038186803b158015610b6057600080fd5b505afa158015610b74573d6000803e3d6000fd5b505050506040513d6020811015610b8a57600080fd5b810190808051906020019092919050505090508073ffffffffffffffffffffffffffffffffffffffff166394362e8b338a6040518363ffffffff1660e01b8152600401808373ffffffffffffffffffffffffffffffffffffffff1673ffffffffffffffffffffffffffffffffffffffff16815260200182815260200192505050600060405180830381600087803b158015610c2457600080fd5b505af1158015610c38573d6000803e3d6000fd5b50505050505050505050505050565b81600460009054906101000a900473ffffffffffffffffffffffffffffffffffffffff1673ffffffffffffffffffffffffffffffffffffffff1663883c042b826040518263ffffffff1660e01b8152600401808273ffffffffffffffffffffffffffffffffffffffff1673ffffffffffffffffffffffffffffffffffffffff16815260200191505060206040518083038186803b158015610ce757600080fd5b505afa158015610cfb573d6000803e3d6000fd5b505050506040513d6020811015610d1157600080fd5b8101908080519060200190929190505050610d94576040517f08c379a000000000000000000000000000000000000000000000000000000000815260040180806020018281038252601b8152602001807f506f6f6c3a2052657365727665206973206e6f7420616374697665000000000081525060200191505060405180910390fd5b81610d9e8161188e565b600260009054906101000a900473ffffffffffffffffffffffffffffffffffffffff1673ffffffffffffffffffffffffffffffffffffffff1663ac885c24856040518263ffffffff1660e01b8152600401808273ffffffffffffffffffffffffffffffffffffffff1673ffffffffffffffffffffffffffffffffffffffff16815260200191505060206040518083038186803b158015610e3d57600080fd5b505afa158015610e51573d6000803e3d6000fd5b505050506040513d6020811015610e6757600080fd5b8101908080519060200190929190505050831115610ed0576040517f08c379a000000000000000000000000000000000000000000000000000000000815260040180806020018281038252602b8152602001806128f7602b913960400191505060405180910390fd5b6000600660009054906101000a900473ffffffffffffffffffffffffffffffffffffffff1673ffffffffffffffffffffffffffffffffffffffff1663b6d3a35d866040518263ffffffff1660e01b8152600401808273ffffffffffffffffffffffffffffffffffffffff1673ffffffffffffffffffffffffffffffffffffffff16815260200191505060206040518083038186803b158015610f7157600080fd5b505afa158015610f85573d6000803e3d6000fd5b505050506040513d6020811015610f9b57600080fd5b81019080805190602001909291905050509050600061109c82600760009054906101000a900473ffffffffffffffffffffffffffffffffffffffff1673ffffffffffffffffffffffffffffffffffffffff16638abaf4aa336040518263ffffffff1660e01b8152600401808273ffffffffffffffffffffffffffffffffffffffff1673ffffffffffffffffffffffffffffffffffffffff16815260200191505060206040518083038186803b15801561105357600080fd5b505afa158015611067573d6000803e3d6000fd5b505050506040513d602081101561107d57600080fd5b8101908080519060200190929190505050611b9a90919063ffffffff16565b90508085106110f6576040517f08c379a000000000000000000000000000000000000000000000000000000000815260040180806020018281038252602b8152602001806128a6602b913960400191505060405180910390fd5b611101863387611be4565b600560009054906101000a900473ffffffffffffffffffffffffffffffffffffffff1673ffffffffffffffffffffffffffffffffffffffff1663c69dc70e8733886040518463ffffffff1660e01b8152600401808473ffffffffffffffffffffffffffffffffffffffff1673ffffffffffffffffffffffffffffffffffffffff1681526020018373ffffffffffffffffffffffffffffffffffffffff1673ffffffffffffffffffffffffffffffffffffffff1681526020018281526020019350505050600060405180830381600087803b1580156111de57600080fd5b505af11580156111f2573d6000803e3d6000fd5b50505050505050505050565b611206612281565b73ffffffffffffffffffffffffffffffffffffffff166000809054906101000a900473ffffffffffffffffffffffffffffffffffffffff1673ffffffffffffffffffffffffffffffffffffffff16146112c7576040517f08c379a00000000000000000000000000000000000000000000000000000000081526004018080602001828103825260208152602001807f4f776e61626c653a2063616c6c6572206973206e6f7420746865206f776e657281525060200191505060405180910390fd5b600073ffffffffffffffffffffffffffffffffffffffff166000809054906101000a900473ffffffffffffffffffffffffffffffffffffffff1673ffffffffffffffffffffffffffffffffffffffff167f8be0079c531659141344cd1fd0a4f28419497f9722a3daafe3b4186f6b6457e060405160405180910390a360008060006101000a81548173ffffffffffffffffffffffffffffffffffffffff021916908373ffffffffffffffffffffffffffffffffffffffff160217905550565b60008060009054906101000a900473ffffffffffffffffffffffffffffffffffffffff16905090565b82600460009054906101000a900473ffffffffffffffffffffffffffffffffffffffff1673ffffffffffffffffffffffffffffffffffffffff1663883c042b826040518263ffffffff1660e01b8152600401808273ffffffffffffffffffffffffffffffffffffffff1673ffffffffffffffffffffffffffffffffffffffff16815260200191505060206040518083038186803b15801561144f57600080fd5b505afa158015611463573d6000803e3d6000fd5b505050506040513d602081101561147957600080fd5b81019080805190602001909291905050506114fc576040517f08c379a000000000000000000000000000000000000000000000000000000000815260040180806020018281038252601b8152602001807f506f6f6c3a2052657365727665206973206e6f7420616374697665000000000081525060200191505060405180910390fd5b816115068161188e565b611511858585611be4565b600560009054906101000a900473ffffffffffffffffffffffffffffffffffffffff1673ffffffffffffffffffffffffffffffffffffffff1663c3aa039d8633866040518463ffffffff1660e01b8152600401808473ffffffffffffffffffffffffffffffffffffffff1673ffffffffffffffffffffffffffffffffffffffff1681526020018373ffffffffffffffffffffffffffffffffffffffff1673ffffffffffffffffffffffffffffffffffffffff1681526020018281526020019350505050600060405180830381600087803b1580156115ee57600080fd5b505af1158015611602573d6000803e3d6000fd5b505050508373ffffffffffffffffffffffffffffffffffffffff168573ffffffffffffffffffffffffffffffffffffffff167f9c4ed599cd8555b9c1e8cd7643240d7d71eb76b792948c49fcb4d411f7b6b3c68542604051808381526020018264ffffffffff1681526020019250505060405180910390a35050505050565b611689612281565b73ffffffffffffffffffffffffffffffffffffffff166000809054906101000a900473ffffffffffffffffffffffffffffffffffffffff1673ffffffffffffffffffffffffffffffffffffffff161461174a576040517f08c379a00000000000000000000000000000000000000000000000000000000081526004018080602001828103825260208152602001807f4f776e61626c653a2063616c6c6572206973206e6f7420746865206f776e657281525060200191505060405180910390fd5b600073ffffffffffffffffffffffffffffffffffffffff168173ffffffffffffffffffffffffffffffffffffffff1614156117d0576040517f08c379a00000000000000000000000000000000000000000000000000000000081526004018080602001828103825260268152602001806128d16026913960400191505060405180910390fd5b8073ffffffffffffffffffffffffffffffffffffffff166000809054906101000a900473ffffffffffffffffffffffffffffffffffffffff1673ffffffffffffffffffffffffffffffffffffffff167f8be0079c531659141344cd1fd0a4f28419497f9722a3daafe3b4186f6b6457e060405160405180910390a3806000806101000a81548173ffffffffffffffffffffffffffffffffffffffff021916908373ffffffffffffffffffffffffffffffffffffffff16021790555050565b600081116118e7576040517f08c379a00000000000000000000000000000000000000000000000000000000081526004018080602001828103825260238152602001806128836023913960400191505060405180910390fd5b50565b6118f2612289565b73ffffffffffffffffffffffffffffffffffffffff168473ffffffffffffffffffffffffffffffffffffffff16146119af576000341461197d576040517f08c379a00000000000000000000000000000000000000000000000000000000081526004018080602001828103825260388152602001806129be6038913960400191505060405180910390fd5b6119aa8383838773ffffffffffffffffffffffffffffffffffffffff166122a5909392919063ffffffff16565b611b0c565b80341015611a08576040517f08c379a000000000000000000000000000000000000000000000000000000000815260040180806020018281038252603b815260200180612959603b913960400191505060405180910390fd5b80341115611b0b576000611a25823461239290919063ffffffff16565b905060008473ffffffffffffffffffffffffffffffffffffffff168261c35090604051806000019050600060405180830381858888f193505050503d8060008114611a8c576040519150601f19603f3d011682016040523d82523d6000602084013e611a91565b606091505b5050905080611b08576040517f08c379a000000000000000000000000000000000000000000000000000000000815260040180806020018281038252601c8152602001807f506f6f6c3a205472616e73666572206f6620455448206661696c65640000000081525060200191505060405180910390fd5b50505b5b50505050565b600080828401905083811015611b90576040517f08c379a000000000000000000000000000000000000000000000000000000000815260040180806020018281038252601b8152602001807f536166654d6174683a206164646974696f6e206f766572666c6f77000000000081525060200191505060405180910390fd5b8091505092915050565b6000611bdc83836040518060400160405280601a81526020017f536166654d6174683a206469766973696f6e206279207a65726f0000000000008152506123dc565b905092915050565b80600260009054906101000a900473ffffffffffffffffffffffffffffffffffffffff1673ffffffffffffffffffffffffffffffffffffffff1663ac885c24856040518263ffffffff1660e01b8152600401808273ffffffffffffffffffffffffffffffffffffffff1673ffffffffffffffffffffffffffffffffffffffff16815260200191505060206040518083038186803b158015611c8457600080fd5b505afa158015611c98573d6000803e3d6000fd5b505050506040513d6020811015611cae57600080fd5b810190808051906020019092919050505011611d15576040517f08c379a00000000000000000000000000000000000000000000000000000000081526004018080602001828103825260378152602001806129226037913960400191505060405180910390fd5b60008190505b6000811115611f1757600080600260009054906101000a900473ffffffffffffffffffffffffffffffffffffffff1673ffffffffffffffffffffffffffffffffffffffff1663f32a4baa876040518263ffffffff1660e01b8152600401808273ffffffffffffffffffffffffffffffffffffffff1673ffffffffffffffffffffffffffffffffffffffff168152602001915050604080518083038186803b158015611dc557600080fd5b505afa158015611dd9573d6000803e3d6000fd5b505050506040513d6040811015611def57600080fd5b810190808051906020019092919080519060200190929190505050915091506000818410611e1d5781611e1f565b835b905060008390508073ffffffffffffffffffffffffffffffffffffffff1663935642cf8989856040518463ffffffff1660e01b8152600401808473ffffffffffffffffffffffffffffffffffffffff1673ffffffffffffffffffffffffffffffffffffffff1681526020018373ffffffffffffffffffffffffffffffffffffffff1673ffffffffffffffffffffffffffffffffffffffff1681526020018281526020019350505050600060405180830381600087803b158015611ee157600080fd5b505af1158015611ef5573d6000803e3d6000fd5b50505050611f0c828661239290919063ffffffff16565b945050505050611d1b565b600061200583600460009054906101000a900473ffffffffffffffffffffffffffffffffffffffff1673ffffffffffffffffffffffffffffffffffffffff16639de8ef79886040518263ffffffff1660e01b8152600401808273ffffffffffffffffffffffffffffffffffffffff1673ffffffffffffffffffffffffffffffffffffffff16815260200191505060206040518083038186803b158015611fbc57600080fd5b505afa158015611fd0573d6000803e3d6000fd5b505050506040513d6020811015611fe657600080fd5b810190808051906020019092919050505061239290919063ffffffff16565b905060006120f584600460009054906101000a900473ffffffffffffffffffffffffffffffffffffffff1673ffffffffffffffffffffffffffffffffffffffff1663266e2bd8896040518263ffffffff1660e01b8152600401808273ffffffffffffffffffffffffffffffffffffffff1673ffffffffffffffffffffffffffffffffffffffff16815260200191505060206040518083038186803b1580156120ac57600080fd5b505afa1580156120c0573d6000803e3d6000fd5b505050506040513d60208110156120d657600080fd5b810190808051906020019092919050505061239290919063ffffffff16565b9050600460009054906101000a900473ffffffffffffffffffffffffffffffffffffffff1673ffffffffffffffffffffffffffffffffffffffff1663988d240887846040518363ffffffff1660e01b8152600401808373ffffffffffffffffffffffffffffffffffffffff1673ffffffffffffffffffffffffffffffffffffffff16815260200182815260200192505050600060405180830381600087803b1580156121a057600080fd5b505af11580156121b4573d6000803e3d6000fd5b50505050600460009054906101000a900473ffffffffffffffffffffffffffffffffffffffff1673ffffffffffffffffffffffffffffffffffffffff1663cd67c4f887836040518363ffffffff1660e01b8152600401808373ffffffffffffffffffffffffffffffffffffffff1673ffffffffffffffffffffffffffffffffffffffff16815260200182815260200192505050600060405180830381600087803b15801561226157600080fd5b505af1158015612275573d6000803e3d6000fd5b50505050505050505050565b600033905090565b600073eeeeeeeeeeeeeeeeeeeeeeeeeeeeeeeeeeeeeeee905090565b61238c846323b872dd60e01b858585604051602401808473ffffffffffffffffffffffffffffffffffffffff1673ffffffffffffffffffffffffffffffffffffffff1681526020018373ffffffffffffffffffffffffffffffffffffffff1673ffffffffffffffffffffffffffffffffffffffff1681526020018281526020019350505050604051602081830303815290604052907bffffffffffffffffffffffffffffffffffffffffffffffffffffffff19166020820180517bffffffffffffffffffffffffffffffffffffffffffffffffffffffff83818316178352505050506124a2565b50505050565b60006123d483836040518060400160405280601e81526020017f536166654d6174683a207375627472616374696f6e206f766572666c6f770000815250612591565b905092915050565b60008083118290612488576040517f08c379a00000000000000000000000000000000000000000000000000000000081526004018080602001828103825283818151815260200191508051906020019080838360005b8381101561244d578082015181840152602081019050612432565b50505050905090810190601f16801561247a5780820380516001836020036101000a031916815260200191505b509250505060405180910390fd5b50600083858161249457fe5b049050809150509392505050565b6060612504826040518060400160405280602081526020017f5361666545524332303a206c6f772d6c6576656c2063616c6c206661696c65648152508573ffffffffffffffffffffffffffffffffffffffff166126519092919063ffffffff16565b905060008151111561258c5780806020019051602081101561252557600080fd5b810190808051906020019092919050505061258b576040517f08c379a000000000000000000000000000000000000000000000000000000000815260040180806020018281038252602a815260200180612994602a913960400191505060405180910390fd5b5b505050565b600083831115829061263e576040517f08c379a00000000000000000000000000000000000000000000000000000000081526004018080602001828103825283818151815260200191508051906020019080838360005b838110156126035780820151818401526020810190506125e8565b50505050905090810190601f1680156126305780820380516001836020036101000a031916815260200191505b509250505060405180910390fd5b5060008385039050809150509392505050565b60606126608484600085612669565b90509392505050565b60606126748561286f565b6126e6576040517f08c379a000000000000000000000000000000000000000000000000000000000815260040180806020018281038252601d8152602001807f416464726573733a2063616c6c20746f206e6f6e2d636f6e747261637400000081525060200191505060405180910390fd5b600060608673ffffffffffffffffffffffffffffffffffffffff1685876040518082805190602001908083835b602083106127365780518252602082019150602081019050602083039250612713565b6001836020036101000a03801982511681845116808217855250505050505090500191505060006040518083038185875af1925050503d8060008114612798576040519150601f19603f3d011682016040523d82523d6000602084013e61279d565b606091505b509150915081156127b2578092505050612867565b6000815111156127c55780518082602001fd5b836040517f08c379a00000000000000000000000000000000000000000000000000000000081526004018080602001828103825283818151815260200191508051906020019080838360005b8381101561282c578082015181840152602081019050612811565b50505050905090810190601f1680156128595780820380516001836020036101000a031916815260200191505b509250505060405180910390fd5b949350505050565b600080823b90506000811191505091905056fe506f6f6c3a20416d6f756e74206d7573742062652067726561746572207468616e2030506f6f6c736572766963653a20796f752068617665206e6f7420656e6f75676820636f6c6c61746572616c4f776e61626c653a206e6577206f776e657220697320746865207a65726f2061646472657373506f6f6c536572766963653a204e6f7420656e6f756768206c697175696469747920617661696c61626c65506f6f6c3a205468657265206973206e6f7420656e6f756768206c697175696469747920617661696c61626c6520746f2072656465656d506f6f6c3a2054686520616d6f756e7420616e64207468652076616c75652073656e7420746f206465706f73697420646f206e6f74206d617463685361666545524332303a204552433230206f7065726174696f6e20646964206e6f742073756363656564506f6f6c3a20557365722069732073656e64696e672045544820616c6f6e67207769746820746865204552433230207472616e736665722ea264697066735822122031a51664d86ceb3560f5f476358bca58d7a7f656213bc3623dc5c86e39e415c564736f6c634300060a0033",
  "immutableReferences": {},
  "source": "// SPDX-License-Identifier: agpl-3.0\npragma solidity ^0.6.10;\n\nimport \"openzeppelin-solidity/contracts/math/SafeMath.sol\";\nimport \"openzeppelin-solidity/contracts/access/Ownable.sol\";\n\nimport \"../core/ILendingProvider.sol\";\nimport \"../lib/AddressStorage.sol\";\nimport \"../lib/SafeERC20.sol\";\nimport \"../lib/ERC20.sol\";\nimport \"../lib/EthAddressLib.sol\";\nimport \"../lib/WadRayMath.sol\";\nimport \"../repositories/ReserveRepository.sol\";\nimport \"../repositories/UserBalanceRepository.sol\";\nimport \"../repositories/PriceRepository.sol\";\nimport \"../services/ProviderService.sol\";\nimport \"../services/RiskService.sol\";\nimport \"../token/VToken.sol\";\n\ncontract PoolService is Ownable {\n  using SafeMath for uint256;\n  using SafeERC20 for ERC20;\n  using WadRayMath for uint256;\n\n  AddressRepository private addressRepository;\n  ProviderService internal providerService;\n  ProviderRepository internal providerRepository;\n  ReserveRepository private reserveRepository;\n  UserBalanceRepository private userBalanceRepository;\n  PriceRepository private priceRepository;\n  RiskService private riskService;\n\n  /**\n   * @dev emitted during a redeem action.\n   * @param _reserve the address of the reserve\n   * @param _user the address of the user\n   * @param _amount the amount to be deposited\n   * @param _timestamp the timestamp of the action\n   **/\n  event RedeemUnderlying(\n    address indexed _reserve,\n    address indexed _user,\n    uint256 _amount,\n    uint256 _timestamp\n  );\n\n  constructor(address _addressRepository) public {\n    addressRepository = AddressRepository(_addressRepository);\n    providerService = ProviderService(addressRepository.getProviderService());\n    providerRepository = ProviderRepository(\n      addressRepository.getProviderRepository()\n    );\n    reserveRepository = ReserveRepository(\n      addressRepository.getReserveRepository()\n    );\n\n    userBalanceRepository = UserBalanceRepository(\n      addressRepository.getUserBalanceRepository()\n    );\n\n    priceRepository = PriceRepository(addressRepository.getPriceRepository());\n    riskService = RiskService(addressRepository.getRiskService());\n  }\n\n  modifier activeReserveOnly(address _reserve) {\n    require(\n      reserveRepository.isReserveActive(_reserve),\n      \"Pool: Reserve is not active\"\n    );\n    _;\n  }\n\n  /**\n   * @dev functions affected by this modifier can only be invoked if the provided _amount input parameter\n   * is not zero.\n   * @param _amount the amount provided\n   **/\n  modifier onlyAmountGreaterThanZero(uint256 _amount) {\n    requireAmountGreaterThanZeroInternal(_amount);\n    _;\n  }\n\n  function deposit(address _reserve, uint256 _amount)\n    external\n    payable\n    activeReserveOnly(_reserve)\n    onlyAmountGreaterThanZero(_amount)\n  {\n    address providerAddress = providerService\n      .getProviderWithHighestLiquidityRate(_reserve);\n\n    ILendingProvider provider = providerRepository.getProviderByAddressOrFail(\n      providerAddress\n    );\n\n    // Transfer tokens to Pool contract and provide allowance\n    transferToReserve(_reserve, msg.sender, providerAddress, _amount);\n\n    // Approve for provider\n    provider.deposit(_reserve, _amount);\n\n    uint256 updatedTotalLiquidity = reserveRepository\n      .getTotalLiquidity(_reserve)\n      .add(_amount);\n    uint256 updatedAvailableLiquidity = reserveRepository\n      .getAvailableLiquidity(_reserve)\n      .add(_amount);\n\n    reserveRepository.setTotalLiquidity(_reserve, updatedTotalLiquidity);\n    reserveRepository.setAvailableLiquidity(\n      _reserve,\n      updatedAvailableLiquidity\n    );\n\n    userBalanceRepository.increaseUserDeposit(_reserve, msg.sender, _amount);\n\n    VToken token = reserveRepository.getVTokenContract(_reserve);\n    token.mintOnDeposit(msg.sender, _amount);\n  }\n\n  // Add Secutiry modifirie for Vitamin tokens only\n  function redeemUnderlying(\n    address _reserve,\n    address payable _user,\n    uint256 _amount\n  ) external activeReserveOnly(_reserve) onlyAmountGreaterThanZero(_amount) {\n    _transferValueToUser(_reserve, _user, _amount);\n    userBalanceRepository.decreaseUserDeposit(_reserve, msg.sender, _amount);\n\n    emit RedeemUnderlying(_reserve, _user, _amount, uint40(block.timestamp));\n  }\n\n  function borrow(address _reserve, uint256 _amount)\n    external\n    activeReserveOnly(_reserve)\n    onlyAmountGreaterThanZero(_amount)\n  {\n    require(\n      _amount <= providerService.getTotalAvaibleLiquidity(_reserve),\n      \"PoolService: Not enough liquidity available\"\n    );\n\n    uint256 reservePrice = priceRepository.getReservePriceInETH(_reserve);\n    uint256 maxAmount = riskService.getMaxAllowedLoanETH(msg.sender).div(\n      reservePrice\n    );\n\n    require(_amount < maxAmount, \"Poolservice: you have not enough collateral\");\n\n    _transferValueToUser(_reserve, msg.sender, _amount);\n    userBalanceRepository.increaseUserBorrow(_reserve, msg.sender, _amount);\n\n    // emit Borrow(_reserve, _user, _amount, uint40(block.timestamp));\n  }\n\n  function repay(address _reserve, uint256 _amount) external payable{\n\n  }\n\n  function _transferValueToUser(\n    address _reserve,\n    address payable _user,\n    uint256 _amount\n  ) internal {\n    require(\n      providerService.getTotalAvaibleLiquidity(_reserve) > _amount,\n      \"Pool: There is not enough liquidity available to redeem\"\n    );\n\n    // ToDo: Add check that msg.sender has enough tokens!\n\n    uint256 _amountLeft = _amount;\n    while (_amountLeft > 0) {\n      (address providerAddress, uint256 avaibleLiquidity) = providerService\n        .getProviderWithLowestLiquidityRate(_reserve);\n\n      // Calculate max sum we could take from this provider\n      uint256 sumToRedeem = _amountLeft < avaibleLiquidity\n        ? _amountLeft\n        : avaibleLiquidity;\n      ILendingProvider provider = ILendingProvider(providerAddress);\n\n      // Redeem this sum\n      provider.redeemUnderlying(_reserve, _user, sumToRedeem);\n\n      // ToDo: substract tokens(!)\n      _amountLeft = _amountLeft.sub(sumToRedeem);\n    }\n\n    uint256 updatedTotalLiquidity = reserveRepository\n      .getTotalLiquidity(_reserve)\n      .sub(_amount);\n    uint256 updatedAvailableLiquidity = reserveRepository\n      .getAvailableLiquidity(_reserve)\n      .sub(_amount);\n\n    reserveRepository.setTotalLiquidity(_reserve, updatedTotalLiquidity);\n    reserveRepository.setAvailableLiquidity(\n      _reserve,\n      updatedAvailableLiquidity\n    );\n  }\n\n  /**\n   * @notice internal function to save on code size for the onlyAmountGreaterThanZero modifier\n   **/\n  function requireAmountGreaterThanZeroInternal(uint256 _amount) internal pure {\n    require(_amount > 0, \"Pool: Amount must be greater than 0\");\n  }\n\n  /**\n   * @dev transfers an amount from a user to the destination reserve\n   * @param _reserve the address of the reserve where the amount is being transferred\n   * @param _user the address of the user from where the transfer is happening\n   * @param _amount the amount being transferred\n   **/\n  function transferToReserve(\n    address _reserve,\n    address payable _user,\n    address _to,\n    uint256 _amount\n  ) internal {\n    if (_reserve != EthAddressLib.ethAddress()) {\n      require(\n        msg.value == 0,\n        \"Pool: User is sending ETH along with the ERC20 transfer.\"\n      );\n\n      ERC20(_reserve).safeTransferFrom(_user, _to, _amount);\n    } else {\n      require(\n        msg.value >= _amount,\n        \"Pool: The amount and the value sent to deposit do not match\"\n      );\n\n      if (msg.value > _amount) {\n        //send back excess ETH\n        uint256 excessAmount = msg.value.sub(_amount);\n        //solium-disable-next-line\n        (bool result, ) = _user.call.value(excessAmount).gas(50000)(\"\");\n        require(result, \"Pool: Transfer of ETH failed\");\n      }\n    }\n  }\n}\n",
  "sourcePath": "/Users/mikhail/Coding/jucifi/contracts/services/PoolService.sol",
  "compiler": {
    "name": "solc",
    "version": "0.6.10+commit.00c0fcaf.Emscripten.clang"
  },
  "schemaVersion": "3.2.5",
  "updatedAt": "2020-10-18T21:26:02.824Z",
  "devdoc": {
    "methods": {
      "owner()": {
        "details": "Returns the address of the current owner."
      },
      "renounceOwnership()": {
        "details": "Leaves the contract without owner. It will not be possible to call `onlyOwner` functions anymore. Can only be called by the current owner. NOTE: Renouncing ownership will leave the contract without an owner, thereby removing any functionality that is only available to the owner."
      },
      "transferOwnership(address)": {
        "details": "Transfers ownership of the contract to a new account (`newOwner`). Can only be called by the current owner."
      }
    }
  },
  "userdoc": {
    "methods": {}
  }
}