{
  "contractName": "Pool",
  "abi": [
    {
      "inputs": [
        {
          "internalType": "address",
          "name": "_providersManager",
          "type": "address"
        }
      ],
      "stateMutability": "nonpayable",
      "type": "constructor"
    },
    {
      "inputs": [],
      "name": "owner",
      "outputs": [
        {
          "internalType": "address",
          "name": "",
          "type": "address"
        }
      ],
      "stateMutability": "view",
      "type": "function"
    },
    {
      "inputs": [
        {
          "internalType": "address",
          "name": "_reserve",
          "type": "address"
        },
        {
          "internalType": "uint256",
          "name": "_amount",
          "type": "uint256"
        }
      ],
      "name": "deposit",
      "outputs": [],
      "stateMutability": "payable",
      "type": "function"
    },
    {
      "inputs": [
        {
          "internalType": "address",
          "name": "_reserve",
          "type": "address"
        },
        {
          "internalType": "uint256",
          "name": "_amount",
          "type": "uint256"
        }
      ],
      "name": "redeem",
      "outputs": [],
      "stateMutability": "nonpayable",
      "type": "function"
    }
  ],
  "bytecode": "0x6080604052336000806101000a81548173ffffffffffffffffffffffffffffffffffffffff021916908373ffffffffffffffffffffffffffffffffffffffff16021790555034801561005057600080fd5b506040516108b23803806108b28339818101604052602081101561007357600080fd5b810190808051906020019092919050505080600160006101000a81548173ffffffffffffffffffffffffffffffffffffffff021916908373ffffffffffffffffffffffffffffffffffffffff160217905550506107dd806100d56000396000f3fe6080604052600436106100345760003560e01c80631e9a69501461003957806347e7ef24146100945780638da5cb5b146100e2575b600080fd5b34801561004557600080fd5b506100926004803603604081101561005c57600080fd5b81019080803573ffffffffffffffffffffffffffffffffffffffff16906020019092919080359060200190929190505050610139565b005b6100e0600480360360408110156100aa57600080fd5b81019080803573ffffffffffffffffffffffffffffffffffffffff1690602001909291908035906020019092919050505061046c565b005b3480156100ee57600080fd5b506100f76106d8565b604051808273ffffffffffffffffffffffffffffffffffffffff1673ffffffffffffffffffffffffffffffffffffffff16815260200191505060405180910390f35b80610143816106fd565b81600160009054906101000a900473ffffffffffffffffffffffffffffffffffffffff1673ffffffffffffffffffffffffffffffffffffffff1663476fe790856040518263ffffffff1660e01b8152600401808273ffffffffffffffffffffffffffffffffffffffff1673ffffffffffffffffffffffffffffffffffffffff16815260200191505060206040518083038186803b1580156101e357600080fd5b505afa1580156101f7573d6000803e3d6000fd5b505050506040513d602081101561020d57600080fd5b810190808051906020019092919050505011610274576040517f08c379a00000000000000000000000000000000000000000000000000000000081526004018080602001828103825260318152602001806107776031913960400191505060405180910390fd5b60008290505b600081111561046657600080600160009054906101000a900473ffffffffffffffffffffffffffffffffffffffff1673ffffffffffffffffffffffffffffffffffffffff1663f32a4baa876040518263ffffffff1660e01b8152600401808273ffffffffffffffffffffffffffffffffffffffff1673ffffffffffffffffffffffffffffffffffffffff168152602001915050604080518083038186803b15801561032457600080fd5b505afa158015610338573d6000803e3d6000fd5b505050506040513d604081101561034e57600080fd5b81019080805190602001909291908051906020019092919050505091509150600085821161037c578161037e565b855b905060008390508073ffffffffffffffffffffffffffffffffffffffff1663935642cf89338a6040518463ffffffff1660e01b8152600401808473ffffffffffffffffffffffffffffffffffffffff1673ffffffffffffffffffffffffffffffffffffffff1681526020018373ffffffffffffffffffffffffffffffffffffffff1673ffffffffffffffffffffffffffffffffffffffff1681526020018281526020019350505050600060405180830381600087803b15801561044057600080fd5b505af1158015610454573d6000803e3d6000fd5b5050505081850394505050505061027a565b50505050565b80610476816106fd565b6000600160009054906101000a900473ffffffffffffffffffffffffffffffffffffffff1673ffffffffffffffffffffffffffffffffffffffff16639956db43856040518263ffffffff1660e01b8152600401808273ffffffffffffffffffffffffffffffffffffffff1673ffffffffffffffffffffffffffffffffffffffff16815260200191505060206040518083038186803b15801561051757600080fd5b505afa15801561052b573d6000803e3d6000fd5b505050506040513d602081101561054157600080fd5b810190808051906020019092919050505090506000600160009054906101000a900473ffffffffffffffffffffffffffffffffffffffff1673ffffffffffffffffffffffffffffffffffffffff1663c49c7d8a836040518263ffffffff1660e01b8152600401808273ffffffffffffffffffffffffffffffffffffffff1673ffffffffffffffffffffffffffffffffffffffff16815260200191505060206040518083038186803b1580156105f557600080fd5b505afa158015610609573d6000803e3d6000fd5b505050506040513d602081101561061f57600080fd5b810190808051906020019092919050505090508073ffffffffffffffffffffffffffffffffffffffff166347e7ef2486866040518363ffffffff1660e01b8152600401808373ffffffffffffffffffffffffffffffffffffffff1673ffffffffffffffffffffffffffffffffffffffff16815260200182815260200192505050600060405180830381600087803b1580156106b957600080fd5b505af11580156106cd573d6000803e3d6000fd5b505050505050505050565b6000809054906101000a900473ffffffffffffffffffffffffffffffffffffffff1681565b60008111610773576040517f08c379a000000000000000000000000000000000000000000000000000000000815260040180806020018281038252601d8152602001807f416d6f756e74206d7573742062652067726561746572207468616e203000000081525060200191505060405180910390fd5b5056fe5468657265206973206e6f7420656e6f756768206c697175696469747920617661696c61626c6520746f2072656465656da26469706673582212204d85cea94e8a6f0467ec4a2a691a3b1f923f80138003ee5e192bf53411bcb05464736f6c634300060a0033",
  "immutableReferences": {},
  "source": "// SPDX-License-Identifier: agpl-3.0\npragma solidity ^0.6.10;\n\nimport \"../helpers/AddressStorage.sol\";\nimport \"../interfaces/ILendingProvider.sol\";\nimport \"./ProvidersManager.sol\";\n\ncontract Pool {\n    address public owner = msg.sender;\n    ProvidersManager internal providersManager;\n\n    /**\n     * @dev functions affected by this modifier can only be invoked if the provided _amount input parameter\n     * is not zero.\n     * @param _amount the amount provided\n     **/\n    modifier onlyAmountGreaterThanZero(uint256 _amount) {\n        requireAmountGreaterThanZeroInternal(_amount);\n        _;\n    }\n\n    modifier onlyOwner {\n        require(\n            msg.sender == owner,\n            \"This function could be called by owner only\"\n        );\n        _;\n    }\n\n    constructor(address _providersManager) public {\n        providersManager = ProvidersManager(_providersManager);\n    }\n\n    function deposit(address _reserve, uint256 _amount)\n        external\n        payable\n        // onlyUnfreezedReserve(_reserve)\n        onlyAmountGreaterThanZero(_amount)\n    {\n        address provider = providersManager.getProviderWithHighestLiquidityRate(\n            _reserve\n        );\n        ILendingProvider lendingP = providersManager.getProviderOrFail(\n            provider\n        );\n        lendingP.deposit(_reserve, _amount);\n    }\n\n    function redeem(address _reserve, uint256 _amount)\n        external\n        onlyAmountGreaterThanZero(_amount)\n    {\n        require(\n            providersManager.getAvaibleLiquidity(_reserve) > _amount,\n            \"There is not enough liquidity available to redeem\"\n        );\n\n        // ToDo: Add check that msg.sender has enough tokens!\n\n        uint256 _amountLeft = _amount;\n        while (_amountLeft > 0) {\n            (\n                address providerAddress,\n                uint256 avaibleLiquidity\n            ) = providersManager.getProviderWithLowestLiquidityRate(_reserve);\n\n            // Calculate max sum we could take from this provider\n            uint256 sumToRedeem = avaibleLiquidity > _amount\n                ? _amount\n                : avaibleLiquidity;\n            ILendingProvider provider = ILendingProvider(providerAddress);\n\n            // Redeem this sum\n            provider.redeemUnderlying(_reserve, msg.sender, _amount);\n\n            // ToDo: substract tokens(!)\n\n            // ToDo: provide normal math\n            _amountLeft -= sumToRedeem;\n        }\n    }\n\n    /**\n     * @notice internal function to save on code size for the onlyAmountGreaterThanZero modifier\n     **/\n    function requireAmountGreaterThanZeroInternal(uint256 _amount)\n        internal\n        pure\n    {\n        require(_amount > 0, \"Amount must be greater than 0\");\n    }\n}\n",
  "sourcePath": "/Users/mikhail/Coding/jucifi/contracts/core/Pool.sol",
  "compiler": {
    "name": "solc",
    "version": "0.6.10+commit.00c0fcaf.Emscripten.clang"
  },
  "schemaVersion": "3.2.5",
  "updatedAt": "2020-10-16T04:13:13.000Z",
  "devdoc": {
    "methods": {}
  },
  "userdoc": {
    "methods": {}
  }
}