{
  "contractName": "Pool",
  "abi": [
    {
      "constant": true,
      "inputs": [],
      "name": "owner",
      "outputs": [
        {
          "name": "",
          "type": "address"
        }
      ],
      "payable": false,
      "stateMutability": "view",
      "type": "function"
    },
    {
      "constant": false,
      "inputs": [
        {
          "name": "_reserve",
          "type": "address"
        },
        {
          "name": "_amount",
          "type": "uint256"
        },
        {
          "name": "_referralCode",
          "type": "uint16"
        }
      ],
      "name": "deposit",
      "outputs": [],
      "payable": true,
      "stateMutability": "payable",
      "type": "function"
    }
  ],
  "bytecode": "0x6080604052336000806101000a81548173ffffffffffffffffffffffffffffffffffffffff021916908373ffffffffffffffffffffffffffffffffffffffff16021790555034801561005057600080fd5b506101e0806100606000396000f3fe60806040526004361061004c576000357c0100000000000000000000000000000000000000000000000000000000900463ffffffff1680638da5cb5b14610051578063d2d0e066146100a8575b600080fd5b34801561005d57600080fd5b50610066610104565b604051808273ffffffffffffffffffffffffffffffffffffffff1673ffffffffffffffffffffffffffffffffffffffff16815260200191505060405180910390f35b610102600480360360608110156100be57600080fd5b81019080803573ffffffffffffffffffffffffffffffffffffffff16906020019092919080359060200190929190803561ffff169060200190929190505050610129565b005b6000809054906101000a900473ffffffffffffffffffffffffffffffffffffffff1681565b8161013381610139565b50505050565b6000811115156101b1576040517f08c379a000000000000000000000000000000000000000000000000000000000815260040180806020018281038252601d8152602001807f416d6f756e74206d7573742062652067726561746572207468616e203000000081525060200191505060405180910390fd5b5056fea165627a7a72305820acde40784bed16cd285eb4a4f4c90fb75d004198a6f21634662663b7ad6b3cff0029",
  "source": "pragma solidity ^0.5.0;\n\nimport \"./core/AddressStorage.sol\";\n\ncontract Pool {\n    address public owner = msg.sender;\n\n    AddressStorage reserves;\n\n    /**\n     * @dev functions affected by this modifier can only be invoked if the provided _amount input parameter\n     * is not zero.\n     * @param _amount the amount provided\n     **/\n    modifier onlyAmountGreaterThanZero(uint256 _amount) {\n        requireAmountGreaterThanZeroInternal(_amount);\n        _;\n    }\n\n    modifier onlyOwner {\n        require(\n            msg.sender == owner,\n            \"This function could be called by owner only\"\n        );\n        _;\n    }\n\n    function deposit(\n        address _reserve,\n        uint256 _amount,\n        uint16 _referralCode\n    )\n        external\n        payable\n        // onlyUnfreezedReserve(_reserve)\n        onlyAmountGreaterThanZero(_amount)\n    {}\n\n    /**\n     * @notice internal function to save on code size for the onlyAmountGreaterThanZero modifier\n     **/\n    function requireAmountGreaterThanZeroInternal(uint256 _amount)\n        internal\n        pure\n    {\n        require(_amount > 0, \"Amount must be greater than 0\");\n    }\n}\n",
  "sourcePath": "/Users/mikhail/Coding/jucifi/contracts/Pool.sol",
  "compiler": {
    "name": "solc",
    "version": "0.5.0+commit.1d4f565a.Emscripten.clang"
  },
  "schemaVersion": "3.0.9",
  "updatedAt": "2020-10-07T13:17:58.411Z",
  "devdoc": {
    "methods": {}
  },
  "userdoc": {
    "methods": {}
  }
}