{
  "contractName": "ProvidersManager",
  "abi": [
    {
      "anonymous": false,
      "inputs": [
        {
          "indexed": true,
          "internalType": "address",
          "name": "previousOwner",
          "type": "address"
        },
        {
          "indexed": true,
          "internalType": "address",
          "name": "newOwner",
          "type": "address"
        }
      ],
      "name": "OwnershipTransferred",
      "type": "event"
    },
    {
      "inputs": [],
      "name": "owner",
      "outputs": [
        {
          "internalType": "address",
          "name": "",
          "type": "address"
        }
      ],
      "stateMutability": "view",
      "type": "function"
    },
    {
      "inputs": [],
      "name": "renounceOwnership",
      "outputs": [],
      "stateMutability": "nonpayable",
      "type": "function"
    },
    {
      "inputs": [
        {
          "internalType": "address",
          "name": "newOwner",
          "type": "address"
        }
      ],
      "name": "transferOwnership",
      "outputs": [],
      "stateMutability": "nonpayable",
      "type": "function"
    },
    {
      "inputs": [
        {
          "internalType": "address",
          "name": "_providerAddress",
          "type": "address"
        }
      ],
      "name": "setProvider",
      "outputs": [],
      "stateMutability": "nonpayable",
      "type": "function"
    },
    {
      "inputs": [
        {
          "internalType": "address",
          "name": "_providerAddress",
          "type": "address"
        }
      ],
      "name": "getProviderOrFail",
      "outputs": [
        {
          "internalType": "contract ILendingProvider",
          "name": "",
          "type": "address"
        }
      ],
      "stateMutability": "view",
      "type": "function"
    }
  ],
  "bytecode": "0x608060405234801561001057600080fd5b5060006100216100c460201b60201c565b9050806000806101000a81548173ffffffffffffffffffffffffffffffffffffffff021916908373ffffffffffffffffffffffffffffffffffffffff1602179055508073ffffffffffffffffffffffffffffffffffffffff16600073ffffffffffffffffffffffffffffffffffffffff167f8be0079c531659141344cd1fd0a4f28419497f9722a3daafe3b4186f6b6457e060405160405180910390a3506100cc565b600033905090565b6109f9806100db6000396000f3fe608060405234801561001057600080fd5b50600436106100575760003560e01c8063715018a61461005c5780638da5cb5b14610066578063c49c7d8a146100b0578063cfd8d6c014610134578063f2fde38b14610178575b600080fd5b6100646101bc565b005b61006e610344565b604051808273ffffffffffffffffffffffffffffffffffffffff1673ffffffffffffffffffffffffffffffffffffffff16815260200191505060405180910390f35b6100f2600480360360208110156100c657600080fd5b81019080803573ffffffffffffffffffffffffffffffffffffffff16906020019092919050505061036d565b604051808273ffffffffffffffffffffffffffffffffffffffff1673ffffffffffffffffffffffffffffffffffffffff16815260200191505060405180910390f35b6101766004803603602081101561014a57600080fd5b81019080803573ffffffffffffffffffffffffffffffffffffffff1690602001909291905050506104da565b005b6101ba6004803603602081101561018e57600080fd5b81019080803573ffffffffffffffffffffffffffffffffffffffff169060200190929190505050610788565b005b6101c4610995565b73ffffffffffffffffffffffffffffffffffffffff166000809054906101000a900473ffffffffffffffffffffffffffffffffffffffff1673ffffffffffffffffffffffffffffffffffffffff1614610285576040517f08c379a00000000000000000000000000000000000000000000000000000000081526004018080602001828103825260208152602001807f4f776e61626c653a2063616c6c6572206973206e6f7420746865206f776e657281525060200191505060405180910390fd5b600073ffffffffffffffffffffffffffffffffffffffff166000809054906101000a900473ffffffffffffffffffffffffffffffffffffffff1673ffffffffffffffffffffffffffffffffffffffff167f8be0079c531659141344cd1fd0a4f28419497f9722a3daafe3b4186f6b6457e060405160405180910390a360008060006101000a81548173ffffffffffffffffffffffffffffffffffffffff021916908373ffffffffffffffffffffffffffffffffffffffff160217905550565b60008060009054906101000a900473ffffffffffffffffffffffffffffffffffffffff16905090565b600081600073ffffffffffffffffffffffffffffffffffffffff16600160008373ffffffffffffffffffffffffffffffffffffffff1673ffffffffffffffffffffffffffffffffffffffff16815260200190815260200160002060009054906101000a900473ffffffffffffffffffffffffffffffffffffffff1673ffffffffffffffffffffffffffffffffffffffff161415610472576040517f08c379a000000000000000000000000000000000000000000000000000000000815260040180806020018281038252601b8152602001807f50726f7669646572206973206e6f7420696e20746865206c697374000000000081525060200191505060405180910390fd5b600160008473ffffffffffffffffffffffffffffffffffffffff1673ffffffffffffffffffffffffffffffffffffffff16815260200190815260200160002060009054906101000a900473ffffffffffffffffffffffffffffffffffffffff16915050919050565b6104e2610995565b73ffffffffffffffffffffffffffffffffffffffff166000809054906101000a900473ffffffffffffffffffffffffffffffffffffffff1673ffffffffffffffffffffffffffffffffffffffff16146105a3576040517f08c379a00000000000000000000000000000000000000000000000000000000081526004018080602001828103825260208152602001807f4f776e61626c653a2063616c6c6572206973206e6f7420746865206f776e657281525060200191505060405180910390fd5b600073ffffffffffffffffffffffffffffffffffffffff16600160008373ffffffffffffffffffffffffffffffffffffffff1673ffffffffffffffffffffffffffffffffffffffff16815260200190815260200160002060009054906101000a900473ffffffffffffffffffffffffffffffffffffffff1673ffffffffffffffffffffffffffffffffffffffff16146106a4576040517f08c379a000000000000000000000000000000000000000000000000000000000815260040180806020018281038252601f8152602001807f50726f766964657220697320616c726561647920696e20746865206c6973740081525060200191505060405180910390fd5b80600160008373ffffffffffffffffffffffffffffffffffffffff1673ffffffffffffffffffffffffffffffffffffffff16815260200190815260200160002060006101000a81548173ffffffffffffffffffffffffffffffffffffffff021916908373ffffffffffffffffffffffffffffffffffffffff1602179055506002819080600181540180825580915050600190039060005260206000200160009091909190916101000a81548173ffffffffffffffffffffffffffffffffffffffff021916908373ffffffffffffffffffffffffffffffffffffffff16021790555050565b610790610995565b73ffffffffffffffffffffffffffffffffffffffff166000809054906101000a900473ffffffffffffffffffffffffffffffffffffffff1673ffffffffffffffffffffffffffffffffffffffff1614610851576040517f08c379a00000000000000000000000000000000000000000000000000000000081526004018080602001828103825260208152602001807f4f776e61626c653a2063616c6c6572206973206e6f7420746865206f776e657281525060200191505060405180910390fd5b600073ffffffffffffffffffffffffffffffffffffffff168173ffffffffffffffffffffffffffffffffffffffff1614156108d7576040517f08c379a000000000000000000000000000000000000000000000000000000000815260040180806020018281038252602681526020018061099e6026913960400191505060405180910390fd5b8073ffffffffffffffffffffffffffffffffffffffff166000809054906101000a900473ffffffffffffffffffffffffffffffffffffffff1673ffffffffffffffffffffffffffffffffffffffff167f8be0079c531659141344cd1fd0a4f28419497f9722a3daafe3b4186f6b6457e060405160405180910390a3806000806101000a81548173ffffffffffffffffffffffffffffffffffffffff021916908373ffffffffffffffffffffffffffffffffffffffff16021790555050565b60003390509056fe4f776e61626c653a206e6577206f776e657220697320746865207a65726f2061646472657373a2646970667358221220b1167de558f16dd065479499a79e338e9d22caf8be894af7d506122aa27337b564736f6c634300060a0033",
  "immutableReferences": {},
  "source": "// SPDX-License-Identifier: agpl-3.0\npragma solidity ^0.6.10;\n\nimport \"openzeppelin-solidity/contracts/access/Ownable.sol\";\nimport \"../interfaces/ILendingProvider.sol\";\n\n/**\n * @title Lending Protocols Manager\n * @notice Manages connected Lending protocols\n * @author Mikhail Lazarev, github.com/MikaelLazarev\n */\n\ncontract ProvidersManager is Ownable {\n    mapping(address => address) providers;\n    address[] providersList;\n\n    /**\n     * @dev Adds new lending provider to the list\n     * throw exception if provider is already exists in the list\n     * @param _providerAddress - the address of the provider contract\n     */\n    modifier providerHasExist(address _providerAddress) {\n        require(\n            providers[_providerAddress] != address(0),\n            \"Provider is not in the list\"\n        );\n        _;\n    }\n\n    /**\n     * @dev Adds new lending provider to the list\n     * throw exception if provider is already exists in the list\n     * @param _providerAddress - the address of the provider contract\n     */\n    function setProvider(address _providerAddress) public onlyOwner {\n        require(\n            providers[_providerAddress] == address(0),\n            \"Provider is already in the list\"\n        );\n        providers[_providerAddress] = _providerAddress;\n        providersList.push(_providerAddress);\n    }\n\n    /**\n     * @dev Gets provider by it's contract address or fails\n     * throw exception if provider is already exists in the list\n     * @param _providerAddress the address of the provider contract\n     * @return -\n     */\n\n    function getProviderOrFail(address _providerAddress)\n        public\n        view\n        providerHasExist(_providerAddress)\n        returns (ILendingProvider)\n    {\n        return ILendingProvider(providers[_providerAddress]);\n    }\n}\n",
  "sourcePath": "/Users/mikhail/Coding/jucifi/contracts/core/ProvidersManager.sol",
  "compiler": {
    "name": "solc",
    "version": "0.6.10+commit.00c0fcaf.Emscripten.clang"
  },
  "schemaVersion": "3.2.5",
  "updatedAt": "2020-10-09T11:22:24.580Z",
  "devdoc": {
    "author": "Mikhail Lazarev, github.com/MikaelLazarev",
    "methods": {
      "getProviderOrFail(address)": {
        "details": "Gets provider by it's contract address or fails throw exception if provider is already exists in the list",
        "params": {
          "_providerAddress": "the address of the provider contract"
        },
        "returns": {
          "_0": "-"
        }
      },
      "owner()": {
        "details": "Returns the address of the current owner."
      },
      "renounceOwnership()": {
        "details": "Leaves the contract without owner. It will not be possible to call `onlyOwner` functions anymore. Can only be called by the current owner. NOTE: Renouncing ownership will leave the contract without an owner, thereby removing any functionality that is only available to the owner."
      },
      "setProvider(address)": {
        "details": "Adds new lending provider to the list throw exception if provider is already exists in the list",
        "params": {
          "_providerAddress": "- the address of the provider contract"
        }
      },
      "transferOwnership(address)": {
        "details": "Transfers ownership of the contract to a new account (`newOwner`). Can only be called by the current owner."
      }
    },
    "title": "Lending Protocols Manager"
  },
  "userdoc": {
    "methods": {},
    "notice": "Manages connected Lending protocols"
  }
}