{
  "contractName": "ProviderManager",
  "abi": [
    {
      "inputs": [
        {
          "internalType": "address",
          "name": "provideContract",
          "type": "address"
        }
      ],
      "name": "setProvider",
      "outputs": [],
      "stateMutability": "nonpayable",
      "type": "function"
    },
    {
      "inputs": [
        {
          "internalType": "address",
          "name": "providerAddress",
          "type": "address"
        }
      ],
      "name": "getProviderOrFail",
      "outputs": [
        {
          "internalType": "contract ILendingProvider",
          "name": "",
          "type": "address"
        }
      ],
      "stateMutability": "view",
      "type": "function"
    }
  ],
  "bytecode": "0x608060405234801561001057600080fd5b50610221806100206000396000f3fe608060405234801561001057600080fd5b50600436106100365760003560e01c8063c49c7d8a1461003b578063cfd8d6c0146100bf575b600080fd5b61007d6004803603602081101561005157600080fd5b81019080803573ffffffffffffffffffffffffffffffffffffffff169060200190929190505050610103565b604051808273ffffffffffffffffffffffffffffffffffffffff1673ffffffffffffffffffffffffffffffffffffffff16815260200191505060405180910390f35b610101600480360360208110156100d557600080fd5b81019080803573ffffffffffffffffffffffffffffffffffffffff16906020019092919050505061016b565b005b60008060008373ffffffffffffffffffffffffffffffffffffffff1673ffffffffffffffffffffffffffffffffffffffff16815260200190815260200160002060009054906101000a900473ffffffffffffffffffffffffffffffffffffffff169050919050565b806000808373ffffffffffffffffffffffffffffffffffffffff1673ffffffffffffffffffffffffffffffffffffffff16815260200190815260200160002060006101000a81548173ffffffffffffffffffffffffffffffffffffffff021916908373ffffffffffffffffffffffffffffffffffffffff1602179055505056fea26469706673582212209288fb3815a8b78fde667c2d5b8c07e65d78c1b4a0fdc136714a37c69d0a08ba64736f6c634300060a0033",
  "immutableReferences": {},
  "source": "// SPDX-License-Identifier: agpl-3.0\npragma solidity ^0.6.10;\n\nimport \"../interfaces/ILendingProvider.sol\";\n\ncontract ProviderManager {\n    mapping(address => ILendingProvider) providers;\n\n    function setProvider(address provideContract) public {\n        providers[provideContract] = ILendingProvider(provideContract);\n    }\n\n    function getProviderOrFail(address providerAddress) public view returns (ILendingProvider){\n        // require(providers[providerAddress] != 0x0, \"Provider not found\");\n        return providers[providerAddress];\n    }\n}\n",
  "sourcePath": "/Users/mikhail/Coding/jucifi/contracts/core/ProvidersManager.sol",
  "compiler": {
    "name": "solc",
    "version": "0.6.10+commit.00c0fcaf.Emscripten.clang"
  },
  "schemaVersion": "3.2.5",
  "updatedAt": "2020-10-07T21:06:40.135Z",
  "devdoc": {
    "methods": {}
  },
  "userdoc": {
    "methods": {}
  }
}