{
  "contractName": "ProviderService",
  "abi": [
    {
      "inputs": [
        {
          "internalType": "address",
          "name": "addressRepositoryAddress",
          "type": "address"
        }
      ],
      "stateMutability": "nonpayable",
      "type": "constructor"
    },
    {
      "anonymous": false,
      "inputs": [
        {
          "indexed": true,
          "internalType": "address",
          "name": "previousOwner",
          "type": "address"
        },
        {
          "indexed": true,
          "internalType": "address",
          "name": "newOwner",
          "type": "address"
        }
      ],
      "name": "OwnershipTransferred",
      "type": "event"
    },
    {
      "inputs": [],
      "name": "owner",
      "outputs": [
        {
          "internalType": "address",
          "name": "",
          "type": "address"
        }
      ],
      "stateMutability": "view",
      "type": "function",
      "constant": true
    },
    {
      "inputs": [],
      "name": "renounceOwnership",
      "outputs": [],
      "stateMutability": "nonpayable",
      "type": "function"
    },
    {
      "inputs": [
        {
          "internalType": "address",
          "name": "newOwner",
          "type": "address"
        }
      ],
      "name": "transferOwnership",
      "outputs": [],
      "stateMutability": "nonpayable",
      "type": "function"
    },
    {
      "inputs": [
        {
          "internalType": "address",
          "name": "_reserveAddress",
          "type": "address"
        }
      ],
      "name": "getProviderWithHighestLiquidityRate",
      "outputs": [
        {
          "internalType": "address",
          "name": "",
          "type": "address"
        }
      ],
      "stateMutability": "view",
      "type": "function",
      "constant": true
    },
    {
      "inputs": [
        {
          "internalType": "address",
          "name": "_reserveAddress",
          "type": "address"
        }
      ],
      "name": "getProviderWithLowestLiquidityRate",
      "outputs": [
        {
          "internalType": "address",
          "name": "providerAddress",
          "type": "address"
        },
        {
          "internalType": "uint256",
          "name": "availableLiquidity",
          "type": "uint256"
        }
      ],
      "stateMutability": "view",
      "type": "function",
      "constant": true
    },
    {
      "inputs": [
        {
          "internalType": "address",
          "name": "_reserveAddress",
          "type": "address"
        }
      ],
      "name": "getTotalAvaibleLiquidity",
      "outputs": [
        {
          "internalType": "uint256",
          "name": "",
          "type": "uint256"
        }
      ],
      "stateMutability": "view",
      "type": "function",
      "constant": true
    },
    {
      "inputs": [
        {
          "internalType": "address",
          "name": "_reserve",
          "type": "address"
        }
      ],
      "name": "getBestRates",
      "outputs": [
        {
          "internalType": "uint256",
          "name": "",
          "type": "uint256"
        },
        {
          "internalType": "uint256",
          "name": "",
          "type": "uint256"
        }
      ],
      "stateMutability": "view",
      "type": "function",
      "constant": true
    }
  ],
  "bytecode": "0x608060405234801561001057600080fd5b506040516119683803806119688339818101604052602081101561003357600080fd5b810190808051906020019092919050505060006100546101bf60201b60201c565b9050806000806101000a81548173ffffffffffffffffffffffffffffffffffffffff021916908373ffffffffffffffffffffffffffffffffffffffff1602179055508073ffffffffffffffffffffffffffffffffffffffff16600073ffffffffffffffffffffffffffffffffffffffff167f8be0079c531659141344cd1fd0a4f28419497f9722a3daafe3b4186f6b6457e060405160405180910390a35060008190508073ffffffffffffffffffffffffffffffffffffffff1663c15c03886040518163ffffffff1660e01b815260040160206040518083038186803b15801561013d57600080fd5b505afa158015610151573d6000803e3d6000fd5b505050506040513d602081101561016757600080fd5b8101908080519060200190929190505050600160006101000a81548173ffffffffffffffffffffffffffffffffffffffff021916908373ffffffffffffffffffffffffffffffffffffffff16021790555050506101c7565b600033905090565b611792806101d66000396000f3fe608060405234801561001057600080fd5b506004361061007d5760003560e01c80639b90168d1161005b5780639b90168d1461015a578063ac885c24146101b9578063f2fde38b14610211578063f32a4baa146102555761007d565b8063715018a6146100825780638da5cb5b1461008c5780639956db43146100d6575b600080fd5b61008a6102e0565b005b610094610468565b604051808273ffffffffffffffffffffffffffffffffffffffff1673ffffffffffffffffffffffffffffffffffffffff16815260200191505060405180910390f35b610118600480360360208110156100ec57600080fd5b81019080803573ffffffffffffffffffffffffffffffffffffffff169060200190929190505050610491565b604051808273ffffffffffffffffffffffffffffffffffffffff1673ffffffffffffffffffffffffffffffffffffffff16815260200191505060405180910390f35b61019c6004803603602081101561017057600080fd5b81019080803573ffffffffffffffffffffffffffffffffffffffff169060200190929190505050610892565b604051808381526020018281526020019250505060405180910390f35b6101fb600480360360208110156101cf57600080fd5b81019080803573ffffffffffffffffffffffffffffffffffffffff169060200190929190505050610cd0565b6040518082815260200191505060405180910390f35b6102536004803603602081101561022757600080fd5b81019080803573ffffffffffffffffffffffffffffffffffffffff169060200190929190505050611007565b005b6102976004803603602081101561026b57600080fd5b81019080803573ffffffffffffffffffffffffffffffffffffffff169060200190929190505050611214565b604051808373ffffffffffffffffffffffffffffffffffffffff1673ffffffffffffffffffffffffffffffffffffffff1681526020018281526020019250505060405180910390f35b6102e8611705565b73ffffffffffffffffffffffffffffffffffffffff166000809054906101000a900473ffffffffffffffffffffffffffffffffffffffff1673ffffffffffffffffffffffffffffffffffffffff16146103a9576040517f08c379a00000000000000000000000000000000000000000000000000000000081526004018080602001828103825260208152602001807f4f776e61626c653a2063616c6c6572206973206e6f7420746865206f776e657281525060200191505060405180910390fd5b600073ffffffffffffffffffffffffffffffffffffffff166000809054906101000a900473ffffffffffffffffffffffffffffffffffffffff1673ffffffffffffffffffffffffffffffffffffffff167f8be0079c531659141344cd1fd0a4f28419497f9722a3daafe3b4186f6b6457e060405160405180910390a360008060006101000a81548173ffffffffffffffffffffffffffffffffffffffff021916908373ffffffffffffffffffffffffffffffffffffffff160217905550565b60008060009054906101000a900473ffffffffffffffffffffffffffffffffffffffff16905090565b600080600160009054906101000a900473ffffffffffffffffffffffffffffffffffffffff1673ffffffffffffffffffffffffffffffffffffffff16630f47f5536040518163ffffffff1660e01b815260040160206040518083038186803b1580156104fc57600080fd5b505afa158015610510573d6000803e3d6000fd5b505050506040513d602081101561052657600080fd5b81019080805190602001909291905050501161058d576040517f08c379a000000000000000000000000000000000000000000000000000000000815260040180806020018281038252602981526020018061170e6029913960400191505060405180910390fd5b6000600160009054906101000a900473ffffffffffffffffffffffffffffffffffffffff1673ffffffffffffffffffffffffffffffffffffffff16630f47f5536040518163ffffffff1660e01b815260040160206040518083038186803b1580156105f757600080fd5b505afa15801561060b573d6000803e3d6000fd5b505050506040513d602081101561062157600080fd5b810190808051906020019092919050505090506000600160009054906101000a900473ffffffffffffffffffffffffffffffffffffffff1673ffffffffffffffffffffffffffffffffffffffff1663fbdbafad60006040518263ffffffff1660e01b81526004018082815260200191505060206040518083038186803b1580156106aa57600080fd5b505afa1580156106be573d6000803e3d6000fd5b505050506040513d60208110156106d457600080fd5b81019080805190602001909291905050509050600080905060008090505b83811015610886576000600160009054906101000a900473ffffffffffffffffffffffffffffffffffffffff1673ffffffffffffffffffffffffffffffffffffffff1663fbdbafad836040518263ffffffff1660e01b81526004018082815260200191505060206040518083038186803b15801561076f57600080fd5b505afa158015610783573d6000803e3d6000fd5b505050506040513d602081101561079957600080fd5b8101908080519060200190929190505050905060008173ffffffffffffffffffffffffffffffffffffffff16634be5c6a1896040518263ffffffff1660e01b8152600401808273ffffffffffffffffffffffffffffffffffffffff1673ffffffffffffffffffffffffffffffffffffffff16815260200191505060206040518083038186803b15801561082b57600080fd5b505afa15801561083f573d6000803e3d6000fd5b505050506040513d602081101561085557600080fd5b8101908080519060200190929190505050905083811115610877578194508093505b505080806001019150506106f2565b50819350505050919050565b6000806000600160009054906101000a900473ffffffffffffffffffffffffffffffffffffffff1673ffffffffffffffffffffffffffffffffffffffff16630f47f5536040518163ffffffff1660e01b815260040160206040518083038186803b1580156108ff57600080fd5b505afa158015610913573d6000803e3d6000fd5b505050506040513d602081101561092957600080fd5b810190808051906020019092919050505011610990576040517f08c379a000000000000000000000000000000000000000000000000000000000815260040180806020018281038252602981526020018061170e6029913960400191505060405180910390fd5b6000600160009054906101000a900473ffffffffffffffffffffffffffffffffffffffff1673ffffffffffffffffffffffffffffffffffffffff16630f47f5536040518163ffffffff1660e01b815260040160206040518083038186803b1580156109fa57600080fd5b505afa158015610a0e573d6000803e3d6000fd5b505050506040513d6020811015610a2457600080fd5b81019080805190602001909291905050509050600080905060007fffffffffffffffffffffffffffffffffffffffffffffffffffffffffffffffff905060008090505b83811015610cc1576000600160009054906101000a900473ffffffffffffffffffffffffffffffffffffffff1673ffffffffffffffffffffffffffffffffffffffff1663fbdbafad836040518263ffffffff1660e01b81526004018082815260200191505060206040518083038186803b158015610ae457600080fd5b505afa158015610af8573d6000803e3d6000fd5b505050506040513d6020811015610b0e57600080fd5b8101908080519060200190929190505050905060008173ffffffffffffffffffffffffffffffffffffffff16634be5c6a18a6040518263ffffffff1660e01b8152600401808273ffffffffffffffffffffffffffffffffffffffff1673ffffffffffffffffffffffffffffffffffffffff16815260200191505060206040518083038186803b158015610ba057600080fd5b505afa158015610bb4573d6000803e3d6000fd5b505050506040513d6020811015610bca57600080fd5b8101908080519060200190929190505050905060008273ffffffffffffffffffffffffffffffffffffffff1663684e505d8b6040518263ffffffff1660e01b8152600401808273ffffffffffffffffffffffffffffffffffffffff1673ffffffffffffffffffffffffffffffffffffffff16815260200191505060206040518083038186803b158015610c5c57600080fd5b505afa158015610c70573d6000803e3d6000fd5b505050506040513d6020811015610c8657600080fd5b8101908080519060200190929190505050905085821115610ca5578195505b84811015610cb1578094505b5050508080600101915050610a67565b50818194509450505050915091565b600080600160009054906101000a900473ffffffffffffffffffffffffffffffffffffffff1673ffffffffffffffffffffffffffffffffffffffff16630f47f5536040518163ffffffff1660e01b815260040160206040518083038186803b158015610d3b57600080fd5b505afa158015610d4f573d6000803e3d6000fd5b505050506040513d6020811015610d6557600080fd5b810190808051906020019092919050505011610dcc576040517f08c379a000000000000000000000000000000000000000000000000000000000815260040180806020018281038252602981526020018061170e6029913960400191505060405180910390fd5b60008090506000600160009054906101000a900473ffffffffffffffffffffffffffffffffffffffff1673ffffffffffffffffffffffffffffffffffffffff16630f47f5536040518163ffffffff1660e01b815260040160206040518083038186803b158015610e3b57600080fd5b505afa158015610e4f573d6000803e3d6000fd5b505050506040513d6020811015610e6557600080fd5b8101908080519060200190929190505050905060008090505b81811015610ffc57600160009054906101000a900473ffffffffffffffffffffffffffffffffffffffff1673ffffffffffffffffffffffffffffffffffffffff1663fbdbafad826040518263ffffffff1660e01b81526004018082815260200191505060206040518083038186803b158015610ef957600080fd5b505afa158015610f0d573d6000803e3d6000fd5b505050506040513d6020811015610f2357600080fd5b810190808051906020019092919050505073ffffffffffffffffffffffffffffffffffffffff1663476fe790866040518263ffffffff1660e01b8152600401808273ffffffffffffffffffffffffffffffffffffffff1673ffffffffffffffffffffffffffffffffffffffff16815260200191505060206040518083038186803b158015610fb057600080fd5b505afa158015610fc4573d6000803e3d6000fd5b505050506040513d6020811015610fda57600080fd5b8101908080519060200190929190505050830192508080600101915050610e7e565b508192505050919050565b61100f611705565b73ffffffffffffffffffffffffffffffffffffffff166000809054906101000a900473ffffffffffffffffffffffffffffffffffffffff1673ffffffffffffffffffffffffffffffffffffffff16146110d0576040517f08c379a00000000000000000000000000000000000000000000000000000000081526004018080602001828103825260208152602001807f4f776e61626c653a2063616c6c6572206973206e6f7420746865206f776e657281525060200191505060405180910390fd5b600073ffffffffffffffffffffffffffffffffffffffff168173ffffffffffffffffffffffffffffffffffffffff161415611156576040517f08c379a00000000000000000000000000000000000000000000000000000000081526004018080602001828103825260268152602001806117376026913960400191505060405180910390fd5b8073ffffffffffffffffffffffffffffffffffffffff166000809054906101000a900473ffffffffffffffffffffffffffffffffffffffff1673ffffffffffffffffffffffffffffffffffffffff167f8be0079c531659141344cd1fd0a4f28419497f9722a3daafe3b4186f6b6457e060405160405180910390a3806000806101000a81548173ffffffffffffffffffffffffffffffffffffffff021916908373ffffffffffffffffffffffffffffffffffffffff16021790555050565b6000806000600160009054906101000a900473ffffffffffffffffffffffffffffffffffffffff1673ffffffffffffffffffffffffffffffffffffffff16630f47f5536040518163ffffffff1660e01b815260040160206040518083038186803b15801561128157600080fd5b505afa158015611295573d6000803e3d6000fd5b505050506040513d60208110156112ab57600080fd5b810190808051906020019092919050505011611312576040517f08c379a000000000000000000000000000000000000000000000000000000000815260040180806020018281038252602981526020018061170e6029913960400191505060405180910390fd5b6000600160009054906101000a900473ffffffffffffffffffffffffffffffffffffffff1673ffffffffffffffffffffffffffffffffffffffff16630f47f5536040518163ffffffff1660e01b815260040160206040518083038186803b15801561137c57600080fd5b505afa158015611390573d6000803e3d6000fd5b505050506040513d60208110156113a657600080fd5b810190808051906020019092919050505090506000600160009054906101000a900473ffffffffffffffffffffffffffffffffffffffff1673ffffffffffffffffffffffffffffffffffffffff1663fbdbafad60006040518263ffffffff1660e01b81526004018082815260200191505060206040518083038186803b15801561142f57600080fd5b505afa158015611443573d6000803e3d6000fd5b505050506040513d602081101561145957600080fd5b8101908080519060200190929190505050905060007fffffffffffffffffffffffffffffffffffffffffffffffffffffffffffffffff90506000935060008090505b838110156116f9576000600160009054906101000a900473ffffffffffffffffffffffffffffffffffffffff1673ffffffffffffffffffffffffffffffffffffffff1663fbdbafad836040518263ffffffff1660e01b81526004018082815260200191505060206040518083038186803b15801561151857600080fd5b505afa15801561152c573d6000803e3d6000fd5b505050506040513d602081101561154257600080fd5b8101908080519060200190929190505050905060008173ffffffffffffffffffffffffffffffffffffffff16634be5c6a18a6040518263ffffffff1660e01b8152600401808273ffffffffffffffffffffffffffffffffffffffff1673ffffffffffffffffffffffffffffffffffffffff16815260200191505060206040518083038186803b1580156115d457600080fd5b505afa1580156115e8573d6000803e3d6000fd5b505050506040513d60208110156115fe57600080fd5b81019080805190602001909291905050509050838110156116ea5760008273ffffffffffffffffffffffffffffffffffffffff1663476fe7908b6040518263ffffffff1660e01b8152600401808273ffffffffffffffffffffffffffffffffffffffff1673ffffffffffffffffffffffffffffffffffffffff16815260200191505060206040518083038186803b15801561169857600080fd5b505afa1580156116ac573d6000803e3d6000fd5b505050506040513d60208110156116c257600080fd5b8101908080519060200190929190505050905060008111156116e8578295508097508194505b505b5050808060010191505061149b565b50819450505050915091565b60003390509056fe50726f7669646572536572766963653a2070726f766964657273206c69737420697320656d707479214f776e61626c653a206e6577206f776e657220697320746865207a65726f2061646472657373a26469706673582212201e7e222b828f701a62afd26e5464d0353e580ca5a607d5a326405c607a99688d64736f6c634300060a0033",
  "immutableReferences": {},
  "source": "// SPDX-License-Identifier: agpl-3.0\npragma solidity ^0.6.10;\n\nimport \"openzeppelin-solidity/contracts/access/Ownable.sol\";\nimport \"../core/ILendingProvider.sol\";\nimport \"../repositories/AddressRepository.sol\";\nimport \"../repositories/ProviderRepository.sol\";\n\n/**\n * @title ProvidersService\n * @notice Manages connected Lending providers\n * @author Mikhail Lazarev, github.com/MikaelLazarev\n */\n\ncontract ProviderService is Ownable {\n  ProviderRepository private providerRepository;\n\n  modifier providersListIsNotEmpy() {\n    require(\n      providerRepository.getProvidersQty() > 0,\n      \"ProviderService: providers list is empty!\"\n    );\n    _;\n  }\n\n  constructor(address addressRepositoryAddress) public {\n    AddressRepository addressRepository = AddressRepository(\n      addressRepositoryAddress\n    );\n    providerRepository = ProviderRepository(\n      addressRepository.getProviderRepository()\n    );\n  }\n\n  function getProviderWithHighestLiquidityRate(address _reserveAddress)\n    external\n    view\n    providersListIsNotEmpy\n    returns (address)\n  {\n    uint256 providersListQty = providerRepository.getProvidersQty();\n    ILendingProvider result = ILendingProvider(providerRepository.getProviderByIndex(0));\n    uint256 liquidityRate = 0;\n\n    for (uint256 i = 0; i < providersListQty; i++) {\n      ILendingProvider curProvider = ILendingProvider(providerRepository.getProviderByIndex(i));\n      uint256 curLiquidityRate = curProvider.getReserveLiquidityRate(\n        _reserveAddress\n      );\n      if (curLiquidityRate > liquidityRate) {\n        result = curProvider;\n        liquidityRate = curLiquidityRate;\n      }\n    }\n    return address(result);\n  }\n\n  function getProviderWithLowestLiquidityRate(address _reserveAddress)\n    external\n    view\n    providersListIsNotEmpy\n    returns (address providerAddress, uint256 availableLiquidity)\n  {\n    uint256 providersListQty = providerRepository.getProvidersQty();\n    ILendingProvider provider = ILendingProvider(providerRepository.getProviderByIndex(0));\n\n    uint256 liquidityRate = uint256(-1);\n    availableLiquidity = 0;\n\n    for (uint256 i = 0; i < providersListQty; i++) {\n      ILendingProvider curProvider = ILendingProvider(providerRepository.getProviderByIndex(i));\n      uint256 curLiquidityRate = curProvider.getReserveLiquidityRate(\n        _reserveAddress\n      );\n\n      // If we found lower rate\n      if (curLiquidityRate < liquidityRate) {\n        // check how much liquidity provider has\n        uint256 curAvaibleLiquidity = curProvider.getAvaibleLiquidity(\n          _reserveAddress\n        );\n\n        // if liquidity > 0, set it as result provider till we do not find better one\n        if (curAvaibleLiquidity > 0) {\n          provider = curProvider;\n          availableLiquidity = curAvaibleLiquidity;\n          liquidityRate = curLiquidityRate;\n        }\n      }\n    }\n\n    providerAddress = address(provider);\n  }\n\n  function getTotalAvaibleLiquidity(address _reserveAddress)\n    external\n    view\n    providersListIsNotEmpy\n    returns (uint256)\n  {\n    uint256 availableLiquidity = 0;\n    uint256 providerListLenght = providerRepository.getProvidersQty();\n    for (uint256 i = 0; i < providerListLenght; i++) {\n      availableLiquidity += ILendingProvider(providerRepository\n        .getProviderByIndex(i))\n        .getAvaibleLiquidity(_reserveAddress);\n    }\n    return availableLiquidity;\n  }\n\n  function getBestRates(address _reserve) external view providersListIsNotEmpy returns (uint256, uint256)   {\n    uint256 providersListQty = providerRepository.getProvidersQty();\n    uint256 depositRate = 0;\n    uint256 borrowRate = uint256(-1);\n\n    for (uint256 i = 0; i < providersListQty; i++) {\n      ILendingProvider curProvider = ILendingProvider(providerRepository.getProviderByIndex(i));\n      uint256 curDepositRate = curProvider.getReserveLiquidityRate(\n        _reserve\n      );\n      uint256 curBorrowRate = curProvider.getReserveBorrowRate(_reserve);\n      if (curDepositRate > depositRate) {\n          depositRate = curDepositRate;\n      }\n      if (curBorrowRate < borrowRate) {\n          borrowRate = curBorrowRate;\n      }\n    }\n    return (depositRate, borrowRate);\n  }\n\n\n\n}\n",
  "sourcePath": "/Users/mikhail/Coding/jucifi/contracts/services/ProviderService.sol",
  "compiler": {
    "name": "solc",
    "version": "0.6.10+commit.00c0fcaf.Emscripten.clang"
  },
  "schemaVersion": "3.2.5",
  "updatedAt": "2020-10-22T16:42:01.197Z",
  "networkType": "ethereum",
  "devdoc": {
    "author": "Mikhail Lazarev, github.com/MikaelLazarev",
    "methods": {
      "owner()": {
        "details": "Returns the address of the current owner."
      },
      "renounceOwnership()": {
        "details": "Leaves the contract without owner. It will not be possible to call `onlyOwner` functions anymore. Can only be called by the current owner. NOTE: Renouncing ownership will leave the contract without an owner, thereby removing any functionality that is only available to the owner."
      },
      "transferOwnership(address)": {
        "details": "Transfers ownership of the contract to a new account (`newOwner`). Can only be called by the current owner."
      }
    },
    "title": "ProvidersService"
  },
  "userdoc": {
    "methods": {},
    "notice": "Manages connected Lending providers"
  }
}