{
  "contractName": "ProvidersManager",
  "abi": [
    {
      "anonymous": false,
      "inputs": [
        {
          "indexed": false,
          "internalType": "address",
          "name": "_providerAddress",
          "type": "address"
        },
        {
          "indexed": false,
          "internalType": "uint256",
          "name": "_timestamp",
          "type": "uint256"
        }
      ],
      "name": "NewProvider",
      "type": "event"
    },
    {
      "anonymous": false,
      "inputs": [
        {
          "indexed": true,
          "internalType": "address",
          "name": "previousOwner",
          "type": "address"
        },
        {
          "indexed": true,
          "internalType": "address",
          "name": "newOwner",
          "type": "address"
        }
      ],
      "name": "OwnershipTransferred",
      "type": "event"
    },
    {
      "inputs": [],
      "name": "owner",
      "outputs": [
        {
          "internalType": "address",
          "name": "",
          "type": "address"
        }
      ],
      "stateMutability": "view",
      "type": "function"
    },
    {
      "inputs": [],
      "name": "renounceOwnership",
      "outputs": [],
      "stateMutability": "nonpayable",
      "type": "function"
    },
    {
      "inputs": [
        {
          "internalType": "address",
          "name": "newOwner",
          "type": "address"
        }
      ],
      "name": "transferOwnership",
      "outputs": [],
      "stateMutability": "nonpayable",
      "type": "function"
    },
    {
      "inputs": [
        {
          "internalType": "address",
          "name": "_providerAddress",
          "type": "address"
        }
      ],
      "name": "setProvider",
      "outputs": [],
      "stateMutability": "nonpayable",
      "type": "function"
    },
    {
      "inputs": [
        {
          "internalType": "address",
          "name": "_providerAddress",
          "type": "address"
        }
      ],
      "name": "getProviderOrFail",
      "outputs": [
        {
          "internalType": "contract ILendingProvider",
          "name": "",
          "type": "address"
        }
      ],
      "stateMutability": "view",
      "type": "function"
    },
    {
      "inputs": [],
      "name": "getProvidesList",
      "outputs": [
        {
          "internalType": "address[]",
          "name": "",
          "type": "address[]"
        }
      ],
      "stateMutability": "view",
      "type": "function"
    },
    {
      "inputs": [
        {
          "internalType": "address",
          "name": "_reserveAddress",
          "type": "address"
        }
      ],
      "name": "getProviderWithBestLiquidityRate",
      "outputs": [
        {
          "internalType": "address",
          "name": "",
          "type": "address"
        }
      ],
      "stateMutability": "view",
      "type": "function"
    }
  ],
  "bytecode": "0x608060405234801561001057600080fd5b5060006100216100c460201b60201c565b9050806000806101000a81548173ffffffffffffffffffffffffffffffffffffffff021916908373ffffffffffffffffffffffffffffffffffffffff1602179055508073ffffffffffffffffffffffffffffffffffffffff16600073ffffffffffffffffffffffffffffffffffffffff167f8be0079c531659141344cd1fd0a4f28419497f9722a3daafe3b4186f6b6457e060405160405180910390a3506100cc565b600033905090565b610e5b806100db6000396000f3fe608060405234801561001057600080fd5b506004361061007d5760003560e01c8063c49c7d8a1161005b578063c49c7d8a14610135578063cfd8d6c0146101b9578063e39e9849146101fd578063f2fde38b146102815761007d565b8063715018a6146100825780638da5cb5b1461008c578063afab8759146100d6575b600080fd5b61008a6102c5565b005b61009461044d565b604051808273ffffffffffffffffffffffffffffffffffffffff1673ffffffffffffffffffffffffffffffffffffffff16815260200191505060405180910390f35b6100de610476565b6040518080602001828103825283818151815260200191508051906020019060200280838360005b83811015610121578082015181840152602081019050610106565b505050509050019250505060405180910390f35b6101776004803603602081101561014b57600080fd5b81019080803573ffffffffffffffffffffffffffffffffffffffff169060200190929190505050610504565b604051808273ffffffffffffffffffffffffffffffffffffffff1673ffffffffffffffffffffffffffffffffffffffff16815260200191505060405180910390f35b6101fb600480360360208110156101cf57600080fd5b81019080803573ffffffffffffffffffffffffffffffffffffffff169060200190929190505050610654565b005b61023f6004803603602081101561021357600080fd5b81019080803573ffffffffffffffffffffffffffffffffffffffff169060200190929190505050610950565b604051808273ffffffffffffffffffffffffffffffffffffffff1673ffffffffffffffffffffffffffffffffffffffff16815260200191505060405180910390f35b6102c36004803603602081101561029757600080fd5b81019080803573ffffffffffffffffffffffffffffffffffffffff169060200190929190505050610b62565b005b6102cd610d6f565b73ffffffffffffffffffffffffffffffffffffffff166000809054906101000a900473ffffffffffffffffffffffffffffffffffffffff1673ffffffffffffffffffffffffffffffffffffffff161461038e576040517f08c379a00000000000000000000000000000000000000000000000000000000081526004018080602001828103825260208152602001807f4f776e61626c653a2063616c6c6572206973206e6f7420746865206f776e657281525060200191505060405180910390fd5b600073ffffffffffffffffffffffffffffffffffffffff166000809054906101000a900473ffffffffffffffffffffffffffffffffffffffff1673ffffffffffffffffffffffffffffffffffffffff167f8be0079c531659141344cd1fd0a4f28419497f9722a3daafe3b4186f6b6457e060405160405180910390a360008060006101000a81548173ffffffffffffffffffffffffffffffffffffffff021916908373ffffffffffffffffffffffffffffffffffffffff160217905550565b60008060009054906101000a900473ffffffffffffffffffffffffffffffffffffffff16905090565b606060028054806020026020016040519081016040528092919081815260200182805480156104fa57602002820191906000526020600020905b8160009054906101000a900473ffffffffffffffffffffffffffffffffffffffff1673ffffffffffffffffffffffffffffffffffffffff16815260200190600101908083116104b0575b5050505050905090565b600081600073ffffffffffffffffffffffffffffffffffffffff16600160008373ffffffffffffffffffffffffffffffffffffffff1673ffffffffffffffffffffffffffffffffffffffff16815260200190815260200160002060009054906101000a900473ffffffffffffffffffffffffffffffffffffffff1673ffffffffffffffffffffffffffffffffffffffff1614156105ec576040517f08c379a000000000000000000000000000000000000000000000000000000000815260040180806020018281038252602d815260200180610dcf602d913960400191505060405180910390fd5b600160008473ffffffffffffffffffffffffffffffffffffffff1673ffffffffffffffffffffffffffffffffffffffff16815260200190815260200160002060009054906101000a900473ffffffffffffffffffffffffffffffffffffffff16915050919050565b61065c610d6f565b73ffffffffffffffffffffffffffffffffffffffff166000809054906101000a900473ffffffffffffffffffffffffffffffffffffffff1673ffffffffffffffffffffffffffffffffffffffff161461071d576040517f08c379a00000000000000000000000000000000000000000000000000000000081526004018080602001828103825260208152602001807f4f776e61626c653a2063616c6c6572206973206e6f7420746865206f776e657281525060200191505060405180910390fd5b600073ffffffffffffffffffffffffffffffffffffffff16600160008373ffffffffffffffffffffffffffffffffffffffff1673ffffffffffffffffffffffffffffffffffffffff16815260200190815260200160002060009054906101000a900473ffffffffffffffffffffffffffffffffffffffff1673ffffffffffffffffffffffffffffffffffffffff1614610801576040517f08c379a0000000000000000000000000000000000000000000000000000000008152600401808060200182810382526031815260200180610d9e6031913960400191505060405180910390fd5b80600160008373ffffffffffffffffffffffffffffffffffffffff1673ffffffffffffffffffffffffffffffffffffffff16815260200190815260200160002060006101000a81548173ffffffffffffffffffffffffffffffffffffffff021916908373ffffffffffffffffffffffffffffffffffffffff1602179055506002819080600181540180825580915050600190039060005260206000200160009091909190916101000a81548173ffffffffffffffffffffffffffffffffffffffff021916908373ffffffffffffffffffffffffffffffffffffffff1602179055507f39944be52180e3811405a754586ce476cd9d34d40e98835c2b4c77eb26426b5b8142604051808373ffffffffffffffffffffffffffffffffffffffff1673ffffffffffffffffffffffffffffffffffffffff1681526020018281526020019250505060405180910390a150565b600080600280549050116109af576040517f08c379a000000000000000000000000000000000000000000000000000000000815260040180806020018281038252602a815260200180610dfc602a913960400191505060405180910390fd5b60006002805490509050600060026000815481106109c957fe5b9060005260206000200160009054906101000a900473ffffffffffffffffffffffffffffffffffffffff169050600080905060008090505b83811015610b5657600060028281548110610a1857fe5b9060005260206000200160009054906101000a900473ffffffffffffffffffffffffffffffffffffffff16905060008173ffffffffffffffffffffffffffffffffffffffff16634be5c6a1896040518263ffffffff1660e01b8152600401808273ffffffffffffffffffffffffffffffffffffffff1673ffffffffffffffffffffffffffffffffffffffff16815260200191505060206040518083038186803b158015610ac457600080fd5b505afa158015610ad8573d6000803e3d6000fd5b505050506040513d6020811015610aee57600080fd5b8101908080519060200190929190505050905083811115610b475760028381548110610b1657fe5b9060005260206000200160009054906101000a900473ffffffffffffffffffffffffffffffffffffffff1694508093505b50508080600101915050610a01565b50819350505050919050565b610b6a610d6f565b73ffffffffffffffffffffffffffffffffffffffff166000809054906101000a900473ffffffffffffffffffffffffffffffffffffffff1673ffffffffffffffffffffffffffffffffffffffff1614610c2b576040517f08c379a00000000000000000000000000000000000000000000000000000000081526004018080602001828103825260208152602001807f4f776e61626c653a2063616c6c6572206973206e6f7420746865206f776e657281525060200191505060405180910390fd5b600073ffffffffffffffffffffffffffffffffffffffff168173ffffffffffffffffffffffffffffffffffffffff161415610cb1576040517f08c379a0000000000000000000000000000000000000000000000000000000008152600401808060200182810382526026815260200180610d786026913960400191505060405180910390fd5b8073ffffffffffffffffffffffffffffffffffffffff166000809054906101000a900473ffffffffffffffffffffffffffffffffffffffff1673ffffffffffffffffffffffffffffffffffffffff167f8be0079c531659141344cd1fd0a4f28419497f9722a3daafe3b4186f6b6457e060405160405180910390a3806000806101000a81548173ffffffffffffffffffffffffffffffffffffffff021916908373ffffffffffffffffffffffffffffffffffffffff16021790555050565b60003390509056fe4f776e61626c653a206e6577206f776e657220697320746865207a65726f206164647265737350726f7669646572734d616e616765723a2050726f766964657220697320616c726561647920696e20746865206c69737450726f7669646572734d616e616765723a2050726f7669646572206973206e6f7420696e20746865206c69737450726f7669646572734d616e616765723a2070726f766964657273206c69737420697320656d70747921a2646970667358221220480c7a08a7ae26feab13436e58323c3a85b901e1ce6ecd27c77f70109f21b90564736f6c634300060a0033",
  "immutableReferences": {},
  "source": "// SPDX-License-Identifier: agpl-3.0\npragma solidity ^0.6.10;\n\nimport \"openzeppelin-solidity/contracts/access/Ownable.sol\";\nimport \"../interfaces/ILendingProvider.sol\";\n\n/**\n * @title Lending Protocols Manager\n * @notice Manages connected Lending protocols\n * @author Mikhail Lazarev, github.com/MikaelLazarev\n */\n\ncontract ProvidersManager is Ownable {\n    mapping(address => address) providers;\n    address[] providersList;\n\n    /**\n     * @dev emitted on deposit\n     * @param _providerAddress the address of the new provider added\n     * @param _timestamp the timestamp of the action\n     **/\n    event NewProvider(address _providerAddress, uint256 _timestamp);\n\n    /**\n     * @dev Adds new lending provider to the list\n     * throw exception if provider is already exists in the list\n     * @param _providerAddress - the address of the provider contract\n     */\n    modifier providerHasExist(address _providerAddress) {\n        require(\n            providers[_providerAddress] != address(0),\n            \"ProvidersManager: Provider is not in the list\"\n        );\n        _;\n    }\n\n    modifier providersListIsNotEmpy() {\n        require(\n            providersList.length > 0,\n            \"ProvidersManager: providers list is empty!\"\n        );\n        _;\n    }\n\n    /**\n     * @dev Adds new lending provider to the list\n     * throw exception if provider is already exists in the list\n     * @param _providerAddress - the address of the provider contract\n     */\n    function setProvider(address _providerAddress) public onlyOwner {\n        require(\n            providers[_providerAddress] == address(0),\n            \"ProvidersManager: Provider is already in the list\"\n        );\n        providers[_providerAddress] = _providerAddress;\n        providersList.push(_providerAddress);\n\n        emit NewProvider(_providerAddress, block.timestamp);\n    }\n\n    /**\n     * @dev Gets provider by it's contract address or fails\n     * throw exception if provider is already exists in the list\n     * @param _providerAddress the address of the provider contract\n     * @return -\n     */\n\n    function getProviderOrFail(address _providerAddress)\n        public\n        view\n        providerHasExist(_providerAddress)\n        returns (ILendingProvider)\n    {\n        return ILendingProvider(providers[_providerAddress]);\n    }\n\n    function getProvidesList() public view returns (address[] memory) {\n        return providersList;\n    }\n\n    function getProviderWithBestLiquidityRate(address _reserveAddress)\n        external\n        view\n        providersListIsNotEmpy\n        returns (address)\n    {\n        uint256 providerListLenght = providersList.length;\n        address result = providersList[0];\n        uint256 liquidityRate = 0;\n\n        for (uint256 i = 0; i < providerListLenght; i++) {\n            ILendingProvider curProvider = ILendingProvider(providersList[i]);\n            uint256 curLiquidityRate = curProvider.getReserveLiquidityRate(\n                _reserveAddress\n            );\n            if (curLiquidityRate > liquidityRate) {\n                result = providersList[i];\n                liquidityRate = curLiquidityRate;\n            }\n        }\n        return result;\n    }\n}\n",
  "sourcePath": "/Users/mikhail/Coding/jucifi/contracts/core/ProvidersManager.sol",
  "compiler": {
    "name": "solc",
    "version": "0.6.10+commit.00c0fcaf.Emscripten.clang"
  },
  "schemaVersion": "3.2.5",
  "updatedAt": "2020-10-15T14:54:06.011Z",
  "devdoc": {
    "author": "Mikhail Lazarev, github.com/MikaelLazarev",
    "methods": {
      "getProviderOrFail(address)": {
        "details": "Gets provider by it's contract address or fails throw exception if provider is already exists in the list",
        "params": {
          "_providerAddress": "the address of the provider contract"
        },
        "returns": {
          "_0": "-"
        }
      },
      "owner()": {
        "details": "Returns the address of the current owner."
      },
      "renounceOwnership()": {
        "details": "Leaves the contract without owner. It will not be possible to call `onlyOwner` functions anymore. Can only be called by the current owner. NOTE: Renouncing ownership will leave the contract without an owner, thereby removing any functionality that is only available to the owner."
      },
      "setProvider(address)": {
        "details": "Adds new lending provider to the list throw exception if provider is already exists in the list",
        "params": {
          "_providerAddress": "- the address of the provider contract"
        }
      },
      "transferOwnership(address)": {
        "details": "Transfers ownership of the contract to a new account (`newOwner`). Can only be called by the current owner."
      }
    },
    "title": "Lending Protocols Manager"
  },
  "userdoc": {
    "methods": {},
    "notice": "Manages connected Lending protocols"
  }
}