{
  "contractName": "ProvidersManager",
  "abi": [
    {
      "anonymous": false,
      "inputs": [
        {
          "indexed": false,
          "internalType": "address",
          "name": "_providerAddress",
          "type": "address"
        },
        {
          "indexed": false,
          "internalType": "uint256",
          "name": "_timestamp",
          "type": "uint256"
        }
      ],
      "name": "NewProvider",
      "type": "event"
    },
    {
      "anonymous": false,
      "inputs": [
        {
          "indexed": true,
          "internalType": "address",
          "name": "previousOwner",
          "type": "address"
        },
        {
          "indexed": true,
          "internalType": "address",
          "name": "newOwner",
          "type": "address"
        }
      ],
      "name": "OwnershipTransferred",
      "type": "event"
    },
    {
      "inputs": [],
      "name": "owner",
      "outputs": [
        {
          "internalType": "address",
          "name": "",
          "type": "address"
        }
      ],
      "stateMutability": "view",
      "type": "function"
    },
    {
      "inputs": [],
      "name": "renounceOwnership",
      "outputs": [],
      "stateMutability": "nonpayable",
      "type": "function"
    },
    {
      "inputs": [
        {
          "internalType": "address",
          "name": "newOwner",
          "type": "address"
        }
      ],
      "name": "transferOwnership",
      "outputs": [],
      "stateMutability": "nonpayable",
      "type": "function"
    },
    {
      "inputs": [
        {
          "internalType": "address",
          "name": "_providerAddress",
          "type": "address"
        }
      ],
      "name": "setProvider",
      "outputs": [],
      "stateMutability": "nonpayable",
      "type": "function"
    },
    {
      "inputs": [
        {
          "internalType": "address",
          "name": "_providerAddress",
          "type": "address"
        }
      ],
      "name": "getProviderOrFail",
      "outputs": [
        {
          "internalType": "contract ILendingProvider",
          "name": "",
          "type": "address"
        }
      ],
      "stateMutability": "view",
      "type": "function"
    },
    {
      "inputs": [],
      "name": "getProvidesList",
      "outputs": [
        {
          "internalType": "address[]",
          "name": "",
          "type": "address[]"
        }
      ],
      "stateMutability": "view",
      "type": "function"
    },
    {
      "inputs": [
        {
          "internalType": "address",
          "name": "_reserveAddress",
          "type": "address"
        }
      ],
      "name": "getProviderWithHighestLiquidityRate",
      "outputs": [
        {
          "internalType": "address",
          "name": "",
          "type": "address"
        }
      ],
      "stateMutability": "view",
      "type": "function"
    },
    {
      "inputs": [
        {
          "internalType": "address",
          "name": "_reserveAddress",
          "type": "address"
        }
      ],
      "name": "getProviderWithLowestLiquidityRate",
      "outputs": [
        {
          "internalType": "address",
          "name": "provider",
          "type": "address"
        },
        {
          "internalType": "uint256",
          "name": "availableLiquidity",
          "type": "uint256"
        }
      ],
      "stateMutability": "view",
      "type": "function"
    },
    {
      "inputs": [
        {
          "internalType": "address",
          "name": "_reserveAddress",
          "type": "address"
        }
      ],
      "name": "getAvaibleLiquidity",
      "outputs": [
        {
          "internalType": "uint256",
          "name": "",
          "type": "uint256"
        }
      ],
      "stateMutability": "view",
      "type": "function"
    }
  ],
  "bytecode": "0x608060405234801561001057600080fd5b5060006100216100c460201b60201c565b9050806000806101000a81548173ffffffffffffffffffffffffffffffffffffffff021916908373ffffffffffffffffffffffffffffffffffffffff1602179055508073ffffffffffffffffffffffffffffffffffffffff16600073ffffffffffffffffffffffffffffffffffffffff167f8be0079c531659141344cd1fd0a4f28419497f9722a3daafe3b4186f6b6457e060405160405180910390a3506100cc565b600033905090565b6113dd806100db6000396000f3fe608060405234801561001057600080fd5b50600436106100935760003560e01c8063afab875911610066578063afab8759146101c8578063c49c7d8a14610227578063cfd8d6c0146102ab578063f2fde38b146102ef578063f32a4baa1461033357610093565b8063476fe79014610098578063715018a6146100f05780638da5cb5b146100fa5780639956db4314610144575b600080fd5b6100da600480360360208110156100ae57600080fd5b81019080803573ffffffffffffffffffffffffffffffffffffffff1690602001909291905050506103be565b6040518082815260200191505060405180910390f35b6100f861054b565b005b6101026106d3565b604051808273ffffffffffffffffffffffffffffffffffffffff1673ffffffffffffffffffffffffffffffffffffffff16815260200191505060405180910390f35b6101866004803603602081101561015a57600080fd5b81019080803573ffffffffffffffffffffffffffffffffffffffff1690602001909291905050506106fc565b604051808273ffffffffffffffffffffffffffffffffffffffff1673ffffffffffffffffffffffffffffffffffffffff16815260200191505060405180910390f35b6101d061090e565b6040518080602001828103825283818151815260200191508051906020019060200280838360005b838110156102135780820151818401526020810190506101f8565b505050509050019250505060405180910390f35b6102696004803603602081101561023d57600080fd5b81019080803573ffffffffffffffffffffffffffffffffffffffff16906020019092919050505061099c565b604051808273ffffffffffffffffffffffffffffffffffffffff1673ffffffffffffffffffffffffffffffffffffffff16815260200191505060405180910390f35b6102ed600480360360208110156102c157600080fd5b81019080803573ffffffffffffffffffffffffffffffffffffffff169060200190929190505050610aec565b005b6103316004803603602081101561030557600080fd5b81019080803573ffffffffffffffffffffffffffffffffffffffff169060200190929190505050610de8565b005b6103756004803603602081101561034957600080fd5b81019080803573ffffffffffffffffffffffffffffffffffffffff169060200190929190505050610ff5565b604051808373ffffffffffffffffffffffffffffffffffffffff1673ffffffffffffffffffffffffffffffffffffffff1681526020018281526020019250505060405180910390f35b6000806002805490501161041d576040517f08c379a000000000000000000000000000000000000000000000000000000000815260040180806020018281038252602a81526020018061137e602a913960400191505060405180910390fd5b60008090506000600280549050905060008090505b818110156105405760006002828154811061044957fe5b9060005260206000200160009054906101000a900473ffffffffffffffffffffffffffffffffffffffff1690508073ffffffffffffffffffffffffffffffffffffffff1663476fe790876040518263ffffffff1660e01b8152600401808273ffffffffffffffffffffffffffffffffffffffff1673ffffffffffffffffffffffffffffffffffffffff16815260200191505060206040518083038186803b1580156104f357600080fd5b505afa158015610507573d6000803e3d6000fd5b505050506040513d602081101561051d57600080fd5b810190808051906020019092919050505084019350508080600101915050610432565b508192505050919050565b6105536112f1565b73ffffffffffffffffffffffffffffffffffffffff166000809054906101000a900473ffffffffffffffffffffffffffffffffffffffff1673ffffffffffffffffffffffffffffffffffffffff1614610614576040517f08c379a00000000000000000000000000000000000000000000000000000000081526004018080602001828103825260208152602001807f4f776e61626c653a2063616c6c6572206973206e6f7420746865206f776e657281525060200191505060405180910390fd5b600073ffffffffffffffffffffffffffffffffffffffff166000809054906101000a900473ffffffffffffffffffffffffffffffffffffffff1673ffffffffffffffffffffffffffffffffffffffff167f8be0079c531659141344cd1fd0a4f28419497f9722a3daafe3b4186f6b6457e060405160405180910390a360008060006101000a81548173ffffffffffffffffffffffffffffffffffffffff021916908373ffffffffffffffffffffffffffffffffffffffff160217905550565b60008060009054906101000a900473ffffffffffffffffffffffffffffffffffffffff16905090565b6000806002805490501161075b576040517f08c379a000000000000000000000000000000000000000000000000000000000815260040180806020018281038252602a81526020018061137e602a913960400191505060405180910390fd5b600060028054905090506000600260008154811061077557fe5b9060005260206000200160009054906101000a900473ffffffffffffffffffffffffffffffffffffffff169050600080905060008090505b83811015610902576000600282815481106107c457fe5b9060005260206000200160009054906101000a900473ffffffffffffffffffffffffffffffffffffffff16905060008173ffffffffffffffffffffffffffffffffffffffff16634be5c6a1896040518263ffffffff1660e01b8152600401808273ffffffffffffffffffffffffffffffffffffffff1673ffffffffffffffffffffffffffffffffffffffff16815260200191505060206040518083038186803b15801561087057600080fd5b505afa158015610884573d6000803e3d6000fd5b505050506040513d602081101561089a57600080fd5b81019080805190602001909291905050509050838111156108f357600283815481106108c257fe5b9060005260206000200160009054906101000a900473ffffffffffffffffffffffffffffffffffffffff1694508093505b505080806001019150506107ad565b50819350505050919050565b6060600280548060200260200160405190810160405280929190818152602001828054801561099257602002820191906000526020600020905b8160009054906101000a900473ffffffffffffffffffffffffffffffffffffffff1673ffffffffffffffffffffffffffffffffffffffff1681526020019060010190808311610948575b5050505050905090565b600081600073ffffffffffffffffffffffffffffffffffffffff16600160008373ffffffffffffffffffffffffffffffffffffffff1673ffffffffffffffffffffffffffffffffffffffff16815260200190815260200160002060009054906101000a900473ffffffffffffffffffffffffffffffffffffffff1673ffffffffffffffffffffffffffffffffffffffff161415610a84576040517f08c379a000000000000000000000000000000000000000000000000000000000815260040180806020018281038252602d815260200180611351602d913960400191505060405180910390fd5b600160008473ffffffffffffffffffffffffffffffffffffffff1673ffffffffffffffffffffffffffffffffffffffff16815260200190815260200160002060009054906101000a900473ffffffffffffffffffffffffffffffffffffffff16915050919050565b610af46112f1565b73ffffffffffffffffffffffffffffffffffffffff166000809054906101000a900473ffffffffffffffffffffffffffffffffffffffff1673ffffffffffffffffffffffffffffffffffffffff1614610bb5576040517f08c379a00000000000000000000000000000000000000000000000000000000081526004018080602001828103825260208152602001807f4f776e61626c653a2063616c6c6572206973206e6f7420746865206f776e657281525060200191505060405180910390fd5b600073ffffffffffffffffffffffffffffffffffffffff16600160008373ffffffffffffffffffffffffffffffffffffffff1673ffffffffffffffffffffffffffffffffffffffff16815260200190815260200160002060009054906101000a900473ffffffffffffffffffffffffffffffffffffffff1673ffffffffffffffffffffffffffffffffffffffff1614610c99576040517f08c379a00000000000000000000000000000000000000000000000000000000081526004018080602001828103825260318152602001806113206031913960400191505060405180910390fd5b80600160008373ffffffffffffffffffffffffffffffffffffffff1673ffffffffffffffffffffffffffffffffffffffff16815260200190815260200160002060006101000a81548173ffffffffffffffffffffffffffffffffffffffff021916908373ffffffffffffffffffffffffffffffffffffffff1602179055506002819080600181540180825580915050600190039060005260206000200160009091909190916101000a81548173ffffffffffffffffffffffffffffffffffffffff021916908373ffffffffffffffffffffffffffffffffffffffff1602179055507f39944be52180e3811405a754586ce476cd9d34d40e98835c2b4c77eb26426b5b8142604051808373ffffffffffffffffffffffffffffffffffffffff1673ffffffffffffffffffffffffffffffffffffffff1681526020018281526020019250505060405180910390a150565b610df06112f1565b73ffffffffffffffffffffffffffffffffffffffff166000809054906101000a900473ffffffffffffffffffffffffffffffffffffffff1673ffffffffffffffffffffffffffffffffffffffff1614610eb1576040517f08c379a00000000000000000000000000000000000000000000000000000000081526004018080602001828103825260208152602001807f4f776e61626c653a2063616c6c6572206973206e6f7420746865206f776e657281525060200191505060405180910390fd5b600073ffffffffffffffffffffffffffffffffffffffff168173ffffffffffffffffffffffffffffffffffffffff161415610f37576040517f08c379a00000000000000000000000000000000000000000000000000000000081526004018080602001828103825260268152602001806112fa6026913960400191505060405180910390fd5b8073ffffffffffffffffffffffffffffffffffffffff166000809054906101000a900473ffffffffffffffffffffffffffffffffffffffff1673ffffffffffffffffffffffffffffffffffffffff167f8be0079c531659141344cd1fd0a4f28419497f9722a3daafe3b4186f6b6457e060405160405180910390a3806000806101000a81548173ffffffffffffffffffffffffffffffffffffffff021916908373ffffffffffffffffffffffffffffffffffffffff16021790555050565b600080600060028054905011611056576040517f08c379a000000000000000000000000000000000000000000000000000000000815260040180806020018281038252602a81526020018061137e602a913960400191505060405180910390fd5b60006002805490509050600260008154811061106e57fe5b9060005260206000200160009054906101000a900473ffffffffffffffffffffffffffffffffffffffff16925060007fffffffffffffffffffffffffffffffffffffffffffffffffffffffffffffffff90506000925060008090505b828110156112e9576000600282815481106110e157fe5b9060005260206000200160009054906101000a900473ffffffffffffffffffffffffffffffffffffffff16905060008173ffffffffffffffffffffffffffffffffffffffff16634be5c6a1896040518263ffffffff1660e01b8152600401808273ffffffffffffffffffffffffffffffffffffffff1673ffffffffffffffffffffffffffffffffffffffff16815260200191505060206040518083038186803b15801561118d57600080fd5b505afa1580156111a1573d6000803e3d6000fd5b505050506040513d60208110156111b757600080fd5b81019080805190602001909291905050509050838110156112da5760008273ffffffffffffffffffffffffffffffffffffffff1663476fe7908a6040518263ffffffff1660e01b8152600401808273ffffffffffffffffffffffffffffffffffffffff1673ffffffffffffffffffffffffffffffffffffffff16815260200191505060206040518083038186803b15801561125157600080fd5b505afa158015611265573d6000803e3d6000fd5b505050506040513d602081101561127b57600080fd5b8101908080519060200190929190505050905060008111156112d857600284815481106112a457fe5b9060005260206000200160009054906101000a900473ffffffffffffffffffffffffffffffffffffffff1697508096508194505b505b505080806001019150506110ca565b505050915091565b60003390509056fe4f776e61626c653a206e6577206f776e657220697320746865207a65726f206164647265737350726f7669646572734d616e616765723a2050726f766964657220697320616c726561647920696e20746865206c69737450726f7669646572734d616e616765723a2050726f7669646572206973206e6f7420696e20746865206c69737450726f7669646572734d616e616765723a2070726f766964657273206c69737420697320656d70747921a264697066735822122069a023bfc3a5d53f5e875ef3ed6ae30d846cde6abd521a6023f118b0607a7b7f64736f6c634300060a0033",
  "immutableReferences": {},
  "source": "// SPDX-License-Identifier: agpl-3.0\npragma solidity ^0.6.10;\n\nimport \"openzeppelin-solidity/contracts/access/Ownable.sol\";\nimport \"../interfaces/ILendingProvider.sol\";\n\n/**\n * @title Lending Protocols Manager\n * @notice Manages connected Lending protocols\n * @author Mikhail Lazarev, github.com/MikaelLazarev\n */\n\ncontract ProvidersManager is Ownable {\n    mapping(address => address) providers;\n    address[] providersList;\n\n    /**\n     * @dev emitted on deposit\n     * @param _providerAddress the address of the new provider added\n     * @param _timestamp the timestamp of the action\n     **/\n    event NewProvider(address _providerAddress, uint256 _timestamp);\n\n    /**\n     * @dev Adds new lending provider to the list\n     * throw exception if provider is already exists in the list\n     * @param _providerAddress - the address of the provider contract\n     */\n    modifier providerHasExist(address _providerAddress) {\n        require(\n            providers[_providerAddress] != address(0),\n            \"ProvidersManager: Provider is not in the list\"\n        );\n        _;\n    }\n\n    modifier providersListIsNotEmpy() {\n        require(\n            providersList.length > 0,\n            \"ProvidersManager: providers list is empty!\"\n        );\n        _;\n    }\n\n    /**\n     * @dev Adds new lending provider to the list\n     * throw exception if provider is already exists in the list\n     * @param _providerAddress - the address of the provider contract\n     */\n    function setProvider(address _providerAddress) public onlyOwner {\n        require(\n            providers[_providerAddress] == address(0),\n            \"ProvidersManager: Provider is already in the list\"\n        );\n        providers[_providerAddress] = _providerAddress;\n        providersList.push(_providerAddress);\n\n        emit NewProvider(_providerAddress, block.timestamp);\n    }\n\n    /**\n     * @dev Gets provider by it's contract address or fails\n     * throw exception if provider is already exists in the list\n     * @param _providerAddress the address of the provider contract\n     * @return -\n     */\n\n    function getProviderOrFail(address _providerAddress)\n        public\n        view\n        providerHasExist(_providerAddress)\n        returns (ILendingProvider)\n    {\n        return ILendingProvider(providers[_providerAddress]);\n    }\n\n    function getProvidesList() public view returns (address[] memory) {\n        return providersList;\n    }\n\n    function getProviderWithHighestLiquidityRate(address _reserveAddress)\n        external\n        view\n        providersListIsNotEmpy\n        returns (address)\n    {\n        uint256 providerListLenght = providersList.length;\n        address result = providersList[0];\n        uint256 liquidityRate = 0;\n\n        for (uint256 i = 0; i < providerListLenght; i++) {\n            ILendingProvider curProvider = ILendingProvider(providersList[i]);\n            uint256 curLiquidityRate = curProvider.getReserveLiquidityRate(\n                _reserveAddress\n            );\n            if (curLiquidityRate > liquidityRate) {\n                result = providersList[i];\n                liquidityRate = curLiquidityRate;\n            }\n        }\n        return result;\n    }\n\n    function getProviderWithLowestLiquidityRate(address _reserveAddress)\n        external\n        view\n        providersListIsNotEmpy\n        returns (address provider, uint256 availableLiquidity)\n    {\n        uint256 providerListLenght = providersList.length;\n        provider = providersList[0];\n        uint256 liquidityRate = uint256(-1);\n        availableLiquidity = 0;\n\n        for (uint256 i = 0; i < providerListLenght; i++) {\n            ILendingProvider curProvider = ILendingProvider(providersList[i]);\n            uint256 curLiquidityRate = curProvider.getReserveLiquidityRate(\n                _reserveAddress\n            );\n\n            // If we found lower rate\n            if (curLiquidityRate < liquidityRate) {\n                // check how much liquidity provider has\n                uint256 curAvaibleLiquidity = curProvider.getAvaibleLiquidity(\n                    _reserveAddress\n                );\n\n                // if liquidity > 0, set it as result provider till we do not find better one\n                if (curAvaibleLiquidity > 0) {\n                    provider = providersList[i];\n                    availableLiquidity = curAvaibleLiquidity;\n                    liquidityRate = curLiquidityRate;\n                }\n            }\n        }\n    }\n\n    function getAvaibleLiquidity(address _reserveAddress)\n        external\n        view\n        providersListIsNotEmpy\n        returns (uint256)\n    {\n        uint256 availableLiquidity = 0;\n        uint256 providerListLenght = providersList.length;\n        for (uint256 i = 0; i < providerListLenght; i++) {\n            ILendingProvider curProvider = ILendingProvider(providersList[i]);\n            availableLiquidity += curProvider.getAvaibleLiquidity(\n                _reserveAddress\n            );\n        }\n        return availableLiquidity;\n    }\n}\n",
  "sourcePath": "/Users/mikhail/Coding/jucifi/contracts/core/ProvidersManager.sol",
  "compiler": {
    "name": "solc",
    "version": "0.6.10+commit.00c0fcaf.Emscripten.clang"
  },
  "schemaVersion": "3.2.5",
  "updatedAt": "2020-10-17T11:06:17.316Z",
  "devdoc": {
    "author": "Mikhail Lazarev, github.com/MikaelLazarev",
    "methods": {
      "getProviderOrFail(address)": {
        "details": "Gets provider by it's contract address or fails throw exception if provider is already exists in the list",
        "params": {
          "_providerAddress": "the address of the provider contract"
        },
        "returns": {
          "_0": "-"
        }
      },
      "owner()": {
        "details": "Returns the address of the current owner."
      },
      "renounceOwnership()": {
        "details": "Leaves the contract without owner. It will not be possible to call `onlyOwner` functions anymore. Can only be called by the current owner. NOTE: Renouncing ownership will leave the contract without an owner, thereby removing any functionality that is only available to the owner."
      },
      "setProvider(address)": {
        "details": "Adds new lending provider to the list throw exception if provider is already exists in the list",
        "params": {
          "_providerAddress": "- the address of the provider contract"
        }
      },
      "transferOwnership(address)": {
        "details": "Transfers ownership of the contract to a new account (`newOwner`). Can only be called by the current owner."
      }
    },
    "title": "Lending Protocols Manager"
  },
  "userdoc": {
    "methods": {},
    "notice": "Manages connected Lending protocols"
  }
}