{
  "contractName": "ProviderService",
  "abi": [
    {
      "inputs": [
        {
          "internalType": "address",
          "name": "addressRepositoryAddress",
          "type": "address"
        }
      ],
      "stateMutability": "nonpayable",
      "type": "constructor"
    },
    {
      "anonymous": false,
      "inputs": [
        {
          "indexed": true,
          "internalType": "address",
          "name": "previousOwner",
          "type": "address"
        },
        {
          "indexed": true,
          "internalType": "address",
          "name": "newOwner",
          "type": "address"
        }
      ],
      "name": "OwnershipTransferred",
      "type": "event"
    },
    {
      "inputs": [],
      "name": "owner",
      "outputs": [
        {
          "internalType": "address",
          "name": "",
          "type": "address"
        }
      ],
      "stateMutability": "view",
      "type": "function"
    },
    {
      "inputs": [],
      "name": "renounceOwnership",
      "outputs": [],
      "stateMutability": "nonpayable",
      "type": "function"
    },
    {
      "inputs": [
        {
          "internalType": "address",
          "name": "newOwner",
          "type": "address"
        }
      ],
      "name": "transferOwnership",
      "outputs": [],
      "stateMutability": "nonpayable",
      "type": "function"
    },
    {
      "inputs": [
        {
          "internalType": "address",
          "name": "_reserveAddress",
          "type": "address"
        }
      ],
      "name": "getProviderWithHighestLiquidityRate",
      "outputs": [
        {
          "internalType": "address",
          "name": "",
          "type": "address"
        }
      ],
      "stateMutability": "view",
      "type": "function"
    },
    {
      "inputs": [
        {
          "internalType": "address",
          "name": "_reserveAddress",
          "type": "address"
        }
      ],
      "name": "getProviderWithLowestLiquidityRate",
      "outputs": [
        {
          "internalType": "address",
          "name": "providerAddress",
          "type": "address"
        },
        {
          "internalType": "uint256",
          "name": "availableLiquidity",
          "type": "uint256"
        }
      ],
      "stateMutability": "view",
      "type": "function"
    },
    {
      "inputs": [
        {
          "internalType": "address",
          "name": "_reserveAddress",
          "type": "address"
        }
      ],
      "name": "getTotalAvaibleLiquidity",
      "outputs": [
        {
          "internalType": "uint256",
          "name": "",
          "type": "uint256"
        }
      ],
      "stateMutability": "view",
      "type": "function"
    }
  ],
  "bytecode": "0x608060405234801561001057600080fd5b506040516114b03803806114b08339818101604052602081101561003357600080fd5b810190808051906020019092919050505060006100546101bf60201b60201c565b9050806000806101000a81548173ffffffffffffffffffffffffffffffffffffffff021916908373ffffffffffffffffffffffffffffffffffffffff1602179055508073ffffffffffffffffffffffffffffffffffffffff16600073ffffffffffffffffffffffffffffffffffffffff167f8be0079c531659141344cd1fd0a4f28419497f9722a3daafe3b4186f6b6457e060405160405180910390a35060008190508073ffffffffffffffffffffffffffffffffffffffff1663c15c03886040518163ffffffff1660e01b815260040160206040518083038186803b15801561013d57600080fd5b505afa158015610151573d6000803e3d6000fd5b505050506040513d602081101561016757600080fd5b8101908080519060200190929190505050600160006101000a81548173ffffffffffffffffffffffffffffffffffffffff021916908373ffffffffffffffffffffffffffffffffffffffff16021790555050506101c7565b600033905090565b6112da806101d66000396000f3fe608060405234801561001057600080fd5b50600436106100625760003560e01c8063715018a6146100675780638da5cb5b146100715780639956db43146100bb578063ac885c241461013f578063f2fde38b14610197578063f32a4baa146101db575b600080fd5b61006f610266565b005b6100796103ee565b604051808273ffffffffffffffffffffffffffffffffffffffff1673ffffffffffffffffffffffffffffffffffffffff16815260200191505060405180910390f35b6100fd600480360360208110156100d157600080fd5b81019080803573ffffffffffffffffffffffffffffffffffffffff169060200190929190505050610417565b604051808273ffffffffffffffffffffffffffffffffffffffff1673ffffffffffffffffffffffffffffffffffffffff16815260200191505060405180910390f35b6101816004803603602081101561015557600080fd5b81019080803573ffffffffffffffffffffffffffffffffffffffff169060200190929190505050610818565b6040518082815260200191505060405180910390f35b6101d9600480360360208110156101ad57600080fd5b81019080803573ffffffffffffffffffffffffffffffffffffffff169060200190929190505050610b4f565b005b61021d600480360360208110156101f157600080fd5b81019080803573ffffffffffffffffffffffffffffffffffffffff169060200190929190505050610d5c565b604051808373ffffffffffffffffffffffffffffffffffffffff1673ffffffffffffffffffffffffffffffffffffffff1681526020018281526020019250505060405180910390f35b61026e61124d565b73ffffffffffffffffffffffffffffffffffffffff166000809054906101000a900473ffffffffffffffffffffffffffffffffffffffff1673ffffffffffffffffffffffffffffffffffffffff161461032f576040517f08c379a00000000000000000000000000000000000000000000000000000000081526004018080602001828103825260208152602001807f4f776e61626c653a2063616c6c6572206973206e6f7420746865206f776e657281525060200191505060405180910390fd5b600073ffffffffffffffffffffffffffffffffffffffff166000809054906101000a900473ffffffffffffffffffffffffffffffffffffffff1673ffffffffffffffffffffffffffffffffffffffff167f8be0079c531659141344cd1fd0a4f28419497f9722a3daafe3b4186f6b6457e060405160405180910390a360008060006101000a81548173ffffffffffffffffffffffffffffffffffffffff021916908373ffffffffffffffffffffffffffffffffffffffff160217905550565b60008060009054906101000a900473ffffffffffffffffffffffffffffffffffffffff16905090565b600080600160009054906101000a900473ffffffffffffffffffffffffffffffffffffffff1673ffffffffffffffffffffffffffffffffffffffff16630f47f5536040518163ffffffff1660e01b815260040160206040518083038186803b15801561048257600080fd5b505afa158015610496573d6000803e3d6000fd5b505050506040513d60208110156104ac57600080fd5b810190808051906020019092919050505011610513576040517f08c379a00000000000000000000000000000000000000000000000000000000081526004018080602001828103825260298152602001806112566029913960400191505060405180910390fd5b6000600160009054906101000a900473ffffffffffffffffffffffffffffffffffffffff1673ffffffffffffffffffffffffffffffffffffffff16630f47f5536040518163ffffffff1660e01b815260040160206040518083038186803b15801561057d57600080fd5b505afa158015610591573d6000803e3d6000fd5b505050506040513d60208110156105a757600080fd5b810190808051906020019092919050505090506000600160009054906101000a900473ffffffffffffffffffffffffffffffffffffffff1673ffffffffffffffffffffffffffffffffffffffff1663fbdbafad60006040518263ffffffff1660e01b81526004018082815260200191505060206040518083038186803b15801561063057600080fd5b505afa158015610644573d6000803e3d6000fd5b505050506040513d602081101561065a57600080fd5b81019080805190602001909291905050509050600080905060008090505b8381101561080c576000600160009054906101000a900473ffffffffffffffffffffffffffffffffffffffff1673ffffffffffffffffffffffffffffffffffffffff1663fbdbafad836040518263ffffffff1660e01b81526004018082815260200191505060206040518083038186803b1580156106f557600080fd5b505afa158015610709573d6000803e3d6000fd5b505050506040513d602081101561071f57600080fd5b8101908080519060200190929190505050905060008173ffffffffffffffffffffffffffffffffffffffff16634be5c6a1896040518263ffffffff1660e01b8152600401808273ffffffffffffffffffffffffffffffffffffffff1673ffffffffffffffffffffffffffffffffffffffff16815260200191505060206040518083038186803b1580156107b157600080fd5b505afa1580156107c5573d6000803e3d6000fd5b505050506040513d60208110156107db57600080fd5b81019080805190602001909291905050509050838111156107fd578194508093505b50508080600101915050610678565b50819350505050919050565b600080600160009054906101000a900473ffffffffffffffffffffffffffffffffffffffff1673ffffffffffffffffffffffffffffffffffffffff16630f47f5536040518163ffffffff1660e01b815260040160206040518083038186803b15801561088357600080fd5b505afa158015610897573d6000803e3d6000fd5b505050506040513d60208110156108ad57600080fd5b810190808051906020019092919050505011610914576040517f08c379a00000000000000000000000000000000000000000000000000000000081526004018080602001828103825260298152602001806112566029913960400191505060405180910390fd5b60008090506000600160009054906101000a900473ffffffffffffffffffffffffffffffffffffffff1673ffffffffffffffffffffffffffffffffffffffff16630f47f5536040518163ffffffff1660e01b815260040160206040518083038186803b15801561098357600080fd5b505afa158015610997573d6000803e3d6000fd5b505050506040513d60208110156109ad57600080fd5b8101908080519060200190929190505050905060008090505b81811015610b4457600160009054906101000a900473ffffffffffffffffffffffffffffffffffffffff1673ffffffffffffffffffffffffffffffffffffffff1663fbdbafad826040518263ffffffff1660e01b81526004018082815260200191505060206040518083038186803b158015610a4157600080fd5b505afa158015610a55573d6000803e3d6000fd5b505050506040513d6020811015610a6b57600080fd5b810190808051906020019092919050505073ffffffffffffffffffffffffffffffffffffffff1663476fe790866040518263ffffffff1660e01b8152600401808273ffffffffffffffffffffffffffffffffffffffff1673ffffffffffffffffffffffffffffffffffffffff16815260200191505060206040518083038186803b158015610af857600080fd5b505afa158015610b0c573d6000803e3d6000fd5b505050506040513d6020811015610b2257600080fd5b81019080805190602001909291905050508301925080806001019150506109c6565b508192505050919050565b610b5761124d565b73ffffffffffffffffffffffffffffffffffffffff166000809054906101000a900473ffffffffffffffffffffffffffffffffffffffff1673ffffffffffffffffffffffffffffffffffffffff1614610c18576040517f08c379a00000000000000000000000000000000000000000000000000000000081526004018080602001828103825260208152602001807f4f776e61626c653a2063616c6c6572206973206e6f7420746865206f776e657281525060200191505060405180910390fd5b600073ffffffffffffffffffffffffffffffffffffffff168173ffffffffffffffffffffffffffffffffffffffff161415610c9e576040517f08c379a000000000000000000000000000000000000000000000000000000000815260040180806020018281038252602681526020018061127f6026913960400191505060405180910390fd5b8073ffffffffffffffffffffffffffffffffffffffff166000809054906101000a900473ffffffffffffffffffffffffffffffffffffffff1673ffffffffffffffffffffffffffffffffffffffff167f8be0079c531659141344cd1fd0a4f28419497f9722a3daafe3b4186f6b6457e060405160405180910390a3806000806101000a81548173ffffffffffffffffffffffffffffffffffffffff021916908373ffffffffffffffffffffffffffffffffffffffff16021790555050565b6000806000600160009054906101000a900473ffffffffffffffffffffffffffffffffffffffff1673ffffffffffffffffffffffffffffffffffffffff16630f47f5536040518163ffffffff1660e01b815260040160206040518083038186803b158015610dc957600080fd5b505afa158015610ddd573d6000803e3d6000fd5b505050506040513d6020811015610df357600080fd5b810190808051906020019092919050505011610e5a576040517f08c379a00000000000000000000000000000000000000000000000000000000081526004018080602001828103825260298152602001806112566029913960400191505060405180910390fd5b6000600160009054906101000a900473ffffffffffffffffffffffffffffffffffffffff1673ffffffffffffffffffffffffffffffffffffffff16630f47f5536040518163ffffffff1660e01b815260040160206040518083038186803b158015610ec457600080fd5b505afa158015610ed8573d6000803e3d6000fd5b505050506040513d6020811015610eee57600080fd5b810190808051906020019092919050505090506000600160009054906101000a900473ffffffffffffffffffffffffffffffffffffffff1673ffffffffffffffffffffffffffffffffffffffff1663fbdbafad60006040518263ffffffff1660e01b81526004018082815260200191505060206040518083038186803b158015610f7757600080fd5b505afa158015610f8b573d6000803e3d6000fd5b505050506040513d6020811015610fa157600080fd5b8101908080519060200190929190505050905060007fffffffffffffffffffffffffffffffffffffffffffffffffffffffffffffffff90506000935060008090505b83811015611241576000600160009054906101000a900473ffffffffffffffffffffffffffffffffffffffff1673ffffffffffffffffffffffffffffffffffffffff1663fbdbafad836040518263ffffffff1660e01b81526004018082815260200191505060206040518083038186803b15801561106057600080fd5b505afa158015611074573d6000803e3d6000fd5b505050506040513d602081101561108a57600080fd5b8101908080519060200190929190505050905060008173ffffffffffffffffffffffffffffffffffffffff16634be5c6a18a6040518263ffffffff1660e01b8152600401808273ffffffffffffffffffffffffffffffffffffffff1673ffffffffffffffffffffffffffffffffffffffff16815260200191505060206040518083038186803b15801561111c57600080fd5b505afa158015611130573d6000803e3d6000fd5b505050506040513d602081101561114657600080fd5b81019080805190602001909291905050509050838110156112325760008273ffffffffffffffffffffffffffffffffffffffff1663476fe7908b6040518263ffffffff1660e01b8152600401808273ffffffffffffffffffffffffffffffffffffffff1673ffffffffffffffffffffffffffffffffffffffff16815260200191505060206040518083038186803b1580156111e057600080fd5b505afa1580156111f4573d6000803e3d6000fd5b505050506040513d602081101561120a57600080fd5b810190808051906020019092919050505090506000811115611230578295508097508194505b505b50508080600101915050610fe3565b50819450505050915091565b60003390509056fe50726f7669646572536572766963653a2070726f766964657273206c69737420697320656d707479214f776e61626c653a206e6577206f776e657220697320746865207a65726f2061646472657373a26469706673582212207817bda04f19e3634fdf2d4ed89a23e19dbfdde93d82404581ebd1588044825864736f6c634300060a0033",
  "immutableReferences": {},
  "source": "// SPDX-License-Identifier: agpl-3.0\npragma solidity ^0.6.10;\n\nimport \"openzeppelin-solidity/contracts/access/Ownable.sol\";\nimport \"../core/ILendingProvider.sol\";\nimport \"../repositories/AddressRepository.sol\";\nimport \"../repositories/ProviderRepository.sol\";\n\n/**\n * @title ProvidersService\n * @notice Manages connected Lending providers\n * @author Mikhail Lazarev, github.com/MikaelLazarev\n */\n\ncontract ProviderService is Ownable {\n  ProviderRepository private providerRepository;\n\n  modifier providersListIsNotEmpy() {\n    require(\n      providerRepository.getProvidersQty() > 0,\n      \"ProviderService: providers list is empty!\"\n    );\n    _;\n  }\n\n  constructor(address addressRepositoryAddress) public {\n    AddressRepository addressRepository = AddressRepository(\n      addressRepositoryAddress\n    );\n    providerRepository = ProviderRepository(\n      addressRepository.getProviderRepository()\n    );\n  }\n\n  function getProviderWithHighestLiquidityRate(address _reserveAddress)\n    external\n    view\n    providersListIsNotEmpy\n    returns (address)\n  {\n    uint256 providersListQty = providerRepository.getProvidersQty();\n    ILendingProvider result = providerRepository.getProviderByIndex(0);\n    uint256 liquidityRate = 0;\n\n    for (uint256 i = 0; i < providersListQty; i++) {\n      ILendingProvider curProvider = providerRepository.getProviderByIndex(i);\n      uint256 curLiquidityRate = curProvider.getReserveLiquidityRate(\n        _reserveAddress\n      );\n      if (curLiquidityRate > liquidityRate) {\n        result = curProvider;\n        liquidityRate = curLiquidityRate;\n      }\n    }\n    return address(result);\n  }\n\n  function getProviderWithLowestLiquidityRate(address _reserveAddress)\n    external\n    view\n    providersListIsNotEmpy\n    returns (address providerAddress, uint256 availableLiquidity)\n  {\n    uint256 providersListQty = providerRepository.getProvidersQty();\n    ILendingProvider provider = providerRepository.getProviderByIndex(0);\n\n    uint256 liquidityRate = uint256(-1);\n    availableLiquidity = 0;\n\n    for (uint256 i = 0; i < providersListQty; i++) {\n      ILendingProvider curProvider = providerRepository.getProviderByIndex(i);\n      uint256 curLiquidityRate = curProvider.getReserveLiquidityRate(\n        _reserveAddress\n      );\n\n      // If we found lower rate\n      if (curLiquidityRate < liquidityRate) {\n        // check how much liquidity provider has\n        uint256 curAvaibleLiquidity = curProvider.getAvaibleLiquidity(\n          _reserveAddress\n        );\n\n        // if liquidity > 0, set it as result provider till we do not find better one\n        if (curAvaibleLiquidity > 0) {\n          provider = curProvider;\n          availableLiquidity = curAvaibleLiquidity;\n          liquidityRate = curLiquidityRate;\n        }\n      }\n    }\n\n    providerAddress = address(provider);\n  }\n\n  function getTotalAvaibleLiquidity(address _reserveAddress)\n    external\n    view\n    providersListIsNotEmpy\n    returns (uint256)\n  {\n    uint256 availableLiquidity = 0;\n    uint256 providerListLenght = providerRepository.getProvidersQty();\n    for (uint256 i = 0; i < providerListLenght; i++) {\n      availableLiquidity += providerRepository\n        .getProviderByIndex(i)\n        .getAvaibleLiquidity(_reserveAddress);\n    }\n    return availableLiquidity;\n  }\n}\n",
  "sourcePath": "/Users/mikhail/Coding/jucifi/contracts/services/ProviderService.sol",
  "compiler": {
    "name": "solc",
    "version": "0.6.10+commit.00c0fcaf.Emscripten.clang"
  },
  "schemaVersion": "3.2.5",
  "updatedAt": "2020-10-18T16:15:56.296Z",
  "devdoc": {
    "author": "Mikhail Lazarev, github.com/MikaelLazarev",
    "methods": {
      "owner()": {
        "details": "Returns the address of the current owner."
      },
      "renounceOwnership()": {
        "details": "Leaves the contract without owner. It will not be possible to call `onlyOwner` functions anymore. Can only be called by the current owner. NOTE: Renouncing ownership will leave the contract without an owner, thereby removing any functionality that is only available to the owner."
      },
      "transferOwnership(address)": {
        "details": "Transfers ownership of the contract to a new account (`newOwner`). Can only be called by the current owner."
      }
    },
    "title": "ProvidersService"
  },
  "userdoc": {
    "methods": {},
    "notice": "Manages connected Lending providers"
  }
}