{
  "contractName": "ReserveRepository",
  "abi": [
    {
      "inputs": [
        {
          "internalType": "address",
          "name": "_reserve",
          "type": "address"
        },
        {
          "internalType": "address",
          "name": "_vTokenAddress",
          "type": "address"
        },
        {
          "internalType": "uint256",
          "name": "_loanToValue",
          "type": "uint256"
        },
        {
          "internalType": "uint256",
          "name": "_liquidationThreshold",
          "type": "uint256"
        },
        {
          "internalType": "uint256",
          "name": "_liquidationBonus",
          "type": "uint256"
        }
      ],
      "name": "addReserve",
      "outputs": [],
      "stateMutability": "nonpayable",
      "type": "function"
    },
    {
      "inputs": [
        {
          "internalType": "address",
          "name": "_reserve",
          "type": "address"
        }
      ],
      "name": "isReserveActive",
      "outputs": [
        {
          "internalType": "bool",
          "name": "",
          "type": "bool"
        }
      ],
      "stateMutability": "view",
      "type": "function"
    },
    {
      "inputs": [
        {
          "internalType": "address",
          "name": "_reserve",
          "type": "address"
        }
      ],
      "name": "getTotalLiquidity",
      "outputs": [
        {
          "internalType": "uint256",
          "name": "",
          "type": "uint256"
        }
      ],
      "stateMutability": "view",
      "type": "function"
    },
    {
      "inputs": [
        {
          "internalType": "address",
          "name": "_reserve",
          "type": "address"
        },
        {
          "internalType": "uint256",
          "name": "_totalLiquidity",
          "type": "uint256"
        }
      ],
      "name": "setTotalLiquidity",
      "outputs": [],
      "stateMutability": "nonpayable",
      "type": "function"
    },
    {
      "inputs": [
        {
          "internalType": "address",
          "name": "_reserve",
          "type": "address"
        }
      ],
      "name": "getAvailableLiquidity",
      "outputs": [
        {
          "internalType": "uint256",
          "name": "",
          "type": "uint256"
        }
      ],
      "stateMutability": "view",
      "type": "function"
    },
    {
      "inputs": [
        {
          "internalType": "address",
          "name": "_reserve",
          "type": "address"
        },
        {
          "internalType": "uint256",
          "name": "_availableLiquidity",
          "type": "uint256"
        }
      ],
      "name": "setAvailableLiquidity",
      "outputs": [],
      "stateMutability": "nonpayable",
      "type": "function"
    },
    {
      "inputs": [
        {
          "internalType": "address",
          "name": "_reserve",
          "type": "address"
        },
        {
          "internalType": "address",
          "name": "_contractAddress",
          "type": "address"
        }
      ],
      "name": "setTokenContract",
      "outputs": [],
      "stateMutability": "nonpayable",
      "type": "function"
    },
    {
      "inputs": [
        {
          "internalType": "address",
          "name": "_reserve",
          "type": "address"
        }
      ],
      "name": "getVTokenContract",
      "outputs": [
        {
          "internalType": "contract VToken",
          "name": "",
          "type": "address"
        }
      ],
      "stateMutability": "view",
      "type": "function"
    },
    {
      "inputs": [
        {
          "internalType": "address",
          "name": "_reserve",
          "type": "address"
        }
      ],
      "name": "isActive",
      "outputs": [
        {
          "internalType": "bool",
          "name": "",
          "type": "bool"
        }
      ],
      "stateMutability": "view",
      "type": "function"
    },
    {
      "inputs": [
        {
          "internalType": "address",
          "name": "_reserve",
          "type": "address"
        },
        {
          "internalType": "bool",
          "name": "_active",
          "type": "bool"
        }
      ],
      "name": "setActive",
      "outputs": [],
      "stateMutability": "nonpayable",
      "type": "function"
    },
    {
      "inputs": [
        {
          "internalType": "address",
          "name": "_reserve",
          "type": "address"
        }
      ],
      "name": "getLoanToValue",
      "outputs": [
        {
          "internalType": "uint256",
          "name": "",
          "type": "uint256"
        }
      ],
      "stateMutability": "view",
      "type": "function"
    }
  ],
  "bytecode": "0x608060405234801561001057600080fd5b50610a1e806100206000396000f3fe608060405234801561001057600080fd5b50600436106100a95760003560e01c8063988d240811610071578063988d2408146102b85780639de8ef79146103065780639f8a13d71461035e578063a4a94567146103ba578063cd67c4f81461041e578063fcda065e1461046c576100a9565b8063266e2bd8146100ae5780632ce962cf146101065780636fe732d11461015657806372e06c0f146101d8578063883c042b1461025c575b600080fd5b6100f0600480360360208110156100c457600080fd5b81019080803573ffffffffffffffffffffffffffffffffffffffff1690602001909291905050506104c4565b6040518082815260200191505060405180910390f35b6101546004803603604081101561011c57600080fd5b81019080803573ffffffffffffffffffffffffffffffffffffffff16906020019092919080351515906020019092919050505061050f565b005b6101d6600480360360a081101561016c57600080fd5b81019080803573ffffffffffffffffffffffffffffffffffffffff169060200190929190803573ffffffffffffffffffffffffffffffffffffffff16906020019092919080359060200190929190803590602001909291908035906020019092919050505061056c565b005b61021a600480360360208110156101ee57600080fd5b81019080803573ffffffffffffffffffffffffffffffffffffffff16906020019092919050505061071f565b604051808273ffffffffffffffffffffffffffffffffffffffff1673ffffffffffffffffffffffffffffffffffffffff16815260200191505060405180910390f35b61029e6004803603602081101561027257600080fd5b81019080803573ffffffffffffffffffffffffffffffffffffffff16906020019092919050505061078a565b604051808215151515815260200191505060405180910390f35b610304600480360360408110156102ce57600080fd5b81019080803573ffffffffffffffffffffffffffffffffffffffff169060200190929190803590602001909291905050506107e2565b005b6103486004803603602081101561031c57600080fd5b81019080803573ffffffffffffffffffffffffffffffffffffffff16906020019092919050505061082c565b6040518082815260200191505060405180910390f35b6103a06004803603602081101561037457600080fd5b81019080803573ffffffffffffffffffffffffffffffffffffffff169060200190929190505050610877565b604051808215151515815260200191505060405180910390f35b61041c600480360360408110156103d057600080fd5b81019080803573ffffffffffffffffffffffffffffffffffffffff169060200190929190803573ffffffffffffffffffffffffffffffffffffffff1690602001909291905050506108cf565b005b61046a6004803603604081101561043457600080fd5b81019080803573ffffffffffffffffffffffffffffffffffffffff16906020019092919080359060200190929190505050610953565b005b6104ae6004803603602081101561048257600080fd5b81019080803573ffffffffffffffffffffffffffffffffffffffff16906020019092919050505061099d565b6040518082815260200191505060405180910390f35b60008060008373ffffffffffffffffffffffffffffffffffffffff1673ffffffffffffffffffffffffffffffffffffffff168152602001908152602001600020600101549050919050565b806000808473ffffffffffffffffffffffffffffffffffffffff1673ffffffffffffffffffffffffffffffffffffffff16815260200190815260200160002060050160146101000a81548160ff0219169083151502179055505050565b826000808773ffffffffffffffffffffffffffffffffffffffff1673ffffffffffffffffffffffffffffffffffffffff16815260200190815260200160002060020181905550816000808773ffffffffffffffffffffffffffffffffffffffff1673ffffffffffffffffffffffffffffffffffffffff16815260200190815260200160002060030181905550806000808773ffffffffffffffffffffffffffffffffffffffff1673ffffffffffffffffffffffffffffffffffffffff16815260200190815260200160002060040181905550836000808773ffffffffffffffffffffffffffffffffffffffff1673ffffffffffffffffffffffffffffffffffffffff16815260200190815260200160002060050160006101000a81548173ffffffffffffffffffffffffffffffffffffffff021916908373ffffffffffffffffffffffffffffffffffffffff16021790555060016000808773ffffffffffffffffffffffffffffffffffffffff1673ffffffffffffffffffffffffffffffffffffffff16815260200190815260200160002060050160146101000a81548160ff0219169083151502179055505050505050565b60008060008373ffffffffffffffffffffffffffffffffffffffff1673ffffffffffffffffffffffffffffffffffffffff16815260200190815260200160002060050160009054906101000a900473ffffffffffffffffffffffffffffffffffffffff169050919050565b60008060008373ffffffffffffffffffffffffffffffffffffffff1673ffffffffffffffffffffffffffffffffffffffff16815260200190815260200160002060050160149054906101000a900460ff169050919050565b806000808473ffffffffffffffffffffffffffffffffffffffff1673ffffffffffffffffffffffffffffffffffffffff168152602001908152602001600020600001819055505050565b60008060008373ffffffffffffffffffffffffffffffffffffffff1673ffffffffffffffffffffffffffffffffffffffff168152602001908152602001600020600001549050919050565b60008060008373ffffffffffffffffffffffffffffffffffffffff1673ffffffffffffffffffffffffffffffffffffffff16815260200190815260200160002060050160149054906101000a900460ff169050919050565b806000808473ffffffffffffffffffffffffffffffffffffffff1673ffffffffffffffffffffffffffffffffffffffff16815260200190815260200160002060050160006101000a81548173ffffffffffffffffffffffffffffffffffffffff021916908373ffffffffffffffffffffffffffffffffffffffff1602179055505050565b806000808473ffffffffffffffffffffffffffffffffffffffff1673ffffffffffffffffffffffffffffffffffffffff168152602001908152602001600020600101819055505050565b60008060008373ffffffffffffffffffffffffffffffffffffffff1673ffffffffffffffffffffffffffffffffffffffff16815260200190815260200160002060020154905091905056fea26469706673582212202167541b951c8cc83a7c3059da4b8e859f0e81d8bf46427387e8a7df285bb58564736f6c634300060a0033",
  "immutableReferences": {},
  "source": "// SPDX-License-Identifier: agpl-3.0\npragma solidity ^0.6.10;\n\nimport \"../token/VToken.sol\";\n\ncontract ReserveRepository {\n  struct Reserve {\n    uint256 totalLiquidity;\n    uint256 availableLiquidity;\n    uint256 loanToValue;\n    uint256 liquidationThreshold;\n    uint256 liquidationBonus;\n    address vTokenContract;\n    bool isActive;\n  }\n\n  mapping(address => Reserve) reserves;\n\n  function addReserve(\n    address _reserve,\n    address _vTokenAddress,\n    uint256 _loanToValue,\n    uint256 _liquidationThreshold,\n    uint256 _liquidationBonus\n\n  ) public {\n    reserves[_reserve].loanToValue = _loanToValue;\n    reserves[_reserve].liquidationThreshold = _liquidationThreshold;\n    reserves[_reserve].liquidationBonus = _liquidationBonus;\n\n    reserves[_reserve].vTokenContract = _vTokenAddress;\n    reserves[_reserve].isActive = true;\n  }\n\n  function isReserveActive(address _reserve) external view returns (bool) {\n    return reserves[_reserve].isActive;\n  }\n\n  function getTotalLiquidity(address _reserve) external view returns (uint256) {\n    return reserves[_reserve].totalLiquidity;\n  }\n\n  function setTotalLiquidity(address _reserve, uint256 _totalLiquidity)\n    external\n  {\n    reserves[_reserve].totalLiquidity = _totalLiquidity;\n  }\n\n  function getAvailableLiquidity(address _reserve)\n    external\n    view\n    returns (uint256)\n  {\n    return reserves[_reserve].availableLiquidity;\n  }\n\n  function setAvailableLiquidity(address _reserve, uint256 _availableLiquidity)\n    external\n  {\n    reserves[_reserve].availableLiquidity = _availableLiquidity;\n  }\n\n  function setTokenContract(address _reserve, address _contractAddress)\n    external\n  {\n    reserves[_reserve].vTokenContract = _contractAddress;\n  }\n\n  function getVTokenContract(address _reserve) external view returns (VToken) {\n    return VToken(reserves[_reserve].vTokenContract);\n  }\n\n  function isActive(address _reserve) external view returns (bool) {\n    return reserves[_reserve].isActive;\n  }\n\n  function setActive(address _reserve, bool _active) external {\n    reserves[_reserve].isActive = _active;\n  }\n\n  function getLoanToValue(address _reserve) external view returns (uint256)\n  {\n    return reserves[_reserve].loanToValue;\n  }\n}\n",
  "sourcePath": "/Users/mikhail/Coding/jucifi/contracts/repositories/ReserveRepository.sol",
  "compiler": {
    "name": "solc",
    "version": "0.6.10+commit.00c0fcaf.Emscripten.clang"
  },
  "schemaVersion": "3.2.5",
  "updatedAt": "2020-10-19T09:04:15.826Z",
  "devdoc": {
    "methods": {}
  },
  "userdoc": {
    "methods": {}
  }
}