{
  "contractName": "RiskService",
  "abi": [
    {
      "inputs": [
        {
          "internalType": "address",
          "name": "_addressRepositoryAddress",
          "type": "address"
        }
      ],
      "stateMutability": "nonpayable",
      "type": "constructor"
    },
    {
      "inputs": [
        {
          "internalType": "address",
          "name": "_user",
          "type": "address"
        }
      ],
      "name": "getMaxAllowedLoanETH",
      "outputs": [
        {
          "internalType": "uint256",
          "name": "",
          "type": "uint256"
        }
      ],
      "stateMutability": "view",
      "type": "function"
    }
  ],
  "bytecode": "0x608060405234801561001057600080fd5b50604051610b71380380610b718339818101604052602081101561003357600080fd5b8101908080519060200190929190505050806000806101000a81548173ffffffffffffffffffffffffffffffffffffffff021916908373ffffffffffffffffffffffffffffffffffffffff1602179055506000809054906101000a900473ffffffffffffffffffffffffffffffffffffffff1673ffffffffffffffffffffffffffffffffffffffff1663c44548d26040518163ffffffff1660e01b815260040160206040518083038186803b1580156100eb57600080fd5b505afa1580156100ff573d6000803e3d6000fd5b505050506040513d602081101561011557600080fd5b8101908080519060200190929190505050600160006101000a81548173ffffffffffffffffffffffffffffffffffffffff021916908373ffffffffffffffffffffffffffffffffffffffff1602179055506000809054906101000a900473ffffffffffffffffffffffffffffffffffffffff1673ffffffffffffffffffffffffffffffffffffffff1663398b21966040518163ffffffff1660e01b815260040160206040518083038186803b1580156101cd57600080fd5b505afa1580156101e1573d6000803e3d6000fd5b505050506040513d60208110156101f757600080fd5b8101908080519060200190929190505050600260006101000a81548173ffffffffffffffffffffffffffffffffffffffff021916908373ffffffffffffffffffffffffffffffffffffffff1602179055506000809054906101000a900473ffffffffffffffffffffffffffffffffffffffff1673ffffffffffffffffffffffffffffffffffffffff166351ff7f0a6040518163ffffffff1660e01b815260040160206040518083038186803b1580156102af57600080fd5b505afa1580156102c3573d6000803e3d6000fd5b505050506040513d60208110156102d957600080fd5b8101908080519060200190929190505050600360006101000a81548173ffffffffffffffffffffffffffffffffffffffff021916908373ffffffffffffffffffffffffffffffffffffffff160217905550506108378061033a6000396000f3fe608060405234801561001057600080fd5b506004361061002b5760003560e01c80638abaf4aa14610030575b600080fd5b6100726004803603602081101561004657600080fd5b81019080803573ffffffffffffffffffffffffffffffffffffffff169060200190929190505050610088565b6040518082815260200191505060405180910390f35b600080600360009054906101000a900473ffffffffffffffffffffffffffffffffffffffff1673ffffffffffffffffffffffffffffffffffffffff166307c1bf4e846040518263ffffffff1660e01b8152600401808273ffffffffffffffffffffffffffffffffffffffff1673ffffffffffffffffffffffffffffffffffffffff16815260200191505060206040518083038186803b15801561012a57600080fd5b505afa15801561013e573d6000803e3d6000fd5b505050506040513d602081101561015457600080fd5b81019080805190602001909291905050509050600080905060008090505b828110156104ad576000806000600360009054906101000a900473ffffffffffffffffffffffffffffffffffffffff1673ffffffffffffffffffffffffffffffffffffffff166335748b6b89866040518363ffffffff1660e01b8152600401808373ffffffffffffffffffffffffffffffffffffffff1673ffffffffffffffffffffffffffffffffffffffff1681526020018281526020019250505060606040518083038186803b15801561022657600080fd5b505afa15801561023a573d6000803e3d6000fd5b505050506040513d606081101561025057600080fd5b810190808051906020019092919080519060200190929190805190602001909291905050509250925092506000600260009054906101000a900473ffffffffffffffffffffffffffffffffffffffff1673ffffffffffffffffffffffffffffffffffffffff1663fcda065e856040518263ffffffff1660e01b8152600401808273ffffffffffffffffffffffffffffffffffffffff1673ffffffffffffffffffffffffffffffffffffffff16815260200191505060206040518083038186803b15801561031c57600080fd5b505afa158015610330573d6000803e3d6000fd5b505050506040513d602081101561034657600080fd5b810190808051906020019092919050505090506000600160009054906101000a900473ffffffffffffffffffffffffffffffffffffffff1673ffffffffffffffffffffffffffffffffffffffff1663b6d3a35d866040518263ffffffff1660e01b8152600401808273ffffffffffffffffffffffffffffffffffffffff1673ffffffffffffffffffffffffffffffffffffffff16815260200191505060206040518083038186803b1580156103fa57600080fd5b505afa15801561040e573d6000803e3d6000fd5b505050506040513d602081101561042457600080fd5b810190808051906020019092919050505090506000610483606461047584610467876104598a8c6104b890919063ffffffff16565b61050290919063ffffffff16565b61050290919063ffffffff16565b61058890919063ffffffff16565b905061049881896105d290919063ffffffff16565b97505050505050508080600101915050610172565b508092505050919050565b60006104fa83836040518060400160405280601e81526020017f536166654d6174683a207375627472616374696f6e206f766572666c6f77000081525061065a565b905092915050565b6000808314156105155760009050610582565b600082840290508284828161052657fe5b041461057d576040517f08c379a00000000000000000000000000000000000000000000000000000000081526004018080602001828103825260218152602001806107e16021913960400191505060405180910390fd5b809150505b92915050565b60006105ca83836040518060400160405280601a81526020017f536166654d6174683a206469766973696f6e206279207a65726f00000000000081525061071a565b905092915050565b600080828401905083811015610650576040517f08c379a000000000000000000000000000000000000000000000000000000000815260040180806020018281038252601b8152602001807f536166654d6174683a206164646974696f6e206f766572666c6f77000000000081525060200191505060405180910390fd5b8091505092915050565b6000838311158290610707576040517f08c379a00000000000000000000000000000000000000000000000000000000081526004018080602001828103825283818151815260200191508051906020019080838360005b838110156106cc5780820151818401526020810190506106b1565b50505050905090810190601f1680156106f95780820380516001836020036101000a031916815260200191505b509250505060405180910390fd5b5060008385039050809150509392505050565b600080831182906107c6576040517f08c379a00000000000000000000000000000000000000000000000000000000081526004018080602001828103825283818151815260200191508051906020019080838360005b8381101561078b578082015181840152602081019050610770565b50505050905090810190601f1680156107b85780820380516001836020036101000a031916815260200191505b509250505060405180910390fd5b5060008385816107d257fe5b04905080915050939250505056fe536166654d6174683a206d756c7469706c69636174696f6e206f766572666c6f77a26469706673582212204ca156e5a0db7132419ebc3d4544cdcc2ddcc2941d209ccc8723607e5854448964736f6c634300060a0033",
  "immutableReferences": {},
  "source": "// SPDX-License-Identifier: agpl-3.0\npragma solidity ^0.6.10;\n\nimport \"../repositories/AddressRepository.sol\";\nimport \"../repositories/PriceRepository.sol\";\nimport \"../repositories/ReserveRepository.sol\";\nimport \"../repositories/UserBalanceRepository.sol\";\n\ncontract RiskService {\n    using SafeMath for uint256;\n\n  AddressRepository private addressRepository;\n  PriceRepository private priceRepository;\n  ReserveRepository private reserveRepository;\n  UserBalanceRepository private userBalanceRepository;\n\n  constructor(address _addressRepositoryAddress) public {\n    addressRepository = AddressRepository(_addressRepositoryAddress);\n    priceRepository = PriceRepository(addressRepository.getPriceRepository());\n    reserveRepository = ReserveRepository(\n      addressRepository.getReserveRepository()\n    );\n    userBalanceRepository = UserBalanceRepository(\n      addressRepository.getUserBalanceRepository()\n    );\n  }\n\n  function getMaxAllowedLoanETH(address _user) public view returns (uint256) {\n    uint256 userAssetsQty = userBalanceRepository.getUserReservesQty(_user);\n    uint256 allowedLoan = 0;\n    for (uint256 i = 0; i < userAssetsQty; i++) {\n      (\n        address reserve,\n        uint256 deposited,\n        uint256 borrowed\n      ) = userBalanceRepository.getUserReserveBalance(_user, i);\n      uint256 ltv = reserveRepository.getLoanToValue(reserve);\n      uint256 reservePrice = priceRepository.getReservePriceInETH(reserve);\n      uint256 deltaInEth = deposited.sub(borrowed).mul(ltv).mul(reservePrice).div(100);\n      allowedLoan = allowedLoan.add(deltaInEth);\n    }\n\n    return allowedLoan;\n  }\n}\n",
  "sourcePath": "/Users/mikhail/Coding/jucifi/contracts/services/RiskService.sol",
  "compiler": {
    "name": "solc",
    "version": "0.6.10+commit.00c0fcaf.Emscripten.clang"
  },
  "schemaVersion": "3.2.5",
  "updatedAt": "2020-10-19T09:04:15.849Z",
  "devdoc": {
    "methods": {}
  },
  "userdoc": {
    "methods": {}
  }
}