{
  "contractName": "UserBalanceRepository",
  "abi": [
    {
      "inputs": [
        {
          "internalType": "address",
          "name": "_user",
          "type": "address"
        },
        {
          "internalType": "address",
          "name": "_reserve",
          "type": "address"
        }
      ],
      "name": "findReserveIndexOrCreate",
      "outputs": [
        {
          "internalType": "uint256",
          "name": "",
          "type": "uint256"
        }
      ],
      "stateMutability": "nonpayable",
      "type": "function"
    },
    {
      "inputs": [
        {
          "internalType": "address",
          "name": "_user",
          "type": "address"
        },
        {
          "internalType": "address",
          "name": "_reserve",
          "type": "address"
        },
        {
          "internalType": "uint256",
          "name": "_amount",
          "type": "uint256"
        }
      ],
      "name": "increaseUserDeposit",
      "outputs": [],
      "stateMutability": "nonpayable",
      "type": "function"
    },
    {
      "inputs": [
        {
          "internalType": "address",
          "name": "_user",
          "type": "address"
        },
        {
          "internalType": "address",
          "name": "_reserve",
          "type": "address"
        },
        {
          "internalType": "uint256",
          "name": "_amount",
          "type": "uint256"
        }
      ],
      "name": "decreaseUserDeposit",
      "outputs": [],
      "stateMutability": "nonpayable",
      "type": "function"
    },
    {
      "inputs": [
        {
          "internalType": "address",
          "name": "_user",
          "type": "address"
        },
        {
          "internalType": "address",
          "name": "_reserve",
          "type": "address"
        },
        {
          "internalType": "uint256",
          "name": "_amount",
          "type": "uint256"
        }
      ],
      "name": "increaseUserBorrow",
      "outputs": [],
      "stateMutability": "nonpayable",
      "type": "function"
    },
    {
      "inputs": [
        {
          "internalType": "address",
          "name": "_user",
          "type": "address"
        },
        {
          "internalType": "address",
          "name": "_reserve",
          "type": "address"
        },
        {
          "internalType": "uint256",
          "name": "_amount",
          "type": "uint256"
        }
      ],
      "name": "decreaseUserBorrow",
      "outputs": [],
      "stateMutability": "nonpayable",
      "type": "function"
    },
    {
      "inputs": [
        {
          "internalType": "address",
          "name": "_user",
          "type": "address"
        }
      ],
      "name": "getUserReservesQty",
      "outputs": [
        {
          "internalType": "uint256",
          "name": "",
          "type": "uint256"
        }
      ],
      "stateMutability": "view",
      "type": "function",
      "constant": true
    },
    {
      "inputs": [
        {
          "internalType": "address",
          "name": "_user",
          "type": "address"
        },
        {
          "internalType": "uint256",
          "name": "_index",
          "type": "uint256"
        }
      ],
      "name": "getUserReserveBalance",
      "outputs": [
        {
          "internalType": "address",
          "name": "reserve",
          "type": "address"
        },
        {
          "internalType": "uint256",
          "name": "deposited",
          "type": "uint256"
        },
        {
          "internalType": "uint256",
          "name": "borrowed",
          "type": "uint256"
        }
      ],
      "stateMutability": "view",
      "type": "function",
      "constant": true
    }
  ],
  "bytecode": "0x608060405234801561001057600080fd5b50610a73806100206000396000f3fe608060405234801561001057600080fd5b506004361061007d5760003560e01c8063a6b3573b1161005b578063a6b3573b146101e4578063c3aa039d1461025c578063c69dc70e146102ca578063f9bd3e92146103385761007d565b806307c1bf4e1461008257806309d66071146100da57806335748b6b14610148575b600080fd5b6100c46004803603602081101561009857600080fd5b81019080803573ffffffffffffffffffffffffffffffffffffffff1690602001909291905050506103a6565b6040518082815260200191505060405180910390f35b610146600480360360608110156100f057600080fd5b81019080803573ffffffffffffffffffffffffffffffffffffffff169060200190929190803573ffffffffffffffffffffffffffffffffffffffff169060200190929190803590602001909291905050506103f9565b005b6101946004803603604081101561015e57600080fd5b81019080803573ffffffffffffffffffffffffffffffffffffffff16906020019092919080359060200190929190505050610491565b604051808473ffffffffffffffffffffffffffffffffffffffff1673ffffffffffffffffffffffffffffffffffffffff168152602001838152602001828152602001935050505060405180910390f35b610246600480360360408110156101fa57600080fd5b81019080803573ffffffffffffffffffffffffffffffffffffffff169060200190929190803573ffffffffffffffffffffffffffffffffffffffff169060200190929190505050610536565b6040518082815260200191505060405180910390f35b6102c86004803603606081101561027257600080fd5b81019080803573ffffffffffffffffffffffffffffffffffffffff169060200190929190803573ffffffffffffffffffffffffffffffffffffffff169060200190929190803590602001909291905050506106e3565b005b610336600480360360608110156102e057600080fd5b81019080803573ffffffffffffffffffffffffffffffffffffffff169060200190929190803573ffffffffffffffffffffffffffffffffffffffff1690602001909291908035906020019092919050505061077b565b005b6103a46004803603606081101561034e57600080fd5b81019080803573ffffffffffffffffffffffffffffffffffffffff169060200190929190803573ffffffffffffffffffffffffffffffffffffffff16906020019092919080359060200190929190505050610813565b005b6000806000808473ffffffffffffffffffffffffffffffffffffffff1673ffffffffffffffffffffffffffffffffffffffff16815260200190815260200160002060000190508080549050915050919050565b60008060008573ffffffffffffffffffffffffffffffffffffffff1673ffffffffffffffffffffffffffffffffffffffff1681526020019081526020016000206000019050600061044a8585610536565b9050600082828154811061045a57fe5b906000526020600020906003020190506104818482600101546108ab90919063ffffffff16565b8160010181905550505050505050565b6000806000806000808773ffffffffffffffffffffffffffffffffffffffff1673ffffffffffffffffffffffffffffffffffffffff168152602001908152602001600020600001905060008186815481106104e857fe5b906000526020600020906003020190508060000160009054906101000a900473ffffffffffffffffffffffffffffffffffffffff169450806001015493508060020154925050509250925092565b6000806000808573ffffffffffffffffffffffffffffffffffffffff1673ffffffffffffffffffffffffffffffffffffffff168152602001908152602001600020600001905060008180549050905060008090505b8181101561061c578473ffffffffffffffffffffffffffffffffffffffff168382815481106105b657fe5b906000526020600020906003020160000160009054906101000a900473ffffffffffffffffffffffffffffffffffffffff1673ffffffffffffffffffffffffffffffffffffffff16141561060f578093505050506106dd565b808060010191505061058b565b508160405180606001604052808673ffffffffffffffffffffffffffffffffffffffff168152602001600081526020016000815250908060018154018082558091505060019003906000526020600020906003020160009091909190915060008201518160000160006101000a81548173ffffffffffffffffffffffffffffffffffffffff021916908373ffffffffffffffffffffffffffffffffffffffff1602179055506020820151816001015560408201518160020155505080925050505b92915050565b60008060008573ffffffffffffffffffffffffffffffffffffffff1673ffffffffffffffffffffffffffffffffffffffff168152602001908152602001600020600001905060006107348585610536565b9050600082828154811061074457fe5b9060005260206000209060030201905061076b84826001015461093390919063ffffffff16565b8160010181905550505050505050565b60008060008573ffffffffffffffffffffffffffffffffffffffff1673ffffffffffffffffffffffffffffffffffffffff168152602001908152602001600020600001905060006107cc8585610536565b905060008282815481106107dc57fe5b906000526020600020906003020190506108038482600201546108ab90919063ffffffff16565b8160020181905550505050505050565b60008060008573ffffffffffffffffffffffffffffffffffffffff1673ffffffffffffffffffffffffffffffffffffffff168152602001908152602001600020600001905060006108648585610536565b9050600082828154811061087457fe5b9060005260206000209060030201905061089b84826002015461093390919063ffffffff16565b8160020181905550505050505050565b600080828401905083811015610929576040517f08c379a000000000000000000000000000000000000000000000000000000000815260040180806020018281038252601b8152602001807f536166654d6174683a206164646974696f6e206f766572666c6f77000000000081525060200191505060405180910390fd5b8091505092915050565b600061097583836040518060400160405280601e81526020017f536166654d6174683a207375627472616374696f6e206f766572666c6f77000081525061097d565b905092915050565b6000838311158290610a2a576040517f08c379a00000000000000000000000000000000000000000000000000000000081526004018080602001828103825283818151815260200191508051906020019080838360005b838110156109ef5780820151818401526020810190506109d4565b50505050905090810190601f168015610a1c5780820380516001836020036101000a031916815260200191505b509250505060405180910390fd5b506000838503905080915050939250505056fea2646970667358221220540c92427dbf7a2c270647789cb92e66697808f773071b09baeb614534991b8464736f6c634300060a0033",
  "immutableReferences": {},
  "source": "// SPDX-License-Identifier: agpl-3.0\npragma solidity ^0.6.10;\n\nimport \"../core/Core.sol\";\nimport \"openzeppelin-solidity/contracts/math/SafeMath.sol\";\n\ncontract UserBalanceRepository {\n  using SafeMath for uint256;\n  mapping(address => Core.UserAssets) private userAssets;\n\n  function findReserveIndexOrCreate(address _user, address _reserve)\n    public\n    returns (uint256)\n  {\n    Core.UserReserveBalance[] storage userBalances = userAssets[_user]\n      .reserveBalances;\n    uint256 userReservesQty = userBalances.length;\n    for (uint256 i = 0; i < userReservesQty; i++) {\n      if (userBalances[i].reserve == _reserve) {\n        return i;\n      }\n    }\n    userBalances.push(Core.UserReserveBalance(_reserve, 0, 0));\n    return userReservesQty;\n  }\n\n  function increaseUserDeposit(\n    address _user,\n    address _reserve,\n    uint256 _amount\n  ) public {\n    Core.UserReserveBalance[] storage userBalances = userAssets[_user]\n      .reserveBalances;\n    uint256 index = findReserveIndexOrCreate(_user, _reserve);\n    Core.UserReserveBalance storage userReserveBalace = userBalances[index];\n    userReserveBalace.deposited = userReserveBalace.deposited.add(_amount);\n  }\n\n  function decreaseUserDeposit(\n    address _user,\n    address _reserve,\n    uint256 _amount\n  ) public {\n    Core.UserReserveBalance[] storage userBalances = userAssets[_user]\n      .reserveBalances;\n    uint256 index = findReserveIndexOrCreate(_user, _reserve);\n    Core.UserReserveBalance storage userReserveBalace = userBalances[index];\n    userReserveBalace.deposited = userReserveBalace.deposited.sub(_amount);\n  }\n\n  function increaseUserBorrow(\n    address _user,\n    address _reserve,\n    uint256 _amount\n  ) public {\n    Core.UserReserveBalance[] storage userBalances = userAssets[_user]\n      .reserveBalances;\n    uint256 index = findReserveIndexOrCreate(_user, _reserve);\n    Core.UserReserveBalance storage userReserveBalace = userBalances[index];\n    userReserveBalace.borrowed = userReserveBalace.borrowed.add(_amount);\n  }\n\n  function decreaseUserBorrow(\n    address _user,\n    address _reserve,\n    uint256 _amount\n  ) public {\n    Core.UserReserveBalance[] storage userBalances = userAssets[_user]\n      .reserveBalances;\n    uint256 index = findReserveIndexOrCreate(_user, _reserve);\n    Core.UserReserveBalance storage userReserveBalace = userBalances[index];\n    userReserveBalace.borrowed = userReserveBalace.borrowed.sub(_amount);\n  }\n\n  function getUserReservesQty(address _user) public view returns (uint256) {\n    Core.UserReserveBalance[] storage userBalances = userAssets[_user]\n      .reserveBalances;\n    return userBalances.length;\n  }\n\n  function getUserReserveBalance(address _user, uint256 _index)\n    public\n    view\n    returns (\n      address reserve,\n      uint256 deposited,\n      uint256 borrowed\n    )\n  {\n    Core.UserReserveBalance[] storage userBalances = userAssets[_user]\n      .reserveBalances;\n    Core.UserReserveBalance storage userReserveBalace = userBalances[_index];\n    reserve = userReserveBalace.reserve;\n    deposited = userReserveBalace.deposited;\n    borrowed = userReserveBalace.borrowed;\n  }\n}\n",
  "sourcePath": "/Users/mikhail/Coding/jucifi/contracts/repositories/UserBalanceRepository.sol",
  "compiler": {
    "name": "solc",
    "version": "0.6.10+commit.00c0fcaf.Emscripten.clang"
  },
  "schemaVersion": "3.2.5",
  "updatedAt": "2020-10-22T22:43:29.095Z",
  "networkType": "ethereum",
  "devdoc": {
    "methods": {}
  },
  "userdoc": {
    "methods": {}
  }
}