{
  "contractName": "VToken",
  "abi": [
    {
      "inputs": [
        {
          "internalType": "address",
          "name": "_pool",
          "type": "address"
        },
        {
          "internalType": "uint8",
          "name": "_underlyingAssetDecimals",
          "type": "uint8"
        },
        {
          "internalType": "string",
          "name": "_name",
          "type": "string"
        },
        {
          "internalType": "string",
          "name": "_symbol",
          "type": "string"
        }
      ],
      "stateMutability": "nonpayable",
      "type": "constructor"
    },
    {
      "anonymous": false,
      "inputs": [
        {
          "indexed": true,
          "internalType": "address",
          "name": "owner",
          "type": "address"
        },
        {
          "indexed": true,
          "internalType": "address",
          "name": "spender",
          "type": "address"
        },
        {
          "indexed": false,
          "internalType": "uint256",
          "name": "value",
          "type": "uint256"
        }
      ],
      "name": "Approval",
      "type": "event"
    },
    {
      "anonymous": false,
      "inputs": [
        {
          "indexed": true,
          "internalType": "address",
          "name": "_from",
          "type": "address"
        },
        {
          "indexed": false,
          "internalType": "uint256",
          "name": "_value",
          "type": "uint256"
        },
        {
          "indexed": false,
          "internalType": "uint256",
          "name": "_fromBalanceIncrease",
          "type": "uint256"
        },
        {
          "indexed": false,
          "internalType": "uint256",
          "name": "_fromIndex",
          "type": "uint256"
        }
      ],
      "name": "MintOnDeposit",
      "type": "event"
    },
    {
      "anonymous": false,
      "inputs": [
        {
          "indexed": true,
          "internalType": "address",
          "name": "from",
          "type": "address"
        },
        {
          "indexed": true,
          "internalType": "address",
          "name": "to",
          "type": "address"
        },
        {
          "indexed": false,
          "internalType": "uint256",
          "name": "value",
          "type": "uint256"
        }
      ],
      "name": "Transfer",
      "type": "event"
    },
    {
      "inputs": [
        {
          "internalType": "address",
          "name": "owner",
          "type": "address"
        },
        {
          "internalType": "address",
          "name": "spender",
          "type": "address"
        }
      ],
      "name": "allowance",
      "outputs": [
        {
          "internalType": "uint256",
          "name": "",
          "type": "uint256"
        }
      ],
      "stateMutability": "view",
      "type": "function"
    },
    {
      "inputs": [
        {
          "internalType": "address",
          "name": "spender",
          "type": "address"
        },
        {
          "internalType": "uint256",
          "name": "amount",
          "type": "uint256"
        }
      ],
      "name": "approve",
      "outputs": [
        {
          "internalType": "bool",
          "name": "",
          "type": "bool"
        }
      ],
      "stateMutability": "nonpayable",
      "type": "function"
    },
    {
      "inputs": [],
      "name": "decimals",
      "outputs": [
        {
          "internalType": "uint8",
          "name": "",
          "type": "uint8"
        }
      ],
      "stateMutability": "view",
      "type": "function"
    },
    {
      "inputs": [
        {
          "internalType": "address",
          "name": "spender",
          "type": "address"
        },
        {
          "internalType": "uint256",
          "name": "subtractedValue",
          "type": "uint256"
        }
      ],
      "name": "decreaseAllowance",
      "outputs": [
        {
          "internalType": "bool",
          "name": "",
          "type": "bool"
        }
      ],
      "stateMutability": "nonpayable",
      "type": "function"
    },
    {
      "inputs": [
        {
          "internalType": "address",
          "name": "spender",
          "type": "address"
        },
        {
          "internalType": "uint256",
          "name": "addedValue",
          "type": "uint256"
        }
      ],
      "name": "increaseAllowance",
      "outputs": [
        {
          "internalType": "bool",
          "name": "",
          "type": "bool"
        }
      ],
      "stateMutability": "nonpayable",
      "type": "function"
    },
    {
      "inputs": [],
      "name": "name",
      "outputs": [
        {
          "internalType": "string",
          "name": "",
          "type": "string"
        }
      ],
      "stateMutability": "view",
      "type": "function"
    },
    {
      "inputs": [],
      "name": "symbol",
      "outputs": [
        {
          "internalType": "string",
          "name": "",
          "type": "string"
        }
      ],
      "stateMutability": "view",
      "type": "function"
    },
    {
      "inputs": [],
      "name": "totalSupply",
      "outputs": [
        {
          "internalType": "uint256",
          "name": "",
          "type": "uint256"
        }
      ],
      "stateMutability": "view",
      "type": "function"
    },
    {
      "inputs": [
        {
          "internalType": "address",
          "name": "recipient",
          "type": "address"
        },
        {
          "internalType": "uint256",
          "name": "amount",
          "type": "uint256"
        }
      ],
      "name": "transfer",
      "outputs": [
        {
          "internalType": "bool",
          "name": "",
          "type": "bool"
        }
      ],
      "stateMutability": "nonpayable",
      "type": "function"
    },
    {
      "inputs": [
        {
          "internalType": "address",
          "name": "sender",
          "type": "address"
        },
        {
          "internalType": "address",
          "name": "recipient",
          "type": "address"
        },
        {
          "internalType": "uint256",
          "name": "amount",
          "type": "uint256"
        }
      ],
      "name": "transferFrom",
      "outputs": [
        {
          "internalType": "bool",
          "name": "",
          "type": "bool"
        }
      ],
      "stateMutability": "nonpayable",
      "type": "function"
    },
    {
      "inputs": [
        {
          "internalType": "address",
          "name": "_holder",
          "type": "address"
        },
        {
          "internalType": "uint256",
          "name": "_amount",
          "type": "uint256"
        }
      ],
      "name": "addBalanceHolder",
      "outputs": [],
      "stateMutability": "nonpayable",
      "type": "function"
    },
    {
      "inputs": [
        {
          "internalType": "address",
          "name": "_account",
          "type": "address"
        },
        {
          "internalType": "uint256",
          "name": "_amount",
          "type": "uint256"
        }
      ],
      "name": "mintOnDeposit",
      "outputs": [],
      "stateMutability": "nonpayable",
      "type": "function"
    },
    {
      "inputs": [
        {
          "internalType": "address",
          "name": "_user",
          "type": "address"
        }
      ],
      "name": "principalBalanceOf",
      "outputs": [
        {
          "internalType": "uint256",
          "name": "",
          "type": "uint256"
        }
      ],
      "stateMutability": "view",
      "type": "function"
    },
    {
      "inputs": [
        {
          "internalType": "address",
          "name": "_user",
          "type": "address"
        }
      ],
      "name": "balanceOf",
      "outputs": [
        {
          "internalType": "uint256",
          "name": "",
          "type": "uint256"
        }
      ],
      "stateMutability": "view",
      "type": "function"
    }
  ],
  "bytecode": "0x60806040523480156200001157600080fd5b5060405162001c4d38038062001c4d833981810160405260808110156200003757600080fd5b810190808051906020019092919080519060200190929190805160405193929190846401000000008211156200006c57600080fd5b838201915060208201858111156200008357600080fd5b8251866001820283011164010000000082111715620000a157600080fd5b8083526020830192505050908051906020019080838360005b83811015620000d7578082015181840152602081019050620000ba565b50505050905090810190601f168015620001055780820380516001836020036101000a031916815260200191505b50604052602001805160405193929190846401000000008211156200012957600080fd5b838201915060208201858111156200014057600080fd5b82518660018202830111640100000000821117156200015e57600080fd5b8083526020830192505050908051906020019080838360005b838110156200019457808201518184015260208101905062000177565b50505050905090810190601f168015620001c25780820380516001836020036101000a031916815260200191505b5060405250505081818160039080519060200190620001e392919062000266565b508060049080519060200190620001fc92919062000266565b506012600560006101000a81548160ff021916908360ff160217905550505083600560016101000a81548173ffffffffffffffffffffffffffffffffffffffff021916908373ffffffffffffffffffffffffffffffffffffffff1602179055505050505062000315565b828054600181600116156101000203166002900490600052602060002090601f016020900481019282601f10620002a957805160ff1916838001178555620002da565b82800160010185558215620002da579182015b82811115620002d9578251825591602001919060010190620002bc565b5b509050620002e99190620002ed565b5090565b6200031291905b808211156200030e576000816000905550600101620002f4565b5090565b90565b61192880620003256000396000f3fe608060405234801561001057600080fd5b50600436106100ea5760003560e01c806370a082311161008c578063a457c2d711610066578063a457c2d71461047d578063a9059cbb146104e3578063c634dfaa14610549578063dd62ed3e146105a1576100ea565b806370a082311461035457806394362e8b146103ac57806395d89b41146103fa576100ea565b806323b872dd116100c857806323b872dd146101f65780632ddac32f1461027c578063313ce567146102ca57806339509351146102ee576100ea565b806306fdde03146100ef578063095ea7b31461017257806318160ddd146101d8575b600080fd5b6100f7610619565b6040518080602001828103825283818151815260200191508051906020019080838360005b8381101561013757808201518184015260208101905061011c565b50505050905090810190601f1680156101645780820380516001836020036101000a031916815260200191505b509250505060405180910390f35b6101be6004803603604081101561018857600080fd5b81019080803573ffffffffffffffffffffffffffffffffffffffff169060200190929190803590602001909291905050506106bb565b604051808215151515815260200191505060405180910390f35b6101e06106d9565b6040518082815260200191505060405180910390f35b6102626004803603606081101561020c57600080fd5b81019080803573ffffffffffffffffffffffffffffffffffffffff169060200190929190803573ffffffffffffffffffffffffffffffffffffffff169060200190929190803590602001909291905050506106e3565b604051808215151515815260200191505060405180910390f35b6102c86004803603604081101561029257600080fd5b81019080803573ffffffffffffffffffffffffffffffffffffffff169060200190929190803590602001909291905050506107bc565b005b6102d2610a2f565b604051808260ff1660ff16815260200191505060405180910390f35b61033a6004803603604081101561030457600080fd5b81019080803573ffffffffffffffffffffffffffffffffffffffff16906020019092919080359060200190929190505050610a46565b604051808215151515815260200191505060405180910390f35b6103966004803603602081101561036a57600080fd5b81019080803573ffffffffffffffffffffffffffffffffffffffff169060200190929190505050610af9565b6040518082815260200191505060405180910390f35b6103f8600480360360408110156103c257600080fd5b81019080803573ffffffffffffffffffffffffffffffffffffffff16906020019092919080359060200190929190505050610b45565b005b610402610c78565b6040518080602001828103825283818151815260200191508051906020019080838360005b83811015610442578082015181840152602081019050610427565b50505050905090810190601f16801561046f5780820380516001836020036101000a031916815260200191505b509250505060405180910390f35b6104c96004803603604081101561049357600080fd5b81019080803573ffffffffffffffffffffffffffffffffffffffff16906020019092919080359060200190929190505050610d1a565b604051808215151515815260200191505060405180910390f35b61052f600480360360408110156104f957600080fd5b81019080803573ffffffffffffffffffffffffffffffffffffffff16906020019092919080359060200190929190505050610de7565b604051808215151515815260200191505060405180910390f35b61058b6004803603602081101561055f57600080fd5b81019080803573ffffffffffffffffffffffffffffffffffffffff169060200190929190505050610e05565b6040518082815260200191505060405180910390f35b610603600480360360408110156105b757600080fd5b81019080803573ffffffffffffffffffffffffffffffffffffffff169060200190929190803573ffffffffffffffffffffffffffffffffffffffff169060200190929190505050610e17565b6040518082815260200191505060405180910390f35b606060038054600181600116156101000203166002900480601f0160208091040260200160405190810160405280929190818152602001828054600181600116156101000203166002900480156106b15780601f10610686576101008083540402835291602001916106b1565b820191906000526020600020905b81548152906001019060200180831161069457829003601f168201915b5050505050905090565b60006106cf6106c8610e9e565b8484610ea6565b6001905092915050565b6000600254905090565b60006106f084848461109d565b6107b1846106fc610e9e565b6107ac8560405180606001604052806028815260200161183860289139600160008b73ffffffffffffffffffffffffffffffffffffffff1673ffffffffffffffffffffffffffffffffffffffff1681526020019081526020016000206000610762610e9e565b73ffffffffffffffffffffffffffffffffffffffff1673ffffffffffffffffffffffffffffffffffffffff1681526020019081526020016000205461135e9092919063ffffffff16565b610ea6565b600190509392505050565b6107c4611754565b6040518060a00160405280600073ffffffffffffffffffffffffffffffffffffffff168152602001600073ffffffffffffffffffffffffffffffffffffffff1681526020018473ffffffffffffffffffffffffffffffffffffffff168152602001838152602001600064ffffffffff168152509050600073ffffffffffffffffffffffffffffffffffffffff16600660009054906101000a900473ffffffffffffffffffffffffffffffffffffffff1673ffffffffffffffffffffffffffffffffffffffff161461099757600760009054906101000a900473ffffffffffffffffffffffffffffffffffffffff16816000019073ffffffffffffffffffffffffffffffffffffffff16908173ffffffffffffffffffffffffffffffffffffffff1681525050600060096000600760009054906101000a900473ffffffffffffffffffffffffffffffffffffffff1673ffffffffffffffffffffffffffffffffffffffff1673ffffffffffffffffffffffffffffffffffffffff1681526020019081526020016000209050838160010160006101000a81548173ffffffffffffffffffffffffffffffffffffffff021916908373ffffffffffffffffffffffffffffffffffffffff160217905550506109d9565b82600660006101000a81548173ffffffffffffffffffffffffffffffffffffffff021916908373ffffffffffffffffffffffffffffffffffffffff1602179055505b82600760006101000a81548173ffffffffffffffffffffffffffffffffffffffff021916908373ffffffffffffffffffffffffffffffffffffffff16021790555081600860008282540192505081905550505050565b6000600560009054906101000a900460ff16905090565b6000610aef610a53610e9e565b84610aea8560016000610a64610e9e565b73ffffffffffffffffffffffffffffffffffffffff1673ffffffffffffffffffffffffffffffffffffffff16815260200190815260200160002060008973ffffffffffffffffffffffffffffffffffffffff1673ffffffffffffffffffffffffffffffffffffffff1681526020019081526020016000205461141e90919063ffffffff16565b610ea6565b6001905092915050565b6000600960008373ffffffffffffffffffffffffffffffffffffffff1673ffffffffffffffffffffffffffffffffffffffff168152602001908152602001600020600301549050919050565b600560019054906101000a900473ffffffffffffffffffffffffffffffffffffffff1673ffffffffffffffffffffffffffffffffffffffff163373ffffffffffffffffffffffffffffffffffffffff1614610beb576040517f08c379a00000000000000000000000000000000000000000000000000000000081526004018080602001828103825260258152602001806118606025913960400191505060405180910390fd5b60001515610bf8836114a6565b15151415610c0b57610c0a82826107bc565b5b610c158282611540565b8173ffffffffffffffffffffffffffffffffffffffff167fbe7799898ca2d813ff902b487c1b434ab45b47edd8f38b77ad5e99aae8341b7a8260008060405180848152602001838152602001828152602001935050505060405180910390a25050565b606060048054600181600116156101000203166002900480601f016020809104026020016040519081016040528092919081815260200182805460018160011615610100020316600290048015610d105780601f10610ce557610100808354040283529160200191610d10565b820191906000526020600020905b815481529060010190602001808311610cf357829003601f168201915b5050505050905090565b6000610ddd610d27610e9e565b84610dd8856040518060600160405280602581526020016118ce6025913960016000610d51610e9e565b73ffffffffffffffffffffffffffffffffffffffff1673ffffffffffffffffffffffffffffffffffffffff16815260200190815260200160002060008a73ffffffffffffffffffffffffffffffffffffffff1673ffffffffffffffffffffffffffffffffffffffff1681526020019081526020016000205461135e9092919063ffffffff16565b610ea6565b6001905092915050565b6000610dfb610df4610e9e565b848461109d565b6001905092915050565b6000610e1082611707565b9050919050565b6000600160008473ffffffffffffffffffffffffffffffffffffffff1673ffffffffffffffffffffffffffffffffffffffff16815260200190815260200160002060008373ffffffffffffffffffffffffffffffffffffffff1673ffffffffffffffffffffffffffffffffffffffff16815260200190815260200160002054905092915050565b600033905090565b600073ffffffffffffffffffffffffffffffffffffffff168373ffffffffffffffffffffffffffffffffffffffff161415610f2c576040517f08c379a00000000000000000000000000000000000000000000000000000000081526004018080602001828103825260248152602001806118aa6024913960400191505060405180910390fd5b600073ffffffffffffffffffffffffffffffffffffffff168273ffffffffffffffffffffffffffffffffffffffff161415610fb2576040517f08c379a00000000000000000000000000000000000000000000000000000000081526004018080602001828103825260228152602001806117f06022913960400191505060405180910390fd5b80600160008573ffffffffffffffffffffffffffffffffffffffff1673ffffffffffffffffffffffffffffffffffffffff16815260200190815260200160002060008473ffffffffffffffffffffffffffffffffffffffff1673ffffffffffffffffffffffffffffffffffffffff168152602001908152602001600020819055508173ffffffffffffffffffffffffffffffffffffffff168373ffffffffffffffffffffffffffffffffffffffff167f8c5be1e5ebec7d5bd14f71427d1e84f3dd0314c0f7b2291e5b200ac8c7c3b925836040518082815260200191505060405180910390a3505050565b600073ffffffffffffffffffffffffffffffffffffffff168373ffffffffffffffffffffffffffffffffffffffff161415611123576040517f08c379a00000000000000000000000000000000000000000000000000000000081526004018080602001828103825260258152602001806118856025913960400191505060405180910390fd5b600073ffffffffffffffffffffffffffffffffffffffff168273ffffffffffffffffffffffffffffffffffffffff1614156111a9576040517f08c379a00000000000000000000000000000000000000000000000000000000081526004018080602001828103825260238152602001806117cd6023913960400191505060405180910390fd5b6111b483838361174f565b61121f81604051806060016040528060268152602001611812602691396000808773ffffffffffffffffffffffffffffffffffffffff1673ffffffffffffffffffffffffffffffffffffffff1681526020019081526020016000205461135e9092919063ffffffff16565b6000808573ffffffffffffffffffffffffffffffffffffffff1673ffffffffffffffffffffffffffffffffffffffff168152602001908152602001600020819055506112b2816000808573ffffffffffffffffffffffffffffffffffffffff1673ffffffffffffffffffffffffffffffffffffffff1681526020019081526020016000205461141e90919063ffffffff16565b6000808473ffffffffffffffffffffffffffffffffffffffff1673ffffffffffffffffffffffffffffffffffffffff168152602001908152602001600020819055508173ffffffffffffffffffffffffffffffffffffffff168373ffffffffffffffffffffffffffffffffffffffff167fddf252ad1be2c89b69c2b068fc378daa952ba7f163c4a11628f55a4df523b3ef836040518082815260200191505060405180910390a3505050565b600083831115829061140b576040517f08c379a00000000000000000000000000000000000000000000000000000000081526004018080602001828103825283818151815260200191508051906020019080838360005b838110156113d05780820151818401526020810190506113b5565b50505050905090810190601f1680156113fd5780820380516001836020036101000a031916815260200191505b509250505060405180910390fd5b5060008385039050809150509392505050565b60008082840190508381101561149c576040517f08c379a000000000000000000000000000000000000000000000000000000000815260040180806020018281038252601b8152602001807f536166654d6174683a206164646974696f6e206f766572666c6f77000000000081525060200191505060405180910390fd5b8091505092915050565b60008073ffffffffffffffffffffffffffffffffffffffff16600960008473ffffffffffffffffffffffffffffffffffffffff1673ffffffffffffffffffffffffffffffffffffffff16815260200190815260200160002060020160009054906101000a900473ffffffffffffffffffffffffffffffffffffffff1673ffffffffffffffffffffffffffffffffffffffff16149050919050565b600073ffffffffffffffffffffffffffffffffffffffff168273ffffffffffffffffffffffffffffffffffffffff1614156115e3576040517f08c379a000000000000000000000000000000000000000000000000000000000815260040180806020018281038252601f8152602001807f45524332303a206d696e7420746f20746865207a65726f20616464726573730081525060200191505060405180910390fd5b6115ef6000838361174f565b6116048160025461141e90919063ffffffff16565b60028190555061165b816000808573ffffffffffffffffffffffffffffffffffffffff1673ffffffffffffffffffffffffffffffffffffffff1681526020019081526020016000205461141e90919063ffffffff16565b6000808473ffffffffffffffffffffffffffffffffffffffff1673ffffffffffffffffffffffffffffffffffffffff168152602001908152602001600020819055508173ffffffffffffffffffffffffffffffffffffffff16600073ffffffffffffffffffffffffffffffffffffffff167fddf252ad1be2c89b69c2b068fc378daa952ba7f163c4a11628f55a4df523b3ef836040518082815260200191505060405180910390a35050565b60008060008373ffffffffffffffffffffffffffffffffffffffff1673ffffffffffffffffffffffffffffffffffffffff168152602001908152602001600020549050919050565b505050565b6040518060a00160405280600073ffffffffffffffffffffffffffffffffffffffff168152602001600073ffffffffffffffffffffffffffffffffffffffff168152602001600073ffffffffffffffffffffffffffffffffffffffff16815260200160008152602001600064ffffffffff168152509056fe45524332303a207472616e7366657220746f20746865207a65726f206164647265737345524332303a20617070726f766520746f20746865207a65726f206164647265737345524332303a207472616e7366657220616d6f756e7420657863656564732062616c616e636545524332303a207472616e7366657220616d6f756e74206578636565647320616c6c6f77616e63654f6e6c792070726f76696465727320636f756c642063616c6c2074686973206d6574686f6445524332303a207472616e736665722066726f6d20746865207a65726f206164647265737345524332303a20617070726f76652066726f6d20746865207a65726f206164647265737345524332303a2064656372656173656420616c6c6f77616e63652062656c6f77207a65726fa26469706673582212204f3b83a756a61e17df6e518de76cf577d99d029539bddebb27c39e8b2685ca3064736f6c634300060a0033",
  "immutableReferences": {},
  "source": "// SPDX-License-Identifier: agpl-3.0\npragma solidity ^0.6.10;\nimport \"./ERC20.sol\";\nimport \"../core/Pool.sol\";\n\n// Vitamin Token\ncontract VToken is ERC20 {\n\n  // Balance holders queue\n\n  struct QueueItem {\n    address previous;\n    address next;\n    address balanceHolder;\n    uint256 amount;\n    uint40 startingAssetUsage;\n  }\n\n  Pool pool;\n  address private firstItem;\n  address private lastItem;\n  uint256 totalLiquidity;\n\n  mapping(address => QueueItem) private queue;\n\n  /**\n   * @dev emitted after the mint action\n   * @param _from the address performing the mint\n   * @param _value the amount to be minted\n   * @param _fromBalanceIncrease the cumulated balance since the last update of the user\n   * @param _fromIndex the last index of the user\n   **/\n\n  event MintOnDeposit(\n    address indexed _from,\n    uint256 _value,\n    uint256 _fromBalanceIncrease,\n    uint256 _fromIndex\n  );\n\n\n\n  modifier poolOnly {\n    require(\n      msg.sender == address(pool),\n      \"Only providers could call this method\"\n    );\n    _;\n  }\n\n  constructor(\n    // LendingPoolAddressesProvider _addressesProvider,\n    address _pool,\n    // address _underlyingAsset,\n    uint8 _underlyingAssetDecimals,\n    string memory _name,\n    string memory _symbol\n  ) public ERC20(_name, _symbol) {\n    pool = Pool(_pool);\n    // addressesProvider = _addressesProvider;\n    // core = LendingPoolCore(addressesProvider.getLendingPoolCore());\n    // pool = LendingPool(addressesProvider.getLendingPool());\n    // dataProvider = LendingPoolDataProvider(addressesProvider.getLendingPoolDataProvider());\n    // underlyingAssetAddress = _underlyingAsset;\n  }\n\n  function isInTheQueue(address _holder) internal view returns (bool) {\n    return queue[_holder].balanceHolder == address(0);\n  }\n\n  function addBalanceHolder(address _holder, uint256 _amount) public {\n    QueueItem memory newItem = QueueItem({\n      previous: address(0),\n      next: address(0),\n      balanceHolder: _holder,\n      amount: _amount,\n      startingAssetUsage: 0\n    });\n\n    if (firstItem != address(0)) {\n      newItem.previous = lastItem;\n      QueueItem storage previousItem = queue[lastItem];\n      previousItem.next = _holder;\n    } else {\n      firstItem = _holder;\n    }\n    lastItem = _holder;\n    totalLiquidity += _amount;\n  }\n\n  function updateQueueAssetsUsage(uint256 _amount) internal {}\n\n  /**\n   * @dev mints token in the event of users depositing the underlying asset into the lending pool\n   * only lending pools can call this function\n   * @param _account the address receiving the minted tokens\n   * @param _amount the amount of tokens to mint\n   */\n\n  //   Provider only\n  function mintOnDeposit(address _account, uint256 _amount)\n    public\n    poolOnly\n  {\n    //cumulates the balance of the user\n    //   (,\n    //   ,\n    //   uint256 balanceIncrease,\n    //   uint256 index) = cumulateBalanceInternal(_account);\n\n    //    //if the user is redirecting his interest towards someone else,\n    //   //we update the redirected balance of the redirection address by adding the accrued interest\n    //   //and the amount deposited\n    //   updateRedirectedBalanceOfRedirectionAddressInternal(_account, balanceIncrease.add(_amount), 0);\n    if (isInTheQueue(_account) == false) {\n        addBalanceHolder(_account, _amount);\n    }\n\n    //mint an equivalent amount of tokens to cover the new deposit\n    _mint(_account, _amount);\n\n    emit MintOnDeposit(_account, _amount, 0, 0);\n    //balanceIncrease, index);\n  }\n\n  /**\n   * @dev returns the principal balance of the user. The principal balance is the last\n   * updated stored balance, which does not consider the perpetually accruing interest.\n   * @param _user the address of the user\n   * @return the principal balance of the user\n   **/\n  function principalBalanceOf(address _user) external view returns (uint256) {\n    return super.balanceOf(_user);\n  }\n\n   /**\n    * @dev calculates the balance of the user, which is the\n    * principal balance + interest generated by the principal balance + interest generated by the redirected balance\n    * @param _user the user for which the balance is being calculated\n    * @return the total balance of the user\n    **/\n    function balanceOf(address _user) public override view returns(uint256) {\n        return queue[_user].amount;\n    }\n\n  //  /**\n  //     * @dev calculates the total supply of the specific aToken\n  //     * since the balance of every single user increases over time, the total supply\n  //     * does that too.\n  //     * @return the current total supply\n  //     **/\n  //     function totalSupply() public override virtual view returns(uint256) {\n\n  //         uint256 currentSupplyPrincipal = super.totalSupply();\n\n  //         if(currentSupplyPrincipal == 0){\n  //             return 0;\n  //         }\n\n  //         return currentSupplyPrincipal;\n  //             // .wadToRay()\n  //             // .rayMul(core.getReserveNormalizedIncome(underlyingAssetAddress))\n  //             // .rayToWad();\n  //     }\n}\n",
  "sourcePath": "/Users/mikhail/Coding/jucifi/contracts/token/VToken.sol",
  "compiler": {
    "name": "solc",
    "version": "0.6.10+commit.00c0fcaf.Emscripten.clang"
  },
  "schemaVersion": "3.2.5",
  "updatedAt": "2020-10-16T20:57:39.851Z",
  "devdoc": {
    "methods": {
      "allowance(address,address)": {
        "details": "See {IERC20-allowance}."
      },
      "approve(address,uint256)": {
        "details": "See {IERC20-approve}. Requirements: - `spender` cannot be the zero address."
      },
      "balanceOf(address)": {
        "details": "calculates the balance of the user, which is the principal balance + interest generated by the principal balance + interest generated by the redirected balance",
        "params": {
          "_user": "the user for which the balance is being calculated"
        },
        "returns": {
          "_0": "the total balance of the user*"
        }
      },
      "decimals()": {
        "details": "Returns the number of decimals used to get its user representation. For example, if `decimals` equals `2`, a balance of `505` tokens should be displayed to a user as `5,05` (`505 / 10 ** 2`). Tokens usually opt for a value of 18, imitating the relationship between Ether and Wei. This is the value {ERC20} uses, unless {_setupDecimals} is called. NOTE: This information is only used for _display_ purposes: it in no way affects any of the arithmetic of the contract, including {IERC20-balanceOf} and {IERC20-transfer}."
      },
      "decreaseAllowance(address,uint256)": {
        "details": "Atomically decreases the allowance granted to `spender` by the caller. This is an alternative to {approve} that can be used as a mitigation for problems described in {IERC20-approve}. Emits an {Approval} event indicating the updated allowance. Requirements: - `spender` cannot be the zero address. - `spender` must have allowance for the caller of at least `subtractedValue`."
      },
      "increaseAllowance(address,uint256)": {
        "details": "Atomically increases the allowance granted to `spender` by the caller. This is an alternative to {approve} that can be used as a mitigation for problems described in {IERC20-approve}. Emits an {Approval} event indicating the updated allowance. Requirements: - `spender` cannot be the zero address."
      },
      "mintOnDeposit(address,uint256)": {
        "details": "mints token in the event of users depositing the underlying asset into the lending pool only lending pools can call this function",
        "params": {
          "_account": "the address receiving the minted tokens",
          "_amount": "the amount of tokens to mint"
        }
      },
      "name()": {
        "details": "Returns the name of the token."
      },
      "principalBalanceOf(address)": {
        "details": "returns the principal balance of the user. The principal balance is the last updated stored balance, which does not consider the perpetually accruing interest.",
        "params": {
          "_user": "the address of the user"
        },
        "returns": {
          "_0": "the principal balance of the user*"
        }
      },
      "symbol()": {
        "details": "Returns the symbol of the token, usually a shorter version of the name."
      },
      "totalSupply()": {
        "details": "See {IERC20-totalSupply}."
      },
      "transfer(address,uint256)": {
        "details": "See {IERC20-transfer}. Requirements: - `recipient` cannot be the zero address. - the caller must have a balance of at least `amount`."
      },
      "transferFrom(address,address,uint256)": {
        "details": "See {IERC20-transferFrom}. Emits an {Approval} event indicating the updated allowance. This is not required by the EIP. See the note at the beginning of {ERC20}; Requirements: - `sender` and `recipient` cannot be the zero address. - `sender` must have a balance of at least `amount`. - the caller must have allowance for ``sender``'s tokens of at least `amount`."
      }
    }
  },
  "userdoc": {
    "methods": {}
  }
}