{
  "contractName": "VToken",
  "abi": [
    {
      "inputs": [
        {
          "internalType": "address",
          "name": "_pool",
          "type": "address"
        },
        {
          "internalType": "address",
          "name": "_underlyingAsset",
          "type": "address"
        },
        {
          "internalType": "uint8",
          "name": "_underlyingAssetDecimals",
          "type": "uint8"
        },
        {
          "internalType": "string",
          "name": "_name",
          "type": "string"
        },
        {
          "internalType": "string",
          "name": "_symbol",
          "type": "string"
        }
      ],
      "stateMutability": "nonpayable",
      "type": "constructor"
    },
    {
      "anonymous": false,
      "inputs": [
        {
          "indexed": true,
          "internalType": "address",
          "name": "owner",
          "type": "address"
        },
        {
          "indexed": true,
          "internalType": "address",
          "name": "spender",
          "type": "address"
        },
        {
          "indexed": false,
          "internalType": "uint256",
          "name": "value",
          "type": "uint256"
        }
      ],
      "name": "Approval",
      "type": "event"
    },
    {
      "anonymous": false,
      "inputs": [
        {
          "indexed": true,
          "internalType": "address",
          "name": "_from",
          "type": "address"
        },
        {
          "indexed": false,
          "internalType": "uint256",
          "name": "_value",
          "type": "uint256"
        },
        {
          "indexed": false,
          "internalType": "uint256",
          "name": "_fromBalanceIncrease",
          "type": "uint256"
        },
        {
          "indexed": false,
          "internalType": "uint256",
          "name": "_fromIndex",
          "type": "uint256"
        }
      ],
      "name": "MintOnDeposit",
      "type": "event"
    },
    {
      "anonymous": false,
      "inputs": [
        {
          "indexed": true,
          "internalType": "address",
          "name": "from",
          "type": "address"
        },
        {
          "indexed": true,
          "internalType": "address",
          "name": "to",
          "type": "address"
        },
        {
          "indexed": false,
          "internalType": "uint256",
          "name": "value",
          "type": "uint256"
        }
      ],
      "name": "Transfer",
      "type": "event"
    },
    {
      "inputs": [],
      "name": "UINT_MAX_VALUE",
      "outputs": [
        {
          "internalType": "uint256",
          "name": "",
          "type": "uint256"
        }
      ],
      "stateMutability": "view",
      "type": "function"
    },
    {
      "inputs": [
        {
          "internalType": "address",
          "name": "owner",
          "type": "address"
        },
        {
          "internalType": "address",
          "name": "spender",
          "type": "address"
        }
      ],
      "name": "allowance",
      "outputs": [
        {
          "internalType": "uint256",
          "name": "",
          "type": "uint256"
        }
      ],
      "stateMutability": "view",
      "type": "function"
    },
    {
      "inputs": [
        {
          "internalType": "address",
          "name": "spender",
          "type": "address"
        },
        {
          "internalType": "uint256",
          "name": "amount",
          "type": "uint256"
        }
      ],
      "name": "approve",
      "outputs": [
        {
          "internalType": "bool",
          "name": "",
          "type": "bool"
        }
      ],
      "stateMutability": "nonpayable",
      "type": "function"
    },
    {
      "inputs": [],
      "name": "decimals",
      "outputs": [
        {
          "internalType": "uint8",
          "name": "",
          "type": "uint8"
        }
      ],
      "stateMutability": "view",
      "type": "function"
    },
    {
      "inputs": [
        {
          "internalType": "address",
          "name": "spender",
          "type": "address"
        },
        {
          "internalType": "uint256",
          "name": "subtractedValue",
          "type": "uint256"
        }
      ],
      "name": "decreaseAllowance",
      "outputs": [
        {
          "internalType": "bool",
          "name": "",
          "type": "bool"
        }
      ],
      "stateMutability": "nonpayable",
      "type": "function"
    },
    {
      "inputs": [
        {
          "internalType": "address",
          "name": "spender",
          "type": "address"
        },
        {
          "internalType": "uint256",
          "name": "addedValue",
          "type": "uint256"
        }
      ],
      "name": "increaseAllowance",
      "outputs": [
        {
          "internalType": "bool",
          "name": "",
          "type": "bool"
        }
      ],
      "stateMutability": "nonpayable",
      "type": "function"
    },
    {
      "inputs": [],
      "name": "name",
      "outputs": [
        {
          "internalType": "string",
          "name": "",
          "type": "string"
        }
      ],
      "stateMutability": "view",
      "type": "function"
    },
    {
      "inputs": [],
      "name": "symbol",
      "outputs": [
        {
          "internalType": "string",
          "name": "",
          "type": "string"
        }
      ],
      "stateMutability": "view",
      "type": "function"
    },
    {
      "inputs": [],
      "name": "totalSupply",
      "outputs": [
        {
          "internalType": "uint256",
          "name": "",
          "type": "uint256"
        }
      ],
      "stateMutability": "view",
      "type": "function"
    },
    {
      "inputs": [
        {
          "internalType": "address",
          "name": "recipient",
          "type": "address"
        },
        {
          "internalType": "uint256",
          "name": "amount",
          "type": "uint256"
        }
      ],
      "name": "transfer",
      "outputs": [
        {
          "internalType": "bool",
          "name": "",
          "type": "bool"
        }
      ],
      "stateMutability": "nonpayable",
      "type": "function"
    },
    {
      "inputs": [
        {
          "internalType": "address",
          "name": "sender",
          "type": "address"
        },
        {
          "internalType": "address",
          "name": "recipient",
          "type": "address"
        },
        {
          "internalType": "uint256",
          "name": "amount",
          "type": "uint256"
        }
      ],
      "name": "transferFrom",
      "outputs": [
        {
          "internalType": "bool",
          "name": "",
          "type": "bool"
        }
      ],
      "stateMutability": "nonpayable",
      "type": "function"
    },
    {
      "inputs": [
        {
          "internalType": "address",
          "name": "_holder",
          "type": "address"
        },
        {
          "internalType": "uint256",
          "name": "_amount",
          "type": "uint256"
        }
      ],
      "name": "addBalanceHolder",
      "outputs": [],
      "stateMutability": "nonpayable",
      "type": "function"
    },
    {
      "inputs": [
        {
          "internalType": "address",
          "name": "_account",
          "type": "address"
        },
        {
          "internalType": "uint256",
          "name": "_amount",
          "type": "uint256"
        }
      ],
      "name": "mintOnDeposit",
      "outputs": [],
      "stateMutability": "nonpayable",
      "type": "function"
    },
    {
      "inputs": [
        {
          "internalType": "uint256",
          "name": "_amount",
          "type": "uint256"
        }
      ],
      "name": "redeem",
      "outputs": [],
      "stateMutability": "nonpayable",
      "type": "function"
    },
    {
      "inputs": [
        {
          "internalType": "address",
          "name": "_account",
          "type": "address"
        },
        {
          "internalType": "uint256",
          "name": "_amount",
          "type": "uint256"
        }
      ],
      "name": "burnOnRedeem",
      "outputs": [],
      "stateMutability": "nonpayable",
      "type": "function"
    },
    {
      "inputs": [
        {
          "internalType": "address",
          "name": "_user",
          "type": "address"
        }
      ],
      "name": "principalBalanceOf",
      "outputs": [
        {
          "internalType": "uint256",
          "name": "",
          "type": "uint256"
        }
      ],
      "stateMutability": "view",
      "type": "function"
    },
    {
      "inputs": [
        {
          "internalType": "address",
          "name": "_user",
          "type": "address"
        }
      ],
      "name": "balanceOf",
      "outputs": [
        {
          "internalType": "uint256",
          "name": "",
          "type": "uint256"
        }
      ],
      "stateMutability": "view",
      "type": "function"
    }
  ],
  "bytecode": "0x60806040523480156200001157600080fd5b50604051620022e2380380620022e2833981810160405260a08110156200003757600080fd5b81019080805190602001909291908051906020019092919080519060200190929190805160405193929190846401000000008211156200007657600080fd5b838201915060208201858111156200008d57600080fd5b8251866001820283011164010000000082111715620000ab57600080fd5b8083526020830192505050908051906020019080838360005b83811015620000e1578082015181840152602081019050620000c4565b50505050905090810190601f1680156200010f5780820380516001836020036101000a031916815260200191505b50604052602001805160405193929190846401000000008211156200013357600080fd5b838201915060208201858111156200014a57600080fd5b82518660018202830111640100000000821117156200016857600080fd5b8083526020830192505050908051906020019080838360005b838110156200019e57808201518184015260208101905062000181565b50505050905090810190601f168015620001cc5780820380516001836020036101000a031916815260200191505b5060405250505081818160039080519060200190620001ed929190620002b2565b50806004908051906020019062000206929190620002b2565b506012600560006101000a81548160ff021916908360ff160217905550505084600560016101000a81548173ffffffffffffffffffffffffffffffffffffffff021916908373ffffffffffffffffffffffffffffffffffffffff16021790555083600660006101000a81548173ffffffffffffffffffffffffffffffffffffffff021916908373ffffffffffffffffffffffffffffffffffffffff160217905550505050505062000361565b828054600181600116156101000203166002900490600052602060002090601f016020900481019282601f10620002f557805160ff191683800117855562000326565b8280016001018555821562000326579182015b828111156200032557825182559160200191906001019062000308565b5b50905062000335919062000339565b5090565b6200035e91905b808211156200035a57600081600090555060010162000340565b5090565b90565b611f7180620003716000396000f3fe608060405234801561001057600080fd5b506004361061010b5760003560e01c806370a08231116100a2578063a9059cbb11610071578063a9059cbb14610552578063c634dfaa146105b8578063d0fc81d214610610578063db006a751461062e578063dd62ed3e1461065c5761010b565b806370a08231146103c357806394362e8b1461041b57806395d89b4114610469578063a457c2d7146104ec5761010b565b80632ddac32f116100de5780632ddac32f1461029d578063313ce567146102eb578063395093511461030f5780633dd4c853146103755761010b565b806306fdde0314610110578063095ea7b31461019357806318160ddd146101f957806323b872dd14610217575b600080fd5b6101186106d4565b6040518080602001828103825283818151815260200191508051906020019080838360005b8381101561015857808201518184015260208101905061013d565b50505050905090810190601f1680156101855780820380516001836020036101000a031916815260200191505b509250505060405180910390f35b6101df600480360360408110156101a957600080fd5b81019080803573ffffffffffffffffffffffffffffffffffffffff16906020019092919080359060200190929190505050610776565b604051808215151515815260200191505060405180910390f35b610201610794565b6040518082815260200191505060405180910390f35b6102836004803603606081101561022d57600080fd5b81019080803573ffffffffffffffffffffffffffffffffffffffff169060200190929190803573ffffffffffffffffffffffffffffffffffffffff1690602001909291908035906020019092919050505061079e565b604051808215151515815260200191505060405180910390f35b6102e9600480360360408110156102b357600080fd5b81019080803573ffffffffffffffffffffffffffffffffffffffff16906020019092919080359060200190929190505050610877565b005b6102f3610aea565b604051808260ff1660ff16815260200191505060405180910390f35b61035b6004803603604081101561032557600080fd5b81019080803573ffffffffffffffffffffffffffffffffffffffff16906020019092919080359060200190929190505050610b01565b604051808215151515815260200191505060405180910390f35b6103c16004803603604081101561038b57600080fd5b81019080803573ffffffffffffffffffffffffffffffffffffffff16906020019092919080359060200190929190505050610bb4565b005b610405600480360360208110156103d957600080fd5b81019080803573ffffffffffffffffffffffffffffffffffffffff169060200190929190505050610c68565b6040518082815260200191505060405180910390f35b6104676004803603604081101561043157600080fd5b81019080803573ffffffffffffffffffffffffffffffffffffffff16906020019092919080359060200190929190505050610cb4565b005b610471610de7565b6040518080602001828103825283818151815260200191508051906020019080838360005b838110156104b1578082015181840152602081019050610496565b50505050905090810190601f1680156104de5780820380516001836020036101000a031916815260200191505b509250505060405180910390f35b6105386004803603604081101561050257600080fd5b81019080803573ffffffffffffffffffffffffffffffffffffffff16906020019092919080359060200190929190505050610e89565b604051808215151515815260200191505060405180910390f35b61059e6004803603604081101561056857600080fd5b81019080803573ffffffffffffffffffffffffffffffffffffffff16906020019092919080359060200190929190505050610f56565b604051808215151515815260200191505060405180910390f35b6105fa600480360360208110156105ce57600080fd5b81019080803573ffffffffffffffffffffffffffffffffffffffff169060200190929190505050610f74565b6040518082815260200191505060405180910390f35b610618610f86565b6040518082815260200191505060405180910390f35b61065a6004803603602081101561064457600080fd5b8101908080359060200190929190505050610faa565b005b6106be6004803603604081101561067257600080fd5b81019080803573ffffffffffffffffffffffffffffffffffffffff169060200190929190803573ffffffffffffffffffffffffffffffffffffffff1690602001909291905050506111dd565b6040518082815260200191505060405180910390f35b606060038054600181600116156101000203166002900480601f01602080910402602001604051908101604052809291908181526020018280546001816001161561010002031660029004801561076c5780601f106107415761010080835404028352916020019161076c565b820191906000526020600020905b81548152906001019060200180831161074f57829003601f168201915b5050505050905090565b600061078a610783611264565b848461126c565b6001905092915050565b6000600254905090565b60006107ab848484611463565b61086c846107b7611264565b61086785604051806060016040528060288152602001611e6060289139600160008b73ffffffffffffffffffffffffffffffffffffffff1673ffffffffffffffffffffffffffffffffffffffff168152602001908152602001600020600061081d611264565b73ffffffffffffffffffffffffffffffffffffffff1673ffffffffffffffffffffffffffffffffffffffff168152602001908152602001600020546117249092919063ffffffff16565b61126c565b600190509392505050565b61087f611d28565b6040518060a00160405280600073ffffffffffffffffffffffffffffffffffffffff168152602001600073ffffffffffffffffffffffffffffffffffffffff1681526020018473ffffffffffffffffffffffffffffffffffffffff168152602001838152602001600064ffffffffff168152509050600073ffffffffffffffffffffffffffffffffffffffff16600760009054906101000a900473ffffffffffffffffffffffffffffffffffffffff1673ffffffffffffffffffffffffffffffffffffffff1614610a5257600860009054906101000a900473ffffffffffffffffffffffffffffffffffffffff16816000019073ffffffffffffffffffffffffffffffffffffffff16908173ffffffffffffffffffffffffffffffffffffffff16815250506000600a6000600860009054906101000a900473ffffffffffffffffffffffffffffffffffffffff1673ffffffffffffffffffffffffffffffffffffffff1673ffffffffffffffffffffffffffffffffffffffff1681526020019081526020016000209050838160010160006101000a81548173ffffffffffffffffffffffffffffffffffffffff021916908373ffffffffffffffffffffffffffffffffffffffff16021790555050610a94565b82600760006101000a81548173ffffffffffffffffffffffffffffffffffffffff021916908373ffffffffffffffffffffffffffffffffffffffff1602179055505b82600860006101000a81548173ffffffffffffffffffffffffffffffffffffffff021916908373ffffffffffffffffffffffffffffffffffffffff16021790555081600960008282540192505081905550505050565b6000600560009054906101000a900460ff16905090565b6000610baa610b0e611264565b84610ba58560016000610b1f611264565b73ffffffffffffffffffffffffffffffffffffffff1673ffffffffffffffffffffffffffffffffffffffff16815260200190815260200160002060008973ffffffffffffffffffffffffffffffffffffffff1673ffffffffffffffffffffffffffffffffffffffff168152602001908152602001600020546117e490919063ffffffff16565b61126c565b6001905092915050565b600560019054906101000a900473ffffffffffffffffffffffffffffffffffffffff1673ffffffffffffffffffffffffffffffffffffffff163373ffffffffffffffffffffffffffffffffffffffff1614610c5a576040517f08c379a0000000000000000000000000000000000000000000000000000000008152600401808060200182810382526025815260200180611e886025913960400191505060405180910390fd5b610c64828261186c565b5050565b6000600a60008373ffffffffffffffffffffffffffffffffffffffff1673ffffffffffffffffffffffffffffffffffffffff168152602001908152602001600020600301549050919050565b600560019054906101000a900473ffffffffffffffffffffffffffffffffffffffff1673ffffffffffffffffffffffffffffffffffffffff163373ffffffffffffffffffffffffffffffffffffffff1614610d5a576040517f08c379a0000000000000000000000000000000000000000000000000000000008152600401808060200182810382526025815260200180611e886025913960400191505060405180910390fd5b60001515610d6783611a30565b15151415610d7a57610d798282610877565b5b610d848282611aca565b8173ffffffffffffffffffffffffffffffffffffffff167fbe7799898ca2d813ff902b487c1b434ab45b47edd8f38b77ad5e99aae8341b7a8260008060405180848152602001838152602001828152602001935050505060405180910390a25050565b606060048054600181600116156101000203166002900480601f016020809104026020016040519081016040528092919081815260200182805460018160011615610100020316600290048015610e7f5780601f10610e5457610100808354040283529160200191610e7f565b820191906000526020600020905b815481529060010190602001808311610e6257829003601f168201915b5050505050905090565b6000610f4c610e96611264565b84610f4785604051806060016040528060258152602001611f176025913960016000610ec0611264565b73ffffffffffffffffffffffffffffffffffffffff1673ffffffffffffffffffffffffffffffffffffffff16815260200190815260200160002060008a73ffffffffffffffffffffffffffffffffffffffff1673ffffffffffffffffffffffffffffffffffffffff168152602001908152602001600020546117249092919063ffffffff16565b61126c565b6001905092915050565b6000610f6a610f63611264565b8484611463565b6001905092915050565b6000610f7f82611c91565b9050919050565b7fffffffffffffffffffffffffffffffffffffffffffffffffffffffffffffffff81565b60008111611020576040517f08c379a00000000000000000000000000000000000000000000000000000000081526004018080602001828103825260208152602001807f416d6f756e7420746f2072656465656d206e6565647320746f206265203e203081525060200191505060405180910390fd5b6000819050600061103033610c68565b90507fffffffffffffffffffffffffffffffffffffffffffffffffffffffffffffffff83141561105e578091505b808211156110b7576040517f08c379a0000000000000000000000000000000000000000000000000000000008152600401808060200182810382526032815260200180611de66032913960400191505060405180910390fd5b6110c1338361186c565b600560019054906101000a900473ffffffffffffffffffffffffffffffffffffffff1673ffffffffffffffffffffffffffffffffffffffff1663935642cf600660009054906101000a900473ffffffffffffffffffffffffffffffffffffffff1633856040518463ffffffff1660e01b8152600401808473ffffffffffffffffffffffffffffffffffffffff1673ffffffffffffffffffffffffffffffffffffffff1681526020018373ffffffffffffffffffffffffffffffffffffffff1673ffffffffffffffffffffffffffffffffffffffff1681526020018281526020019350505050600060405180830381600087803b1580156111c057600080fd5b505af11580156111d4573d6000803e3d6000fd5b50505050505050565b6000600160008473ffffffffffffffffffffffffffffffffffffffff1673ffffffffffffffffffffffffffffffffffffffff16815260200190815260200160002060008373ffffffffffffffffffffffffffffffffffffffff1673ffffffffffffffffffffffffffffffffffffffff16815260200190815260200160002054905092915050565b600033905090565b600073ffffffffffffffffffffffffffffffffffffffff168373ffffffffffffffffffffffffffffffffffffffff1614156112f2576040517f08c379a0000000000000000000000000000000000000000000000000000000008152600401808060200182810382526024815260200180611ef36024913960400191505060405180910390fd5b600073ffffffffffffffffffffffffffffffffffffffff168273ffffffffffffffffffffffffffffffffffffffff161415611378576040517f08c379a0000000000000000000000000000000000000000000000000000000008152600401808060200182810382526022815260200180611e186022913960400191505060405180910390fd5b80600160008573ffffffffffffffffffffffffffffffffffffffff1673ffffffffffffffffffffffffffffffffffffffff16815260200190815260200160002060008473ffffffffffffffffffffffffffffffffffffffff1673ffffffffffffffffffffffffffffffffffffffff168152602001908152602001600020819055508173ffffffffffffffffffffffffffffffffffffffff168373ffffffffffffffffffffffffffffffffffffffff167f8c5be1e5ebec7d5bd14f71427d1e84f3dd0314c0f7b2291e5b200ac8c7c3b925836040518082815260200191505060405180910390a3505050565b600073ffffffffffffffffffffffffffffffffffffffff168373ffffffffffffffffffffffffffffffffffffffff1614156114e9576040517f08c379a0000000000000000000000000000000000000000000000000000000008152600401808060200182810382526025815260200180611ece6025913960400191505060405180910390fd5b600073ffffffffffffffffffffffffffffffffffffffff168273ffffffffffffffffffffffffffffffffffffffff16141561156f576040517f08c379a0000000000000000000000000000000000000000000000000000000008152600401808060200182810382526023815260200180611da16023913960400191505060405180910390fd5b61157a838383611cd9565b6115e581604051806060016040528060268152602001611e3a602691396000808773ffffffffffffffffffffffffffffffffffffffff1673ffffffffffffffffffffffffffffffffffffffff168152602001908152602001600020546117249092919063ffffffff16565b6000808573ffffffffffffffffffffffffffffffffffffffff1673ffffffffffffffffffffffffffffffffffffffff16815260200190815260200160002081905550611678816000808573ffffffffffffffffffffffffffffffffffffffff1673ffffffffffffffffffffffffffffffffffffffff168152602001908152602001600020546117e490919063ffffffff16565b6000808473ffffffffffffffffffffffffffffffffffffffff1673ffffffffffffffffffffffffffffffffffffffff168152602001908152602001600020819055508173ffffffffffffffffffffffffffffffffffffffff168373ffffffffffffffffffffffffffffffffffffffff167fddf252ad1be2c89b69c2b068fc378daa952ba7f163c4a11628f55a4df523b3ef836040518082815260200191505060405180910390a3505050565b60008383111582906117d1576040517f08c379a00000000000000000000000000000000000000000000000000000000081526004018080602001828103825283818151815260200191508051906020019080838360005b8381101561179657808201518184015260208101905061177b565b50505050905090810190601f1680156117c35780820380516001836020036101000a031916815260200191505b509250505060405180910390fd5b5060008385039050809150509392505050565b600080828401905083811015611862576040517f08c379a000000000000000000000000000000000000000000000000000000000815260040180806020018281038252601b8152602001807f536166654d6174683a206164646974696f6e206f766572666c6f77000000000081525060200191505060405180910390fd5b8091505092915050565b600073ffffffffffffffffffffffffffffffffffffffff168273ffffffffffffffffffffffffffffffffffffffff1614156118f2576040517f08c379a0000000000000000000000000000000000000000000000000000000008152600401808060200182810382526021815260200180611ead6021913960400191505060405180910390fd5b6118fe82600083611cd9565b61196981604051806060016040528060228152602001611dc4602291396000808673ffffffffffffffffffffffffffffffffffffffff1673ffffffffffffffffffffffffffffffffffffffff168152602001908152602001600020546117249092919063ffffffff16565b6000808473ffffffffffffffffffffffffffffffffffffffff1673ffffffffffffffffffffffffffffffffffffffff168152602001908152602001600020819055506119c081600254611cde90919063ffffffff16565b600281905550600073ffffffffffffffffffffffffffffffffffffffff168273ffffffffffffffffffffffffffffffffffffffff167fddf252ad1be2c89b69c2b068fc378daa952ba7f163c4a11628f55a4df523b3ef836040518082815260200191505060405180910390a35050565b60008073ffffffffffffffffffffffffffffffffffffffff16600a60008473ffffffffffffffffffffffffffffffffffffffff1673ffffffffffffffffffffffffffffffffffffffff16815260200190815260200160002060020160009054906101000a900473ffffffffffffffffffffffffffffffffffffffff1673ffffffffffffffffffffffffffffffffffffffff16149050919050565b600073ffffffffffffffffffffffffffffffffffffffff168273ffffffffffffffffffffffffffffffffffffffff161415611b6d576040517f08c379a000000000000000000000000000000000000000000000000000000000815260040180806020018281038252601f8152602001807f45524332303a206d696e7420746f20746865207a65726f20616464726573730081525060200191505060405180910390fd5b611b7960008383611cd9565b611b8e816002546117e490919063ffffffff16565b600281905550611be5816000808573ffffffffffffffffffffffffffffffffffffffff1673ffffffffffffffffffffffffffffffffffffffff168152602001908152602001600020546117e490919063ffffffff16565b6000808473ffffffffffffffffffffffffffffffffffffffff1673ffffffffffffffffffffffffffffffffffffffff168152602001908152602001600020819055508173ffffffffffffffffffffffffffffffffffffffff16600073ffffffffffffffffffffffffffffffffffffffff167fddf252ad1be2c89b69c2b068fc378daa952ba7f163c4a11628f55a4df523b3ef836040518082815260200191505060405180910390a35050565b60008060008373ffffffffffffffffffffffffffffffffffffffff1673ffffffffffffffffffffffffffffffffffffffff168152602001908152602001600020549050919050565b505050565b6000611d2083836040518060400160405280601e81526020017f536166654d6174683a207375627472616374696f6e206f766572666c6f770000815250611724565b905092915050565b6040518060a00160405280600073ffffffffffffffffffffffffffffffffffffffff168152602001600073ffffffffffffffffffffffffffffffffffffffff168152602001600073ffffffffffffffffffffffffffffffffffffffff16815260200160008152602001600064ffffffffff168152509056fe45524332303a207472616e7366657220746f20746865207a65726f206164647265737345524332303a206275726e20616d6f756e7420657863656564732062616c616e6365557365722063616e6e6f742072656465656d206d6f7265207468616e2074686520617661696c61626c652062616c616e636545524332303a20617070726f766520746f20746865207a65726f206164647265737345524332303a207472616e7366657220616d6f756e7420657863656564732062616c616e636545524332303a207472616e7366657220616d6f756e74206578636565647320616c6c6f77616e63654f6e6c792070726f76696465727320636f756c642063616c6c2074686973206d6574686f6445524332303a206275726e2066726f6d20746865207a65726f206164647265737345524332303a207472616e736665722066726f6d20746865207a65726f206164647265737345524332303a20617070726f76652066726f6d20746865207a65726f206164647265737345524332303a2064656372656173656420616c6c6f77616e63652062656c6f77207a65726fa2646970667358221220c82c2b02646ab4a8f2649bb75a2cade657d4bc802c86b80ab707d8d0a590541e64736f6c634300060a0033",
  "immutableReferences": {},
  "source": "// SPDX-License-Identifier: agpl-3.0\npragma solidity ^0.6.10;\nimport \"./ERC20.sol\";\nimport \"../core/Pool.sol\";\n\n// Vitamin Token\ncontract VToken is ERC20 {\n  // Balance holders queue\n\n  struct QueueItem {\n    address previous;\n    address next;\n    address balanceHolder;\n    uint256 amount;\n    uint40 startingAssetUsage;\n  }\n\n  Pool pool;\n  address underlyingAssetAddress;\n\n\n  address private firstItem;\n  address private lastItem;\n  uint256 totalLiquidity;\n\n  mapping(address => QueueItem) private queue;\n\n  uint256 public constant UINT_MAX_VALUE = uint256(-1);\n\n  /**\n   * @dev emitted after the mint action\n   * @param _from the address performing the mint\n   * @param _value the amount to be minted\n   * @param _fromBalanceIncrease the cumulated balance since the last update of the user\n   * @param _fromIndex the last index of the user\n   **/\n\n  event MintOnDeposit(\n    address indexed _from,\n    uint256 _value,\n    uint256 _fromBalanceIncrease,\n    uint256 _fromIndex\n  );\n\n  modifier poolOnly {\n    require(\n      msg.sender == address(pool),\n      \"Only providers could call this method\"\n    );\n    _;\n  }\n\n  constructor(\n    // LendingPoolAddressesProvider _addressesProvider,\n    address _pool,\n    address _underlyingAsset,\n    uint8 _underlyingAssetDecimals,\n    string memory _name,\n    string memory _symbol\n  ) public ERC20(_name, _symbol) {\n    pool = Pool(_pool);\n    // addressesProvider = _addressesProvider;\n    // core = LendingPoolCore(addressesProvider.getLendingPoolCore());\n    // pool = LendingPool(addressesProvider.getLendingPool());\n    // dataProvider = LendingPoolDataProvider(addressesProvider.getLendingPoolDataProvider());\n    underlyingAssetAddress = _underlyingAsset;\n  }\n\n  function isInTheQueue(address _holder) internal view returns (bool) {\n    return queue[_holder].balanceHolder == address(0);\n  }\n\n  function addBalanceHolder(address _holder, uint256 _amount) public {\n    QueueItem memory newItem = QueueItem({\n      previous: address(0),\n      next: address(0),\n      balanceHolder: _holder,\n      amount: _amount,\n      startingAssetUsage: 0\n    });\n\n    if (firstItem != address(0)) {\n      newItem.previous = lastItem;\n      QueueItem storage previousItem = queue[lastItem];\n      previousItem.next = _holder;\n    } else {\n      firstItem = _holder;\n    }\n    lastItem = _holder;\n    totalLiquidity += _amount;\n  }\n\n  function updateQueueAssetsUsage(uint256 _amount) internal {}\n\n  /**\n   * @dev mints token in the event of users depositing the underlying asset into the lending pool\n   * only lending pools can call this function\n   * @param _account the address receiving the minted tokens\n   * @param _amount the amount of tokens to mint\n   */\n\n  //   Provider only\n  function mintOnDeposit(address _account, uint256 _amount) public poolOnly {\n    //cumulates the balance of the user\n    //   (,\n    //   ,\n    //   uint256 balanceIncrease,\n    //   uint256 index) = cumulateBalanceInternal(_account);\n\n    //    //if the user is redirecting his interest towards someone else,\n    //   //we update the redirected balance of the redirection address by adding the accrued interest\n    //   //and the amount deposited\n    //   updateRedirectedBalanceOfRedirectionAddressInternal(_account, balanceIncrease.add(_amount), 0);\n    if (isInTheQueue(_account) == false) {\n      addBalanceHolder(_account, _amount);\n    }\n\n    //mint an equivalent amount of tokens to cover the new deposit\n    _mint(_account, _amount);\n\n    emit MintOnDeposit(_account, _amount, 0, 0);\n    //balanceIncrease, index);\n  }\n\n  function redeem(uint256 _amount) external {\n    require(_amount > 0, \"Amount to redeem needs to be > 0\");\n    uint256 amountToRedeem = _amount;\n\n    uint256 currentBalance = balanceOf(msg.sender);\n    //if amount is equal to uint(-1), the user wants to redeem everything\n    if (_amount == UINT_MAX_VALUE) {\n      amountToRedeem = currentBalance;\n    }\n\n    require(\n      amountToRedeem <= currentBalance,\n      \"User cannot redeem more than the available balance\"\n    );\n\n    // burns tokens equivalent to the amount requested\n    _burn(msg.sender, amountToRedeem);\n\n    // Remove from queue of balance equals zero\n    // executes redeem of the underlying asset\n    pool.redeemUnderlying(\n      underlyingAssetAddress,\n      msg.sender,\n      amountToRedeem\n      // currentBalance.sub(amountToRedeem)\n    );\n\n    // emit Redeem(msg.sender, amountToRedeem, balanceIncrease, userIndexReset ? 0 : index);\n  }\n\n  function burnOnRedeem(address _account, uint256 _amount) public poolOnly {\n    _burn(_account, _amount);\n  }\n\n  /**\n   * @dev returns the principal balance of the user. The principal balance is the last\n   * updated stored balance, which does not consider the perpetually accruing interest.\n   * @param _user the address of the user\n   * @return the principal balance of the user\n   **/\n  function principalBalanceOf(address _user) external view returns (uint256) {\n    return super.balanceOf(_user);\n  }\n\n  /**\n   * @dev calculates the balance of the user, which is the\n   * principal balance + interest generated by the principal balance + interest generated by the redirected balance\n   * @param _user the user for which the balance is being calculated\n   * @return the total balance of the user\n   **/\n  function balanceOf(address _user) public override view returns (uint256) {\n    return queue[_user].amount;\n  }\n\n  //  /**\n  //     * @dev calculates the total supply of the specific aToken\n  //     * since the balance of every single user increases over time, the total supply\n  //     * does that too.\n  //     * @return the current total supply\n  //     **/\n  //     function totalSupply() public override virtual view returns(uint256) {\n\n  //         uint256 currentSupplyPrincipal = super.totalSupply();\n\n  //         if(currentSupplyPrincipal == 0){\n  //             return 0;\n  //         }\n\n  //         return currentSupplyPrincipal;\n  //             // .wadToRay()\n  //             // .rayMul(core.getReserveNormalizedIncome(underlyingAssetAddress))\n  //             // .rayToWad();\n  //     }\n}\n",
  "sourcePath": "/Users/mikhail/Coding/jucifi/contracts/token/VToken.sol",
  "compiler": {
    "name": "solc",
    "version": "0.6.10+commit.00c0fcaf.Emscripten.clang"
  },
  "schemaVersion": "3.2.5",
  "updatedAt": "2020-10-17T20:12:41.121Z",
  "devdoc": {
    "methods": {
      "allowance(address,address)": {
        "details": "See {IERC20-allowance}."
      },
      "approve(address,uint256)": {
        "details": "See {IERC20-approve}. Requirements: - `spender` cannot be the zero address."
      },
      "balanceOf(address)": {
        "details": "calculates the balance of the user, which is the principal balance + interest generated by the principal balance + interest generated by the redirected balance",
        "params": {
          "_user": "the user for which the balance is being calculated"
        },
        "returns": {
          "_0": "the total balance of the user*"
        }
      },
      "decimals()": {
        "details": "Returns the number of decimals used to get its user representation. For example, if `decimals` equals `2`, a balance of `505` tokens should be displayed to a user as `5,05` (`505 / 10 ** 2`). Tokens usually opt for a value of 18, imitating the relationship between Ether and Wei. This is the value {ERC20} uses, unless {_setupDecimals} is called. NOTE: This information is only used for _display_ purposes: it in no way affects any of the arithmetic of the contract, including {IERC20-balanceOf} and {IERC20-transfer}."
      },
      "decreaseAllowance(address,uint256)": {
        "details": "Atomically decreases the allowance granted to `spender` by the caller. This is an alternative to {approve} that can be used as a mitigation for problems described in {IERC20-approve}. Emits an {Approval} event indicating the updated allowance. Requirements: - `spender` cannot be the zero address. - `spender` must have allowance for the caller of at least `subtractedValue`."
      },
      "increaseAllowance(address,uint256)": {
        "details": "Atomically increases the allowance granted to `spender` by the caller. This is an alternative to {approve} that can be used as a mitigation for problems described in {IERC20-approve}. Emits an {Approval} event indicating the updated allowance. Requirements: - `spender` cannot be the zero address."
      },
      "mintOnDeposit(address,uint256)": {
        "details": "mints token in the event of users depositing the underlying asset into the lending pool only lending pools can call this function",
        "params": {
          "_account": "the address receiving the minted tokens",
          "_amount": "the amount of tokens to mint"
        }
      },
      "name()": {
        "details": "Returns the name of the token."
      },
      "principalBalanceOf(address)": {
        "details": "returns the principal balance of the user. The principal balance is the last updated stored balance, which does not consider the perpetually accruing interest.",
        "params": {
          "_user": "the address of the user"
        },
        "returns": {
          "_0": "the principal balance of the user*"
        }
      },
      "symbol()": {
        "details": "Returns the symbol of the token, usually a shorter version of the name."
      },
      "totalSupply()": {
        "details": "See {IERC20-totalSupply}."
      },
      "transfer(address,uint256)": {
        "details": "See {IERC20-transfer}. Requirements: - `recipient` cannot be the zero address. - the caller must have a balance of at least `amount`."
      },
      "transferFrom(address,address,uint256)": {
        "details": "See {IERC20-transferFrom}. Emits an {Approval} event indicating the updated allowance. This is not required by the EIP. See the note at the beginning of {ERC20}; Requirements: - `sender` and `recipient` cannot be the zero address. - `sender` must have a balance of at least `amount`. - the caller must have allowance for ``sender``'s tokens of at least `amount`."
      }
    }
  },
  "userdoc": {
    "methods": {}
  }
}